{
  "contractName": "NFTGameToken",
  "abi": [
    {
      "inputs": [],
      "stateMutability": "nonpayable",
      "type": "constructor"
    },
    {
      "anonymous": false,
      "inputs": [
        {
          "indexed": true,
          "internalType": "address",
          "name": "owner",
          "type": "address"
        },
        {
          "indexed": true,
          "internalType": "address",
          "name": "approved",
          "type": "address"
        },
        {
          "indexed": true,
          "internalType": "uint256",
          "name": "tokenId",
          "type": "uint256"
        }
      ],
      "name": "Approval",
      "type": "event"
    },
    {
      "anonymous": false,
      "inputs": [
        {
          "indexed": true,
          "internalType": "address",
          "name": "owner",
          "type": "address"
        },
        {
          "indexed": true,
          "internalType": "address",
          "name": "operator",
          "type": "address"
        },
        {
          "indexed": false,
          "internalType": "bool",
          "name": "approved",
          "type": "bool"
        }
      ],
      "name": "ApprovalForAll",
      "type": "event"
    },
    {
      "anonymous": false,
      "inputs": [
        {
          "indexed": true,
          "internalType": "address",
          "name": "previousOwner",
          "type": "address"
        },
        {
          "indexed": true,
          "internalType": "address",
          "name": "newOwner",
          "type": "address"
        }
      ],
      "name": "OwnershipTransferred",
      "type": "event"
    },
    {
      "anonymous": false,
      "inputs": [
        {
          "indexed": true,
          "internalType": "address",
          "name": "from",
          "type": "address"
        },
        {
          "indexed": true,
          "internalType": "address",
          "name": "to",
          "type": "address"
        },
        {
          "indexed": true,
          "internalType": "uint256",
          "name": "tokenId",
          "type": "uint256"
        }
      ],
      "name": "Transfer",
      "type": "event"
    },
    {
      "inputs": [
        {
          "internalType": "address",
          "name": "to",
          "type": "address"
        },
        {
          "internalType": "uint256",
          "name": "tokenId",
          "type": "uint256"
        }
      ],
      "name": "approve",
      "outputs": [],
      "stateMutability": "nonpayable",
      "type": "function"
    },
    {
      "inputs": [
        {
          "internalType": "address",
          "name": "owner",
          "type": "address"
        }
      ],
      "name": "balanceOf",
      "outputs": [
        {
          "internalType": "uint256",
          "name": "",
          "type": "uint256"
        }
      ],
      "stateMutability": "view",
      "type": "function",
      "constant": true
    },
    {
      "inputs": [
        {
          "internalType": "uint256",
          "name": "tokenId",
          "type": "uint256"
        }
      ],
      "name": "getApproved",
      "outputs": [
        {
          "internalType": "address",
          "name": "",
          "type": "address"
        }
      ],
      "stateMutability": "view",
      "type": "function",
      "constant": true
    },
    {
      "inputs": [
        {
          "internalType": "address",
          "name": "owner",
          "type": "address"
        },
        {
          "internalType": "address",
          "name": "operator",
          "type": "address"
        }
      ],
      "name": "isApprovedForAll",
      "outputs": [
        {
          "internalType": "bool",
          "name": "",
          "type": "bool"
        }
      ],
      "stateMutability": "view",
      "type": "function",
      "constant": true
    },
    {
      "inputs": [],
      "name": "name",
      "outputs": [
        {
          "internalType": "string",
          "name": "",
          "type": "string"
        }
      ],
      "stateMutability": "view",
      "type": "function",
      "constant": true
    },
    {
      "inputs": [],
      "name": "owner",
      "outputs": [
        {
          "internalType": "address",
          "name": "",
          "type": "address"
        }
      ],
      "stateMutability": "view",
      "type": "function",
      "constant": true
    },
    {
      "inputs": [
        {
          "internalType": "uint256",
          "name": "tokenId",
          "type": "uint256"
        }
      ],
      "name": "ownerOf",
      "outputs": [
        {
          "internalType": "address",
          "name": "",
          "type": "address"
        }
      ],
      "stateMutability": "view",
      "type": "function",
      "constant": true
    },
    {
      "inputs": [],
      "name": "renounceOwnership",
      "outputs": [],
      "stateMutability": "nonpayable",
      "type": "function"
    },
    {
      "inputs": [
        {
          "internalType": "address",
          "name": "from",
          "type": "address"
        },
        {
          "internalType": "address",
          "name": "to",
          "type": "address"
        },
        {
          "internalType": "uint256",
          "name": "tokenId",
          "type": "uint256"
        }
      ],
      "name": "safeTransferFrom",
      "outputs": [],
      "stateMutability": "nonpayable",
      "type": "function"
    },
    {
      "inputs": [
        {
          "internalType": "address",
          "name": "from",
          "type": "address"
        },
        {
          "internalType": "address",
          "name": "to",
          "type": "address"
        },
        {
          "internalType": "uint256",
          "name": "tokenId",
          "type": "uint256"
        },
        {
          "internalType": "bytes",
          "name": "_data",
          "type": "bytes"
        }
      ],
      "name": "safeTransferFrom",
      "outputs": [],
      "stateMutability": "nonpayable",
      "type": "function"
    },
    {
      "inputs": [
        {
          "internalType": "address",
          "name": "operator",
          "type": "address"
        },
        {
          "internalType": "bool",
          "name": "approved",
          "type": "bool"
        }
      ],
      "name": "setApprovalForAll",
      "outputs": [],
      "stateMutability": "nonpayable",
      "type": "function"
    },
    {
      "inputs": [
        {
          "internalType": "bytes4",
          "name": "interfaceId",
          "type": "bytes4"
        }
      ],
      "name": "supportsInterface",
      "outputs": [
        {
          "internalType": "bool",
          "name": "",
          "type": "bool"
        }
      ],
      "stateMutability": "view",
      "type": "function",
      "constant": true
    },
    {
      "inputs": [],
      "name": "symbol",
      "outputs": [
        {
          "internalType": "string",
          "name": "",
          "type": "string"
        }
      ],
      "stateMutability": "view",
      "type": "function",
      "constant": true
    },
    {
      "inputs": [
        {
          "internalType": "uint256",
          "name": "tokenId",
          "type": "uint256"
        }
      ],
      "name": "tokenURI",
      "outputs": [
        {
          "internalType": "string",
          "name": "",
          "type": "string"
        }
      ],
      "stateMutability": "view",
      "type": "function",
      "constant": true
    },
    {
      "inputs": [
        {
          "internalType": "address",
          "name": "from",
          "type": "address"
        },
        {
          "internalType": "address",
          "name": "to",
          "type": "address"
        },
        {
          "internalType": "uint256",
          "name": "tokenId",
          "type": "uint256"
        }
      ],
      "name": "transferFrom",
      "outputs": [],
      "stateMutability": "nonpayable",
      "type": "function"
    },
    {
      "inputs": [
        {
          "internalType": "address",
          "name": "newOwner",
          "type": "address"
        }
      ],
      "name": "transferOwnership",
      "outputs": [],
      "stateMutability": "nonpayable",
      "type": "function"
    },
    {
      "inputs": [
        {
          "internalType": "enum NFTGameToken.type_character",
          "name": "_typeCharacter",
          "type": "uint8"
        }
      ],
      "name": "createCharacter",
      "outputs": [],
      "stateMutability": "payable",
      "type": "function",
      "payable": true
    },
    {
      "inputs": [
        {
          "internalType": "uint256",
          "name": "_tokenId",
          "type": "uint256"
        }
      ],
      "name": "heal",
      "outputs": [],
      "stateMutability": "payable",
      "type": "function",
      "payable": true
    },
    {
      "inputs": [
        {
          "internalType": "uint256",
          "name": "_myTokenId",
          "type": "uint256"
        },
        {
          "internalType": "uint256",
          "name": "_rivalTokenId",
          "type": "uint256"
        }
      ],
      "name": "fight",
      "outputs": [],
      "stateMutability": "payable",
      "type": "function",
      "payable": true
    },
    {
      "inputs": [
        {
          "internalType": "uint256",
          "name": "_tokenId",
          "type": "uint256"
        }
      ],
      "name": "getTokenDetails",
      "outputs": [
        {
          "components": [
            {
              "internalType": "uint256",
              "name": "dna",
              "type": "uint256"
            },
            {
              "internalType": "uint256",
              "name": "xp",
              "type": "uint256"
            },
            {
              "internalType": "uint256",
              "name": "hp",
              "type": "uint256"
            },
            {
              "internalType": "uint8",
              "name": "attack",
              "type": "uint8"
            },
            {
              "internalType": "uint8",
              "name": "armor",
              "type": "uint8"
            },
            {
              "internalType": "uint8",
              "name": "mana",
              "type": "uint8"
            },
            {
              "internalType": "uint8",
              "name": "magicResistance",
              "type": "uint8"
            },
            {
              "internalType": "enum NFTGameToken.type_character",
              "name": "typeCharacter",
              "type": "uint8"
            }
          ],
          "internalType": "struct NFTGameToken.Character",
          "name": "",
          "type": "tuple"
        }
      ],
      "stateMutability": "view",
      "type": "function",
      "constant": true
    },
    {
      "inputs": [],
      "name": "getMyCharacters",
      "outputs": [
        {
          "components": [
            {
              "internalType": "uint256",
              "name": "dna",
              "type": "uint256"
            },
            {
              "internalType": "uint256",
              "name": "xp",
              "type": "uint256"
            },
            {
              "internalType": "uint256",
              "name": "hp",
              "type": "uint256"
            },
            {
              "internalType": "uint8",
              "name": "attack",
              "type": "uint8"
            },
            {
              "internalType": "uint8",
              "name": "armor",
              "type": "uint8"
            },
            {
              "internalType": "uint8",
              "name": "mana",
              "type": "uint8"
            },
            {
              "internalType": "uint8",
              "name": "magicResistance",
              "type": "uint8"
            },
            {
              "internalType": "enum NFTGameToken.type_character",
              "name": "typeCharacter",
              "type": "uint8"
            }
          ],
          "internalType": "struct NFTGameToken.Character[]",
          "name": "",
          "type": "tuple[]"
        }
      ],
      "stateMutability": "view",
      "type": "function",
      "constant": true
    },
    {
      "inputs": [],
      "name": "getAllCharacters",
      "outputs": [
        {
          "components": [
            {
              "internalType": "uint256",
              "name": "dna",
              "type": "uint256"
            },
            {
              "internalType": "uint256",
              "name": "xp",
              "type": "uint256"
            },
            {
              "internalType": "uint256",
              "name": "hp",
              "type": "uint256"
            },
            {
              "internalType": "uint8",
              "name": "attack",
              "type": "uint8"
            },
            {
              "internalType": "uint8",
              "name": "armor",
              "type": "uint8"
            },
            {
              "internalType": "uint8",
              "name": "mana",
              "type": "uint8"
            },
            {
              "internalType": "uint8",
              "name": "magicResistance",
              "type": "uint8"
            },
            {
              "internalType": "enum NFTGameToken.type_character",
              "name": "typeCharacter",
              "type": "uint8"
            }
          ],
          "internalType": "struct NFTGameToken.Character[]",
          "name": "",
          "type": "tuple[]"
        }
      ],
      "stateMutability": "view",
      "type": "function",
      "constant": true
    }
  ],
  "bytecode": "0x6080604052600060075566038d7ea4c6800060085566038d7ea4c6800060095566038d7ea4c68000600a553480156200003757600080fd5b50604080518082018252600c81526b27232a23b0b6b2aa37b5b2b760a11b6020808301918252835180850190945260048452634e46544760e01b908401528151919291620000889160009162000117565b5080516200009e90600190602084019062000117565b505050620000bb620000b5620000c160201b60201c565b620000c5565b620001fa565b3390565b600680546001600160a01b038381166001600160a01b0319831681179093556040519116919082907f8be0079c531659141344cd1fd0a4f28419497f9722a3daafe3b4186f6b6457e090600090a35050565b8280546200012590620001bd565b90600052602060002090601f01602090048101928262000149576000855562000194565b82601f106200016457805160ff191683800117855562000194565b8280016001018555821562000194579182015b828111156200019457825182559160200191906001019062000177565b50620001a2929150620001a6565b5090565b5b80821115620001a25760008155600101620001a7565b600181811c90821680620001d257607f821691505b60208210811415620001f457634e487b7160e01b600052602260045260246000fd5b50919050565b61263a806200020a6000396000f3fe6080604052600436106101355760003560e01c80638da5cb5b116100ab578063c1e037281161006f578063c1e037281461034b578063c87b56dd14610378578063ca39e5ef14610398578063e985e9c5146103ab578063f2fde38b146103cb578063f37ac61c146103eb57600080fd5b80638da5cb5b146102c557806395d89b41146102e3578063a22cb465146102f8578063b57da3b114610318578063b88d4fde1461032b57600080fd5b80633c4739d3116100fd5780633c4739d31461020b57806342842e0e1461022d5780636352211e1461024d57806370a082311461026d578063715018a61461029b57806383e56dca146102b057600080fd5b806301ffc9a71461013a57806306fdde031461016f578063081812fc14610191578063095ea7b3146101c957806323b872dd146101eb575b600080fd5b34801561014657600080fd5b5061015a610155366004611fb2565b6103fe565b60405190151581526020015b60405180910390f35b34801561017b57600080fd5b50610184610450565b6040516101669190612027565b34801561019d57600080fd5b506101b16101ac36600461203a565b6104e2565b6040516001600160a01b039091168152602001610166565b3480156101d557600080fd5b506101e96101e436600461206f565b61057c565b005b3480156101f757600080fd5b506101e9610206366004612099565b610692565b34801561021757600080fd5b506102206106c3565b6040516101669190612165565b34801561023957600080fd5b506101e9610248366004612099565b610838565b34801561025957600080fd5b506101b161026836600461203a565b610853565b34801561027957600080fd5b5061028d6102883660046121b4565b6108ca565b604051908152602001610166565b3480156102a757600080fd5b506101e9610951565b3480156102bc57600080fd5b506102206109b7565b3480156102d157600080fd5b506006546001600160a01b03166101b1565b3480156102ef57600080fd5b50610184610afa565b34801561030457600080fd5b506101e96103133660046121cf565b610b09565b6101e961032636600461220b565b610b18565b34801561033757600080fd5b506101e9610346366004612242565b610fd0565b34801561035757600080fd5b5061036b61036636600461203a565b611008565b604051610166919061231e565b34801561038457600080fd5b5061018461039336600461203a565b6110ba565b6101e96103a636600461232d565b6111a2565b3480156103b757600080fd5b5061015a6103c636600461234f565b61155d565b3480156103d757600080fd5b506101e96103e63660046121b4565b61158b565b6101e96103f936600461203a565b611656565b60006001600160e01b031982166380ac58cd60e01b148061042f57506001600160e01b03198216635b5e139f60e01b145b8061044a57506301ffc9a760e01b6001600160e01b03198316145b92915050565b60606000805461045f90612382565b80601f016020809104026020016040519081016040528092919081815260200182805461048b90612382565b80156104d85780601f106104ad576101008083540402835291602001916104d8565b820191906000526020600020905b8154815290600101906020018083116104bb57829003601f168201915b5050505050905090565b6000818152600260205260408120546001600160a01b03166105605760405162461bcd60e51b815260206004820152602c60248201527f4552433732313a20617070726f76656420717565727920666f72206e6f6e657860448201526b34b9ba32b73a103a37b5b2b760a11b60648201526084015b60405180910390fd5b506000908152600460205260409020546001600160a01b031690565b600061058782610853565b9050806001600160a01b0316836001600160a01b031614156105f55760405162461bcd60e51b815260206004820152602160248201527f4552433732313a20617070726f76616c20746f2063757272656e74206f776e656044820152603960f91b6064820152608401610557565b336001600160a01b03821614806106115750610611813361155d565b6106835760405162461bcd60e51b815260206004820152603860248201527f4552433732313a20617070726f76652063616c6c6572206973206e6f74206f7760448201527f6e6572206e6f7220617070726f76656420666f7220616c6c00000000000000006064820152608401610557565b61068d8383611796565b505050565b61069c3382611804565b6106b85760405162461bcd60e51b8152600401610557906123b7565b61068d8383836118db565b60606000806106d1336108ca565b67ffffffffffffffff8111156106e9576106e961222c565b60405190808252806020026020018201604052801561072257816020015b61070f611f5a565b8152602001906001900390816107075790505b50905060005b600754811015610831573361073c82610853565b6001600160a01b0316141561081f576000818152600b6020908152604091829020825161010080820185528254825260018301549382019390935260028083015494820194909452600382015460ff808216606084015293810484166080830152620100008104841660a083015263010000008104841660c08301529093919260e085019264010000000090920416908111156107db576107db6120d5565b60028111156107ec576107ec6120d5565b81525050828460ff168151811061080557610805612408565b6020026020010181905250828061081b90612434565b9350505b8061082981612454565b915050610728565b5092915050565b61068d83838360405180602001604052806000815250610fd0565b6000818152600260205260408120546001600160a01b03168061044a5760405162461bcd60e51b815260206004820152602960248201527f4552433732313a206f776e657220717565727920666f72206e6f6e657869737460448201526832b73a103a37b5b2b760b91b6064820152608401610557565b60006001600160a01b0382166109355760405162461bcd60e51b815260206004820152602a60248201527f4552433732313a2062616c616e636520717565727920666f7220746865207a65604482015269726f206164647265737360b01b6064820152608401610557565b506001600160a01b031660009081526003602052604090205490565b6006546001600160a01b031633146109ab5760405162461bcd60e51b815260206004820181905260248201527f4f776e61626c653a2063616c6c6572206973206e6f7420746865206f776e65726044820152606401610557565b6109b56000611a7b565b565b6060600060075467ffffffffffffffff8111156109d6576109d661222c565b604051908082528060200260200182016040528015610a0f57816020015b6109fc611f5a565b8152602001906001900390816109f45790505b50905060005b600754811015610af4576000818152600b6020908152604091829020825161010080820185528254825260018301549382019390935260028083015494820194909452600382015460ff808216606084015293810484166080830152620100008104841660a083015263010000008104841660c08301529093919260e08501926401000000009092041690811115610aaf57610aaf6120d5565b6002811115610ac057610ac06120d5565b81525050828281518110610ad657610ad6612408565b60200260200101819052508080610aec90612454565b915050610a15565b50919050565b60606001805461045f90612382565b610b14338383611acd565b5050565b6008543414610b395760405162461bcd60e51b81526004016105579061246f565b6005610b44336108ca565b10610b915760405162461bcd60e51b815260206004820152601e60248201527f596f752063616e27742068617665206d6f7265207468616e2035204e465400006044820152606401610557565b6000816002811115610ba557610ba56120d5565b1480610bc257506001816002811115610bc057610bc06120d5565b145b80610bde57506002816002811115610bdc57610bdc6120d5565b145b610c505760405162461bcd60e51b815260206004820152603a60248201527f596f75206d7573742063686f6f7365206265747765656e206265727365726b6560448201527f722c2073706972697475616c206f7220656c656d656e746172790000000000006064820152608401610557565b6000816002811115610c6457610c646120d5565b1415610d7657604080516101008101825266137d35dd20cae88152600160208201819052606492820192909252600560608201526003608082015260a0810182905260c081019190915260e08101600090526007546000908152600b602090815260409182902083518155908301516001820155908201516002808301919091556060830151600383018054608086015160a087015160c088015160ff90811663010000000263ff0000001992821662010000029290921663ffff0000199382166101000261ffff1990951691909616179290921716929092179190911780825560e08501519264ff000000001990911690640100000000908490811115610d6e57610d6e6120d5565b021790555050505b6001816002811115610d8a57610d8a6120d5565b1415610e995760408051610100810182526616fda2bb2876e881526001602082018190526064928201929092526060810182905260808101829052600560a0820152600360c08201529060e08201526007546000908152600b602090815260409182902083518155908301516001820155908201516002808301919091556060830151600383018054608086015160a087015160c088015160ff90811663010000000263ff0000001992821662010000029290921663ffff0000199382166101000261ffff1990951691909616179290921716929092179190911780825560e08501519264ff000000001990911690640100000000908490811115610e9157610e916120d5565b021790555050505b6002816002811115610ead57610ead6120d5565b1415610fac57604080516101008082018352660462f2cc301ae8825260016020808401828152606485870190815260026060870181815260808801828152600360a08a0181815260c08b0182815260e08c018681526007546000908152600b909a529c9098208b5181559651988701989098559351858401559051928401805491519651955160ff94851661ffff19909316929092179684169097029590951763ffff00001916620100009483169490940263ff0000001916939093176301000000919094160292909217808455945193949193929164ff00000000191690640100000000908490811115610fa457610fa46120d5565b021790555050505b610fb833600754611b9c565b60078054906000610fc883612454565b919050555050565b610fda3383611804565b610ff65760405162461bcd60e51b8152600401610557906123b7565b61100284848484611bb6565b50505050565b611010611f5a565b6000828152600b6020908152604091829020825161010080820185528254825260018301549382019390935260028083015494820194909452600382015460ff808216606084015293810484166080830152620100008104841660a083015263010000008104841660c08301529093919260e085019264010000000090920416908111156110a0576110a06120d5565b60028111156110b1576110b16120d5565b90525092915050565b6000818152600260205260409020546060906001600160a01b03166111395760405162461bcd60e51b815260206004820152602f60248201527f4552433732314d657461646174613a2055524920717565727920666f72206e6f60448201526e3732bc34b9ba32b73a103a37b5b2b760891b6064820152608401610557565b600061115060408051602081019091526000815290565b90506000815111611170576040518060200160405280600081525061119b565b8061117a84611be9565b60405160200161118b92919061249d565b6040516020818303038152906040525b9392505050565b600a5434146111c35760405162461bcd60e51b81526004016105579061246f565b336111cd83610853565b6001600160a01b0316146112235760405162461bcd60e51b815260206004820152601f60248201527f596f75277265206e6f7420746865206f776e6572206f6620746865204e4654006044820152606401610557565b61122c81610853565b6001600160a01b031661123e83610853565b6001600160a01b0316141561129f5760405162461bcd60e51b815260206004820152602160248201527f596f7572204e4654732063616e6e6f742066696768742065616368206f7468656044820152603960f91b6064820152608401610557565b6000828152600b6020526040902060020154158015906112cf57506000818152600b602052604090206002015415155b61131b5760405162461bcd60e51b815260206004820152601760248201527f4f6e65206f6620746865204e46547320697320646561640000000000000000006044820152606401610557565b6000818152600b60205260408120600181015460039091015460029161134891610100900460ff166124cc565b6113529190612501565b6000848152600b602052604090206001810154600390910154611378919060ff166124cc565b6113829190612515565b6000848152600b60205260408120600181015460039091015492935090916002916113b491610100900460ff166124cc565b6113be9190612501565b6000848152600b6020526040902060018101546003909101546113e4919060ff166124cc565b6113ee9190612515565b6000848152600b6020526040902060020154909150821061143c576000838152600b6020526040808220600201829055858252812060010180549161143283612454565b9190505550611002565b6000838152600b60205260408120600201805484929061145d908490612515565b90915550506000848152600b602052604090206002015481106114a3576000848152600b6020526040808220600201829055848252812060010180549161143283612454565b6000848152600b6020526040812060020180548392906114c4908490612515565b9091555050808211156114ee576000848152600b6020526040812060010180549161143283612454565b81811115611513576000838152600b6020526040812060010180549161143283612454565b6000848152600b6020526040812060010180549161153083612454565b90915550506000838152600b6020526040812060010180549161155283612454565b919050555050505050565b6001600160a01b03918216600090815260056020908152604080832093909416825291909152205460ff1690565b6006546001600160a01b031633146115e55760405162461bcd60e51b815260206004820181905260248201527f4f776e61626c653a2063616c6c6572206973206e6f7420746865206f776e65726044820152606401610557565b6001600160a01b03811661164a5760405162461bcd60e51b815260206004820152602660248201527f4f776e61626c653a206e6577206f776e657220697320746865207a65726f206160448201526564647265737360d01b6064820152608401610557565b61165381611a7b565b50565b60095434146116775760405162461bcd60e51b81526004016105579061246f565b3361168182610853565b6001600160a01b0316146116d75760405162461bcd60e51b815260206004820152601f60248201527f596f75277265206e6f7420746865206f776e6572206f6620746865204e4654006044820152606401610557565b6000818152600b602052604090206002015461172a5760405162461bcd60e51b8152602060048201526012602482015271165bdd49dc9948139195081a5cc81919585960721b6044820152606401610557565b6000818152600b602052604081206002015461174790603261252c565b9050606481111561176b57506000908152600b602052604090206064600290910155565b6000828152600b6020526040812060020180546032929061178d90849061252c565b90915550505050565b600081815260046020526040902080546001600160a01b0319166001600160a01b03841690811790915581906117cb82610853565b6001600160a01b03167f8c5be1e5ebec7d5bd14f71427d1e84f3dd0314c0f7b2291e5b200ac8c7c3b92560405160405180910390a45050565b6000818152600260205260408120546001600160a01b031661187d5760405162461bcd60e51b815260206004820152602c60248201527f4552433732313a206f70657261746f7220717565727920666f72206e6f6e657860448201526b34b9ba32b73a103a37b5b2b760a11b6064820152608401610557565b600061188883610853565b9050806001600160a01b0316846001600160a01b031614806118c35750836001600160a01b03166118b8846104e2565b6001600160a01b0316145b806118d357506118d3818561155d565b949350505050565b826001600160a01b03166118ee82610853565b6001600160a01b0316146119565760405162461bcd60e51b815260206004820152602960248201527f4552433732313a207472616e73666572206f6620746f6b656e2074686174206960448201526839903737ba1037bbb760b91b6064820152608401610557565b6001600160a01b0382166119b85760405162461bcd60e51b8152602060048201526024808201527f4552433732313a207472616e7366657220746f20746865207a65726f206164646044820152637265737360e01b6064820152608401610557565b6119c3600082611796565b6001600160a01b03831660009081526003602052604081208054600192906119ec908490612515565b90915550506001600160a01b0382166000908152600360205260408120805460019290611a1a90849061252c565b909155505060008181526002602052604080822080546001600160a01b0319166001600160a01b0386811691821790925591518493918716917fddf252ad1be2c89b69c2b068fc378daa952ba7f163c4a11628f55a4df523b3ef91a4505050565b600680546001600160a01b038381166001600160a01b0319831681179093556040519116919082907f8be0079c531659141344cd1fd0a4f28419497f9722a3daafe3b4186f6b6457e090600090a35050565b816001600160a01b0316836001600160a01b03161415611b2f5760405162461bcd60e51b815260206004820152601960248201527f4552433732313a20617070726f766520746f2063616c6c6572000000000000006044820152606401610557565b6001600160a01b03838116600081815260056020908152604080832094871680845294825291829020805460ff191686151590811790915591519182527f17307eab39ab6107e8899845ad3d59bd9653f200f220920489ca2b5937696c31910160405180910390a3505050565b610b14828260405180602001604052806000815250611ce7565b611bc18484846118db565b611bcd84848484611d1a565b6110025760405162461bcd60e51b815260040161055790612544565b606081611c0d5750506040805180820190915260018152600360fc1b602082015290565b8160005b8115611c375780611c2181612454565b9150611c309050600a83612501565b9150611c11565b60008167ffffffffffffffff811115611c5257611c5261222c565b6040519080825280601f01601f191660200182016040528015611c7c576020820181803683370190505b5090505b84156118d357611c91600183612515565b9150611c9e600a86612596565b611ca990603061252c565b60f81b818381518110611cbe57611cbe612408565b60200101906001600160f81b031916908160001a905350611ce0600a86612501565b9450611c80565b611cf18383611e18565b611cfe6000848484611d1a565b61068d5760405162461bcd60e51b815260040161055790612544565b60006001600160a01b0384163b15611e0d57604051630a85bd0160e11b81526001600160a01b0385169063150b7a0290611d5e9033908990889088906004016125aa565b6020604051808303816000875af1925050508015611d99575060408051601f3d908101601f19168201909252611d96918101906125e7565b60015b611df3573d808015611dc7576040519150601f19603f3d011682016040523d82523d6000602084013e611dcc565b606091505b508051611deb5760405162461bcd60e51b815260040161055790612544565b805181602001fd5b6001600160e01b031916630a85bd0160e11b1490506118d3565b506001949350505050565b6001600160a01b038216611e6e5760405162461bcd60e51b815260206004820181905260248201527f4552433732313a206d696e7420746f20746865207a65726f20616464726573736044820152606401610557565b6000818152600260205260409020546001600160a01b031615611ed35760405162461bcd60e51b815260206004820152601c60248201527f4552433732313a20746f6b656e20616c7265616479206d696e746564000000006044820152606401610557565b6001600160a01b0382166000908152600360205260408120805460019290611efc90849061252c565b909155505060008181526002602052604080822080546001600160a01b0319166001600160a01b03861690811790915590518392907fddf252ad1be2c89b69c2b068fc378daa952ba7f163c4a11628f55a4df523b3ef908290a45050565b6040805161010081018252600080825260208201819052918101829052606081018290526080810182905260a0810182905260c081018290529060e082015290565b6001600160e01b03198116811461165357600080fd5b600060208284031215611fc457600080fd5b813561119b81611f9c565b60005b83811015611fea578181015183820152602001611fd2565b838111156110025750506000910152565b60008151808452612013816020860160208601611fcf565b601f01601f19169290920160200192915050565b60208152600061119b6020830184611ffb565b60006020828403121561204c57600080fd5b5035919050565b80356001600160a01b038116811461206a57600080fd5b919050565b6000806040838503121561208257600080fd5b61208b83612053565b946020939093013593505050565b6000806000606084860312156120ae57600080fd5b6120b784612053565b92506120c560208501612053565b9150604084013590509250925092565b634e487b7160e01b600052602160045260246000fd5b80518252602081015160208301526040810151604083015260ff606082015116606083015260ff608082015116608083015260ff60a08201511660a083015260ff60c08201511660c083015260e08101516003811061215a57634e487b7160e01b600052602160045260246000fd5b8060e0840152505050565b6020808252825182820181905260009190848201906040850190845b818110156121a8576121948385516120eb565b928401926101009290920191600101612181565b50909695505050505050565b6000602082840312156121c657600080fd5b61119b82612053565b600080604083850312156121e257600080fd5b6121eb83612053565b91506020830135801515811461220057600080fd5b809150509250929050565b60006020828403121561221d57600080fd5b81356003811061119b57600080fd5b634e487b7160e01b600052604160045260246000fd5b6000806000806080858703121561225857600080fd5b61226185612053565b935061226f60208601612053565b925060408501359150606085013567ffffffffffffffff8082111561229357600080fd5b818701915087601f8301126122a757600080fd5b8135818111156122b9576122b961222c565b604051601f8201601f19908116603f011681019083821181831017156122e1576122e161222c565b816040528281528a60208487010111156122fa57600080fd5b82602086016020830137600060208483010152809550505050505092959194509250565b610100810161044a82846120eb565b6000806040838503121561234057600080fd5b50508035926020909101359150565b6000806040838503121561236257600080fd5b61236b83612053565b915061237960208401612053565b90509250929050565b600181811c9082168061239657607f821691505b60208210811415610af457634e487b7160e01b600052602260045260246000fd5b60208082526031908201527f4552433732313a207472616e736665722063616c6c6572206973206e6f74206f6040820152701ddb995c881b9bdc88185c1c1c9bdd9959607a1b606082015260800190565b634e487b7160e01b600052603260045260246000fd5b634e487b7160e01b600052601160045260246000fd5b600060ff821660ff81141561244b5761244b61241e565b60010192915050565b60006000198214156124685761246861241e565b5060010190565b60208082526014908201527357726f6e6720616d6f756e74206f66206665657360601b604082015260600190565b600083516124af818460208801611fcf565b8351908301906124c3818360208801611fcf565b01949350505050565b60008160001904831182151516156124e6576124e661241e565b500290565b634e487b7160e01b600052601260045260246000fd5b600082612510576125106124eb565b500490565b6000828210156125275761252761241e565b500390565b6000821982111561253f5761253f61241e565b500190565b60208082526032908201527f4552433732313a207472616e7366657220746f206e6f6e20455243373231526560408201527131b2b4bb32b91034b6b83632b6b2b73a32b960711b606082015260800190565b6000826125a5576125a56124eb565b500690565b6001600160a01b03858116825284166020820152604081018390526080606082018190526000906125dd90830184611ffb565b9695505050505050565b6000602082840312156125f957600080fd5b815161119b81611f9c56fea2646970667358221220c4c1960ac8835807a1750142003204086e1aac677d9fd9b3ed5225d20e86fa1a64736f6c634300080a0033",
  "immutableReferences": {},
  "source": "// SPDX-License-Identifier: MIT\r\npragma solidity 0.8.10;\r\n\r\nimport \"@openzeppelin/contracts/token/ERC721/ERC721.sol\";\r\nimport \"@openzeppelin/contracts/access/Ownable.sol\";\r\n\r\ncontract NFTGameToken is ERC721, Ownable {\r\n\r\n    constructor() ERC721(\"NFTGameToken\", \"NFTG\") {}\r\n\r\n    enum type_character { BERSERKER, SPIRITUAL, ELEMENTARY }\r\n    uint256 nextId = 0;\r\n    uint256 mintFee = 0.001 ether;\r\n    uint256 healFee = 0.001 ether;\r\n    uint256 fightFee = 0.001 ether;\r\n\r\n    struct Character {\r\n        // uint256 id;\r\n        uint256 dna;\r\n        // uint8 level;\r\n        uint256 xp;\r\n        uint256 hp;\r\n        uint8 attack;\r\n        uint8 armor;\r\n        // uint8 speed;     \r\n        uint8 mana;\r\n        uint8 magicResistance;\r\n        type_character typeCharacter;\r\n    }\r\n\r\n    mapping(uint256 => Character) private _characterDetails;\r\n\r\n    // events\r\n\r\n    function createCharacter(type_character _typeCharacter) external payable {\r\n        require(msg.value == mintFee, \"Wrong amount of fees\");\r\n        require(balanceOf(msg.sender) < 5, \"You can't have more than 5 NFT\");\r\n        require(_typeCharacter == type_character.BERSERKER || _typeCharacter == type_character.SPIRITUAL || _typeCharacter == type_character.ELEMENTARY,\r\n        \"You must choose between berserker, spiritual or elementary\");\r\n        if (_typeCharacter == type_character.BERSERKER) {\r\n            _characterDetails[nextId] = Character(5485694854154984, 1, 100, 5, 3, 1, 1, type_character.BERSERKER);\r\n        }\r\n        if (_typeCharacter == type_character.SPIRITUAL) {\r\n            _characterDetails[nextId] = Character(6471324854154984, 1, 100, 1, 1, 5, 3, type_character.SPIRITUAL);\r\n        }\r\n        if (_typeCharacter == type_character.ELEMENTARY) {\r\n            _characterDetails[nextId] = Character(1234694854154984, 1, 100, 2, 2, 3, 3, type_character.ELEMENTARY);\r\n        }\r\n        _safeMint(msg.sender, nextId);\r\n        nextId++;\r\n    }\r\n\r\n    function heal(uint _tokenId) external payable {\r\n        require(msg.value == healFee, \"Wrong amount of fees\");\r\n        require(ownerOf(_tokenId) == msg.sender, \"You're not the owner of the NFT\");\r\n        require(_characterDetails[_tokenId].hp > 0, \"You're NFT is dead\");\r\n        uint256 tempResult = _characterDetails[_tokenId].hp + 50;\r\n        if (tempResult > 100) {\r\n            _characterDetails[_tokenId].hp = 100;\r\n        } else {\r\n            _characterDetails[_tokenId].hp += 50;\r\n        }\r\n    }\r\n\r\n    function fight(uint _myTokenId, uint _rivalTokenId) external payable {\r\n        require(msg.value == fightFee, \"Wrong amount of fees\");\r\n        require(ownerOf(_myTokenId) == msg.sender, \"You're not the owner of the NFT\");\r\n        require(ownerOf(_myTokenId) != ownerOf(_rivalTokenId), \"Your NFTs cannot fight each other\");\r\n        require(_characterDetails[_myTokenId].hp > 0 && _characterDetails[_rivalTokenId].hp > 0, \"One of the NFTs is dead\");\r\n\r\n        uint256 substrateLifeToRival = (_characterDetails[_myTokenId].attack * _characterDetails[_myTokenId].xp) - \r\n        ((_characterDetails[_rivalTokenId].armor * _characterDetails[_rivalTokenId].xp) / 2);\r\n        uint256 substrateLifeToMe = (_characterDetails[_rivalTokenId].attack * _characterDetails[_rivalTokenId].xp) - \r\n        ((_characterDetails[_myTokenId].armor * _characterDetails[_myTokenId].xp) / 2);\r\n\r\n        if(substrateLifeToRival >= _characterDetails[_rivalTokenId].hp) {\r\n            _characterDetails[_rivalTokenId].hp = 0;\r\n            _characterDetails[_myTokenId].xp++;\r\n        } else {\r\n            _characterDetails[_rivalTokenId].hp -= substrateLifeToRival;\r\n            if(substrateLifeToMe >= _characterDetails[_myTokenId].hp) {\r\n                _characterDetails[_myTokenId].hp = 0;\r\n                _characterDetails[_rivalTokenId].xp++;\r\n            } else {\r\n                _characterDetails[_myTokenId].hp -= substrateLifeToMe;\r\n                if (substrateLifeToRival > substrateLifeToMe) {\r\n                    _characterDetails[_myTokenId].xp++;\r\n                } else if (substrateLifeToMe > substrateLifeToRival) {\r\n                    _characterDetails[_rivalTokenId].xp++;\r\n                } else {\r\n                    _characterDetails[_myTokenId].xp++;\r\n                    _characterDetails[_rivalTokenId].xp++;\r\n                }\r\n            }\r\n        }\r\n    }\r\n\r\n    // Getters\r\n    function getTokenDetails(uint _tokenId) external view returns(Character memory) {\r\n        return _characterDetails[_tokenId];\r\n    }\r\n\r\n    function getMyCharacters() public view returns (Character[] memory){\r\n        uint8 count = 0;\r\n        Character[] memory myCharacters = new Character[](balanceOf(msg.sender));\r\n        for (uint i = 0; i < nextId; i++) {\r\n            if (ownerOf(i) == msg.sender) {\r\n                myCharacters[count] = _characterDetails[i];\r\n                count++;\r\n            }\r\n        }\r\n        return myCharacters;\r\n    }\r\n    \r\n    // only for TESTS getAllCharacters\r\n    function getAllCharacters() public view returns (Character[] memory){\r\n        Character[] memory allCharacters = new Character[](nextId);\r\n        for (uint i = 0; i < nextId; i++) {\r\n            allCharacters[i] = _characterDetails[i];\r\n        }\r\n        return allCharacters;\r\n    }\r\n}\r\n",
  "sourcePath": "D:\\TAF\\Alyra\\Projets\\tentative_nft_game\\contracts\\NFTGameToken.sol",
  "compiler": {
    "name": "solc",
    "version": "0.8.10+commit.fc410830.Emscripten.clang"
  },
  "schemaVersion": "3.4.3",
  "updatedAt": "2021-12-09T17:34:59.350Z",
  "networkType": "ethereum",
  "devdoc": {
    "kind": "dev",
    "methods": {
      "approve(address,uint256)": {
        "details": "See {IERC721-approve}."
      },
      "balanceOf(address)": {
        "details": "See {IERC721-balanceOf}."
      },
      "getApproved(uint256)": {
        "details": "See {IERC721-getApproved}."
      },
      "isApprovedForAll(address,address)": {
        "details": "See {IERC721-isApprovedForAll}."
      },
      "name()": {
        "details": "See {IERC721Metadata-name}."
      },
      "owner()": {
        "details": "Returns the address of the current owner."
      },
      "ownerOf(uint256)": {
        "details": "See {IERC721-ownerOf}."
      },
      "renounceOwnership()": {
        "details": "Leaves the contract without owner. It will not be possible to call `onlyOwner` functions anymore. Can only be called by the current owner. NOTE: Renouncing ownership will leave the contract without an owner, thereby removing any functionality that is only available to the owner."
      },
      "safeTransferFrom(address,address,uint256)": {
        "details": "See {IERC721-safeTransferFrom}."
      },
      "safeTransferFrom(address,address,uint256,bytes)": {
        "details": "See {IERC721-safeTransferFrom}."
      },
      "setApprovalForAll(address,bool)": {
        "details": "See {IERC721-setApprovalForAll}."
      },
      "supportsInterface(bytes4)": {
        "details": "See {IERC165-supportsInterface}."
      },
      "symbol()": {
        "details": "See {IERC721Metadata-symbol}."
      },
      "tokenURI(uint256)": {
        "details": "See {IERC721Metadata-tokenURI}."
      },
      "transferFrom(address,address,uint256)": {
        "details": "See {IERC721-transferFrom}."
      },
      "transferOwnership(address)": {
        "details": "Transfers ownership of the contract to a new account (`newOwner`). Can only be called by the current owner."
      }
    },
    "version": 1
  },
  "userdoc": {
    "kind": "user",
    "methods": {},
    "version": 1
  }
}