{
  "contractName": "NFTGameToken",
  "abi": [
    {
      "inputs": [],
      "stateMutability": "nonpayable",
      "type": "constructor"
    },
    {
      "anonymous": false,
      "inputs": [
        {
          "indexed": true,
          "internalType": "address",
          "name": "owner",
          "type": "address"
        },
        {
          "indexed": true,
          "internalType": "address",
          "name": "approved",
          "type": "address"
        },
        {
          "indexed": true,
          "internalType": "uint256",
          "name": "tokenId",
          "type": "uint256"
        }
      ],
      "name": "Approval",
      "type": "event"
    },
    {
      "anonymous": false,
      "inputs": [
        {
          "indexed": true,
          "internalType": "address",
          "name": "owner",
          "type": "address"
        },
        {
          "indexed": true,
          "internalType": "address",
          "name": "operator",
          "type": "address"
        },
        {
          "indexed": false,
          "internalType": "bool",
          "name": "approved",
          "type": "bool"
        }
      ],
      "name": "ApprovalForAll",
      "type": "event"
    },
    {
      "anonymous": false,
      "inputs": [
        {
          "indexed": false,
          "internalType": "uint256",
          "name": "id",
          "type": "uint256"
        }
      ],
      "name": "CharacterCreated",
      "type": "event"
    },
    {
      "anonymous": false,
      "inputs": [
        {
          "indexed": false,
          "internalType": "uint256",
          "name": "myTokenId",
          "type": "uint256"
        },
        {
          "indexed": false,
          "internalType": "uint256",
          "name": "rivalTokenId",
          "type": "uint256"
        },
        {
          "indexed": false,
          "internalType": "uint256",
          "name": "substrateLifeToRival",
          "type": "uint256"
        },
        {
          "indexed": false,
          "internalType": "uint256",
          "name": "substrateLifeToMe",
          "type": "uint256"
        }
      ],
      "name": "Fighted",
      "type": "event"
    },
    {
      "anonymous": false,
      "inputs": [
        {
          "indexed": false,
          "internalType": "uint256",
          "name": "tokenId",
          "type": "uint256"
        }
      ],
      "name": "Healed",
      "type": "event"
    },
    {
      "anonymous": false,
      "inputs": [
        {
          "indexed": true,
          "internalType": "address",
          "name": "previousOwner",
          "type": "address"
        },
        {
          "indexed": true,
          "internalType": "address",
          "name": "newOwner",
          "type": "address"
        }
      ],
      "name": "OwnershipTransferred",
      "type": "event"
    },
    {
      "anonymous": false,
      "inputs": [
        {
          "indexed": true,
          "internalType": "address",
          "name": "from",
          "type": "address"
        },
        {
          "indexed": true,
          "internalType": "address",
          "name": "to",
          "type": "address"
        },
        {
          "indexed": true,
          "internalType": "uint256",
          "name": "tokenId",
          "type": "uint256"
        }
      ],
      "name": "Transfer",
      "type": "event"
    },
    {
      "inputs": [
        {
          "internalType": "address",
          "name": "to",
          "type": "address"
        },
        {
          "internalType": "uint256",
          "name": "tokenId",
          "type": "uint256"
        }
      ],
      "name": "approve",
      "outputs": [],
      "stateMutability": "nonpayable",
      "type": "function"
    },
    {
      "inputs": [
        {
          "internalType": "address",
          "name": "owner",
          "type": "address"
        }
      ],
      "name": "balanceOf",
      "outputs": [
        {
          "internalType": "uint256",
          "name": "",
          "type": "uint256"
        }
      ],
      "stateMutability": "view",
      "type": "function",
      "constant": true
    },
    {
      "inputs": [
        {
          "internalType": "uint256",
          "name": "tokenId",
          "type": "uint256"
        }
      ],
      "name": "getApproved",
      "outputs": [
        {
          "internalType": "address",
          "name": "",
          "type": "address"
        }
      ],
      "stateMutability": "view",
      "type": "function",
      "constant": true
    },
    {
      "inputs": [
        {
          "internalType": "address",
          "name": "owner",
          "type": "address"
        },
        {
          "internalType": "address",
          "name": "operator",
          "type": "address"
        }
      ],
      "name": "isApprovedForAll",
      "outputs": [
        {
          "internalType": "bool",
          "name": "",
          "type": "bool"
        }
      ],
      "stateMutability": "view",
      "type": "function",
      "constant": true
    },
    {
      "inputs": [],
      "name": "name",
      "outputs": [
        {
          "internalType": "string",
          "name": "",
          "type": "string"
        }
      ],
      "stateMutability": "view",
      "type": "function",
      "constant": true
    },
    {
      "inputs": [],
      "name": "owner",
      "outputs": [
        {
          "internalType": "address",
          "name": "",
          "type": "address"
        }
      ],
      "stateMutability": "view",
      "type": "function",
      "constant": true
    },
    {
      "inputs": [
        {
          "internalType": "uint256",
          "name": "tokenId",
          "type": "uint256"
        }
      ],
      "name": "ownerOf",
      "outputs": [
        {
          "internalType": "address",
          "name": "",
          "type": "address"
        }
      ],
      "stateMutability": "view",
      "type": "function",
      "constant": true
    },
    {
      "inputs": [],
      "name": "renounceOwnership",
      "outputs": [],
      "stateMutability": "nonpayable",
      "type": "function"
    },
    {
      "inputs": [
        {
          "internalType": "address",
          "name": "from",
          "type": "address"
        },
        {
          "internalType": "address",
          "name": "to",
          "type": "address"
        },
        {
          "internalType": "uint256",
          "name": "tokenId",
          "type": "uint256"
        }
      ],
      "name": "safeTransferFrom",
      "outputs": [],
      "stateMutability": "nonpayable",
      "type": "function"
    },
    {
      "inputs": [
        {
          "internalType": "address",
          "name": "from",
          "type": "address"
        },
        {
          "internalType": "address",
          "name": "to",
          "type": "address"
        },
        {
          "internalType": "uint256",
          "name": "tokenId",
          "type": "uint256"
        },
        {
          "internalType": "bytes",
          "name": "_data",
          "type": "bytes"
        }
      ],
      "name": "safeTransferFrom",
      "outputs": [],
      "stateMutability": "nonpayable",
      "type": "function"
    },
    {
      "inputs": [
        {
          "internalType": "address",
          "name": "operator",
          "type": "address"
        },
        {
          "internalType": "bool",
          "name": "approved",
          "type": "bool"
        }
      ],
      "name": "setApprovalForAll",
      "outputs": [],
      "stateMutability": "nonpayable",
      "type": "function"
    },
    {
      "inputs": [
        {
          "internalType": "bytes4",
          "name": "interfaceId",
          "type": "bytes4"
        }
      ],
      "name": "supportsInterface",
      "outputs": [
        {
          "internalType": "bool",
          "name": "",
          "type": "bool"
        }
      ],
      "stateMutability": "view",
      "type": "function",
      "constant": true
    },
    {
      "inputs": [],
      "name": "symbol",
      "outputs": [
        {
          "internalType": "string",
          "name": "",
          "type": "string"
        }
      ],
      "stateMutability": "view",
      "type": "function",
      "constant": true
    },
    {
      "inputs": [
        {
          "internalType": "uint256",
          "name": "tokenId",
          "type": "uint256"
        }
      ],
      "name": "tokenURI",
      "outputs": [
        {
          "internalType": "string",
          "name": "",
          "type": "string"
        }
      ],
      "stateMutability": "view",
      "type": "function",
      "constant": true
    },
    {
      "inputs": [
        {
          "internalType": "address",
          "name": "from",
          "type": "address"
        },
        {
          "internalType": "address",
          "name": "to",
          "type": "address"
        },
        {
          "internalType": "uint256",
          "name": "tokenId",
          "type": "uint256"
        }
      ],
      "name": "transferFrom",
      "outputs": [],
      "stateMutability": "nonpayable",
      "type": "function"
    },
    {
      "inputs": [
        {
          "internalType": "address",
          "name": "newOwner",
          "type": "address"
        }
      ],
      "name": "transferOwnership",
      "outputs": [],
      "stateMutability": "nonpayable",
      "type": "function"
    },
    {
      "inputs": [
        {
          "internalType": "uint256",
          "name": "_mintFee",
          "type": "uint256"
        },
        {
          "internalType": "uint256",
          "name": "_healFee",
          "type": "uint256"
        },
        {
          "internalType": "uint256",
          "name": "_fightFee",
          "type": "uint256"
        }
      ],
      "name": "updateFees",
      "outputs": [],
      "stateMutability": "nonpayable",
      "type": "function"
    },
    {
      "inputs": [],
      "name": "withdraw",
      "outputs": [],
      "stateMutability": "nonpayable",
      "type": "function"
    },
    {
      "inputs": [
        {
          "internalType": "enum NFTGameToken.type_character",
          "name": "_typeCharacter",
          "type": "uint8"
        }
      ],
      "name": "createCharacter",
      "outputs": [],
      "stateMutability": "payable",
      "type": "function",
      "payable": true
    },
    {
      "inputs": [
        {
          "internalType": "uint256",
          "name": "_tokenId",
          "type": "uint256"
        }
      ],
      "name": "heal",
      "outputs": [],
      "stateMutability": "payable",
      "type": "function",
      "payable": true
    },
    {
      "inputs": [
        {
          "internalType": "uint256",
          "name": "_myTokenId",
          "type": "uint256"
        },
        {
          "internalType": "uint256",
          "name": "_rivalTokenId",
          "type": "uint256"
        }
      ],
      "name": "fight",
      "outputs": [],
      "stateMutability": "payable",
      "type": "function",
      "payable": true
    },
    {
      "inputs": [
        {
          "internalType": "uint256",
          "name": "_tokenId",
          "type": "uint256"
        }
      ],
      "name": "getTokenDetails",
      "outputs": [
        {
          "components": [
            {
              "internalType": "uint256",
              "name": "id",
              "type": "uint256"
            },
            {
              "internalType": "uint256",
              "name": "dna",
              "type": "uint256"
            },
            {
              "internalType": "uint256",
              "name": "xp",
              "type": "uint256"
            },
            {
              "internalType": "uint256",
              "name": "hp",
              "type": "uint256"
            },
            {
              "internalType": "uint8",
              "name": "attack",
              "type": "uint8"
            },
            {
              "internalType": "uint8",
              "name": "armor",
              "type": "uint8"
            },
            {
              "internalType": "uint8",
              "name": "mana",
              "type": "uint8"
            },
            {
              "internalType": "uint8",
              "name": "magicResistance",
              "type": "uint8"
            },
            {
              "internalType": "enum NFTGameToken.type_character",
              "name": "typeCharacter",
              "type": "uint8"
            }
          ],
          "internalType": "struct NFTGameToken.Character",
          "name": "",
          "type": "tuple"
        }
      ],
      "stateMutability": "view",
      "type": "function",
      "constant": true
    },
    {
      "inputs": [],
      "name": "getMyCharacters",
      "outputs": [
        {
          "components": [
            {
              "internalType": "uint256",
              "name": "id",
              "type": "uint256"
            },
            {
              "internalType": "uint256",
              "name": "dna",
              "type": "uint256"
            },
            {
              "internalType": "uint256",
              "name": "xp",
              "type": "uint256"
            },
            {
              "internalType": "uint256",
              "name": "hp",
              "type": "uint256"
            },
            {
              "internalType": "uint8",
              "name": "attack",
              "type": "uint8"
            },
            {
              "internalType": "uint8",
              "name": "armor",
              "type": "uint8"
            },
            {
              "internalType": "uint8",
              "name": "mana",
              "type": "uint8"
            },
            {
              "internalType": "uint8",
              "name": "magicResistance",
              "type": "uint8"
            },
            {
              "internalType": "enum NFTGameToken.type_character",
              "name": "typeCharacter",
              "type": "uint8"
            }
          ],
          "internalType": "struct NFTGameToken.Character[]",
          "name": "",
          "type": "tuple[]"
        }
      ],
      "stateMutability": "view",
      "type": "function",
      "constant": true
    },
    {
      "inputs": [],
      "name": "getOthersCharacters",
      "outputs": [
        {
          "components": [
            {
              "internalType": "uint256",
              "name": "id",
              "type": "uint256"
            },
            {
              "internalType": "uint256",
              "name": "dna",
              "type": "uint256"
            },
            {
              "internalType": "uint256",
              "name": "xp",
              "type": "uint256"
            },
            {
              "internalType": "uint256",
              "name": "hp",
              "type": "uint256"
            },
            {
              "internalType": "uint8",
              "name": "attack",
              "type": "uint8"
            },
            {
              "internalType": "uint8",
              "name": "armor",
              "type": "uint8"
            },
            {
              "internalType": "uint8",
              "name": "mana",
              "type": "uint8"
            },
            {
              "internalType": "uint8",
              "name": "magicResistance",
              "type": "uint8"
            },
            {
              "internalType": "enum NFTGameToken.type_character",
              "name": "typeCharacter",
              "type": "uint8"
            }
          ],
          "internalType": "struct NFTGameToken.Character[]",
          "name": "",
          "type": "tuple[]"
        }
      ],
      "stateMutability": "view",
      "type": "function",
      "constant": true
    }
  ],
  "bytecode": "0x6080604052600060075566038d7ea4c680006008556509184e72a0006009556509184e72a000600a553480156200003557600080fd5b506040518060400160405280600c81526020017f4e465447616d65546f6b656e00000000000000000000000000000000000000008152506040518060400160405280600481526020017f4e465447000000000000000000000000000000000000000000000000000000008152508160009080519060200190620000ba929190620001dc565b508060019080519060200190620000d3929190620001dc565b50505062000108620000f36200010e640100000000026401000000009004565b62000116640100000000026401000000009004565b620002f1565b600033905090565b6000600660009054906101000a900473ffffffffffffffffffffffffffffffffffffffff16905081600660006101000a81548173ffffffffffffffffffffffffffffffffffffffff021916908373ffffffffffffffffffffffffffffffffffffffff1602179055508173ffffffffffffffffffffffffffffffffffffffff168173ffffffffffffffffffffffffffffffffffffffff167f8be0079c531659141344cd1fd0a4f28419497f9722a3daafe3b4186f6b6457e060405160405180910390a35050565b828054620001ea90620002bb565b90600052602060002090601f0160209004810192826200020e57600085556200025a565b82601f106200022957805160ff19168380011785556200025a565b828001600101855582156200025a579182015b82811115620002595782518255916020019190600101906200023c565b5b5090506200026991906200026d565b5090565b5b80821115620002885760008160009055506001016200026e565b5090565b7f4e487b7100000000000000000000000000000000000000000000000000000000600052602260045260246000fd5b60006002820490506001821680620002d457607f821691505b60208210811415620002eb57620002ea6200028c565b5b50919050565b614a0180620003016000396000f3fe608060405260043610610168576000357c010000000000000000000000000000000000000000000000000000000090048063715018a6116100d3578063c1e037281161008c578063c1e0372814610478578063c87b56dd146104b5578063ca39e5ef146104f2578063e985e9c51461050e578063f2fde38b1461054b578063f37ac61c1461057457610168565b8063715018a61461039d5780638da5cb5b146103b457806395d89b41146103df578063a22cb4651461040a578063b57da3b114610433578063b88d4fde1461044f57610168565b80633c4739d3116101255780633c4739d31461028d5780633ccfd60b146102b857806342842e0e146102cf5780634fb97a10146102f85780636352211e1461032357806370a082311461036057610168565b806301ffc9a71461016d57806306fdde03146101aa578063081812fc146101d5578063095ea7b314610212578063224290851461023b57806323b872dd14610264575b600080fd5b34801561017957600080fd5b50610194600480360381019061018f9190613065565b610590565b6040516101a191906130ad565b60405180910390f35b3480156101b657600080fd5b506101bf610672565b6040516101cc9190613161565b60405180910390f35b3480156101e157600080fd5b506101fc60048036038101906101f791906131b9565b610704565b6040516102099190613227565b60405180910390f35b34801561021e57600080fd5b506102396004803603810190610234919061326e565b610789565b005b34801561024757600080fd5b50610262600480360381019061025d91906132ae565b6108a1565b005b34801561027057600080fd5b5061028b60048036038101906102869190613301565b610937565b005b34801561029957600080fd5b506102a2610997565b6040516102af919061355d565b60405180910390f35b3480156102c457600080fd5b506102cd610b85565b005b3480156102db57600080fd5b506102f660048036038101906102f19190613301565b610c68565b005b34801561030457600080fd5b5061030d610c88565b60405161031a919061355d565b60405180910390f35b34801561032f57600080fd5b5061034a600480360381019061034591906131b9565b610e82565b6040516103579190613227565b60405180910390f35b34801561036c57600080fd5b506103876004803603810190610382919061357f565b610f34565b60405161039491906135bb565b60405180910390f35b3480156103a957600080fd5b506103b2610fec565b005b3480156103c057600080fd5b506103c9611074565b6040516103d69190613227565b60405180910390f35b3480156103eb57600080fd5b506103f461109e565b6040516104019190613161565b60405180910390f35b34801561041657600080fd5b50610431600480360381019061042c9190613602565b611130565b005b61044d60048036038101906104489190613667565b611146565b005b34801561045b57600080fd5b50610476600480360381019061047191906137c9565b6117aa565b005b34801561048457600080fd5b5061049f600480360381019061049a91906131b9565b61180c565b6040516104ac9190613903565b60405180910390f35b3480156104c157600080fd5b506104dc60048036038101906104d791906131b9565b611911565b6040516104e99190613161565b60405180910390f35b61050c6004803603810190610507919061391f565b6119b8565b005b34801561051a57600080fd5b506105356004803603810190610530919061395f565b611dc7565b60405161054291906130ad565b60405180910390f35b34801561055757600080fd5b50610572600480360381019061056d919061357f565b611e5b565b005b61058e600480360381019061058991906131b9565b611f53565b005b60007f80ac58cd000000000000000000000000000000000000000000000000000000007bffffffffffffffffffffffffffffffffffffffffffffffffffffffff1916827bffffffffffffffffffffffffffffffffffffffffffffffffffffffff1916148061065b57507f5b5e139f000000000000000000000000000000000000000000000000000000007bffffffffffffffffffffffffffffffffffffffffffffffffffffffff1916827bffffffffffffffffffffffffffffffffffffffffffffffffffffffff1916145b8061066b575061066a826120c8565b5b9050919050565b606060008054610681906139ce565b80601f01602080910402602001604051908101604052809291908181526020018280546106ad906139ce565b80156106fa5780601f106106cf576101008083540402835291602001916106fa565b820191906000526020600020905b8154815290600101906020018083116106dd57829003601f168201915b5050505050905090565b600061070f82612132565b61074e576040517f08c379a000000000000000000000000000000000000000000000000000000000815260040161074590613a72565b60405180910390fd5b6004600083815260200190815260200160002060009054906101000a900473ffffffffffffffffffffffffffffffffffffffff169050919050565b600061079482610e82565b90508073ffffffffffffffffffffffffffffffffffffffff168373ffffffffffffffffffffffffffffffffffffffff161415610805576040517f08c379a00000000000000000000000000000000000000000000000000000000081526004016107fc90613b04565b60405180910390fd5b8073ffffffffffffffffffffffffffffffffffffffff1661082461219e565b73ffffffffffffffffffffffffffffffffffffffff16148061085357506108528161084d61219e565b611dc7565b5b610892576040517f08c379a000000000000000000000000000000000000000000000000000000000815260040161088990613b96565b60405180910390fd5b61089c83836121a6565b505050565b6108a961219e565b73ffffffffffffffffffffffffffffffffffffffff166108c7611074565b73ffffffffffffffffffffffffffffffffffffffff161461091d576040517f08c379a000000000000000000000000000000000000000000000000000000000815260040161091490613c02565b60405180910390fd5b826008819055508160098190555080600a81905550505050565b61094861094261219e565b8261225f565b610987576040517f08c379a000000000000000000000000000000000000000000000000000000000815260040161097e90613c94565b60405180910390fd5b61099283838361233d565b505050565b60606000806109a533610f34565b67ffffffffffffffff8111156109be576109bd61369e565b5b6040519080825280602002602001820160405280156109f757816020015b6109e4612f8f565b8152602001906001900390816109dc5790505b50905060005b600754811015610b7c573373ffffffffffffffffffffffffffffffffffffffff16610a2782610e82565b73ffffffffffffffffffffffffffffffffffffffff161415610b6957600b600082815260200190815260200160002060405180610120016040529081600082015481526020016001820154815260200160028201548152602001600382015481526020016004820160009054906101000a900460ff1660ff1660ff1681526020016004820160019054906101000a900460ff1660ff1660ff1681526020016004820160029054906101000a900460ff1660ff1660ff1681526020016004820160039054906101000a900460ff1660ff1660ff1681526020016004820160049054906101000a900460ff166002811115610b2357610b226133ab565b5b6002811115610b3557610b346133ab565b5b81525050828460ff1681518110610b4f57610b4e613cb4565b5b60200260200101819052508280610b6590613d12565b9350505b8080610b7490613d3c565b9150506109fd565b50809250505090565b610b8d61219e565b73ffffffffffffffffffffffffffffffffffffffff16610bab611074565b73ffffffffffffffffffffffffffffffffffffffff1614610c01576040517f08c379a0000000000000000000000000000000000000000000000000000000008152600401610bf890613c02565b60405180910390fd5b610c09611074565b73ffffffffffffffffffffffffffffffffffffffff166108fc3073ffffffffffffffffffffffffffffffffffffffff16319081150290604051600060405180830381858888f19350505050158015610c65573d6000803e3d6000fd5b50565b610c83838383604051806020016040528060008152506117aa565b505050565b6060600080610c9633610f34565b600754610ca39190613d85565b67ffffffffffffffff811115610cbc57610cbb61369e565b5b604051908082528060200260200182016040528015610cf557816020015b610ce2612f8f565b815260200190600190039081610cda5790505b50905060005b600754811015610e79573373ffffffffffffffffffffffffffffffffffffffff16610d2582610e82565b73ffffffffffffffffffffffffffffffffffffffff1614610e6657600b600082815260200190815260200160002060405180610120016040529081600082015481526020016001820154815260200160028201548152602001600382015481526020016004820160009054906101000a900460ff1660ff1660ff1681526020016004820160019054906101000a900460ff1660ff1660ff1681526020016004820160029054906101000a900460ff1660ff1660ff1681526020016004820160039054906101000a900460ff1660ff1660ff1681526020016004820160049054906101000a900460ff166002811115610e2057610e1f6133ab565b5b6002811115610e3257610e316133ab565b5b81525050828460ff1681518110610e4c57610e4b613cb4565b5b60200260200101819052508280610e6290613d12565b9350505b8080610e7190613d3c565b915050610cfb565b50809250505090565b6000806002600084815260200190815260200160002060009054906101000a900473ffffffffffffffffffffffffffffffffffffffff169050600073ffffffffffffffffffffffffffffffffffffffff168173ffffffffffffffffffffffffffffffffffffffff161415610f2b576040517f08c379a0000000000000000000000000000000000000000000000000000000008152600401610f2290613e2b565b60405180910390fd5b80915050919050565b60008073ffffffffffffffffffffffffffffffffffffffff168273ffffffffffffffffffffffffffffffffffffffff161415610fa5576040517f08c379a0000000000000000000000000000000000000000000000000000000008152600401610f9c90613ebd565b60405180910390fd5b600360008373ffffffffffffffffffffffffffffffffffffffff1673ffffffffffffffffffffffffffffffffffffffff168152602001908152602001600020549050919050565b610ff461219e565b73ffffffffffffffffffffffffffffffffffffffff16611012611074565b73ffffffffffffffffffffffffffffffffffffffff1614611068576040517f08c379a000000000000000000000000000000000000000000000000000000000815260040161105f90613c02565b60405180910390fd5b6110726000612599565b565b6000600660009054906101000a900473ffffffffffffffffffffffffffffffffffffffff16905090565b6060600180546110ad906139ce565b80601f01602080910402602001604051908101604052809291908181526020018280546110d9906139ce565b80156111265780601f106110fb57610100808354040283529160200191611126565b820191906000526020600020905b81548152906001019060200180831161110957829003601f168201915b5050505050905090565b61114261113b61219e565b838361265f565b5050565b600854341461118a576040517f08c379a000000000000000000000000000000000000000000000000000000000815260040161118190613f29565b60405180910390fd5b600561119533610f34565b106111d5576040517f08c379a00000000000000000000000000000000000000000000000000000000081526004016111cc90613f95565b60405180910390fd5b600060028111156111e9576111e86133ab565b5b8160028111156111fc576111fb6133ab565b5b148061122c575060016002811115611217576112166133ab565b5b81600281111561122a576112296133ab565b5b145b8061125a5750600280811115611245576112446133ab565b5b816002811115611258576112576133ab565b5b145b611299576040517f08c379a000000000000000000000000000000000000000000000000000000000815260040161129090614027565b60405180910390fd5b60006112ab662386f26fc100006127cc565b9050600060028111156112c1576112c06133ab565b5b8260028111156112d4576112d36133ab565b5b14156114375760405180610120016040528060075481526020018281526020016001815260200160648152602001600560ff168152602001600360ff168152602001600160ff168152602001600160ff1681526020016000600281111561133e5761133d6133ab565b5b815250600b600060075481526020019081526020016000206000820151816000015560208201518160010155604082015181600201556060820151816003015560808201518160040160006101000a81548160ff021916908360ff16021790555060a08201518160040160016101000a81548160ff021916908360ff16021790555060c08201518160040160026101000a81548160ff021916908360ff16021790555060e08201518160040160036101000a81548160ff021916908360ff1602179055506101008201518160040160046101000a81548160ff0219169083600281111561142e5761142d6133ab565b5b02179055509050505b6001600281111561144b5761144a6133ab565b5b82600281111561145e5761145d6133ab565b5b14156115c15760405180610120016040528060075481526020018281526020016001815260200160648152602001600160ff168152602001600160ff168152602001600560ff168152602001600360ff168152602001600160028111156114c8576114c76133ab565b5b815250600b600060075481526020019081526020016000206000820151816000015560208201518160010155604082015181600201556060820151816003015560808201518160040160006101000a81548160ff021916908360ff16021790555060a08201518160040160016101000a81548160ff021916908360ff16021790555060c08201518160040160026101000a81548160ff021916908360ff16021790555060e08201518160040160036101000a81548160ff021916908360ff1602179055506101008201518160040160046101000a81548160ff021916908360028111156115b8576115b76133ab565b5b02179055509050505b6002808111156115d4576115d36133ab565b5b8260028111156115e7576115e66133ab565b5b14156117495760405180610120016040528060075481526020018281526020016001815260200160648152602001600260ff168152602001600260ff168152602001600360ff168152602001600360ff1681526020016002808111156116505761164f6133ab565b5b815250600b600060075481526020019081526020016000206000820151816000015560208201518160010155604082015181600201556060820151816003015560808201518160040160006101000a81548160ff021916908360ff16021790555060a08201518160040160016101000a81548160ff021916908360ff16021790555060c08201518160040160026101000a81548160ff021916908360ff16021790555060e08201518160040160036101000a81548160ff021916908360ff1602179055506101008201518160040160046101000a81548160ff021916908360028111156117405761173f6133ab565b5b02179055509050505b61175533600754612812565b7f7f0777865312bae358531b42d9c405a59bfd31beba1973946dc0ce134cad418a60075460405161178691906135bb565b60405180910390a1600760008154809291906117a190613d3c565b91905055505050565b6117bb6117b561219e565b8361225f565b6117fa576040517f08c379a00000000000000000000000000000000000000000000000000000000081526004016117f190613c94565b60405180910390fd5b61180684848484612830565b50505050565b611814612f8f565b600b600083815260200190815260200160002060405180610120016040529081600082015481526020016001820154815260200160028201548152602001600382015481526020016004820160009054906101000a900460ff1660ff1660ff1681526020016004820160019054906101000a900460ff1660ff1660ff1681526020016004820160029054906101000a900460ff1660ff1660ff1681526020016004820160039054906101000a900460ff1660ff1660ff1681526020016004820160049054906101000a900460ff1660028111156118f4576118f36133ab565b5b6002811115611906576119056133ab565b5b815250509050919050565b606061191c82612132565b61195b576040517f08c379a0000000000000000000000000000000000000000000000000000000008152600401611952906140b9565b60405180910390fd5b600061196561288c565b9050600081511161198557604051806020016040528060008152506119b0565b8061198f846128a3565b6040516020016119a0929190614115565b6040516020818303038152906040525b915050919050565b600a5434146119fc576040517f08c379a00000000000000000000000000000000000000000000000000000000081526004016119f390613f29565b60405180910390fd5b3373ffffffffffffffffffffffffffffffffffffffff16611a1c83610e82565b73ffffffffffffffffffffffffffffffffffffffff1614611a72576040517f08c379a0000000000000000000000000000000000000000000000000000000008152600401611a6990614185565b60405180910390fd5b611a7b81610e82565b73ffffffffffffffffffffffffffffffffffffffff16611a9a83610e82565b73ffffffffffffffffffffffffffffffffffffffff161415611af1576040517f08c379a0000000000000000000000000000000000000000000000000000000008152600401611ae890614217565b60405180910390fd5b6000600b600084815260200190815260200160002060030154118015611b2d57506000600b600083815260200190815260200160002060030154115b611b6c576040517f08c379a0000000000000000000000000000000000000000000000000000000008152600401611b6390614283565b60405180910390fd5b6000611b788383612a23565b90506000611b868385612a23565b9050600b6000848152602001908152602001600020600301548210611bf2576000600b600085815260200190815260200160002060030181905550600b60008581526020019081526020016000206002016000815480929190611be890613d3c565b9190505550611d84565b81600b60008581526020019081526020016000206003016000828254611c189190613d85565b92505081905550600b6000858152602001908152602001600020600301548110611c89576000600b600086815260200190815260200160002060030181905550600b60008481526020019081526020016000206002016000815480929190611c7f90613d3c565b9190505550611d83565b80600b60008681526020019081526020016000206003016000828254611caf9190613d85565b9250508190555080821115611cef57600b60008581526020019081526020016000206002016000815480929190611ce590613d3c565b9190505550611d82565b81811115611d2857600b60008481526020019081526020016000206002016000815480929190611d1e90613d3c565b9190505550611d81565b600b60008581526020019081526020016000206002016000815480929190611d4f90613d3c565b9190505550600b60008481526020019081526020016000206002016000815480929190611d7b90613d3c565b91905055505b5b5b5b7f8c796248b1f953c9c8c0ed19eddf3a98eebe2c84390fe57e75f222dc677a141184848484604051611db994939291906142a3565b60405180910390a150505050565b6000600560008473ffffffffffffffffffffffffffffffffffffffff1673ffffffffffffffffffffffffffffffffffffffff16815260200190815260200160002060008373ffffffffffffffffffffffffffffffffffffffff1673ffffffffffffffffffffffffffffffffffffffff16815260200190815260200160002060009054906101000a900460ff16905092915050565b611e6361219e565b73ffffffffffffffffffffffffffffffffffffffff16611e81611074565b73ffffffffffffffffffffffffffffffffffffffff1614611ed7576040517f08c379a0000000000000000000000000000000000000000000000000000000008152600401611ece90613c02565b60405180910390fd5b600073ffffffffffffffffffffffffffffffffffffffff168173ffffffffffffffffffffffffffffffffffffffff161415611f47576040517f08c379a0000000000000000000000000000000000000000000000000000000008152600401611f3e9061435a565b60405180910390fd5b611f5081612599565b50565b6009543414611f97576040517f08c379a0000000000000000000000000000000000000000000000000000000008152600401611f8e90613f29565b60405180910390fd5b3373ffffffffffffffffffffffffffffffffffffffff16611fb782610e82565b73ffffffffffffffffffffffffffffffffffffffff161461200d576040517f08c379a000000000000000000000000000000000000000000000000000000000815260040161200490614185565b60405180910390fd5b60006032600b600084815260200190815260200160002060030154612032919061437a565b9050606481111561205e576064600b60008481526020019081526020016000206003018190555061208d565b6032600b60008481526020019081526020016000206003016000828254612085919061437a565b925050819055505b7f8379605eab0a1d9aab85917b4375ba70864307e4d75406a1a2e05dd600c1629a826040516120bc91906135bb565b60405180910390a15050565b60007f01ffc9a7000000000000000000000000000000000000000000000000000000007bffffffffffffffffffffffffffffffffffffffffffffffffffffffff1916827bffffffffffffffffffffffffffffffffffffffffffffffffffffffff1916149050919050565b60008073ffffffffffffffffffffffffffffffffffffffff166002600084815260200190815260200160002060009054906101000a900473ffffffffffffffffffffffffffffffffffffffff1673ffffffffffffffffffffffffffffffffffffffff1614159050919050565b600033905090565b816004600083815260200190815260200160002060006101000a81548173ffffffffffffffffffffffffffffffffffffffff021916908373ffffffffffffffffffffffffffffffffffffffff160217905550808273ffffffffffffffffffffffffffffffffffffffff1661221983610e82565b73ffffffffffffffffffffffffffffffffffffffff167f8c5be1e5ebec7d5bd14f71427d1e84f3dd0314c0f7b2291e5b200ac8c7c3b92560405160405180910390a45050565b600061226a82612132565b6122a9576040517f08c379a00000000000000000000000000000000000000000000000000000000081526004016122a090614442565b60405180910390fd5b60006122b483610e82565b90508073ffffffffffffffffffffffffffffffffffffffff168473ffffffffffffffffffffffffffffffffffffffff16148061232357508373ffffffffffffffffffffffffffffffffffffffff1661230b84610704565b73ffffffffffffffffffffffffffffffffffffffff16145b8061233457506123338185611dc7565b5b91505092915050565b8273ffffffffffffffffffffffffffffffffffffffff1661235d82610e82565b73ffffffffffffffffffffffffffffffffffffffff16146123b3576040517f08c379a00000000000000000000000000000000000000000000000000000000081526004016123aa906144d4565b60405180910390fd5b600073ffffffffffffffffffffffffffffffffffffffff168273ffffffffffffffffffffffffffffffffffffffff161415612423576040517f08c379a000000000000000000000000000000000000000000000000000000000815260040161241a90614566565b60405180910390fd5b61242e838383612b4c565b6124396000826121a6565b6001600360008573ffffffffffffffffffffffffffffffffffffffff1673ffffffffffffffffffffffffffffffffffffffff16815260200190815260200160002060008282546124899190613d85565b925050819055506001600360008473ffffffffffffffffffffffffffffffffffffffff1673ffffffffffffffffffffffffffffffffffffffff16815260200190815260200160002060008282546124e0919061437a565b92505081905550816002600083815260200190815260200160002060006101000a81548173ffffffffffffffffffffffffffffffffffffffff021916908373ffffffffffffffffffffffffffffffffffffffff160217905550808273ffffffffffffffffffffffffffffffffffffffff168473ffffffffffffffffffffffffffffffffffffffff167fddf252ad1be2c89b69c2b068fc378daa952ba7f163c4a11628f55a4df523b3ef60405160405180910390a4505050565b6000600660009054906101000a900473ffffffffffffffffffffffffffffffffffffffff16905081600660006101000a81548173ffffffffffffffffffffffffffffffffffffffff021916908373ffffffffffffffffffffffffffffffffffffffff1602179055508173ffffffffffffffffffffffffffffffffffffffff168173ffffffffffffffffffffffffffffffffffffffff167f8be0079c531659141344cd1fd0a4f28419497f9722a3daafe3b4186f6b6457e060405160405180910390a35050565b8173ffffffffffffffffffffffffffffffffffffffff168373ffffffffffffffffffffffffffffffffffffffff1614156126ce576040517f08c379a00000000000000000000000000000000000000000000000000000000081526004016126c5906145d2565b60405180910390fd5b80600560008573ffffffffffffffffffffffffffffffffffffffff1673ffffffffffffffffffffffffffffffffffffffff16815260200190815260200160002060008473ffffffffffffffffffffffffffffffffffffffff1673ffffffffffffffffffffffffffffffffffffffff16815260200190815260200160002060006101000a81548160ff0219169083151502179055508173ffffffffffffffffffffffffffffffffffffffff168373ffffffffffffffffffffffffffffffffffffffff167f17307eab39ab6107e8899845ad3d59bd9653f200f220920489ca2b5937696c31836040516127bf91906130ad565b60405180910390a3505050565b60008042336040516020016127e2929190614667565b60405160208183030381529060405280519060200120600190049050828161280a91906146c2565b915050919050565b61282c828260405180602001604052806000815250612b51565b5050565b61283b84848461233d565b61284784848484612bac565b612886576040517f08c379a000000000000000000000000000000000000000000000000000000000815260040161287d90614765565b60405180910390fd5b50505050565b606060405180602001604052806000815250905090565b606060008214156128eb576040518060400160405280600181526020017f30000000000000000000000000000000000000000000000000000000000000008152509050612a1e565b600082905060005b6000821461291d57808061290690613d3c565b915050600a826129169190614785565b91506128f3565b60008167ffffffffffffffff8111156129395761293861369e565b5b6040519080825280601f01601f19166020018201604052801561296b5781602001600182028036833780820191505090505b5090505b60008514612a17576001826129849190613d85565b9150600a8561299391906146c2565b603061299f919061437a565b7f0100000000000000000000000000000000000000000000000000000000000000028183815181106129d4576129d3613cb4565b5b60200101907effffffffffffffffffffffffffffffffffffffffffffffffffffffffffffff1916908160001a905350600a85612a109190614785565b945061296f565b8093505050505b919050565b600080612a94612a53600a600b600088815260200190815260200160002060020154612d6c90919063ffffffff16565b6001612a5f919061437a565b600b600087815260200190815260200160002060040160009054906101000a900460ff1660ff16612d8290919063ffffffff16565b90506000612b196002612b0b612aca600a600b60008a815260200190815260200160002060020154612d6c90919063ffffffff16565b6001612ad6919061437a565b600b600089815260200190815260200160002060040160019054906101000a900460ff1660ff16612d8290919063ffffffff16565b612d6c90919063ffffffff16565b905080821015612b2e57600092505050612b46565b612b418183612d9890919063ffffffff16565b925050505b92915050565b505050565b612b5b8383612dae565b612b686000848484612bac565b612ba7576040517f08c379a0000000000000000000000000000000000000000000000000000000008152600401612b9e90614765565b60405180910390fd5b505050565b6000612bcd8473ffffffffffffffffffffffffffffffffffffffff16612f7c565b15612d5f578373ffffffffffffffffffffffffffffffffffffffff1663150b7a02612bf661219e565b8786866040518563ffffffff167c0100000000000000000000000000000000000000000000000000000000028152600401612c34949392919061480b565b6020604051808303816000875af1925050508015612c7057506040513d601f19601f82011682018060405250810190612c6d919061486c565b60015b612cf3573d8060008114612ca0576040519150601f19603f3d011682016040523d82523d6000602084013e612ca5565b606091505b50600081511415612ceb576040517f08c379a0000000000000000000000000000000000000000000000000000000008152600401612ce290614765565b60405180910390fd5b805181602001fd5b63150b7a027c0100000000000000000000000000000000000000000000000000000000027bffffffffffffffffffffffffffffffffffffffffffffffffffffffff1916817bffffffffffffffffffffffffffffffffffffffffffffffffffffffff191614915050612d64565b600190505b949350505050565b60008183612d7a9190614785565b905092915050565b60008183612d909190614899565b905092915050565b60008183612da69190613d85565b905092915050565b600073ffffffffffffffffffffffffffffffffffffffff168273ffffffffffffffffffffffffffffffffffffffff161415612e1e576040517f08c379a0000000000000000000000000000000000000000000000000000000008152600401612e159061493f565b60405180910390fd5b612e2781612132565b15612e67576040517f08c379a0000000000000000000000000000000000000000000000000000000008152600401612e5e906149ab565b60405180910390fd5b612e7360008383612b4c565b6001600360008473ffffffffffffffffffffffffffffffffffffffff1673ffffffffffffffffffffffffffffffffffffffff1681526020019081526020016000206000828254612ec3919061437a565b92505081905550816002600083815260200190815260200160002060006101000a81548173ffffffffffffffffffffffffffffffffffffffff021916908373ffffffffffffffffffffffffffffffffffffffff160217905550808273ffffffffffffffffffffffffffffffffffffffff16600073ffffffffffffffffffffffffffffffffffffffff167fddf252ad1be2c89b69c2b068fc378daa952ba7f163c4a11628f55a4df523b3ef60405160405180910390a45050565b600080823b905060008111915050919050565b60405180610120016040528060008152602001600081526020016000815260200160008152602001600060ff168152602001600060ff168152602001600060ff168152602001600060ff16815260200160006002811115612ff357612ff26133ab565b5b81525090565b6000604051905090565b600080fd5b600080fd5b60007fffffffff0000000000000000000000000000000000000000000000000000000082169050919050565b6130428161300d565b811461304d57600080fd5b50565b60008135905061305f81613039565b92915050565b60006020828403121561307b5761307a613003565b5b600061308984828501613050565b91505092915050565b60008115159050919050565b6130a781613092565b82525050565b60006020820190506130c2600083018461309e565b92915050565b600081519050919050565b600082825260208201905092915050565b60005b838110156131025780820151818401526020810190506130e7565b83811115613111576000848401525b50505050565b6000601f19601f8301169050919050565b6000613133826130c8565b61313d81856130d3565b935061314d8185602086016130e4565b61315681613117565b840191505092915050565b6000602082019050818103600083015261317b8184613128565b905092915050565b6000819050919050565b61319681613183565b81146131a157600080fd5b50565b6000813590506131b38161318d565b92915050565b6000602082840312156131cf576131ce613003565b5b60006131dd848285016131a4565b91505092915050565b600073ffffffffffffffffffffffffffffffffffffffff82169050919050565b6000613211826131e6565b9050919050565b61322181613206565b82525050565b600060208201905061323c6000830184613218565b92915050565b61324b81613206565b811461325657600080fd5b50565b60008135905061326881613242565b92915050565b6000806040838503121561328557613284613003565b5b600061329385828601613259565b92505060206132a4858286016131a4565b9150509250929050565b6000806000606084860312156132c7576132c6613003565b5b60006132d5868287016131a4565b93505060206132e6868287016131a4565b92505060406132f7868287016131a4565b9150509250925092565b60008060006060848603121561331a57613319613003565b5b600061332886828701613259565b935050602061333986828701613259565b925050604061334a868287016131a4565b9150509250925092565b600081519050919050565b600082825260208201905092915050565b6000819050602082019050919050565b61338981613183565b82525050565b600060ff82169050919050565b6133a58161338f565b82525050565b7f4e487b7100000000000000000000000000000000000000000000000000000000600052602160045260246000fd5b600381106133eb576133ea6133ab565b5b50565b60008190506133fc826133da565b919050565b600061340c826133ee565b9050919050565b61341c81613401565b82525050565b610120820160008201516134396000850182613380565b50602082015161344c6020850182613380565b50604082015161345f6040850182613380565b5060608201516134726060850182613380565b506080820151613485608085018261339c565b5060a082015161349860a085018261339c565b5060c08201516134ab60c085018261339c565b5060e08201516134be60e085018261339c565b506101008201516134d3610100850182613413565b50505050565b60006134e58383613422565b6101208301905092915050565b6000602082019050919050565b600061350a82613354565b613514818561335f565b935061351f83613370565b8060005b8381101561355057815161353788826134d9565b9750613542836134f2565b925050600181019050613523565b5085935050505092915050565b6000602082019050818103600083015261357781846134ff565b905092915050565b60006020828403121561359557613594613003565b5b60006135a384828501613259565b91505092915050565b6135b581613183565b82525050565b60006020820190506135d060008301846135ac565b92915050565b6135df81613092565b81146135ea57600080fd5b50565b6000813590506135fc816135d6565b92915050565b6000806040838503121561361957613618613003565b5b600061362785828601613259565b9250506020613638858286016135ed565b9150509250929050565b6003811061364f57600080fd5b50565b60008135905061366181613642565b92915050565b60006020828403121561367d5761367c613003565b5b600061368b84828501613652565b91505092915050565b600080fd5b600080fd5b7f4e487b7100000000000000000000000000000000000000000000000000000000600052604160045260246000fd5b6136d682613117565b810181811067ffffffffffffffff821117156136f5576136f461369e565b5b80604052505050565b6000613708612ff9565b905061371482826136cd565b919050565b600067ffffffffffffffff8211156137345761373361369e565b5b61373d82613117565b9050602081019050919050565b82818337600083830152505050565b600061376c61376784613719565b6136fe565b90508281526020810184848401111561378857613787613699565b5b61379384828561374a565b509392505050565b600082601f8301126137b0576137af613694565b5b81356137c0848260208601613759565b91505092915050565b600080600080608085870312156137e3576137e2613003565b5b60006137f187828801613259565b945050602061380287828801613259565b9350506040613813878288016131a4565b925050606085013567ffffffffffffffff81111561383457613833613008565b5b6138408782880161379b565b91505092959194509250565b610120820160008201516138636000850182613380565b5060208201516138766020850182613380565b5060408201516138896040850182613380565b50606082015161389c6060850182613380565b5060808201516138af608085018261339c565b5060a08201516138c260a085018261339c565b5060c08201516138d560c085018261339c565b5060e08201516138e860e085018261339c565b506101008201516138fd610100850182613413565b50505050565b600061012082019050613919600083018461384c565b92915050565b6000806040838503121561393657613935613003565b5b6000613944858286016131a4565b9250506020613955858286016131a4565b9150509250929050565b6000806040838503121561397657613975613003565b5b600061398485828601613259565b925050602061399585828601613259565b9150509250929050565b7f4e487b7100000000000000000000000000000000000000000000000000000000600052602260045260246000fd5b600060028204905060018216806139e657607f821691505b602082108114156139fa576139f961399f565b5b50919050565b7f4552433732313a20617070726f76656420717565727920666f72206e6f6e657860008201527f697374656e7420746f6b656e0000000000000000000000000000000000000000602082015250565b6000613a5c602c836130d3565b9150613a6782613a00565b604082019050919050565b60006020820190508181036000830152613a8b81613a4f565b9050919050565b7f4552433732313a20617070726f76616c20746f2063757272656e74206f776e6560008201527f7200000000000000000000000000000000000000000000000000000000000000602082015250565b6000613aee6021836130d3565b9150613af982613a92565b604082019050919050565b60006020820190508181036000830152613b1d81613ae1565b9050919050565b7f4552433732313a20617070726f76652063616c6c6572206973206e6f74206f7760008201527f6e6572206e6f7220617070726f76656420666f7220616c6c0000000000000000602082015250565b6000613b806038836130d3565b9150613b8b82613b24565b604082019050919050565b60006020820190508181036000830152613baf81613b73565b9050919050565b7f4f776e61626c653a2063616c6c6572206973206e6f7420746865206f776e6572600082015250565b6000613bec6020836130d3565b9150613bf782613bb6565b602082019050919050565b60006020820190508181036000830152613c1b81613bdf565b9050919050565b7f4552433732313a207472616e736665722063616c6c6572206973206e6f74206f60008201527f776e6572206e6f7220617070726f766564000000000000000000000000000000602082015250565b6000613c7e6031836130d3565b9150613c8982613c22565b604082019050919050565b60006020820190508181036000830152613cad81613c71565b9050919050565b7f4e487b7100000000000000000000000000000000000000000000000000000000600052603260045260246000fd5b7f4e487b7100000000000000000000000000000000000000000000000000000000600052601160045260246000fd5b6000613d1d8261338f565b915060ff821415613d3157613d30613ce3565b5b600182019050919050565b6000613d4782613183565b91507fffffffffffffffffffffffffffffffffffffffffffffffffffffffffffffffff821415613d7a57613d79613ce3565b5b600182019050919050565b6000613d9082613183565b9150613d9b83613183565b925082821015613dae57613dad613ce3565b5b828203905092915050565b7f4552433732313a206f776e657220717565727920666f72206e6f6e657869737460008201527f656e7420746f6b656e0000000000000000000000000000000000000000000000602082015250565b6000613e156029836130d3565b9150613e2082613db9565b604082019050919050565b60006020820190508181036000830152613e4481613e08565b9050919050565b7f4552433732313a2062616c616e636520717565727920666f7220746865207a6560008201527f726f206164647265737300000000000000000000000000000000000000000000602082015250565b6000613ea7602a836130d3565b9150613eb282613e4b565b604082019050919050565b60006020820190508181036000830152613ed681613e9a565b9050919050565b7f57726f6e6720616d6f756e74206f662066656573000000000000000000000000600082015250565b6000613f136014836130d3565b9150613f1e82613edd565b602082019050919050565b60006020820190508181036000830152613f4281613f06565b9050919050565b7f596f752063616e27742068617665206d6f7265207468616e2035204e46540000600082015250565b6000613f7f601e836130d3565b9150613f8a82613f49565b602082019050919050565b60006020820190508181036000830152613fae81613f72565b9050919050565b7f596f75206d7573742063686f6f7365206265747765656e206265727365726b6560008201527f722c2073706972697475616c206f7220656c656d656e74617279000000000000602082015250565b6000614011603a836130d3565b915061401c82613fb5565b604082019050919050565b6000602082019050818103600083015261404081614004565b9050919050565b7f4552433732314d657461646174613a2055524920717565727920666f72206e6f60008201527f6e6578697374656e7420746f6b656e0000000000000000000000000000000000602082015250565b60006140a3602f836130d3565b91506140ae82614047565b604082019050919050565b600060208201905081810360008301526140d281614096565b9050919050565b600081905092915050565b60006140ef826130c8565b6140f981856140d9565b93506141098185602086016130e4565b80840191505092915050565b600061412182856140e4565b915061412d82846140e4565b91508190509392505050565b7f596f75277265206e6f7420746865206f776e6572206f6620746865204e465400600082015250565b600061416f601f836130d3565b915061417a82614139565b602082019050919050565b6000602082019050818103600083015261419e81614162565b9050919050565b7f596f7572204e4654732063616e6e6f742066696768742065616368206f74686560008201527f7200000000000000000000000000000000000000000000000000000000000000602082015250565b60006142016021836130d3565b915061420c826141a5565b604082019050919050565b60006020820190508181036000830152614230816141f4565b9050919050565b7f4f6e65206f6620746865204e4654732069732064656164000000000000000000600082015250565b600061426d6017836130d3565b915061427882614237565b602082019050919050565b6000602082019050818103600083015261429c81614260565b9050919050565b60006080820190506142b860008301876135ac565b6142c560208301866135ac565b6142d260408301856135ac565b6142df60608301846135ac565b95945050505050565b7f4f776e61626c653a206e6577206f776e657220697320746865207a65726f206160008201527f6464726573730000000000000000000000000000000000000000000000000000602082015250565b60006143446026836130d3565b915061434f826142e8565b604082019050919050565b6000602082019050818103600083015261437381614337565b9050919050565b600061438582613183565b915061439083613183565b9250827fffffffffffffffffffffffffffffffffffffffffffffffffffffffffffffffff038211156143c5576143c4613ce3565b5b828201905092915050565b7f4552433732313a206f70657261746f7220717565727920666f72206e6f6e657860008201527f697374656e7420746f6b656e0000000000000000000000000000000000000000602082015250565b600061442c602c836130d3565b9150614437826143d0565b604082019050919050565b6000602082019050818103600083015261445b8161441f565b9050919050565b7f4552433732313a207472616e73666572206f6620746f6b656e2074686174206960008201527f73206e6f74206f776e0000000000000000000000000000000000000000000000602082015250565b60006144be6029836130d3565b91506144c982614462565b604082019050919050565b600060208201905081810360008301526144ed816144b1565b9050919050565b7f4552433732313a207472616e7366657220746f20746865207a65726f2061646460008201527f7265737300000000000000000000000000000000000000000000000000000000602082015250565b60006145506024836130d3565b915061455b826144f4565b604082019050919050565b6000602082019050818103600083015261457f81614543565b9050919050565b7f4552433732313a20617070726f766520746f2063616c6c657200000000000000600082015250565b60006145bc6019836130d3565b91506145c782614586565b602082019050919050565b600060208201905081810360008301526145eb816145af565b9050919050565b6000819050919050565b61460d61460882613183565b6145f2565b82525050565b60006c0100000000000000000000000082029050919050565b600061463782614613565b9050919050565b60006146498261462c565b9050919050565b61466161465c82613206565b61463e565b82525050565b600061467382856145fc565b6020820191506146838284614650565b6014820191508190509392505050565b7f4e487b7100000000000000000000000000000000000000000000000000000000600052601260045260246000fd5b60006146cd82613183565b91506146d883613183565b9250826146e8576146e7614693565b5b828206905092915050565b7f4552433732313a207472616e7366657220746f206e6f6e20455243373231526560008201527f63656976657220696d706c656d656e7465720000000000000000000000000000602082015250565b600061474f6032836130d3565b915061475a826146f3565b604082019050919050565b6000602082019050818103600083015261477e81614742565b9050919050565b600061479082613183565b915061479b83613183565b9250826147ab576147aa614693565b5b828204905092915050565b600081519050919050565b600082825260208201905092915050565b60006147dd826147b6565b6147e781856147c1565b93506147f78185602086016130e4565b61480081613117565b840191505092915050565b60006080820190506148206000830187613218565b61482d6020830186613218565b61483a60408301856135ac565b818103606083015261484c81846147d2565b905095945050505050565b60008151905061486681613039565b92915050565b60006020828403121561488257614881613003565b5b600061489084828501614857565b91505092915050565b60006148a482613183565b91506148af83613183565b9250817fffffffffffffffffffffffffffffffffffffffffffffffffffffffffffffffff04831182151516156148e8576148e7613ce3565b5b828202905092915050565b7f4552433732313a206d696e7420746f20746865207a65726f2061646472657373600082015250565b60006149296020836130d3565b9150614934826148f3565b602082019050919050565b600060208201905081810360008301526149588161491c565b9050919050565b7f4552433732313a20746f6b656e20616c7265616479206d696e74656400000000600082015250565b6000614995601c836130d3565b91506149a08261495f565b602082019050919050565b600060208201905081810360008301526149c481614988565b905091905056fea26469706673582212208a5a2a5307114b6df5ae13b688e865526d5bf77ad1dde5324c0a60eb055274ca64736f6c634300080a0033",
  "immutableReferences": {},
  "source": "// SPDX-License-Identifier: MIT\r\npragma solidity 0.8.10;\r\n\r\nimport \"@openzeppelin/contracts/token/ERC721/ERC721.sol\";\r\nimport \"@openzeppelin/contracts/access/Ownable.sol\";\r\nimport \"@openzeppelin/contracts/utils/math/SafeMath.sol\";\r\n\r\ncontract NFTGameToken is ERC721, Ownable {\r\n\r\n    constructor() ERC721(\"NFTGameToken\", \"NFTG\") {}\r\n\r\n    using SafeMath for uint256;\r\n\r\n    enum type_character { BERSERKER, SPIRITUAL, ELEMENTARY }\r\n    uint256 nextId = 0;\r\n    uint256 mintFee = 0.001 ether;\r\n    uint256 healFee = 0.00001 ether;\r\n    uint256 fightFee = 0.00001 ether;\r\n\r\n    struct Character {\r\n        uint256 id;\r\n        uint256 dna;\r\n        // uint8 level;\r\n        uint256 xp;\r\n        uint256 hp;\r\n        uint8 attack;\r\n        uint8 armor;\r\n        // uint8 speed;     \r\n        uint8 mana;\r\n        uint8 magicResistance;\r\n        type_character typeCharacter;\r\n    }\r\n\r\n    mapping(uint256 => Character) private _characterDetails;\r\n\r\n    // events\r\n    event CharacterCreated(uint256 id);\r\n    event Healed(uint256 tokenId);\r\n    event Fighted(uint256 myTokenId, uint256 rivalTokenId, uint256 substrateLifeToRival, uint256 substrateLifeToMe);\r\n\r\n    // Helper\r\n    function _generateRandomNum(uint256 _mod) internal view returns(uint256) {\r\n        uint256 randNum = uint256(keccak256(abi.encodePacked(block.timestamp, msg.sender)));\r\n        return randNum % _mod;\r\n    }\r\n    \r\n    function updateFees(uint256 _mintFee, uint256 _healFee, uint256 _fightFee) external onlyOwner() {\r\n        mintFee = _mintFee;\r\n        healFee = _healFee;\r\n        fightFee = _fightFee;\r\n    }\r\n    \r\n    function withdraw() external onlyOwner() {\r\n        payable(owner()).transfer(address(this).balance);\r\n    }\r\n    \r\n    function substrateLife(uint256 id1, uint256 id2) internal view returns(uint256) {\r\n        uint256 op1 = uint256(_characterDetails[id1].attack).mul(1 + _characterDetails[id1].xp.div(10));\r\n        uint256 op2 = (uint256(_characterDetails[id2].armor).mul(1 + _characterDetails[id2].xp.div(10))).div(2);\r\n        if (op1 < op2) {\r\n            return 0;\r\n        } else {\r\n            return op1.sub(op2);\r\n        }\r\n    }\r\n\r\n    function createCharacter(type_character _typeCharacter) external payable {\r\n        require(msg.value == mintFee, \"Wrong amount of fees\");\r\n        require(balanceOf(msg.sender) < 5, \"You can't have more than 5 NFT\");\r\n        require(_typeCharacter == type_character.BERSERKER || _typeCharacter == type_character.SPIRITUAL || _typeCharacter == type_character.ELEMENTARY,\r\n        \"You must choose between berserker, spiritual or elementary\");\r\n        uint256 dna = _generateRandomNum(10**16);\r\n        if (_typeCharacter == type_character.BERSERKER) {\r\n            _characterDetails[nextId] = Character(nextId, dna, 1, 100, 5, 3, 1, 1, type_character.BERSERKER);\r\n        }\r\n        if (_typeCharacter == type_character.SPIRITUAL) {\r\n            _characterDetails[nextId] = Character(nextId, dna, 1, 100, 1, 1, 5, 3, type_character.SPIRITUAL);\r\n        }\r\n        if (_typeCharacter == type_character.ELEMENTARY) {\r\n            _characterDetails[nextId] = Character(nextId, dna, 1, 100, 2, 2, 3, 3, type_character.ELEMENTARY);\r\n        }\r\n        _safeMint(msg.sender, nextId);\r\n        emit CharacterCreated(nextId);\r\n        nextId++;\r\n    }\r\n\r\n    function heal(uint256 _tokenId) external payable {\r\n        require(msg.value == healFee, \"Wrong amount of fees\");\r\n        require(ownerOf(_tokenId) == msg.sender, \"You're not the owner of the NFT\");\r\n        // require(_characterDetails[_tokenId].hp > 0, \"You're NFT is dead\");\r\n        uint256 tempResult = _characterDetails[_tokenId].hp + 50;\r\n        if (tempResult > 100) {\r\n            _characterDetails[_tokenId].hp = 100;\r\n        } else {\r\n            _characterDetails[_tokenId].hp += 50;\r\n        }\r\n        emit Healed(_tokenId);\r\n    }\r\n\r\n    function fight(uint256 _myTokenId, uint256 _rivalTokenId) external payable {\r\n        require(msg.value == fightFee, \"Wrong amount of fees\");\r\n        require(ownerOf(_myTokenId) == msg.sender, \"You're not the owner of the NFT\");\r\n        require(ownerOf(_myTokenId) != ownerOf(_rivalTokenId), \"Your NFTs cannot fight each other\");\r\n        require(_characterDetails[_myTokenId].hp > 0 && _characterDetails[_rivalTokenId].hp > 0, \"One of the NFTs is dead\");\r\n\r\n        uint256 substrateLifeToRival = substrateLife(_myTokenId, _rivalTokenId);\r\n        uint256 substrateLifeToMe = substrateLife(_rivalTokenId, _myTokenId);\r\n\r\n        if(substrateLifeToRival >= _characterDetails[_rivalTokenId].hp) {\r\n            _characterDetails[_rivalTokenId].hp = 0;\r\n            _characterDetails[_myTokenId].xp++;\r\n        } else {\r\n            _characterDetails[_rivalTokenId].hp -= substrateLifeToRival;\r\n            if(substrateLifeToMe >= _characterDetails[_myTokenId].hp) {\r\n                _characterDetails[_myTokenId].hp = 0;\r\n                _characterDetails[_rivalTokenId].xp++;\r\n            } else {\r\n                _characterDetails[_myTokenId].hp -= substrateLifeToMe;\r\n                if (substrateLifeToRival > substrateLifeToMe) {\r\n                    _characterDetails[_myTokenId].xp++;\r\n                } else if (substrateLifeToMe > substrateLifeToRival) {\r\n                    _characterDetails[_rivalTokenId].xp++;\r\n                } else {\r\n                    _characterDetails[_myTokenId].xp++;\r\n                    _characterDetails[_rivalTokenId].xp++;\r\n                }\r\n            }\r\n        }\r\n        emit Fighted(_myTokenId, _rivalTokenId, substrateLifeToRival, substrateLifeToMe);\r\n    }\r\n\r\n    // Getters\r\n    function getTokenDetails(uint256 _tokenId) external view returns(Character memory) {\r\n        return _characterDetails[_tokenId];\r\n    }\r\n\r\n    function getMyCharacters() public view returns (Character[] memory){\r\n        uint8 count = 0;\r\n        Character[] memory myCharacters = new Character[](balanceOf(msg.sender));\r\n        for (uint256 i = 0; i < nextId; i++) {\r\n            if (ownerOf(i) == msg.sender) {\r\n                myCharacters[count] = _characterDetails[i];\r\n                count++;\r\n            }\r\n        }\r\n        return myCharacters;\r\n    }\r\n\r\n    function getOthersCharacters() public view returns (Character[] memory){\r\n        uint8 count = 0;\r\n        Character[] memory othersCharacters = new Character[](nextId - balanceOf(msg.sender));\r\n        for (uint256 i = 0; i < nextId; i++) {\r\n            if (ownerOf(i) != msg.sender) {\r\n                othersCharacters[count] = _characterDetails[i];\r\n                count++;\r\n            }\r\n        }\r\n        return othersCharacters;\r\n    }\r\n    \r\n    // // only for TESTS getAllCharacters\r\n    // function getAllCharacters() public view returns (Character[] memory){\r\n    //     Character[] memory allCharacters = new Character[](nextId);\r\n    //     for (uint256 i = 0; i < nextId; i++) {\r\n    //         allCharacters[i] = _characterDetails[i];\r\n    //     }\r\n    //     return allCharacters;\r\n    // }\r\n}\r\n",
  "sourcePath": "D:\\TAF\\Alyra\\Projets\\tests_avant_projet_alyra\\contracts\\NFTGameToken.sol",
  "compiler": {
    "name": "solc",
    "version": "0.8.10+commit.fc410830.Emscripten.clang"
  },
  "schemaVersion": "3.4.3",
  "updatedAt": "2021-12-13T14:24:11.511Z",
  "networkType": "ethereum",
  "devdoc": {
    "kind": "dev",
    "methods": {
      "approve(address,uint256)": {
        "details": "See {IERC721-approve}."
      },
      "balanceOf(address)": {
        "details": "See {IERC721-balanceOf}."
      },
      "getApproved(uint256)": {
        "details": "See {IERC721-getApproved}."
      },
      "isApprovedForAll(address,address)": {
        "details": "See {IERC721-isApprovedForAll}."
      },
      "name()": {
        "details": "See {IERC721Metadata-name}."
      },
      "owner()": {
        "details": "Returns the address of the current owner."
      },
      "ownerOf(uint256)": {
        "details": "See {IERC721-ownerOf}."
      },
      "renounceOwnership()": {
        "details": "Leaves the contract without owner. It will not be possible to call `onlyOwner` functions anymore. Can only be called by the current owner. NOTE: Renouncing ownership will leave the contract without an owner, thereby removing any functionality that is only available to the owner."
      },
      "safeTransferFrom(address,address,uint256)": {
        "details": "See {IERC721-safeTransferFrom}."
      },
      "safeTransferFrom(address,address,uint256,bytes)": {
        "details": "See {IERC721-safeTransferFrom}."
      },
      "setApprovalForAll(address,bool)": {
        "details": "See {IERC721-setApprovalForAll}."
      },
      "supportsInterface(bytes4)": {
        "details": "See {IERC165-supportsInterface}."
      },
      "symbol()": {
        "details": "See {IERC721Metadata-symbol}."
      },
      "tokenURI(uint256)": {
        "details": "See {IERC721Metadata-tokenURI}."
      },
      "transferFrom(address,address,uint256)": {
        "details": "See {IERC721-transferFrom}."
      },
      "transferOwnership(address)": {
        "details": "Transfers ownership of the contract to a new account (`newOwner`). Can only be called by the current owner."
      }
    },
    "version": 1
  },
  "userdoc": {
    "kind": "user",
    "methods": {},
    "version": 1
  }
}