{
  "contractName": "NFTGameToken",
  "abi": [
    {
      "inputs": [],
      "stateMutability": "nonpayable",
      "type": "constructor"
    },
    {
      "anonymous": false,
      "inputs": [
        {
          "indexed": true,
          "internalType": "address",
          "name": "owner",
          "type": "address"
        },
        {
          "indexed": true,
          "internalType": "address",
          "name": "approved",
          "type": "address"
        },
        {
          "indexed": true,
          "internalType": "uint256",
          "name": "tokenId",
          "type": "uint256"
        }
      ],
      "name": "Approval",
      "type": "event"
    },
    {
      "anonymous": false,
      "inputs": [
        {
          "indexed": true,
          "internalType": "address",
          "name": "owner",
          "type": "address"
        },
        {
          "indexed": true,
          "internalType": "address",
          "name": "operator",
          "type": "address"
        },
        {
          "indexed": false,
          "internalType": "bool",
          "name": "approved",
          "type": "bool"
        }
      ],
      "name": "ApprovalForAll",
      "type": "event"
    },
    {
      "anonymous": false,
      "inputs": [
        {
          "indexed": false,
          "internalType": "uint256",
          "name": "id",
          "type": "uint256"
        }
      ],
      "name": "CharacterCreated",
      "type": "event"
    },
    {
      "anonymous": false,
      "inputs": [
        {
          "indexed": false,
          "internalType": "uint256",
          "name": "myTokenId",
          "type": "uint256"
        },
        {
          "indexed": false,
          "internalType": "uint256",
          "name": "rivalTokenId",
          "type": "uint256"
        },
        {
          "indexed": false,
          "internalType": "uint256",
          "name": "substrateLifeToRival",
          "type": "uint256"
        },
        {
          "indexed": false,
          "internalType": "uint256",
          "name": "substrateLifeToMe",
          "type": "uint256"
        }
      ],
      "name": "Fighted",
      "type": "event"
    },
    {
      "anonymous": false,
      "inputs": [
        {
          "indexed": false,
          "internalType": "uint256",
          "name": "tokenId",
          "type": "uint256"
        }
      ],
      "name": "Healed",
      "type": "event"
    },
    {
      "anonymous": false,
      "inputs": [
        {
          "indexed": true,
          "internalType": "address",
          "name": "previousOwner",
          "type": "address"
        },
        {
          "indexed": true,
          "internalType": "address",
          "name": "newOwner",
          "type": "address"
        }
      ],
      "name": "OwnershipTransferred",
      "type": "event"
    },
    {
      "anonymous": false,
      "inputs": [
        {
          "indexed": true,
          "internalType": "address",
          "name": "from",
          "type": "address"
        },
        {
          "indexed": true,
          "internalType": "address",
          "name": "to",
          "type": "address"
        },
        {
          "indexed": true,
          "internalType": "uint256",
          "name": "tokenId",
          "type": "uint256"
        }
      ],
      "name": "Transfer",
      "type": "event"
    },
    {
      "inputs": [
        {
          "internalType": "address",
          "name": "to",
          "type": "address"
        },
        {
          "internalType": "uint256",
          "name": "tokenId",
          "type": "uint256"
        }
      ],
      "name": "approve",
      "outputs": [],
      "stateMutability": "nonpayable",
      "type": "function"
    },
    {
      "inputs": [
        {
          "internalType": "address",
          "name": "owner",
          "type": "address"
        }
      ],
      "name": "balanceOf",
      "outputs": [
        {
          "internalType": "uint256",
          "name": "",
          "type": "uint256"
        }
      ],
      "stateMutability": "view",
      "type": "function",
      "constant": true
    },
    {
      "inputs": [
        {
          "internalType": "uint256",
          "name": "tokenId",
          "type": "uint256"
        }
      ],
      "name": "getApproved",
      "outputs": [
        {
          "internalType": "address",
          "name": "",
          "type": "address"
        }
      ],
      "stateMutability": "view",
      "type": "function",
      "constant": true
    },
    {
      "inputs": [
        {
          "internalType": "address",
          "name": "owner",
          "type": "address"
        },
        {
          "internalType": "address",
          "name": "operator",
          "type": "address"
        }
      ],
      "name": "isApprovedForAll",
      "outputs": [
        {
          "internalType": "bool",
          "name": "",
          "type": "bool"
        }
      ],
      "stateMutability": "view",
      "type": "function",
      "constant": true
    },
    {
      "inputs": [],
      "name": "name",
      "outputs": [
        {
          "internalType": "string",
          "name": "",
          "type": "string"
        }
      ],
      "stateMutability": "view",
      "type": "function",
      "constant": true
    },
    {
      "inputs": [],
      "name": "owner",
      "outputs": [
        {
          "internalType": "address",
          "name": "",
          "type": "address"
        }
      ],
      "stateMutability": "view",
      "type": "function",
      "constant": true
    },
    {
      "inputs": [
        {
          "internalType": "uint256",
          "name": "tokenId",
          "type": "uint256"
        }
      ],
      "name": "ownerOf",
      "outputs": [
        {
          "internalType": "address",
          "name": "",
          "type": "address"
        }
      ],
      "stateMutability": "view",
      "type": "function",
      "constant": true
    },
    {
      "inputs": [],
      "name": "renounceOwnership",
      "outputs": [],
      "stateMutability": "nonpayable",
      "type": "function"
    },
    {
      "inputs": [
        {
          "internalType": "address",
          "name": "from",
          "type": "address"
        },
        {
          "internalType": "address",
          "name": "to",
          "type": "address"
        },
        {
          "internalType": "uint256",
          "name": "tokenId",
          "type": "uint256"
        }
      ],
      "name": "safeTransferFrom",
      "outputs": [],
      "stateMutability": "nonpayable",
      "type": "function"
    },
    {
      "inputs": [
        {
          "internalType": "address",
          "name": "from",
          "type": "address"
        },
        {
          "internalType": "address",
          "name": "to",
          "type": "address"
        },
        {
          "internalType": "uint256",
          "name": "tokenId",
          "type": "uint256"
        },
        {
          "internalType": "bytes",
          "name": "_data",
          "type": "bytes"
        }
      ],
      "name": "safeTransferFrom",
      "outputs": [],
      "stateMutability": "nonpayable",
      "type": "function"
    },
    {
      "inputs": [
        {
          "internalType": "address",
          "name": "operator",
          "type": "address"
        },
        {
          "internalType": "bool",
          "name": "approved",
          "type": "bool"
        }
      ],
      "name": "setApprovalForAll",
      "outputs": [],
      "stateMutability": "nonpayable",
      "type": "function"
    },
    {
      "inputs": [
        {
          "internalType": "bytes4",
          "name": "interfaceId",
          "type": "bytes4"
        }
      ],
      "name": "supportsInterface",
      "outputs": [
        {
          "internalType": "bool",
          "name": "",
          "type": "bool"
        }
      ],
      "stateMutability": "view",
      "type": "function",
      "constant": true
    },
    {
      "inputs": [],
      "name": "symbol",
      "outputs": [
        {
          "internalType": "string",
          "name": "",
          "type": "string"
        }
      ],
      "stateMutability": "view",
      "type": "function",
      "constant": true
    },
    {
      "inputs": [
        {
          "internalType": "uint256",
          "name": "tokenId",
          "type": "uint256"
        }
      ],
      "name": "tokenURI",
      "outputs": [
        {
          "internalType": "string",
          "name": "",
          "type": "string"
        }
      ],
      "stateMutability": "view",
      "type": "function",
      "constant": true
    },
    {
      "inputs": [
        {
          "internalType": "address",
          "name": "from",
          "type": "address"
        },
        {
          "internalType": "address",
          "name": "to",
          "type": "address"
        },
        {
          "internalType": "uint256",
          "name": "tokenId",
          "type": "uint256"
        }
      ],
      "name": "transferFrom",
      "outputs": [],
      "stateMutability": "nonpayable",
      "type": "function"
    },
    {
      "inputs": [
        {
          "internalType": "address",
          "name": "newOwner",
          "type": "address"
        }
      ],
      "name": "transferOwnership",
      "outputs": [],
      "stateMutability": "nonpayable",
      "type": "function"
    },
    {
      "inputs": [
        {
          "internalType": "uint256",
          "name": "_mintFee",
          "type": "uint256"
        },
        {
          "internalType": "uint256",
          "name": "_healFee",
          "type": "uint256"
        },
        {
          "internalType": "uint256",
          "name": "_fightFee",
          "type": "uint256"
        }
      ],
      "name": "updateFees",
      "outputs": [],
      "stateMutability": "nonpayable",
      "type": "function"
    },
    {
      "inputs": [],
      "name": "withdraw",
      "outputs": [],
      "stateMutability": "nonpayable",
      "type": "function"
    },
    {
      "inputs": [
        {
          "internalType": "enum NFTGameToken.type_character",
          "name": "_typeCharacter",
          "type": "uint8"
        }
      ],
      "name": "createCharacter",
      "outputs": [],
      "stateMutability": "payable",
      "type": "function",
      "payable": true
    },
    {
      "inputs": [
        {
          "internalType": "uint256",
          "name": "_tokenId",
          "type": "uint256"
        }
      ],
      "name": "heal",
      "outputs": [],
      "stateMutability": "payable",
      "type": "function",
      "payable": true
    },
    {
      "inputs": [
        {
          "internalType": "uint256",
          "name": "_myTokenId",
          "type": "uint256"
        },
        {
          "internalType": "uint256",
          "name": "_rivalTokenId",
          "type": "uint256"
        }
      ],
      "name": "fight",
      "outputs": [],
      "stateMutability": "payable",
      "type": "function",
      "payable": true
    },
    {
      "inputs": [
        {
          "internalType": "uint256",
          "name": "_myTokenId",
          "type": "uint256"
        },
        {
          "internalType": "uint256",
          "name": "_rivalTokenId",
          "type": "uint256"
        }
      ],
      "name": "spell",
      "outputs": [],
      "stateMutability": "payable",
      "type": "function",
      "payable": true
    },
    {
      "inputs": [
        {
          "internalType": "uint256",
          "name": "_tokenId",
          "type": "uint256"
        }
      ],
      "name": "getTokenDetails",
      "outputs": [
        {
          "components": [
            {
              "internalType": "uint256",
              "name": "id",
              "type": "uint256"
            },
            {
              "internalType": "uint256",
              "name": "dna",
              "type": "uint256"
            },
            {
              "internalType": "uint256",
              "name": "xp",
              "type": "uint256"
            },
            {
              "internalType": "uint256",
              "name": "hp",
              "type": "uint256"
            },
            {
              "internalType": "uint256",
              "name": "mana",
              "type": "uint256"
            },
            {
              "internalType": "uint256",
              "name": "attack",
              "type": "uint256"
            },
            {
              "internalType": "uint256",
              "name": "armor",
              "type": "uint256"
            },
            {
              "internalType": "uint256",
              "name": "magicAttack",
              "type": "uint256"
            },
            {
              "internalType": "uint256",
              "name": "magicResistance",
              "type": "uint256"
            },
            {
              "internalType": "enum NFTGameToken.type_character",
              "name": "typeCharacter",
              "type": "uint8"
            }
          ],
          "internalType": "struct NFTGameToken.Character",
          "name": "",
          "type": "tuple"
        }
      ],
      "stateMutability": "view",
      "type": "function",
      "constant": true
    },
    {
      "inputs": [],
      "name": "getMyCharacters",
      "outputs": [
        {
          "components": [
            {
              "internalType": "uint256",
              "name": "id",
              "type": "uint256"
            },
            {
              "internalType": "uint256",
              "name": "dna",
              "type": "uint256"
            },
            {
              "internalType": "uint256",
              "name": "xp",
              "type": "uint256"
            },
            {
              "internalType": "uint256",
              "name": "hp",
              "type": "uint256"
            },
            {
              "internalType": "uint256",
              "name": "mana",
              "type": "uint256"
            },
            {
              "internalType": "uint256",
              "name": "attack",
              "type": "uint256"
            },
            {
              "internalType": "uint256",
              "name": "armor",
              "type": "uint256"
            },
            {
              "internalType": "uint256",
              "name": "magicAttack",
              "type": "uint256"
            },
            {
              "internalType": "uint256",
              "name": "magicResistance",
              "type": "uint256"
            },
            {
              "internalType": "enum NFTGameToken.type_character",
              "name": "typeCharacter",
              "type": "uint8"
            }
          ],
          "internalType": "struct NFTGameToken.Character[]",
          "name": "",
          "type": "tuple[]"
        }
      ],
      "stateMutability": "view",
      "type": "function",
      "constant": true
    },
    {
      "inputs": [],
      "name": "getOthersCharacters",
      "outputs": [
        {
          "components": [
            {
              "internalType": "uint256",
              "name": "id",
              "type": "uint256"
            },
            {
              "internalType": "uint256",
              "name": "dna",
              "type": "uint256"
            },
            {
              "internalType": "uint256",
              "name": "xp",
              "type": "uint256"
            },
            {
              "internalType": "uint256",
              "name": "hp",
              "type": "uint256"
            },
            {
              "internalType": "uint256",
              "name": "mana",
              "type": "uint256"
            },
            {
              "internalType": "uint256",
              "name": "attack",
              "type": "uint256"
            },
            {
              "internalType": "uint256",
              "name": "armor",
              "type": "uint256"
            },
            {
              "internalType": "uint256",
              "name": "magicAttack",
              "type": "uint256"
            },
            {
              "internalType": "uint256",
              "name": "magicResistance",
              "type": "uint256"
            },
            {
              "internalType": "enum NFTGameToken.type_character",
              "name": "typeCharacter",
              "type": "uint8"
            }
          ],
          "internalType": "struct NFTGameToken.Character[]",
          "name": "",
          "type": "tuple[]"
        }
      ],
      "stateMutability": "view",
      "type": "function",
      "constant": true
    }
  ],
  "bytecode": "0x6080604052600060075566038d7ea4c680006008556509184e72a0006009556509184e72a000600a553480156200003557600080fd5b506040518060400160405280600c81526020017f4e465447616d65546f6b656e00000000000000000000000000000000000000008152506040518060400160405280600481526020017f4e465447000000000000000000000000000000000000000000000000000000008152508160009080519060200190620000ba929190620001dc565b508060019080519060200190620000d3929190620001dc565b50505062000108620000f36200010e640100000000026401000000009004565b62000116640100000000026401000000009004565b620002f1565b600033905090565b6000600660009054906101000a900473ffffffffffffffffffffffffffffffffffffffff16905081600660006101000a81548173ffffffffffffffffffffffffffffffffffffffff021916908373ffffffffffffffffffffffffffffffffffffffff1602179055508173ffffffffffffffffffffffffffffffffffffffff168173ffffffffffffffffffffffffffffffffffffffff167f8be0079c531659141344cd1fd0a4f28419497f9722a3daafe3b4186f6b6457e060405160405180910390a35050565b828054620001ea90620002bb565b90600052602060002090601f0160209004810192826200020e57600085556200025a565b82601f106200022957805160ff19168380011785556200025a565b828001600101855582156200025a579182015b82811115620002595782518255916020019190600101906200023c565b5b5090506200026991906200026d565b5090565b5b80821115620002885760008160009055506001016200026e565b5090565b7f4e487b7100000000000000000000000000000000000000000000000000000000600052602260045260246000fd5b60006002820490506001821680620002d457607f821691505b60208210811415620002eb57620002ea6200028c565b5b50919050565b614f5e80620003016000396000f3fe608060405260043610610183576000357c01000000000000000000000000000000000000000000000000000000009004806370a08231116100ee578063b88d4fde116100a7578063ca39e5ef11610081578063ca39e5ef14610529578063e985e9c514610545578063f2fde38b14610582578063f37ac61c146105ab57610183565b8063b88d4fde14610486578063c1e03728146104af578063c87b56dd146104ec57610183565b806370a0823114610397578063715018a6146103d45780638da5cb5b146103eb57806395d89b4114610416578063a22cb46514610441578063b57da3b11461046a57610183565b806323b872dd1161014057806323b872dd1461029b5780633c4739d3146102c45780633ccfd60b146102ef57806342842e0e146103065780634fb97a101461032f5780636352211e1461035a57610183565b806301ffc9a71461018857806306fdde03146101c5578063081812fc146101f0578063095ea7b31461022d5780630f590e07146102565780632242908514610272575b600080fd5b34801561019457600080fd5b506101af60048036038101906101aa91906134a9565b6105c7565b6040516101bc91906134f1565b60405180910390f35b3480156101d157600080fd5b506101da6106a9565b6040516101e791906135a5565b60405180910390f35b3480156101fc57600080fd5b50610217600480360381019061021291906135fd565b61073b565b604051610224919061366b565b60405180910390f35b34801561023957600080fd5b50610254600480360381019061024f91906136b2565b6107c0565b005b610270600480360381019061026b91906136f2565b6108d8565b005b34801561027e57600080fd5b5061029960048036038101906102949190613732565b610d66565b005b3480156102a757600080fd5b506102c260048036038101906102bd9190613785565b610dfc565b005b3480156102d057600080fd5b506102d9610e5c565b6040516102e691906139da565b60405180910390f35b3480156102fb57600080fd5b50610304611008565b005b34801561031257600080fd5b5061032d60048036038101906103289190613785565b6110eb565b005b34801561033b57600080fd5b5061034461110b565b60405161035191906139da565b60405180910390f35b34801561036657600080fd5b50610381600480360381019061037c91906135fd565b6112c0565b60405161038e919061366b565b60405180910390f35b3480156103a357600080fd5b506103be60048036038101906103b991906139fc565b611372565b6040516103cb9190613a38565b60405180910390f35b3480156103e057600080fd5b506103e961142a565b005b3480156103f757600080fd5b506104006114b2565b60405161040d919061366b565b60405180910390f35b34801561042257600080fd5b5061042b6114dc565b60405161043891906135a5565b60405180910390f35b34801561044d57600080fd5b5061046860048036038101906104639190613a7f565b61156e565b005b610484600480360381019061047f9190613ae4565b611584565b005b34801561049257600080fd5b506104ad60048036038101906104a89190613c46565b611ae6565b005b3480156104bb57600080fd5b506104d660048036038101906104d191906135fd565b611b48565b6040516104e39190613d95565b60405180910390f35b3480156104f857600080fd5b50610513600480360381019061050e91906135fd565b611c0b565b60405161052091906135a5565b60405180910390f35b610543600480360381019061053e91906136f2565b611cb2565b005b34801561055157600080fd5b5061056c60048036038101906105679190613db1565b6120bb565b60405161057991906134f1565b60405180910390f35b34801561058e57600080fd5b506105a960048036038101906105a491906139fc565b61214f565b005b6105c560048036038101906105c091906135fd565b612247565b005b60007f80ac58cd000000000000000000000000000000000000000000000000000000007bffffffffffffffffffffffffffffffffffffffffffffffffffffffff1916827bffffffffffffffffffffffffffffffffffffffffffffffffffffffff1916148061069257507f5b5e139f000000000000000000000000000000000000000000000000000000007bffffffffffffffffffffffffffffffffffffffffffffffffffffffff1916827bffffffffffffffffffffffffffffffffffffffffffffffffffffffff1916145b806106a257506106a182612412565b5b9050919050565b6060600080546106b890613e20565b80601f01602080910402602001604051908101604052809291908181526020018280546106e490613e20565b80156107315780601f1061070657610100808354040283529160200191610731565b820191906000526020600020905b81548152906001019060200180831161071457829003601f168201915b5050505050905090565b60006107468261247c565b610785576040517f08c379a000000000000000000000000000000000000000000000000000000000815260040161077c90613ec4565b60405180910390fd5b6004600083815260200190815260200160002060009054906101000a900473ffffffffffffffffffffffffffffffffffffffff169050919050565b60006107cb826112c0565b90508073ffffffffffffffffffffffffffffffffffffffff168373ffffffffffffffffffffffffffffffffffffffff16141561083c576040517f08c379a000000000000000000000000000000000000000000000000000000000815260040161083390613f56565b60405180910390fd5b8073ffffffffffffffffffffffffffffffffffffffff1661085b6124e8565b73ffffffffffffffffffffffffffffffffffffffff16148061088a5750610889816108846124e8565b6120bb565b5b6108c9576040517f08c379a00000000000000000000000000000000000000000000000000000000081526004016108c090613fe8565b60405180910390fd5b6108d383836124f0565b505050565b600a54341461091c576040517f08c379a000000000000000000000000000000000000000000000000000000000815260040161091390614054565b60405180910390fd5b3373ffffffffffffffffffffffffffffffffffffffff1661093c836112c0565b73ffffffffffffffffffffffffffffffffffffffff1614610992576040517f08c379a0000000000000000000000000000000000000000000000000000000008152600401610989906140c0565b60405180910390fd5b61099b816112c0565b73ffffffffffffffffffffffffffffffffffffffff166109ba836112c0565b73ffffffffffffffffffffffffffffffffffffffff161415610a11576040517f08c379a0000000000000000000000000000000000000000000000000000000008152600401610a0890614152565b60405180910390fd5b6000600b600084815260200190815260200160002060030154118015610a4d57506000600b600083815260200190815260200160002060030154115b610a8c576040517f08c379a0000000000000000000000000000000000000000000000000000000008152600401610a83906141be565b60405180910390fd5b600a600b6000848152602001908152602001600020600401541015610ae6576040517f08c379a0000000000000000000000000000000000000000000000000000000008152600401610add9061422a565b60405180910390fd5b6000610af283836125a9565b90506000610b0083856125a9565b9050610b2c600a600b6000878152602001908152602001600020600401546126b290919063ffffffff16565b50600b6000848152602001908152602001600020600301548210610b97576000600b600085815260200190815260200160002060030181905550600b60008581526020019081526020016000206002016000815480929190610b8d90614279565b9190505550610d23565b610bc082600b6000868152602001908152602001600020600301546126b290919063ffffffff16565b50600b6000858152602001908152602001600020600301548110610c2b576000600b600086815260200190815260200160002060030181905550600b60008481526020019081526020016000206002016000815480929190610c2190614279565b9190505550610d22565b610c5481600b6000878152602001908152602001600020600301546126b290919063ffffffff16565b5080821115610c8e57600b60008581526020019081526020016000206002016000815480929190610c8490614279565b9190505550610d21565b81811115610cc757600b60008481526020019081526020016000206002016000815480929190610cbd90614279565b9190505550610d20565b600b60008581526020019081526020016000206002016000815480929190610cee90614279565b9190505550600b60008481526020019081526020016000206002016000815480929190610d1a90614279565b91905055505b5b5b5b7f8c796248b1f953c9c8c0ed19eddf3a98eebe2c84390fe57e75f222dc677a141184848484604051610d5894939291906142c2565b60405180910390a150505050565b610d6e6124e8565b73ffffffffffffffffffffffffffffffffffffffff16610d8c6114b2565b73ffffffffffffffffffffffffffffffffffffffff1614610de2576040517f08c379a0000000000000000000000000000000000000000000000000000000008152600401610dd990614353565b60405180910390fd5b826008819055508160098190555080600a81905550505050565b610e0d610e076124e8565b826126c8565b610e4c576040517f08c379a0000000000000000000000000000000000000000000000000000000008152600401610e43906143e5565b60405180910390fd5b610e578383836127a6565b505050565b6060600080610e6a33611372565b67ffffffffffffffff811115610e8357610e82613b1b565b5b604051908082528060200260200182016040528015610ebc57816020015b610ea96133d8565b815260200190600190039081610ea15790505b50905060005b600754811015610fff573373ffffffffffffffffffffffffffffffffffffffff16610eec826112c0565b73ffffffffffffffffffffffffffffffffffffffff161415610fec57600b6000828152602001908152602001600020604051806101400160405290816000820154815260200160018201548152602001600282015481526020016003820154815260200160048201548152602001600582015481526020016006820154815260200160078201548152602001600882015481526020016009820160009054906101000a900460ff166002811115610fa657610fa5613813565b5b6002811115610fb857610fb7613813565b5b81525050828460ff1681518110610fd257610fd1614405565b5b60200260200101819052508280610fe890614441565b9350505b8080610ff790614279565b915050610ec2565b50809250505090565b6110106124e8565b73ffffffffffffffffffffffffffffffffffffffff1661102e6114b2565b73ffffffffffffffffffffffffffffffffffffffff1614611084576040517f08c379a000000000000000000000000000000000000000000000000000000000815260040161107b90614353565b60405180910390fd5b61108c6114b2565b73ffffffffffffffffffffffffffffffffffffffff166108fc3073ffffffffffffffffffffffffffffffffffffffff16319081150290604051600060405180830381858888f193505050501580156110e8573d6000803e3d6000fd5b50565b61110683838360405180602001604052806000815250611ae6565b505050565b606060008061111933611372565b600754611126919061446b565b67ffffffffffffffff81111561113f5761113e613b1b565b5b60405190808252806020026020018201604052801561117857816020015b6111656133d8565b81526020019060019003908161115d5790505b50905060005b6007548110156112b7573373ffffffffffffffffffffffffffffffffffffffff166111a8826112c0565b73ffffffffffffffffffffffffffffffffffffffff16146112a457600b6000828152602001908152602001600020604051806101400160405290816000820154815260200160018201548152602001600282015481526020016003820154815260200160048201548152602001600582015481526020016006820154815260200160078201548152602001600882015481526020016009820160009054906101000a900460ff16600281111561126157611260613813565b5b600281111561127357611272613813565b5b8152505082848151811061128a57611289614405565b5b602002602001018190525082806112a090614279565b9350505b80806112af90614279565b91505061117e565b50809250505090565b6000806002600084815260200190815260200160002060009054906101000a900473ffffffffffffffffffffffffffffffffffffffff169050600073ffffffffffffffffffffffffffffffffffffffff168173ffffffffffffffffffffffffffffffffffffffff161415611369576040517f08c379a000000000000000000000000000000000000000000000000000000000815260040161136090614511565b60405180910390fd5b80915050919050565b60008073ffffffffffffffffffffffffffffffffffffffff168273ffffffffffffffffffffffffffffffffffffffff1614156113e3576040517f08c379a00000000000000000000000000000000000000000000000000000000081526004016113da906145a3565b60405180910390fd5b600360008373ffffffffffffffffffffffffffffffffffffffff1673ffffffffffffffffffffffffffffffffffffffff168152602001908152602001600020549050919050565b6114326124e8565b73ffffffffffffffffffffffffffffffffffffffff166114506114b2565b73ffffffffffffffffffffffffffffffffffffffff16146114a6576040517f08c379a000000000000000000000000000000000000000000000000000000000815260040161149d90614353565b60405180910390fd5b6114b06000612a02565b565b6000600660009054906101000a900473ffffffffffffffffffffffffffffffffffffffff16905090565b6060600180546114eb90613e20565b80601f016020809104026020016040519081016040528092919081815260200182805461151790613e20565b80156115645780601f1061153957610100808354040283529160200191611564565b820191906000526020600020905b81548152906001019060200180831161154757829003601f168201915b5050505050905090565b6115806115796124e8565b8383612ac8565b5050565b60085434146115c8576040517f08c379a00000000000000000000000000000000000000000000000000000000081526004016115bf90614054565b60405180910390fd5b60056115d333611372565b10611613576040517f08c379a000000000000000000000000000000000000000000000000000000000815260040161160a9061460f565b60405180910390fd5b6000600281111561162757611626613813565b5b81600281111561163a57611639613813565b5b148061166a57506001600281111561165557611654613813565b5b81600281111561166857611667613813565b5b145b80611698575060028081111561168357611682613813565b5b81600281111561169657611695613813565b5b145b6116d7576040517f08c379a00000000000000000000000000000000000000000000000000000000081526004016116ce906146a1565b60405180910390fd5b60006116e9662386f26fc10000612c35565b9050600060028111156116ff576116fe613813565b5b82600281111561171257611711613813565b5b141561181f5760405180610140016040528060075481526020018281526020016001815260200160648152602001600a8152602001600581526020016003815260200160018152602001600181526020016000600281111561177757611776613813565b5b815250600b60006007548152602001908152602001600020600082015181600001556020820151816001015560408201518160020155606082015181600301556080820151816004015560a0820151816005015560c0820151816006015560e0820151816007015561010082015181600801556101208201518160090160006101000a81548160ff0219169083600281111561181657611815613813565b5b02179055509050505b6001600281111561183357611832613813565b5b82600281111561184657611845613813565b5b141561195357604051806101400160405280600754815260200182815260200160018152602001606481526020016064815260200160018152602001600181526020016005815260200160038152602001600160028111156118ab576118aa613813565b5b815250600b60006007548152602001908152602001600020600082015181600001556020820151816001015560408201518160020155606082015181600301556080820151816004015560a0820151816005015560c0820151816006015560e0820151816007015561010082015181600801556101208201518160090160006101000a81548160ff0219169083600281111561194a57611949613813565b5b02179055509050505b60028081111561196657611965613813565b5b82600281111561197957611978613813565b5b1415611a85576040518061014001604052806007548152602001828152602001600181526020016064815260200160328152602001600281526020016002815260200160038152602001600381526020016002808111156119dd576119dc613813565b5b815250600b60006007548152602001908152602001600020600082015181600001556020820151816001015560408201518160020155606082015181600301556080820151816004015560a0820151816005015560c0820151816006015560e0820151816007015561010082015181600801556101208201518160090160006101000a81548160ff02191690836002811115611a7c57611a7b613813565b5b02179055509050505b611a9133600754612c7b565b7f7f0777865312bae358531b42d9c405a59bfd31beba1973946dc0ce134cad418a600754604051611ac29190613a38565b60405180910390a160076000815480929190611add90614279565b91905055505050565b611af7611af16124e8565b836126c8565b611b36576040517f08c379a0000000000000000000000000000000000000000000000000000000008152600401611b2d906143e5565b60405180910390fd5b611b4284848484612c99565b50505050565b611b506133d8565b600b6000838152602001908152602001600020604051806101400160405290816000820154815260200160018201548152602001600282015481526020016003820154815260200160048201548152602001600582015481526020016006820154815260200160078201548152602001600882015481526020016009820160009054906101000a900460ff166002811115611bee57611bed613813565b5b6002811115611c0057611bff613813565b5b815250509050919050565b6060611c168261247c565b611c55576040517f08c379a0000000000000000000000000000000000000000000000000000000008152600401611c4c90614733565b60405180910390fd5b6000611c5f612cf5565b90506000815111611c7f5760405180602001604052806000815250611caa565b80611c8984612d0c565b604051602001611c9a92919061478f565b6040516020818303038152906040525b915050919050565b600a543414611cf6576040517f08c379a0000000000000000000000000000000000000000000000000000000008152600401611ced90614054565b60405180910390fd5b3373ffffffffffffffffffffffffffffffffffffffff16611d16836112c0565b73ffffffffffffffffffffffffffffffffffffffff1614611d6c576040517f08c379a0000000000000000000000000000000000000000000000000000000008152600401611d63906140c0565b60405180910390fd5b611d75816112c0565b73ffffffffffffffffffffffffffffffffffffffff16611d94836112c0565b73ffffffffffffffffffffffffffffffffffffffff161415611deb576040517f08c379a0000000000000000000000000000000000000000000000000000000008152600401611de290614152565b60405180910390fd5b6000600b600084815260200190815260200160002060030154118015611e2757506000600b600083815260200190815260200160002060030154115b611e66576040517f08c379a0000000000000000000000000000000000000000000000000000000008152600401611e5d906141be565b60405180910390fd5b6000611e728383612e8c565b90506000611e808385612e8c565b9050600b6000848152602001908152602001600020600301548210611eec576000600b600085815260200190815260200160002060030181905550600b60008581526020019081526020016000206002016000815480929190611ee290614279565b9190505550612078565b611f1582600b6000868152602001908152602001600020600301546126b290919063ffffffff16565b50600b6000858152602001908152602001600020600301548110611f80576000600b600086815260200190815260200160002060030181905550600b60008481526020019081526020016000206002016000815480929190611f7690614279565b9190505550612077565b611fa981600b6000878152602001908152602001600020600301546126b290919063ffffffff16565b5080821115611fe357600b60008581526020019081526020016000206002016000815480929190611fd990614279565b9190505550612076565b8181111561201c57600b6000848152602001908152602001600020600201600081548092919061201290614279565b9190505550612075565b600b6000858152602001908152602001600020600201600081548092919061204390614279565b9190505550600b6000848152602001908152602001600020600201600081548092919061206f90614279565b91905055505b5b5b5b7f8c796248b1f953c9c8c0ed19eddf3a98eebe2c84390fe57e75f222dc677a1411848484846040516120ad94939291906142c2565b60405180910390a150505050565b6000600560008473ffffffffffffffffffffffffffffffffffffffff1673ffffffffffffffffffffffffffffffffffffffff16815260200190815260200160002060008373ffffffffffffffffffffffffffffffffffffffff1673ffffffffffffffffffffffffffffffffffffffff16815260200190815260200160002060009054906101000a900460ff16905092915050565b6121576124e8565b73ffffffffffffffffffffffffffffffffffffffff166121756114b2565b73ffffffffffffffffffffffffffffffffffffffff16146121cb576040517f08c379a00000000000000000000000000000000000000000000000000000000081526004016121c290614353565b60405180910390fd5b600073ffffffffffffffffffffffffffffffffffffffff168173ffffffffffffffffffffffffffffffffffffffff16141561223b576040517f08c379a000000000000000000000000000000000000000000000000000000000815260040161223290614825565b60405180910390fd5b61224481612a02565b50565b600954341461228b576040517f08c379a000000000000000000000000000000000000000000000000000000000815260040161228290614054565b60405180910390fd5b3373ffffffffffffffffffffffffffffffffffffffff166122ab826112c0565b73ffffffffffffffffffffffffffffffffffffffff1614612301576040517f08c379a00000000000000000000000000000000000000000000000000000000081526004016122f8906140c0565b60405180910390fd5b6064600b6000838152602001908152602001600020600301541061235a576040517f08c379a0000000000000000000000000000000000000000000000000000000008152600401612351906148b7565b60405180910390fd5b60006032600b60008481526020019081526020016000206003015461237f91906148d7565b905060648111156123ab576064600b6000848152602001908152602001600020600301819055506123d7565b6123d56032600b600085815260200190815260200160002060030154612f9590919063ffffffff16565b505b7f8379605eab0a1d9aab85917b4375ba70864307e4d75406a1a2e05dd600c1629a826040516124069190613a38565b60405180910390a15050565b60007f01ffc9a7000000000000000000000000000000000000000000000000000000007bffffffffffffffffffffffffffffffffffffffffffffffffffffffff1916827bffffffffffffffffffffffffffffffffffffffffffffffffffffffff1916149050919050565b60008073ffffffffffffffffffffffffffffffffffffffff166002600084815260200190815260200160002060009054906101000a900473ffffffffffffffffffffffffffffffffffffffff1673ffffffffffffffffffffffffffffffffffffffff1614159050919050565b600033905090565b816004600083815260200190815260200160002060006101000a81548173ffffffffffffffffffffffffffffffffffffffff021916908373ffffffffffffffffffffffffffffffffffffffff160217905550808273ffffffffffffffffffffffffffffffffffffffff16612563836112c0565b73ffffffffffffffffffffffffffffffffffffffff167f8c5be1e5ebec7d5bd14f71427d1e84f3dd0314c0f7b2291e5b200ac8c7c3b92560405160405180910390a45050565b60008061260a6125d9600a600b600088815260200190815260200160002060020154612fab90919063ffffffff16565b60016125e591906148d7565b600b600087815260200190815260200160002060070154612fc190919063ffffffff16565b9050600061267f6002612671612640600a600b60008a815260200190815260200160002060020154612fab90919063ffffffff16565b600161264c91906148d7565b600b600089815260200190815260200160002060080154612fc190919063ffffffff16565b612fab90919063ffffffff16565b905080821015612694576000925050506126ac565b6126a781836126b290919063ffffffff16565b925050505b92915050565b600081836126c0919061446b565b905092915050565b60006126d38261247c565b612712576040517f08c379a00000000000000000000000000000000000000000000000000000000081526004016127099061499f565b60405180910390fd5b600061271d836112c0565b90508073ffffffffffffffffffffffffffffffffffffffff168473ffffffffffffffffffffffffffffffffffffffff16148061278c57508373ffffffffffffffffffffffffffffffffffffffff166127748461073b565b73ffffffffffffffffffffffffffffffffffffffff16145b8061279d575061279c81856120bb565b5b91505092915050565b8273ffffffffffffffffffffffffffffffffffffffff166127c6826112c0565b73ffffffffffffffffffffffffffffffffffffffff161461281c576040517f08c379a000000000000000000000000000000000000000000000000000000000815260040161281390614a31565b60405180910390fd5b600073ffffffffffffffffffffffffffffffffffffffff168273ffffffffffffffffffffffffffffffffffffffff16141561288c576040517f08c379a000000000000000000000000000000000000000000000000000000000815260040161288390614ac3565b60405180910390fd5b612897838383612fd7565b6128a26000826124f0565b6001600360008573ffffffffffffffffffffffffffffffffffffffff1673ffffffffffffffffffffffffffffffffffffffff16815260200190815260200160002060008282546128f2919061446b565b925050819055506001600360008473ffffffffffffffffffffffffffffffffffffffff1673ffffffffffffffffffffffffffffffffffffffff168152602001908152602001600020600082825461294991906148d7565b92505081905550816002600083815260200190815260200160002060006101000a81548173ffffffffffffffffffffffffffffffffffffffff021916908373ffffffffffffffffffffffffffffffffffffffff160217905550808273ffffffffffffffffffffffffffffffffffffffff168473ffffffffffffffffffffffffffffffffffffffff167fddf252ad1be2c89b69c2b068fc378daa952ba7f163c4a11628f55a4df523b3ef60405160405180910390a4505050565b6000600660009054906101000a900473ffffffffffffffffffffffffffffffffffffffff16905081600660006101000a81548173ffffffffffffffffffffffffffffffffffffffff021916908373ffffffffffffffffffffffffffffffffffffffff1602179055508173ffffffffffffffffffffffffffffffffffffffff168173ffffffffffffffffffffffffffffffffffffffff167f8be0079c531659141344cd1fd0a4f28419497f9722a3daafe3b4186f6b6457e060405160405180910390a35050565b8173ffffffffffffffffffffffffffffffffffffffff168373ffffffffffffffffffffffffffffffffffffffff161415612b37576040517f08c379a0000000000000000000000000000000000000000000000000000000008152600401612b2e90614b2f565b60405180910390fd5b80600560008573ffffffffffffffffffffffffffffffffffffffff1673ffffffffffffffffffffffffffffffffffffffff16815260200190815260200160002060008473ffffffffffffffffffffffffffffffffffffffff1673ffffffffffffffffffffffffffffffffffffffff16815260200190815260200160002060006101000a81548160ff0219169083151502179055508173ffffffffffffffffffffffffffffffffffffffff168373ffffffffffffffffffffffffffffffffffffffff167f17307eab39ab6107e8899845ad3d59bd9653f200f220920489ca2b5937696c3183604051612c2891906134f1565b60405180910390a3505050565b6000804233604051602001612c4b929190614bc4565b604051602081830303815290604052805190602001206001900490508281612c739190614c1f565b915050919050565b612c95828260405180602001604052806000815250612fdc565b5050565b612ca48484846127a6565b612cb084848484613037565b612cef576040517f08c379a0000000000000000000000000000000000000000000000000000000008152600401612ce690614cc2565b60405180910390fd5b50505050565b606060405180602001604052806000815250905090565b60606000821415612d54576040518060400160405280600181526020017f30000000000000000000000000000000000000000000000000000000000000008152509050612e87565b600082905060005b60008214612d86578080612d6f90614279565b915050600a82612d7f9190614ce2565b9150612d5c565b60008167ffffffffffffffff811115612da257612da1613b1b565b5b6040519080825280601f01601f191660200182016040528015612dd45781602001600182028036833780820191505090505b5090505b60008514612e8057600182612ded919061446b565b9150600a85612dfc9190614c1f565b6030612e0891906148d7565b7f010000000000000000000000000000000000000000000000000000000000000002818381518110612e3d57612e3c614405565b5b60200101907effffffffffffffffffffffffffffffffffffffffffffffffffffffffffffff1916908160001a905350600a85612e799190614ce2565b9450612dd8565b8093505050505b919050565b600080612eed612ebc600a600b600088815260200190815260200160002060020154612fab90919063ffffffff16565b6001612ec891906148d7565b600b600087815260200190815260200160002060050154612fc190919063ffffffff16565b90506000612f626002612f54612f23600a600b60008a815260200190815260200160002060020154612fab90919063ffffffff16565b6001612f2f91906148d7565b600b600089815260200190815260200160002060060154612fc190919063ffffffff16565b612fab90919063ffffffff16565b905080821015612f7757600092505050612f8f565b612f8a81836126b290919063ffffffff16565b925050505b92915050565b60008183612fa391906148d7565b905092915050565b60008183612fb99190614ce2565b905092915050565b60008183612fcf9190614d13565b905092915050565b505050565b612fe683836131f7565b612ff36000848484613037565b613032576040517f08c379a000000000000000000000000000000000000000000000000000000000815260040161302990614cc2565b60405180910390fd5b505050565b60006130588473ffffffffffffffffffffffffffffffffffffffff166133c5565b156131ea578373ffffffffffffffffffffffffffffffffffffffff1663150b7a026130816124e8565b8786866040518563ffffffff167c01000000000000000000000000000000000000000000000000000000000281526004016130bf9493929190614dc2565b6020604051808303816000875af19250505080156130fb57506040513d601f19601f820116820180604052508101906130f89190614e23565b60015b61317e573d806000811461312b576040519150601f19603f3d011682016040523d82523d6000602084013e613130565b606091505b50600081511415613176576040517f08c379a000000000000000000000000000000000000000000000000000000000815260040161316d90614cc2565b60405180910390fd5b805181602001fd5b63150b7a027c0100000000000000000000000000000000000000000000000000000000027bffffffffffffffffffffffffffffffffffffffffffffffffffffffff1916817bffffffffffffffffffffffffffffffffffffffffffffffffffffffff1916149150506131ef565b600190505b949350505050565b600073ffffffffffffffffffffffffffffffffffffffff168273ffffffffffffffffffffffffffffffffffffffff161415613267576040517f08c379a000000000000000000000000000000000000000000000000000000000815260040161325e90614e9c565b60405180910390fd5b6132708161247c565b156132b0576040517f08c379a00000000000000000000000000000000000000000000000000000000081526004016132a790614f08565b60405180910390fd5b6132bc60008383612fd7565b6001600360008473ffffffffffffffffffffffffffffffffffffffff1673ffffffffffffffffffffffffffffffffffffffff168152602001908152602001600020600082825461330c91906148d7565b92505081905550816002600083815260200190815260200160002060006101000a81548173ffffffffffffffffffffffffffffffffffffffff021916908373ffffffffffffffffffffffffffffffffffffffff160217905550808273ffffffffffffffffffffffffffffffffffffffff16600073ffffffffffffffffffffffffffffffffffffffff167fddf252ad1be2c89b69c2b068fc378daa952ba7f163c4a11628f55a4df523b3ef60405160405180910390a45050565b600080823b905060008111915050919050565b6040518061014001604052806000815260200160008152602001600081526020016000815260200160008152602001600081526020016000815260200160008152602001600081526020016000600281111561343757613436613813565b5b81525090565b6000604051905090565b600080fd5b600080fd5b60007fffffffff0000000000000000000000000000000000000000000000000000000082169050919050565b61348681613451565b811461349157600080fd5b50565b6000813590506134a38161347d565b92915050565b6000602082840312156134bf576134be613447565b5b60006134cd84828501613494565b91505092915050565b60008115159050919050565b6134eb816134d6565b82525050565b600060208201905061350660008301846134e2565b92915050565b600081519050919050565b600082825260208201905092915050565b60005b8381101561354657808201518184015260208101905061352b565b83811115613555576000848401525b50505050565b6000601f19601f8301169050919050565b60006135778261350c565b6135818185613517565b9350613591818560208601613528565b61359a8161355b565b840191505092915050565b600060208201905081810360008301526135bf818461356c565b905092915050565b6000819050919050565b6135da816135c7565b81146135e557600080fd5b50565b6000813590506135f7816135d1565b92915050565b60006020828403121561361357613612613447565b5b6000613621848285016135e8565b91505092915050565b600073ffffffffffffffffffffffffffffffffffffffff82169050919050565b60006136558261362a565b9050919050565b6136658161364a565b82525050565b6000602082019050613680600083018461365c565b92915050565b61368f8161364a565b811461369a57600080fd5b50565b6000813590506136ac81613686565b92915050565b600080604083850312156136c9576136c8613447565b5b60006136d78582860161369d565b92505060206136e8858286016135e8565b9150509250929050565b6000806040838503121561370957613708613447565b5b6000613717858286016135e8565b9250506020613728858286016135e8565b9150509250929050565b60008060006060848603121561374b5761374a613447565b5b6000613759868287016135e8565b935050602061376a868287016135e8565b925050604061377b868287016135e8565b9150509250925092565b60008060006060848603121561379e5761379d613447565b5b60006137ac8682870161369d565b93505060206137bd8682870161369d565b92505060406137ce868287016135e8565b9150509250925092565b600081519050919050565b600082825260208201905092915050565b6000819050602082019050919050565b61380d816135c7565b82525050565b7f4e487b7100000000000000000000000000000000000000000000000000000000600052602160045260246000fd5b6003811061385357613852613813565b5b50565b600081905061386482613842565b919050565b600061387482613856565b9050919050565b61388481613869565b82525050565b610140820160008201516138a16000850182613804565b5060208201516138b46020850182613804565b5060408201516138c76040850182613804565b5060608201516138da6060850182613804565b5060808201516138ed6080850182613804565b5060a082015161390060a0850182613804565b5060c082015161391360c0850182613804565b5060e082015161392660e0850182613804565b5061010082015161393b610100850182613804565b5061012082015161395061012085018261387b565b50505050565b6000613962838361388a565b6101408301905092915050565b6000602082019050919050565b6000613987826137d8565b61399181856137e3565b935061399c836137f4565b8060005b838110156139cd5781516139b48882613956565b97506139bf8361396f565b9250506001810190506139a0565b5085935050505092915050565b600060208201905081810360008301526139f4818461397c565b905092915050565b600060208284031215613a1257613a11613447565b5b6000613a208482850161369d565b91505092915050565b613a32816135c7565b82525050565b6000602082019050613a4d6000830184613a29565b92915050565b613a5c816134d6565b8114613a6757600080fd5b50565b600081359050613a7981613a53565b92915050565b60008060408385031215613a9657613a95613447565b5b6000613aa48582860161369d565b9250506020613ab585828601613a6a565b9150509250929050565b60038110613acc57600080fd5b50565b600081359050613ade81613abf565b92915050565b600060208284031215613afa57613af9613447565b5b6000613b0884828501613acf565b91505092915050565b600080fd5b600080fd5b7f4e487b7100000000000000000000000000000000000000000000000000000000600052604160045260246000fd5b613b538261355b565b810181811067ffffffffffffffff82111715613b7257613b71613b1b565b5b80604052505050565b6000613b8561343d565b9050613b918282613b4a565b919050565b600067ffffffffffffffff821115613bb157613bb0613b1b565b5b613bba8261355b565b9050602081019050919050565b82818337600083830152505050565b6000613be9613be484613b96565b613b7b565b905082815260208101848484011115613c0557613c04613b16565b5b613c10848285613bc7565b509392505050565b600082601f830112613c2d57613c2c613b11565b5b8135613c3d848260208601613bd6565b91505092915050565b60008060008060808587031215613c6057613c5f613447565b5b6000613c6e8782880161369d565b9450506020613c7f8782880161369d565b9350506040613c90878288016135e8565b925050606085013567ffffffffffffffff811115613cb157613cb061344c565b5b613cbd87828801613c18565b91505092959194509250565b61014082016000820151613ce06000850182613804565b506020820151613cf36020850182613804565b506040820151613d066040850182613804565b506060820151613d196060850182613804565b506080820151613d2c6080850182613804565b5060a0820151613d3f60a0850182613804565b5060c0820151613d5260c0850182613804565b5060e0820151613d6560e0850182613804565b50610100820151613d7a610100850182613804565b50610120820151613d8f61012085018261387b565b50505050565b600061014082019050613dab6000830184613cc9565b92915050565b60008060408385031215613dc857613dc7613447565b5b6000613dd68582860161369d565b9250506020613de78582860161369d565b9150509250929050565b7f4e487b7100000000000000000000000000000000000000000000000000000000600052602260045260246000fd5b60006002820490506001821680613e3857607f821691505b60208210811415613e4c57613e4b613df1565b5b50919050565b7f4552433732313a20617070726f76656420717565727920666f72206e6f6e657860008201527f697374656e7420746f6b656e0000000000000000000000000000000000000000602082015250565b6000613eae602c83613517565b9150613eb982613e52565b604082019050919050565b60006020820190508181036000830152613edd81613ea1565b9050919050565b7f4552433732313a20617070726f76616c20746f2063757272656e74206f776e6560008201527f7200000000000000000000000000000000000000000000000000000000000000602082015250565b6000613f40602183613517565b9150613f4b82613ee4565b604082019050919050565b60006020820190508181036000830152613f6f81613f33565b9050919050565b7f4552433732313a20617070726f76652063616c6c6572206973206e6f74206f7760008201527f6e6572206e6f7220617070726f76656420666f7220616c6c0000000000000000602082015250565b6000613fd2603883613517565b9150613fdd82613f76565b604082019050919050565b6000602082019050818103600083015261400181613fc5565b9050919050565b7f57726f6e6720616d6f756e74206f662066656573000000000000000000000000600082015250565b600061403e601483613517565b915061404982614008565b602082019050919050565b6000602082019050818103600083015261406d81614031565b9050919050565b7f596f75277265206e6f7420746865206f776e6572206f6620746865204e465400600082015250565b60006140aa601f83613517565b91506140b582614074565b602082019050919050565b600060208201905081810360008301526140d98161409d565b9050919050565b7f596f7572204e4654732063616e6e6f742066696768742065616368206f74686560008201527f7200000000000000000000000000000000000000000000000000000000000000602082015250565b600061413c602183613517565b9150614147826140e0565b604082019050919050565b6000602082019050818103600083015261416b8161412f565b9050919050565b7f4f6e65206f6620746865204e4654732069732064656164000000000000000000600082015250565b60006141a8601783613517565b91506141b382614172565b602082019050919050565b600060208201905081810360008301526141d78161419b565b9050919050565b7f596f7520646f6e2774206861766520656e6f756768206d616e61000000000000600082015250565b6000614214601a83613517565b915061421f826141de565b602082019050919050565b6000602082019050818103600083015261424381614207565b9050919050565b7f4e487b7100000000000000000000000000000000000000000000000000000000600052601160045260246000fd5b6000614284826135c7565b91507fffffffffffffffffffffffffffffffffffffffffffffffffffffffffffffffff8214156142b7576142b661424a565b5b600182019050919050565b60006080820190506142d76000830187613a29565b6142e46020830186613a29565b6142f16040830185613a29565b6142fe6060830184613a29565b95945050505050565b7f4f776e61626c653a2063616c6c6572206973206e6f7420746865206f776e6572600082015250565b600061433d602083613517565b915061434882614307565b602082019050919050565b6000602082019050818103600083015261436c81614330565b9050919050565b7f4552433732313a207472616e736665722063616c6c6572206973206e6f74206f60008201527f776e6572206e6f7220617070726f766564000000000000000000000000000000602082015250565b60006143cf603183613517565b91506143da82614373565b604082019050919050565b600060208201905081810360008301526143fe816143c2565b9050919050565b7f4e487b7100000000000000000000000000000000000000000000000000000000600052603260045260246000fd5b600060ff82169050919050565b600061444c82614434565b915060ff8214156144605761445f61424a565b5b600182019050919050565b6000614476826135c7565b9150614481836135c7565b9250828210156144945761449361424a565b5b828203905092915050565b7f4552433732313a206f776e657220717565727920666f72206e6f6e657869737460008201527f656e7420746f6b656e0000000000000000000000000000000000000000000000602082015250565b60006144fb602983613517565b91506145068261449f565b604082019050919050565b6000602082019050818103600083015261452a816144ee565b9050919050565b7f4552433732313a2062616c616e636520717565727920666f7220746865207a6560008201527f726f206164647265737300000000000000000000000000000000000000000000602082015250565b600061458d602a83613517565b915061459882614531565b604082019050919050565b600060208201905081810360008301526145bc81614580565b9050919050565b7f596f752063616e27742068617665206d6f7265207468616e2035204e46540000600082015250565b60006145f9601e83613517565b9150614604826145c3565b602082019050919050565b60006020820190508181036000830152614628816145ec565b9050919050565b7f596f75206d7573742063686f6f7365206265747765656e206265727365726b6560008201527f722c2073706972697475616c206f7220656c656d656e74617279000000000000602082015250565b600061468b603a83613517565b91506146968261462f565b604082019050919050565b600060208201905081810360008301526146ba8161467e565b9050919050565b7f4552433732314d657461646174613a2055524920717565727920666f72206e6f60008201527f6e6578697374656e7420746f6b656e0000000000000000000000000000000000602082015250565b600061471d602f83613517565b9150614728826146c1565b604082019050919050565b6000602082019050818103600083015261474c81614710565b9050919050565b600081905092915050565b60006147698261350c565b6147738185614753565b9350614783818560208601613528565b80840191505092915050565b600061479b828561475e565b91506147a7828461475e565b91508190509392505050565b7f4f776e61626c653a206e6577206f776e657220697320746865207a65726f206160008201527f6464726573730000000000000000000000000000000000000000000000000000602082015250565b600061480f602683613517565b915061481a826147b3565b604082019050919050565b6000602082019050818103600083015261483e81614802565b9050919050565b7f596f752772652063686172616374657220697320616c7265616479206865616c60008201527f6564000000000000000000000000000000000000000000000000000000000000602082015250565b60006148a1602283613517565b91506148ac82614845565b604082019050919050565b600060208201905081810360008301526148d081614894565b9050919050565b60006148e2826135c7565b91506148ed836135c7565b9250827fffffffffffffffffffffffffffffffffffffffffffffffffffffffffffffffff038211156149225761492161424a565b5b828201905092915050565b7f4552433732313a206f70657261746f7220717565727920666f72206e6f6e657860008201527f697374656e7420746f6b656e0000000000000000000000000000000000000000602082015250565b6000614989602c83613517565b91506149948261492d565b604082019050919050565b600060208201905081810360008301526149b88161497c565b9050919050565b7f4552433732313a207472616e73666572206f6620746f6b656e2074686174206960008201527f73206e6f74206f776e0000000000000000000000000000000000000000000000602082015250565b6000614a1b602983613517565b9150614a26826149bf565b604082019050919050565b60006020820190508181036000830152614a4a81614a0e565b9050919050565b7f4552433732313a207472616e7366657220746f20746865207a65726f2061646460008201527f7265737300000000000000000000000000000000000000000000000000000000602082015250565b6000614aad602483613517565b9150614ab882614a51565b604082019050919050565b60006020820190508181036000830152614adc81614aa0565b9050919050565b7f4552433732313a20617070726f766520746f2063616c6c657200000000000000600082015250565b6000614b19601983613517565b9150614b2482614ae3565b602082019050919050565b60006020820190508181036000830152614b4881614b0c565b9050919050565b6000819050919050565b614b6a614b65826135c7565b614b4f565b82525050565b60006c0100000000000000000000000082029050919050565b6000614b9482614b70565b9050919050565b6000614ba682614b89565b9050919050565b614bbe614bb98261364a565b614b9b565b82525050565b6000614bd08285614b59565b602082019150614be08284614bad565b6014820191508190509392505050565b7f4e487b7100000000000000000000000000000000000000000000000000000000600052601260045260246000fd5b6000614c2a826135c7565b9150614c35836135c7565b925082614c4557614c44614bf0565b5b828206905092915050565b7f4552433732313a207472616e7366657220746f206e6f6e20455243373231526560008201527f63656976657220696d706c656d656e7465720000000000000000000000000000602082015250565b6000614cac603283613517565b9150614cb782614c50565b604082019050919050565b60006020820190508181036000830152614cdb81614c9f565b9050919050565b6000614ced826135c7565b9150614cf8836135c7565b925082614d0857614d07614bf0565b5b828204905092915050565b6000614d1e826135c7565b9150614d29836135c7565b9250817fffffffffffffffffffffffffffffffffffffffffffffffffffffffffffffffff0483118215151615614d6257614d6161424a565b5b828202905092915050565b600081519050919050565b600082825260208201905092915050565b6000614d9482614d6d565b614d9e8185614d78565b9350614dae818560208601613528565b614db78161355b565b840191505092915050565b6000608082019050614dd7600083018761365c565b614de4602083018661365c565b614df16040830185613a29565b8181036060830152614e038184614d89565b905095945050505050565b600081519050614e1d8161347d565b92915050565b600060208284031215614e3957614e38613447565b5b6000614e4784828501614e0e565b91505092915050565b7f4552433732313a206d696e7420746f20746865207a65726f2061646472657373600082015250565b6000614e86602083613517565b9150614e9182614e50565b602082019050919050565b60006020820190508181036000830152614eb581614e79565b9050919050565b7f4552433732313a20746f6b656e20616c7265616479206d696e74656400000000600082015250565b6000614ef2601c83613517565b9150614efd82614ebc565b602082019050919050565b60006020820190508181036000830152614f2181614ee5565b905091905056fea26469706673582212201ee1098417c380e24855a3bc9934177c78d9d45088e6f4d8593c4001c1533df564736f6c634300080a0033",
  "immutableReferences": {},
  "source": "// SPDX-License-Identifier: MIT\r\npragma solidity 0.8.10;\r\n\r\nimport \"@openzeppelin/contracts/token/ERC721/ERC721.sol\";\r\nimport \"@openzeppelin/contracts/access/Ownable.sol\";\r\nimport \"@openzeppelin/contracts/utils/math/SafeMath.sol\";\r\n\r\ncontract NFTGameToken is ERC721, Ownable {\r\n\r\n    constructor() ERC721(\"NFTGameToken\", \"NFTG\") {}\r\n\r\n    using SafeMath for uint256;\r\n\r\n    enum type_character { BERSERKER, SPIRITUAL, ELEMENTARY }\r\n    uint256 nextId = 0;\r\n    uint256 mintFee = 0.001 ether;\r\n    uint256 healFee = 0.00001 ether;\r\n    uint256 fightFee = 0.00001 ether;\r\n\r\n    struct Character {\r\n        uint256 id;\r\n        uint256 dna;\r\n        // uint256 level;\r\n        uint256 xp;\r\n        uint256 hp;\r\n        uint256 mana;\r\n        uint256 attack;\r\n        uint256 armor;\r\n        // uint256 speed;\r\n        uint256 magicAttack;\r\n        uint256 magicResistance;\r\n        type_character typeCharacter;\r\n    }\r\n\r\n    mapping(uint256 => Character) private _characterDetails;\r\n\r\n    // events\r\n    event CharacterCreated(uint256 id);\r\n    event Healed(uint256 tokenId);\r\n    event Fighted(uint256 myTokenId, uint256 rivalTokenId, uint256 substrateLifeToRival, uint256 substrateLifeToMe);\r\n\r\n    // Helper\r\n    function _generateRandomNum(uint256 _mod) internal view returns(uint256) {\r\n        uint256 randNum = uint256(keccak256(abi.encodePacked(block.timestamp, msg.sender)));\r\n        return randNum % _mod;\r\n    }\r\n    \r\n    function updateFees(uint256 _mintFee, uint256 _healFee, uint256 _fightFee) external onlyOwner() {\r\n        mintFee = _mintFee;\r\n        healFee = _healFee;\r\n        fightFee = _fightFee;\r\n    }\r\n    \r\n    function withdraw() external onlyOwner() {\r\n        payable(owner()).transfer(address(this).balance);\r\n    }\r\n    \r\n    function substrateLife(uint256 id1, uint256 id2) internal view returns(uint256) {\r\n        uint256 op1 = _characterDetails[id1].attack.mul(1 + _characterDetails[id1].xp.div(10));\r\n        uint256 op2 = _characterDetails[id2].armor.mul(1 + _characterDetails[id2].xp.div(10)).div(2);\r\n        if (op1 < op2) {\r\n            return 0;\r\n        } else {\r\n            return op1.sub(op2);\r\n        }\r\n    }\r\n\r\n    function substrateLifeMagic(uint256 id1, uint256 id2) internal view returns(uint256) {\r\n        uint256 op1 = _characterDetails[id1].magicAttack.mul(1 + _characterDetails[id1].xp.div(10));\r\n        uint256 op2 = _characterDetails[id2].magicResistance.mul(1 + _characterDetails[id2].xp.div(10)).div(2);\r\n        if (op1 < op2) {\r\n            return 0;\r\n        } else {\r\n            return op1.sub(op2);\r\n        }\r\n    }\r\n\r\n    function createCharacter(type_character _typeCharacter) external payable {\r\n        require(msg.value == mintFee, \"Wrong amount of fees\");\r\n        require(balanceOf(msg.sender) < 5, \"You can't have more than 5 NFT\");\r\n        require(_typeCharacter == type_character.BERSERKER || _typeCharacter == type_character.SPIRITUAL || _typeCharacter == type_character.ELEMENTARY,\r\n        \"You must choose between berserker, spiritual or elementary\");\r\n        uint256 dna = _generateRandomNum(10**16);\r\n        if (_typeCharacter == type_character.BERSERKER) {\r\n            _characterDetails[nextId] = Character(nextId, dna, 1, 100, 10, 5, 3, 1, 1, type_character.BERSERKER);\r\n        }\r\n        if (_typeCharacter == type_character.SPIRITUAL) {\r\n            _characterDetails[nextId] = Character(nextId, dna, 1, 100, 100, 1, 1, 5, 3, type_character.SPIRITUAL);\r\n        }\r\n        if (_typeCharacter == type_character.ELEMENTARY) {\r\n            _characterDetails[nextId] = Character(nextId, dna, 1, 100, 50, 2, 2, 3, 3, type_character.ELEMENTARY);\r\n        }\r\n        _safeMint(msg.sender, nextId);\r\n        emit CharacterCreated(nextId);\r\n        nextId++;\r\n    }\r\n\r\n    function heal(uint256 _tokenId) external payable {\r\n        require(msg.value == healFee, \"Wrong amount of fees\");\r\n        require(ownerOf(_tokenId) == msg.sender, \"You're not the owner of the NFT\");\r\n        require(_characterDetails[_tokenId].hp < 100, \"You're character is already healed\");\r\n        // require(_characterDetails[_tokenId].hp > 0, \"You're NFT is dead\");\r\n        uint256 tempResult = _characterDetails[_tokenId].hp + 50;\r\n        if (tempResult > 100) {\r\n            _characterDetails[_tokenId].hp = 100;\r\n        } else {\r\n            _characterDetails[_tokenId].hp.add(50);\r\n        }\r\n        emit Healed(_tokenId);\r\n    }\r\n\r\n    function fight(uint256 _myTokenId, uint256 _rivalTokenId) external payable {\r\n        require(msg.value == fightFee, \"Wrong amount of fees\");\r\n        require(ownerOf(_myTokenId) == msg.sender, \"You're not the owner of the NFT\");\r\n        require(ownerOf(_myTokenId) != ownerOf(_rivalTokenId), \"Your NFTs cannot fight each other\");\r\n        require(_characterDetails[_myTokenId].hp > 0 && _characterDetails[_rivalTokenId].hp > 0, \"One of the NFTs is dead\");\r\n\r\n        uint256 substrateLifeToRival = substrateLife(_myTokenId, _rivalTokenId);\r\n        uint256 substrateLifeToMe = substrateLife(_rivalTokenId, _myTokenId);\r\n\r\n        if(substrateLifeToRival >= _characterDetails[_rivalTokenId].hp) {\r\n            _characterDetails[_rivalTokenId].hp = 0;\r\n            _characterDetails[_myTokenId].xp++;\r\n        } else {\r\n            _characterDetails[_rivalTokenId].hp.sub(substrateLifeToRival);\r\n            if(substrateLifeToMe >= _characterDetails[_myTokenId].hp) {\r\n                _characterDetails[_myTokenId].hp = 0;\r\n                _characterDetails[_rivalTokenId].xp++;\r\n            } else {\r\n                _characterDetails[_myTokenId].hp.sub(substrateLifeToMe);\r\n                if (substrateLifeToRival > substrateLifeToMe) {\r\n                    _characterDetails[_myTokenId].xp++;\r\n                } else if (substrateLifeToMe > substrateLifeToRival) {\r\n                    _characterDetails[_rivalTokenId].xp++;\r\n                } else {\r\n                    _characterDetails[_myTokenId].xp++;\r\n                    _characterDetails[_rivalTokenId].xp++;\r\n                }\r\n            }\r\n        }\r\n        emit Fighted(_myTokenId, _rivalTokenId, substrateLifeToRival, substrateLifeToMe);\r\n    }\r\n\r\n    function spell(uint256 _myTokenId, uint256 _rivalTokenId) external payable {\r\n        require(msg.value == fightFee, \"Wrong amount of fees\");\r\n        require(ownerOf(_myTokenId) == msg.sender, \"You're not the owner of the NFT\");\r\n        require(ownerOf(_myTokenId) != ownerOf(_rivalTokenId), \"Your NFTs cannot fight each other\");\r\n        require(_characterDetails[_myTokenId].hp > 0 && _characterDetails[_rivalTokenId].hp > 0, \"One of the NFTs is dead\");\r\n        require(_characterDetails[_myTokenId].mana >= 10, \"You don't have enough mana\");\r\n\r\n        uint256 substrateLifeToRival = substrateLifeMagic(_myTokenId, _rivalTokenId);\r\n        uint256 substrateLifeToMe = substrateLifeMagic(_rivalTokenId, _myTokenId);\r\n\r\n        _characterDetails[_myTokenId].mana.sub(10);\r\n        if(substrateLifeToRival >= _characterDetails[_rivalTokenId].hp) {\r\n            _characterDetails[_rivalTokenId].hp = 0;\r\n            _characterDetails[_myTokenId].xp++;\r\n        } else {\r\n            _characterDetails[_rivalTokenId].hp.sub(substrateLifeToRival);\r\n            if(substrateLifeToMe >= _characterDetails[_myTokenId].hp) {\r\n                _characterDetails[_myTokenId].hp = 0;\r\n                _characterDetails[_rivalTokenId].xp++;\r\n            } else {\r\n                _characterDetails[_myTokenId].hp.sub(substrateLifeToMe);\r\n                if (substrateLifeToRival > substrateLifeToMe) {\r\n                    _characterDetails[_myTokenId].xp++;\r\n                } else if (substrateLifeToMe > substrateLifeToRival) {\r\n                    _characterDetails[_rivalTokenId].xp++;\r\n                } else {\r\n                    _characterDetails[_myTokenId].xp++;\r\n                    _characterDetails[_rivalTokenId].xp++;\r\n                }\r\n            }\r\n        }\r\n        emit Fighted(_myTokenId, _rivalTokenId, substrateLifeToRival, substrateLifeToMe);\r\n    }\r\n\r\n    // Getters\r\n    function getTokenDetails(uint256 _tokenId) external view returns(Character memory) {\r\n        return _characterDetails[_tokenId];\r\n    }\r\n\r\n    function getMyCharacters() public view returns (Character[] memory){\r\n        uint8 count = 0;\r\n        Character[] memory myCharacters = new Character[](balanceOf(msg.sender));\r\n        for (uint256 i = 0; i < nextId; i++) {\r\n            if (ownerOf(i) == msg.sender) {\r\n                myCharacters[count] = _characterDetails[i];\r\n                count++;\r\n            }\r\n        }\r\n        return myCharacters;\r\n    }\r\n\r\n    function getOthersCharacters() public view returns (Character[] memory){\r\n        uint256 count = 0;\r\n        Character[] memory othersCharacters = new Character[](nextId - balanceOf(msg.sender));\r\n        for (uint256 i = 0; i < nextId; i++) {\r\n            if (ownerOf(i) != msg.sender) {\r\n                othersCharacters[count] = _characterDetails[i];\r\n                count++;\r\n            }\r\n        }\r\n        return othersCharacters;\r\n    }\r\n    \r\n    // // only for TESTS getAllCharacters\r\n    // function getAllCharacters() public view returns (Character[] memory){\r\n    //     Character[] memory allCharacters = new Character[](nextId);\r\n    //     for (uint256 i = 0; i < nextId; i++) {\r\n    //         allCharacters[i] = _characterDetails[i];\r\n    //     }\r\n    //     return allCharacters;\r\n    // }\r\n}\r\n",
  "sourcePath": "D:\\TAF\\Alyra\\Projets\\tests_avant_projet_alyra\\contracts\\NFTGameToken.sol",
  "compiler": {
    "name": "solc",
    "version": "0.8.10+commit.fc410830.Emscripten.clang"
  },
  "schemaVersion": "3.4.3",
  "updatedAt": "2021-12-13T15:46:59.357Z",
  "networkType": "ethereum",
  "devdoc": {
    "kind": "dev",
    "methods": {
      "approve(address,uint256)": {
        "details": "See {IERC721-approve}."
      },
      "balanceOf(address)": {
        "details": "See {IERC721-balanceOf}."
      },
      "getApproved(uint256)": {
        "details": "See {IERC721-getApproved}."
      },
      "isApprovedForAll(address,address)": {
        "details": "See {IERC721-isApprovedForAll}."
      },
      "name()": {
        "details": "See {IERC721Metadata-name}."
      },
      "owner()": {
        "details": "Returns the address of the current owner."
      },
      "ownerOf(uint256)": {
        "details": "See {IERC721-ownerOf}."
      },
      "renounceOwnership()": {
        "details": "Leaves the contract without owner. It will not be possible to call `onlyOwner` functions anymore. Can only be called by the current owner. NOTE: Renouncing ownership will leave the contract without an owner, thereby removing any functionality that is only available to the owner."
      },
      "safeTransferFrom(address,address,uint256)": {
        "details": "See {IERC721-safeTransferFrom}."
      },
      "safeTransferFrom(address,address,uint256,bytes)": {
        "details": "See {IERC721-safeTransferFrom}."
      },
      "setApprovalForAll(address,bool)": {
        "details": "See {IERC721-setApprovalForAll}."
      },
      "supportsInterface(bytes4)": {
        "details": "See {IERC165-supportsInterface}."
      },
      "symbol()": {
        "details": "See {IERC721Metadata-symbol}."
      },
      "tokenURI(uint256)": {
        "details": "See {IERC721Metadata-tokenURI}."
      },
      "transferFrom(address,address,uint256)": {
        "details": "See {IERC721-transferFrom}."
      },
      "transferOwnership(address)": {
        "details": "Transfers ownership of the contract to a new account (`newOwner`). Can only be called by the current owner."
      }
    },
    "version": 1
  },
  "userdoc": {
    "kind": "user",
    "methods": {},
    "version": 1
  }
}