{
  "contractName": "NFTGameToken",
  "abi": [
    {
      "inputs": [],
      "stateMutability": "nonpayable",
      "type": "constructor"
    },
    {
      "anonymous": false,
      "inputs": [
        {
          "indexed": true,
          "internalType": "address",
          "name": "owner",
          "type": "address"
        },
        {
          "indexed": true,
          "internalType": "address",
          "name": "approved",
          "type": "address"
        },
        {
          "indexed": true,
          "internalType": "uint256",
          "name": "tokenId",
          "type": "uint256"
        }
      ],
      "name": "Approval",
      "type": "event"
    },
    {
      "anonymous": false,
      "inputs": [
        {
          "indexed": true,
          "internalType": "address",
          "name": "owner",
          "type": "address"
        },
        {
          "indexed": true,
          "internalType": "address",
          "name": "operator",
          "type": "address"
        },
        {
          "indexed": false,
          "internalType": "bool",
          "name": "approved",
          "type": "bool"
        }
      ],
      "name": "ApprovalForAll",
      "type": "event"
    },
    {
      "anonymous": false,
      "inputs": [
        {
          "indexed": false,
          "internalType": "uint256",
          "name": "id",
          "type": "uint256"
        }
      ],
      "name": "CharacterCreated",
      "type": "event"
    },
    {
      "anonymous": false,
      "inputs": [
        {
          "indexed": false,
          "internalType": "uint256",
          "name": "myTokenId",
          "type": "uint256"
        },
        {
          "indexed": false,
          "internalType": "uint256",
          "name": "rivalTokenId",
          "type": "uint256"
        },
        {
          "indexed": false,
          "internalType": "uint256",
          "name": "substrateLifeToRival",
          "type": "uint256"
        },
        {
          "indexed": false,
          "internalType": "uint256",
          "name": "substrateLifeToMe",
          "type": "uint256"
        }
      ],
      "name": "Fighted",
      "type": "event"
    },
    {
      "anonymous": false,
      "inputs": [
        {
          "indexed": false,
          "internalType": "uint256",
          "name": "tokenId",
          "type": "uint256"
        }
      ],
      "name": "Healed",
      "type": "event"
    },
    {
      "anonymous": false,
      "inputs": [
        {
          "indexed": true,
          "internalType": "address",
          "name": "previousOwner",
          "type": "address"
        },
        {
          "indexed": true,
          "internalType": "address",
          "name": "newOwner",
          "type": "address"
        }
      ],
      "name": "OwnershipTransferred",
      "type": "event"
    },
    {
      "anonymous": false,
      "inputs": [
        {
          "indexed": true,
          "internalType": "address",
          "name": "from",
          "type": "address"
        },
        {
          "indexed": true,
          "internalType": "address",
          "name": "to",
          "type": "address"
        },
        {
          "indexed": true,
          "internalType": "uint256",
          "name": "tokenId",
          "type": "uint256"
        }
      ],
      "name": "Transfer",
      "type": "event"
    },
    {
      "inputs": [
        {
          "internalType": "address",
          "name": "to",
          "type": "address"
        },
        {
          "internalType": "uint256",
          "name": "tokenId",
          "type": "uint256"
        }
      ],
      "name": "approve",
      "outputs": [],
      "stateMutability": "nonpayable",
      "type": "function"
    },
    {
      "inputs": [
        {
          "internalType": "address",
          "name": "owner",
          "type": "address"
        }
      ],
      "name": "balanceOf",
      "outputs": [
        {
          "internalType": "uint256",
          "name": "",
          "type": "uint256"
        }
      ],
      "stateMutability": "view",
      "type": "function",
      "constant": true
    },
    {
      "inputs": [
        {
          "internalType": "uint256",
          "name": "tokenId",
          "type": "uint256"
        }
      ],
      "name": "getApproved",
      "outputs": [
        {
          "internalType": "address",
          "name": "",
          "type": "address"
        }
      ],
      "stateMutability": "view",
      "type": "function",
      "constant": true
    },
    {
      "inputs": [
        {
          "internalType": "address",
          "name": "owner",
          "type": "address"
        },
        {
          "internalType": "address",
          "name": "operator",
          "type": "address"
        }
      ],
      "name": "isApprovedForAll",
      "outputs": [
        {
          "internalType": "bool",
          "name": "",
          "type": "bool"
        }
      ],
      "stateMutability": "view",
      "type": "function",
      "constant": true
    },
    {
      "inputs": [],
      "name": "name",
      "outputs": [
        {
          "internalType": "string",
          "name": "",
          "type": "string"
        }
      ],
      "stateMutability": "view",
      "type": "function",
      "constant": true
    },
    {
      "inputs": [],
      "name": "owner",
      "outputs": [
        {
          "internalType": "address",
          "name": "",
          "type": "address"
        }
      ],
      "stateMutability": "view",
      "type": "function",
      "constant": true
    },
    {
      "inputs": [
        {
          "internalType": "uint256",
          "name": "tokenId",
          "type": "uint256"
        }
      ],
      "name": "ownerOf",
      "outputs": [
        {
          "internalType": "address",
          "name": "",
          "type": "address"
        }
      ],
      "stateMutability": "view",
      "type": "function",
      "constant": true
    },
    {
      "inputs": [],
      "name": "renounceOwnership",
      "outputs": [],
      "stateMutability": "nonpayable",
      "type": "function"
    },
    {
      "inputs": [
        {
          "internalType": "address",
          "name": "from",
          "type": "address"
        },
        {
          "internalType": "address",
          "name": "to",
          "type": "address"
        },
        {
          "internalType": "uint256",
          "name": "tokenId",
          "type": "uint256"
        }
      ],
      "name": "safeTransferFrom",
      "outputs": [],
      "stateMutability": "nonpayable",
      "type": "function"
    },
    {
      "inputs": [
        {
          "internalType": "address",
          "name": "from",
          "type": "address"
        },
        {
          "internalType": "address",
          "name": "to",
          "type": "address"
        },
        {
          "internalType": "uint256",
          "name": "tokenId",
          "type": "uint256"
        },
        {
          "internalType": "bytes",
          "name": "_data",
          "type": "bytes"
        }
      ],
      "name": "safeTransferFrom",
      "outputs": [],
      "stateMutability": "nonpayable",
      "type": "function"
    },
    {
      "inputs": [
        {
          "internalType": "address",
          "name": "operator",
          "type": "address"
        },
        {
          "internalType": "bool",
          "name": "approved",
          "type": "bool"
        }
      ],
      "name": "setApprovalForAll",
      "outputs": [],
      "stateMutability": "nonpayable",
      "type": "function"
    },
    {
      "inputs": [
        {
          "internalType": "bytes4",
          "name": "interfaceId",
          "type": "bytes4"
        }
      ],
      "name": "supportsInterface",
      "outputs": [
        {
          "internalType": "bool",
          "name": "",
          "type": "bool"
        }
      ],
      "stateMutability": "view",
      "type": "function",
      "constant": true
    },
    {
      "inputs": [],
      "name": "symbol",
      "outputs": [
        {
          "internalType": "string",
          "name": "",
          "type": "string"
        }
      ],
      "stateMutability": "view",
      "type": "function",
      "constant": true
    },
    {
      "inputs": [
        {
          "internalType": "uint256",
          "name": "tokenId",
          "type": "uint256"
        }
      ],
      "name": "tokenURI",
      "outputs": [
        {
          "internalType": "string",
          "name": "",
          "type": "string"
        }
      ],
      "stateMutability": "view",
      "type": "function",
      "constant": true
    },
    {
      "inputs": [
        {
          "internalType": "address",
          "name": "from",
          "type": "address"
        },
        {
          "internalType": "address",
          "name": "to",
          "type": "address"
        },
        {
          "internalType": "uint256",
          "name": "tokenId",
          "type": "uint256"
        }
      ],
      "name": "transferFrom",
      "outputs": [],
      "stateMutability": "nonpayable",
      "type": "function"
    },
    {
      "inputs": [
        {
          "internalType": "address",
          "name": "newOwner",
          "type": "address"
        }
      ],
      "name": "transferOwnership",
      "outputs": [],
      "stateMutability": "nonpayable",
      "type": "function"
    },
    {
      "inputs": [
        {
          "internalType": "uint256",
          "name": "_mintFee",
          "type": "uint256"
        },
        {
          "internalType": "uint256",
          "name": "_healFee",
          "type": "uint256"
        },
        {
          "internalType": "uint256",
          "name": "_fightFee",
          "type": "uint256"
        }
      ],
      "name": "updateFees",
      "outputs": [],
      "stateMutability": "nonpayable",
      "type": "function"
    },
    {
      "inputs": [],
      "name": "withdraw",
      "outputs": [],
      "stateMutability": "nonpayable",
      "type": "function"
    },
    {
      "inputs": [
        {
          "internalType": "enum NFTGameToken.type_character",
          "name": "_typeCharacter",
          "type": "uint8"
        }
      ],
      "name": "createCharacter",
      "outputs": [],
      "stateMutability": "payable",
      "type": "function",
      "payable": true
    },
    {
      "inputs": [
        {
          "internalType": "uint256",
          "name": "_tokenId",
          "type": "uint256"
        }
      ],
      "name": "heal",
      "outputs": [],
      "stateMutability": "payable",
      "type": "function",
      "payable": true
    },
    {
      "inputs": [
        {
          "internalType": "uint256",
          "name": "_myTokenId",
          "type": "uint256"
        },
        {
          "internalType": "uint256",
          "name": "_rivalTokenId",
          "type": "uint256"
        }
      ],
      "name": "fight",
      "outputs": [],
      "stateMutability": "payable",
      "type": "function",
      "payable": true
    },
    {
      "inputs": [
        {
          "internalType": "uint256",
          "name": "_myTokenId",
          "type": "uint256"
        },
        {
          "internalType": "uint256",
          "name": "_rivalTokenId",
          "type": "uint256"
        }
      ],
      "name": "spell",
      "outputs": [],
      "stateMutability": "payable",
      "type": "function",
      "payable": true
    },
    {
      "inputs": [
        {
          "internalType": "uint256",
          "name": "_tokenId",
          "type": "uint256"
        }
      ],
      "name": "getTokenDetails",
      "outputs": [
        {
          "components": [
            {
              "internalType": "uint256",
              "name": "id",
              "type": "uint256"
            },
            {
              "internalType": "uint256",
              "name": "dna",
              "type": "uint256"
            },
            {
              "internalType": "uint256",
              "name": "xp",
              "type": "uint256"
            },
            {
              "internalType": "uint256",
              "name": "hp",
              "type": "uint256"
            },
            {
              "internalType": "uint256",
              "name": "mana",
              "type": "uint256"
            },
            {
              "internalType": "uint256",
              "name": "attack",
              "type": "uint256"
            },
            {
              "internalType": "uint256",
              "name": "armor",
              "type": "uint256"
            },
            {
              "internalType": "uint256",
              "name": "magicAttack",
              "type": "uint256"
            },
            {
              "internalType": "uint256",
              "name": "magicResistance",
              "type": "uint256"
            },
            {
              "internalType": "enum NFTGameToken.type_character",
              "name": "typeCharacter",
              "type": "uint8"
            }
          ],
          "internalType": "struct NFTGameToken.Character",
          "name": "",
          "type": "tuple"
        }
      ],
      "stateMutability": "view",
      "type": "function",
      "constant": true
    },
    {
      "inputs": [],
      "name": "getMyCharacters",
      "outputs": [
        {
          "components": [
            {
              "internalType": "uint256",
              "name": "id",
              "type": "uint256"
            },
            {
              "internalType": "uint256",
              "name": "dna",
              "type": "uint256"
            },
            {
              "internalType": "uint256",
              "name": "xp",
              "type": "uint256"
            },
            {
              "internalType": "uint256",
              "name": "hp",
              "type": "uint256"
            },
            {
              "internalType": "uint256",
              "name": "mana",
              "type": "uint256"
            },
            {
              "internalType": "uint256",
              "name": "attack",
              "type": "uint256"
            },
            {
              "internalType": "uint256",
              "name": "armor",
              "type": "uint256"
            },
            {
              "internalType": "uint256",
              "name": "magicAttack",
              "type": "uint256"
            },
            {
              "internalType": "uint256",
              "name": "magicResistance",
              "type": "uint256"
            },
            {
              "internalType": "enum NFTGameToken.type_character",
              "name": "typeCharacter",
              "type": "uint8"
            }
          ],
          "internalType": "struct NFTGameToken.Character[]",
          "name": "",
          "type": "tuple[]"
        }
      ],
      "stateMutability": "view",
      "type": "function",
      "constant": true
    },
    {
      "inputs": [],
      "name": "getOthersCharacters",
      "outputs": [
        {
          "components": [
            {
              "internalType": "uint256",
              "name": "id",
              "type": "uint256"
            },
            {
              "internalType": "uint256",
              "name": "dna",
              "type": "uint256"
            },
            {
              "internalType": "uint256",
              "name": "xp",
              "type": "uint256"
            },
            {
              "internalType": "uint256",
              "name": "hp",
              "type": "uint256"
            },
            {
              "internalType": "uint256",
              "name": "mana",
              "type": "uint256"
            },
            {
              "internalType": "uint256",
              "name": "attack",
              "type": "uint256"
            },
            {
              "internalType": "uint256",
              "name": "armor",
              "type": "uint256"
            },
            {
              "internalType": "uint256",
              "name": "magicAttack",
              "type": "uint256"
            },
            {
              "internalType": "uint256",
              "name": "magicResistance",
              "type": "uint256"
            },
            {
              "internalType": "enum NFTGameToken.type_character",
              "name": "typeCharacter",
              "type": "uint8"
            }
          ],
          "internalType": "struct NFTGameToken.Character[]",
          "name": "",
          "type": "tuple[]"
        }
      ],
      "stateMutability": "view",
      "type": "function",
      "constant": true
    }
  ],
  "bytecode": "0x6080604052600060075566038d7ea4c680006008556509184e72a0006009556509184e72a000600a553480156200003557600080fd5b506040518060400160405280600c81526020017f4e465447616d65546f6b656e00000000000000000000000000000000000000008152506040518060400160405280600481526020017f4e465447000000000000000000000000000000000000000000000000000000008152508160009080519060200190620000ba929190620001dc565b508060019080519060200190620000d3929190620001dc565b50505062000108620000f36200010e640100000000026401000000009004565b62000116640100000000026401000000009004565b620002f1565b600033905090565b6000600660009054906101000a900473ffffffffffffffffffffffffffffffffffffffff16905081600660006101000a81548173ffffffffffffffffffffffffffffffffffffffff021916908373ffffffffffffffffffffffffffffffffffffffff1602179055508173ffffffffffffffffffffffffffffffffffffffff168173ffffffffffffffffffffffffffffffffffffffff167f8be0079c531659141344cd1fd0a4f28419497f9722a3daafe3b4186f6b6457e060405160405180910390a35050565b828054620001ea90620002bb565b90600052602060002090601f0160209004810192826200020e57600085556200025a565b82601f106200022957805160ff19168380011785556200025a565b828001600101855582156200025a579182015b82811115620002595782518255916020019190600101906200023c565b5b5090506200026991906200026d565b5090565b5b80821115620002885760008160009055506001016200026e565b5090565b7f4e487b7100000000000000000000000000000000000000000000000000000000600052602260045260246000fd5b60006002820490506001821680620002d457607f821691505b60208210811415620002eb57620002ea6200028c565b5b50919050565b614fd380620003016000396000f3fe608060405260043610610183576000357c01000000000000000000000000000000000000000000000000000000009004806370a08231116100ee578063b88d4fde116100a7578063ca39e5ef11610081578063ca39e5ef14610529578063e985e9c514610545578063f2fde38b14610582578063f37ac61c146105ab57610183565b8063b88d4fde14610486578063c1e03728146104af578063c87b56dd146104ec57610183565b806370a0823114610397578063715018a6146103d45780638da5cb5b146103eb57806395d89b4114610416578063a22cb46514610441578063b57da3b11461046a57610183565b806323b872dd1161014057806323b872dd1461029b5780633c4739d3146102c45780633ccfd60b146102ef57806342842e0e146103065780634fb97a101461032f5780636352211e1461035a57610183565b806301ffc9a71461018857806306fdde03146101c5578063081812fc146101f0578063095ea7b31461022d5780630f590e07146102565780632242908514610272575b600080fd5b34801561019457600080fd5b506101af60048036038101906101aa919061351e565b6105c7565b6040516101bc9190613566565b60405180910390f35b3480156101d157600080fd5b506101da6106a9565b6040516101e7919061361a565b60405180910390f35b3480156101fc57600080fd5b5061021760048036038101906102129190613672565b61073b565b60405161022491906136e0565b60405180910390f35b34801561023957600080fd5b50610254600480360381019061024f9190613727565b6107c0565b005b610270600480360381019061026b9190613767565b6108d8565b005b34801561027e57600080fd5b50610299600480360381019061029491906137a7565b610db1565b005b3480156102a757600080fd5b506102c260048036038101906102bd91906137fa565b610e47565b005b3480156102d057600080fd5b506102d9610ea7565b6040516102e69190613a4f565b60405180910390f35b3480156102fb57600080fd5b50610304611053565b005b34801561031257600080fd5b5061032d600480360381019061032891906137fa565b611136565b005b34801561033b57600080fd5b50610344611156565b6040516103519190613a4f565b60405180910390f35b34801561036657600080fd5b50610381600480360381019061037c9190613672565b611312565b60405161038e91906136e0565b60405180910390f35b3480156103a357600080fd5b506103be60048036038101906103b99190613a71565b6113c4565b6040516103cb9190613aad565b60405180910390f35b3480156103e057600080fd5b506103e961147c565b005b3480156103f757600080fd5b50610400611504565b60405161040d91906136e0565b60405180910390f35b34801561042257600080fd5b5061042b61152e565b604051610438919061361a565b60405180910390f35b34801561044d57600080fd5b5061046860048036038101906104639190613af4565b6115c0565b005b610484600480360381019061047f9190613b59565b6115d6565b005b34801561049257600080fd5b506104ad60048036038101906104a89190613cbb565b611b38565b005b3480156104bb57600080fd5b506104d660048036038101906104d19190613672565b611b9a565b6040516104e39190613e0a565b60405180910390f35b3480156104f857600080fd5b50610513600480360381019061050e9190613672565b611c5d565b604051610520919061361a565b60405180910390f35b610543600480360381019061053e9190613767565b611d04565b005b34801561055157600080fd5b5061056c60048036038101906105679190613e26565b61213f565b6040516105799190613566565b60405180910390f35b34801561058e57600080fd5b506105a960048036038101906105a49190613a71565b6121d3565b005b6105c560048036038101906105c09190613672565b6122cb565b005b60007f80ac58cd000000000000000000000000000000000000000000000000000000007bffffffffffffffffffffffffffffffffffffffffffffffffffffffff1916827bffffffffffffffffffffffffffffffffffffffffffffffffffffffff1916148061069257507f5b5e139f000000000000000000000000000000000000000000000000000000007bffffffffffffffffffffffffffffffffffffffffffffffffffffffff1916827bffffffffffffffffffffffffffffffffffffffffffffffffffffffff1916145b806106a257506106a1826124b6565b5b9050919050565b6060600080546106b890613e95565b80601f01602080910402602001604051908101604052809291908181526020018280546106e490613e95565b80156107315780601f1061070657610100808354040283529160200191610731565b820191906000526020600020905b81548152906001019060200180831161071457829003601f168201915b5050505050905090565b600061074682612520565b610785576040517f08c379a000000000000000000000000000000000000000000000000000000000815260040161077c90613f39565b60405180910390fd5b6004600083815260200190815260200160002060009054906101000a900473ffffffffffffffffffffffffffffffffffffffff169050919050565b60006107cb82611312565b90508073ffffffffffffffffffffffffffffffffffffffff168373ffffffffffffffffffffffffffffffffffffffff16141561083c576040517f08c379a000000000000000000000000000000000000000000000000000000000815260040161083390613fcb565b60405180910390fd5b8073ffffffffffffffffffffffffffffffffffffffff1661085b61258c565b73ffffffffffffffffffffffffffffffffffffffff16148061088a57506108898161088461258c565b61213f565b5b6108c9576040517f08c379a00000000000000000000000000000000000000000000000000000000081526004016108c09061405d565b60405180910390fd5b6108d38383612594565b505050565b600a54341461091c576040517f08c379a0000000000000000000000000000000000000000000000000000000008152600401610913906140c9565b60405180910390fd5b3373ffffffffffffffffffffffffffffffffffffffff1661093c83611312565b73ffffffffffffffffffffffffffffffffffffffff1614610992576040517f08c379a000000000000000000000000000000000000000000000000000000000815260040161098990614135565b60405180910390fd5b61099b81611312565b73ffffffffffffffffffffffffffffffffffffffff166109ba83611312565b73ffffffffffffffffffffffffffffffffffffffff161415610a11576040517f08c379a0000000000000000000000000000000000000000000000000000000008152600401610a08906141c7565b60405180910390fd5b6000600b600084815260200190815260200160002060030154118015610a4d57506000600b600083815260200190815260200160002060030154115b610a8c576040517f08c379a0000000000000000000000000000000000000000000000000000000008152600401610a8390614233565b60405180910390fd5b600a600b6000848152602001908152602001600020600401541015610ae6576040517f08c379a0000000000000000000000000000000000000000000000000000000008152600401610add9061429f565b60405180910390fd5b6000610af2838361264d565b90506000610b00838561264d565b9050610b2c600a600b60008781526020019081526020016000206004015461273090919063ffffffff16565b600b600086815260200190815260200160002060040181905550600b6000848152602001908152602001600020600301548210610bb0576000600b600085815260200190815260200160002060030181905550600b60008581526020019081526020016000206002016000815480929190610ba6906142ee565b9190505550610d6e565b610bd982600b60008681526020019081526020016000206003015461273090919063ffffffff16565b600b600085815260200190815260200160002060030181905550600b6000858152602001908152602001600020600301548110610c5d576000600b600086815260200190815260200160002060030181905550600b60008481526020019081526020016000206002016000815480929190610c53906142ee565b9190505550610d6d565b610c8681600b60008781526020019081526020016000206003015461273090919063ffffffff16565b600b60008681526020019081526020016000206003018190555080821115610cd957600b60008581526020019081526020016000206002016000815480929190610ccf906142ee565b9190505550610d6c565b81811115610d1257600b60008481526020019081526020016000206002016000815480929190610d08906142ee565b9190505550610d6b565b600b60008581526020019081526020016000206002016000815480929190610d39906142ee565b9190505550600b60008481526020019081526020016000206002016000815480929190610d65906142ee565b91905055505b5b5b5b7f8c796248b1f953c9c8c0ed19eddf3a98eebe2c84390fe57e75f222dc677a141184848484604051610da39493929190614337565b60405180910390a150505050565b610db961258c565b73ffffffffffffffffffffffffffffffffffffffff16610dd7611504565b73ffffffffffffffffffffffffffffffffffffffff1614610e2d576040517f08c379a0000000000000000000000000000000000000000000000000000000008152600401610e24906143c8565b60405180910390fd5b826008819055508160098190555080600a81905550505050565b610e58610e5261258c565b82612746565b610e97576040517f08c379a0000000000000000000000000000000000000000000000000000000008152600401610e8e9061445a565b60405180910390fd5b610ea2838383612824565b505050565b6060600080610eb5336113c4565b67ffffffffffffffff811115610ece57610ecd613b90565b5b604051908082528060200260200182016040528015610f0757816020015b610ef461344d565b815260200190600190039081610eec5790505b50905060005b60075481101561104a573373ffffffffffffffffffffffffffffffffffffffff16610f3782611312565b73ffffffffffffffffffffffffffffffffffffffff16141561103757600b6000828152602001908152602001600020604051806101400160405290816000820154815260200160018201548152602001600282015481526020016003820154815260200160048201548152602001600582015481526020016006820154815260200160078201548152602001600882015481526020016009820160009054906101000a900460ff166002811115610ff157610ff0613888565b5b600281111561100357611002613888565b5b81525050828460ff168151811061101d5761101c61447a565b5b60200260200101819052508280611033906144b6565b9350505b8080611042906142ee565b915050610f0d565b50809250505090565b61105b61258c565b73ffffffffffffffffffffffffffffffffffffffff16611079611504565b73ffffffffffffffffffffffffffffffffffffffff16146110cf576040517f08c379a00000000000000000000000000000000000000000000000000000000081526004016110c6906143c8565b60405180910390fd5b6110d7611504565b73ffffffffffffffffffffffffffffffffffffffff166108fc3073ffffffffffffffffffffffffffffffffffffffff16319081150290604051600060405180830381858888f19350505050158015611133573d6000803e3d6000fd5b50565b61115183838360405180602001604052806000815250611b38565b505050565b6060600080611178611167336113c4565b60075461273090919063ffffffff16565b67ffffffffffffffff81111561119157611190613b90565b5b6040519080825280602002602001820160405280156111ca57816020015b6111b761344d565b8152602001906001900390816111af5790505b50905060005b600754811015611309573373ffffffffffffffffffffffffffffffffffffffff166111fa82611312565b73ffffffffffffffffffffffffffffffffffffffff16146112f657600b6000828152602001908152602001600020604051806101400160405290816000820154815260200160018201548152602001600282015481526020016003820154815260200160048201548152602001600582015481526020016006820154815260200160078201548152602001600882015481526020016009820160009054906101000a900460ff1660028111156112b3576112b2613888565b5b60028111156112c5576112c4613888565b5b815250508284815181106112dc576112db61447a565b5b602002602001018190525082806112f2906142ee565b9350505b8080611301906142ee565b9150506111d0565b50809250505090565b6000806002600084815260200190815260200160002060009054906101000a900473ffffffffffffffffffffffffffffffffffffffff169050600073ffffffffffffffffffffffffffffffffffffffff168173ffffffffffffffffffffffffffffffffffffffff1614156113bb576040517f08c379a00000000000000000000000000000000000000000000000000000000081526004016113b290614552565b60405180910390fd5b80915050919050565b60008073ffffffffffffffffffffffffffffffffffffffff168273ffffffffffffffffffffffffffffffffffffffff161415611435576040517f08c379a000000000000000000000000000000000000000000000000000000000815260040161142c906145e4565b60405180910390fd5b600360008373ffffffffffffffffffffffffffffffffffffffff1673ffffffffffffffffffffffffffffffffffffffff168152602001908152602001600020549050919050565b61148461258c565b73ffffffffffffffffffffffffffffffffffffffff166114a2611504565b73ffffffffffffffffffffffffffffffffffffffff16146114f8576040517f08c379a00000000000000000000000000000000000000000000000000000000081526004016114ef906143c8565b60405180910390fd5b6115026000612a80565b565b6000600660009054906101000a900473ffffffffffffffffffffffffffffffffffffffff16905090565b60606001805461153d90613e95565b80601f016020809104026020016040519081016040528092919081815260200182805461156990613e95565b80156115b65780601f1061158b576101008083540402835291602001916115b6565b820191906000526020600020905b81548152906001019060200180831161159957829003601f168201915b5050505050905090565b6115d26115cb61258c565b8383612b46565b5050565b600854341461161a576040517f08c379a0000000000000000000000000000000000000000000000000000000008152600401611611906140c9565b60405180910390fd5b6005611625336113c4565b10611665576040517f08c379a000000000000000000000000000000000000000000000000000000000815260040161165c90614650565b60405180910390fd5b6000600281111561167957611678613888565b5b81600281111561168c5761168b613888565b5b14806116bc5750600160028111156116a7576116a6613888565b5b8160028111156116ba576116b9613888565b5b145b806116ea57506002808111156116d5576116d4613888565b5b8160028111156116e8576116e7613888565b5b145b611729576040517f08c379a0000000000000000000000000000000000000000000000000000000008152600401611720906146e2565b60405180910390fd5b600061173b662386f26fc10000612cb3565b90506000600281111561175157611750613888565b5b82600281111561176457611763613888565b5b14156118715760405180610140016040528060075481526020018281526020016001815260200160648152602001600a815260200160058152602001600381526020016001815260200160018152602001600060028111156117c9576117c8613888565b5b815250600b60006007548152602001908152602001600020600082015181600001556020820151816001015560408201518160020155606082015181600301556080820151816004015560a0820151816005015560c0820151816006015560e0820151816007015561010082015181600801556101208201518160090160006101000a81548160ff0219169083600281111561186857611867613888565b5b02179055509050505b6001600281111561188557611884613888565b5b82600281111561189857611897613888565b5b14156119a557604051806101400160405280600754815260200182815260200160018152602001606481526020016064815260200160018152602001600181526020016005815260200160038152602001600160028111156118fd576118fc613888565b5b815250600b60006007548152602001908152602001600020600082015181600001556020820151816001015560408201518160020155606082015181600301556080820151816004015560a0820151816005015560c0820151816006015560e0820151816007015561010082015181600801556101208201518160090160006101000a81548160ff0219169083600281111561199c5761199b613888565b5b02179055509050505b6002808111156119b8576119b7613888565b5b8260028111156119cb576119ca613888565b5b1415611ad757604051806101400160405280600754815260200182815260200160018152602001606481526020016032815260200160028152602001600281526020016003815260200160038152602001600280811115611a2f57611a2e613888565b5b815250600b60006007548152602001908152602001600020600082015181600001556020820151816001015560408201518160020155606082015181600301556080820151816004015560a0820151816005015560c0820151816006015560e0820151816007015561010082015181600801556101208201518160090160006101000a81548160ff02191690836002811115611ace57611acd613888565b5b02179055509050505b611ae333600754612d00565b7f7f0777865312bae358531b42d9c405a59bfd31beba1973946dc0ce134cad418a600754604051611b149190613aad565b60405180910390a160076000815480929190611b2f906142ee565b91905055505050565b611b49611b4361258c565b83612746565b611b88576040517f08c379a0000000000000000000000000000000000000000000000000000000008152600401611b7f9061445a565b60405180910390fd5b611b9484848484612d1e565b50505050565b611ba261344d565b600b6000838152602001908152602001600020604051806101400160405290816000820154815260200160018201548152602001600282015481526020016003820154815260200160048201548152602001600582015481526020016006820154815260200160078201548152602001600882015481526020016009820160009054906101000a900460ff166002811115611c4057611c3f613888565b5b6002811115611c5257611c51613888565b5b815250509050919050565b6060611c6882612520565b611ca7576040517f08c379a0000000000000000000000000000000000000000000000000000000008152600401611c9e90614774565b60405180910390fd5b6000611cb1612d7a565b90506000815111611cd15760405180602001604052806000815250611cfc565b80611cdb84612d91565b604051602001611cec9291906147d0565b6040516020818303038152906040525b915050919050565b600a543414611d48576040517f08c379a0000000000000000000000000000000000000000000000000000000008152600401611d3f906140c9565b60405180910390fd5b3373ffffffffffffffffffffffffffffffffffffffff16611d6883611312565b73ffffffffffffffffffffffffffffffffffffffff1614611dbe576040517f08c379a0000000000000000000000000000000000000000000000000000000008152600401611db590614135565b60405180910390fd5b611dc781611312565b73ffffffffffffffffffffffffffffffffffffffff16611de683611312565b73ffffffffffffffffffffffffffffffffffffffff161415611e3d576040517f08c379a0000000000000000000000000000000000000000000000000000000008152600401611e34906141c7565b60405180910390fd5b6000600b600084815260200190815260200160002060030154118015611e7957506000600b600083815260200190815260200160002060030154115b611eb8576040517f08c379a0000000000000000000000000000000000000000000000000000000008152600401611eaf90614233565b60405180910390fd5b6000611ec48383612f11565b90506000611ed28385612f11565b9050600b6000848152602001908152602001600020600301548210611f3e576000600b600085815260200190815260200160002060030181905550600b60008581526020019081526020016000206002016000815480929190611f34906142ee565b91905055506120fc565b611f6782600b60008681526020019081526020016000206003015461273090919063ffffffff16565b600b600085815260200190815260200160002060030181905550600b6000858152602001908152602001600020600301548110611feb576000600b600086815260200190815260200160002060030181905550600b60008481526020019081526020016000206002016000815480929190611fe1906142ee565b91905055506120fb565b61201481600b60008781526020019081526020016000206003015461273090919063ffffffff16565b600b6000868152602001908152602001600020600301819055508082111561206757600b6000858152602001908152602001600020600201600081548092919061205d906142ee565b91905055506120fa565b818111156120a057600b60008481526020019081526020016000206002016000815480929190612096906142ee565b91905055506120f9565b600b600085815260200190815260200160002060020160008154809291906120c7906142ee565b9190505550600b600084815260200190815260200160002060020160008154809291906120f3906142ee565b91905055505b5b5b5b7f8c796248b1f953c9c8c0ed19eddf3a98eebe2c84390fe57e75f222dc677a1411848484846040516121319493929190614337565b60405180910390a150505050565b6000600560008473ffffffffffffffffffffffffffffffffffffffff1673ffffffffffffffffffffffffffffffffffffffff16815260200190815260200160002060008373ffffffffffffffffffffffffffffffffffffffff1673ffffffffffffffffffffffffffffffffffffffff16815260200190815260200160002060009054906101000a900460ff16905092915050565b6121db61258c565b73ffffffffffffffffffffffffffffffffffffffff166121f9611504565b73ffffffffffffffffffffffffffffffffffffffff161461224f576040517f08c379a0000000000000000000000000000000000000000000000000000000008152600401612246906143c8565b60405180910390fd5b600073ffffffffffffffffffffffffffffffffffffffff168173ffffffffffffffffffffffffffffffffffffffff1614156122bf576040517f08c379a00000000000000000000000000000000000000000000000000000000081526004016122b690614866565b60405180910390fd5b6122c881612a80565b50565b600954341461230f576040517f08c379a0000000000000000000000000000000000000000000000000000000008152600401612306906140c9565b60405180910390fd5b3373ffffffffffffffffffffffffffffffffffffffff1661232f82611312565b73ffffffffffffffffffffffffffffffffffffffff1614612385576040517f08c379a000000000000000000000000000000000000000000000000000000000815260040161237c90614135565b60405180910390fd5b6064600b600083815260200190815260200160002060030154106123de576040517f08c379a00000000000000000000000000000000000000000000000000000000081526004016123d5906148f8565b60405180910390fd5b600061240a6032600b600085815260200190815260200160002060030154612ff490919063ffffffff16565b90506064811115612436576064600b60008481526020019081526020016000206003018190555061247b565b6124606032600b600085815260200190815260200160002060030154612ff490919063ffffffff16565b600b6000848152602001908152602001600020600301819055505b7f8379605eab0a1d9aab85917b4375ba70864307e4d75406a1a2e05dd600c1629a826040516124aa9190613aad565b60405180910390a15050565b60007f01ffc9a7000000000000000000000000000000000000000000000000000000007bffffffffffffffffffffffffffffffffffffffffffffffffffffffff1916827bffffffffffffffffffffffffffffffffffffffffffffffffffffffff1916149050919050565b60008073ffffffffffffffffffffffffffffffffffffffff166002600084815260200190815260200160002060009054906101000a900473ffffffffffffffffffffffffffffffffffffffff1673ffffffffffffffffffffffffffffffffffffffff1614159050919050565b600033905090565b816004600083815260200190815260200160002060006101000a81548173ffffffffffffffffffffffffffffffffffffffff021916908373ffffffffffffffffffffffffffffffffffffffff160217905550808273ffffffffffffffffffffffffffffffffffffffff1661260783611312565b73ffffffffffffffffffffffffffffffffffffffff167f8c5be1e5ebec7d5bd14f71427d1e84f3dd0314c0f7b2291e5b200ac8c7c3b92560405160405180910390a45050565b60008061269b600b60008681526020019081526020016000206002015460016126769190614918565b600b60008781526020019081526020016000206007015461300a90919063ffffffff16565b905060006126fd6126d86002600b60008881526020019081526020016000206002015460016126ca9190614918565b61302090919063ffffffff16565b600b60008781526020019081526020016000206008015461300a90919063ffffffff16565b9050808210156127125760009250505061272a565b612725818361273090919063ffffffff16565b925050505b92915050565b6000818361273e919061496e565b905092915050565b600061275182612520565b612790576040517f08c379a000000000000000000000000000000000000000000000000000000000815260040161278790614a14565b60405180910390fd5b600061279b83611312565b90508073ffffffffffffffffffffffffffffffffffffffff168473ffffffffffffffffffffffffffffffffffffffff16148061280a57508373ffffffffffffffffffffffffffffffffffffffff166127f28461073b565b73ffffffffffffffffffffffffffffffffffffffff16145b8061281b575061281a818561213f565b5b91505092915050565b8273ffffffffffffffffffffffffffffffffffffffff1661284482611312565b73ffffffffffffffffffffffffffffffffffffffff161461289a576040517f08c379a000000000000000000000000000000000000000000000000000000000815260040161289190614aa6565b60405180910390fd5b600073ffffffffffffffffffffffffffffffffffffffff168273ffffffffffffffffffffffffffffffffffffffff16141561290a576040517f08c379a000000000000000000000000000000000000000000000000000000000815260040161290190614b38565b60405180910390fd5b612915838383613036565b612920600082612594565b6001600360008573ffffffffffffffffffffffffffffffffffffffff1673ffffffffffffffffffffffffffffffffffffffff1681526020019081526020016000206000828254612970919061496e565b925050819055506001600360008473ffffffffffffffffffffffffffffffffffffffff1673ffffffffffffffffffffffffffffffffffffffff16815260200190815260200160002060008282546129c79190614918565b92505081905550816002600083815260200190815260200160002060006101000a81548173ffffffffffffffffffffffffffffffffffffffff021916908373ffffffffffffffffffffffffffffffffffffffff160217905550808273ffffffffffffffffffffffffffffffffffffffff168473ffffffffffffffffffffffffffffffffffffffff167fddf252ad1be2c89b69c2b068fc378daa952ba7f163c4a11628f55a4df523b3ef60405160405180910390a4505050565b6000600660009054906101000a900473ffffffffffffffffffffffffffffffffffffffff16905081600660006101000a81548173ffffffffffffffffffffffffffffffffffffffff021916908373ffffffffffffffffffffffffffffffffffffffff1602179055508173ffffffffffffffffffffffffffffffffffffffff168173ffffffffffffffffffffffffffffffffffffffff167f8be0079c531659141344cd1fd0a4f28419497f9722a3daafe3b4186f6b6457e060405160405180910390a35050565b8173ffffffffffffffffffffffffffffffffffffffff168373ffffffffffffffffffffffffffffffffffffffff161415612bb5576040517f08c379a0000000000000000000000000000000000000000000000000000000008152600401612bac90614ba4565b60405180910390fd5b80600560008573ffffffffffffffffffffffffffffffffffffffff1673ffffffffffffffffffffffffffffffffffffffff16815260200190815260200160002060008473ffffffffffffffffffffffffffffffffffffffff1673ffffffffffffffffffffffffffffffffffffffff16815260200190815260200160002060006101000a81548160ff0219169083151502179055508173ffffffffffffffffffffffffffffffffffffffff168373ffffffffffffffffffffffffffffffffffffffff167f17307eab39ab6107e8899845ad3d59bd9653f200f220920489ca2b5937696c3183604051612ca69190613566565b60405180910390a3505050565b6000804233604051602001612cc9929190614c39565b60405160208183030381529060405280519060200120600190049050612cf8838261303b90919063ffffffff16565b915050919050565b612d1a828260405180602001604052806000815250613051565b5050565b612d29848484612824565b612d35848484846130ac565b612d74576040517f08c379a0000000000000000000000000000000000000000000000000000000008152600401612d6b90614cd7565b60405180910390fd5b50505050565b606060405180602001604052806000815250905090565b60606000821415612dd9576040518060400160405280600181526020017f30000000000000000000000000000000000000000000000000000000000000008152509050612f0c565b600082905060005b60008214612e0b578080612df4906142ee565b915050600a82612e049190614d26565b9150612de1565b60008167ffffffffffffffff811115612e2757612e26613b90565b5b6040519080825280601f01601f191660200182016040528015612e595781602001600182028036833780820191505090505b5090505b60008514612f0557600182612e72919061496e565b9150600a85612e819190614d57565b6030612e8d9190614918565b7f010000000000000000000000000000000000000000000000000000000000000002818381518110612ec257612ec161447a565b5b60200101907effffffffffffffffffffffffffffffffffffffffffffffffffffffffffffff1916908160001a905350600a85612efe9190614d26565b9450612e5d565b8093505050505b919050565b600080612f5f600b6000868152602001908152602001600020600201546001612f3a9190614918565b600b60008781526020019081526020016000206005015461300a90919063ffffffff16565b90506000612fc1612f9c6002600b6000888152602001908152602001600020600201546001612f8e9190614918565b61302090919063ffffffff16565b600b60008781526020019081526020016000206006015461300a90919063ffffffff16565b905080821015612fd657600092505050612fee565b612fe9818361273090919063ffffffff16565b925050505b92915050565b600081836130029190614918565b905092915050565b600081836130189190614d88565b905092915050565b6000818361302e9190614d26565b905092915050565b505050565b600081836130499190614d57565b905092915050565b61305b838361326c565b61306860008484846130ac565b6130a7576040517f08c379a000000000000000000000000000000000000000000000000000000000815260040161309e90614cd7565b60405180910390fd5b505050565b60006130cd8473ffffffffffffffffffffffffffffffffffffffff1661343a565b1561325f578373ffffffffffffffffffffffffffffffffffffffff1663150b7a026130f661258c565b8786866040518563ffffffff167c01000000000000000000000000000000000000000000000000000000000281526004016131349493929190614e37565b6020604051808303816000875af192505050801561317057506040513d601f19601f8201168201806040525081019061316d9190614e98565b60015b6131f3573d80600081146131a0576040519150601f19603f3d011682016040523d82523d6000602084013e6131a5565b606091505b506000815114156131eb576040517f08c379a00000000000000000000000000000000000000000000000000000000081526004016131e290614cd7565b60405180910390fd5b805181602001fd5b63150b7a027c0100000000000000000000000000000000000000000000000000000000027bffffffffffffffffffffffffffffffffffffffffffffffffffffffff1916817bffffffffffffffffffffffffffffffffffffffffffffffffffffffff191614915050613264565b600190505b949350505050565b600073ffffffffffffffffffffffffffffffffffffffff168273ffffffffffffffffffffffffffffffffffffffff1614156132dc576040517f08c379a00000000000000000000000000000000000000000000000000000000081526004016132d390614f11565b60405180910390fd5b6132e581612520565b15613325576040517f08c379a000000000000000000000000000000000000000000000000000000000815260040161331c90614f7d565b60405180910390fd5b61333160008383613036565b6001600360008473ffffffffffffffffffffffffffffffffffffffff1673ffffffffffffffffffffffffffffffffffffffff16815260200190815260200160002060008282546133819190614918565b92505081905550816002600083815260200190815260200160002060006101000a81548173ffffffffffffffffffffffffffffffffffffffff021916908373ffffffffffffffffffffffffffffffffffffffff160217905550808273ffffffffffffffffffffffffffffffffffffffff16600073ffffffffffffffffffffffffffffffffffffffff167fddf252ad1be2c89b69c2b068fc378daa952ba7f163c4a11628f55a4df523b3ef60405160405180910390a45050565b600080823b905060008111915050919050565b604051806101400160405280600081526020016000815260200160008152602001600081526020016000815260200160008152602001600081526020016000815260200160008152602001600060028111156134ac576134ab613888565b5b81525090565b6000604051905090565b600080fd5b600080fd5b60007fffffffff0000000000000000000000000000000000000000000000000000000082169050919050565b6134fb816134c6565b811461350657600080fd5b50565b600081359050613518816134f2565b92915050565b600060208284031215613534576135336134bc565b5b600061354284828501613509565b91505092915050565b60008115159050919050565b6135608161354b565b82525050565b600060208201905061357b6000830184613557565b92915050565b600081519050919050565b600082825260208201905092915050565b60005b838110156135bb5780820151818401526020810190506135a0565b838111156135ca576000848401525b50505050565b6000601f19601f8301169050919050565b60006135ec82613581565b6135f6818561358c565b935061360681856020860161359d565b61360f816135d0565b840191505092915050565b6000602082019050818103600083015261363481846135e1565b905092915050565b6000819050919050565b61364f8161363c565b811461365a57600080fd5b50565b60008135905061366c81613646565b92915050565b600060208284031215613688576136876134bc565b5b60006136968482850161365d565b91505092915050565b600073ffffffffffffffffffffffffffffffffffffffff82169050919050565b60006136ca8261369f565b9050919050565b6136da816136bf565b82525050565b60006020820190506136f560008301846136d1565b92915050565b613704816136bf565b811461370f57600080fd5b50565b600081359050613721816136fb565b92915050565b6000806040838503121561373e5761373d6134bc565b5b600061374c85828601613712565b925050602061375d8582860161365d565b9150509250929050565b6000806040838503121561377e5761377d6134bc565b5b600061378c8582860161365d565b925050602061379d8582860161365d565b9150509250929050565b6000806000606084860312156137c0576137bf6134bc565b5b60006137ce8682870161365d565b93505060206137df8682870161365d565b92505060406137f08682870161365d565b9150509250925092565b600080600060608486031215613813576138126134bc565b5b600061382186828701613712565b935050602061383286828701613712565b92505060406138438682870161365d565b9150509250925092565b600081519050919050565b600082825260208201905092915050565b6000819050602082019050919050565b6138828161363c565b82525050565b7f4e487b7100000000000000000000000000000000000000000000000000000000600052602160045260246000fd5b600381106138c8576138c7613888565b5b50565b60008190506138d9826138b7565b919050565b60006138e9826138cb565b9050919050565b6138f9816138de565b82525050565b610140820160008201516139166000850182613879565b5060208201516139296020850182613879565b50604082015161393c6040850182613879565b50606082015161394f6060850182613879565b5060808201516139626080850182613879565b5060a082015161397560a0850182613879565b5060c082015161398860c0850182613879565b5060e082015161399b60e0850182613879565b506101008201516139b0610100850182613879565b506101208201516139c56101208501826138f0565b50505050565b60006139d783836138ff565b6101408301905092915050565b6000602082019050919050565b60006139fc8261384d565b613a068185613858565b9350613a1183613869565b8060005b83811015613a42578151613a2988826139cb565b9750613a34836139e4565b925050600181019050613a15565b5085935050505092915050565b60006020820190508181036000830152613a6981846139f1565b905092915050565b600060208284031215613a8757613a866134bc565b5b6000613a9584828501613712565b91505092915050565b613aa78161363c565b82525050565b6000602082019050613ac26000830184613a9e565b92915050565b613ad18161354b565b8114613adc57600080fd5b50565b600081359050613aee81613ac8565b92915050565b60008060408385031215613b0b57613b0a6134bc565b5b6000613b1985828601613712565b9250506020613b2a85828601613adf565b9150509250929050565b60038110613b4157600080fd5b50565b600081359050613b5381613b34565b92915050565b600060208284031215613b6f57613b6e6134bc565b5b6000613b7d84828501613b44565b91505092915050565b600080fd5b600080fd5b7f4e487b7100000000000000000000000000000000000000000000000000000000600052604160045260246000fd5b613bc8826135d0565b810181811067ffffffffffffffff82111715613be757613be6613b90565b5b80604052505050565b6000613bfa6134b2565b9050613c068282613bbf565b919050565b600067ffffffffffffffff821115613c2657613c25613b90565b5b613c2f826135d0565b9050602081019050919050565b82818337600083830152505050565b6000613c5e613c5984613c0b565b613bf0565b905082815260208101848484011115613c7a57613c79613b8b565b5b613c85848285613c3c565b509392505050565b600082601f830112613ca257613ca1613b86565b5b8135613cb2848260208601613c4b565b91505092915050565b60008060008060808587031215613cd557613cd46134bc565b5b6000613ce387828801613712565b9450506020613cf487828801613712565b9350506040613d058782880161365d565b925050606085013567ffffffffffffffff811115613d2657613d256134c1565b5b613d3287828801613c8d565b91505092959194509250565b61014082016000820151613d556000850182613879565b506020820151613d686020850182613879565b506040820151613d7b6040850182613879565b506060820151613d8e6060850182613879565b506080820151613da16080850182613879565b5060a0820151613db460a0850182613879565b5060c0820151613dc760c0850182613879565b5060e0820151613dda60e0850182613879565b50610100820151613def610100850182613879565b50610120820151613e046101208501826138f0565b50505050565b600061014082019050613e206000830184613d3e565b92915050565b60008060408385031215613e3d57613e3c6134bc565b5b6000613e4b85828601613712565b9250506020613e5c85828601613712565b9150509250929050565b7f4e487b7100000000000000000000000000000000000000000000000000000000600052602260045260246000fd5b60006002820490506001821680613ead57607f821691505b60208210811415613ec157613ec0613e66565b5b50919050565b7f4552433732313a20617070726f76656420717565727920666f72206e6f6e657860008201527f697374656e7420746f6b656e0000000000000000000000000000000000000000602082015250565b6000613f23602c8361358c565b9150613f2e82613ec7565b604082019050919050565b60006020820190508181036000830152613f5281613f16565b9050919050565b7f4552433732313a20617070726f76616c20746f2063757272656e74206f776e6560008201527f7200000000000000000000000000000000000000000000000000000000000000602082015250565b6000613fb560218361358c565b9150613fc082613f59565b604082019050919050565b60006020820190508181036000830152613fe481613fa8565b9050919050565b7f4552433732313a20617070726f76652063616c6c6572206973206e6f74206f7760008201527f6e6572206e6f7220617070726f76656420666f7220616c6c0000000000000000602082015250565b600061404760388361358c565b915061405282613feb565b604082019050919050565b600060208201905081810360008301526140768161403a565b9050919050565b7f57726f6e6720616d6f756e74206f662066656573000000000000000000000000600082015250565b60006140b360148361358c565b91506140be8261407d565b602082019050919050565b600060208201905081810360008301526140e2816140a6565b9050919050565b7f596f75277265206e6f7420746865206f776e6572206f6620746865204e465400600082015250565b600061411f601f8361358c565b915061412a826140e9565b602082019050919050565b6000602082019050818103600083015261414e81614112565b9050919050565b7f596f7572204e4654732063616e6e6f742066696768742065616368206f74686560008201527f7200000000000000000000000000000000000000000000000000000000000000602082015250565b60006141b160218361358c565b91506141bc82614155565b604082019050919050565b600060208201905081810360008301526141e0816141a4565b9050919050565b7f4f6e65206f6620746865204e4654732069732064656164000000000000000000600082015250565b600061421d60178361358c565b9150614228826141e7565b602082019050919050565b6000602082019050818103600083015261424c81614210565b9050919050565b7f596f7520646f6e2774206861766520656e6f756768206d616e61000000000000600082015250565b6000614289601a8361358c565b915061429482614253565b602082019050919050565b600060208201905081810360008301526142b88161427c565b9050919050565b7f4e487b7100000000000000000000000000000000000000000000000000000000600052601160045260246000fd5b60006142f98261363c565b91507fffffffffffffffffffffffffffffffffffffffffffffffffffffffffffffffff82141561432c5761432b6142bf565b5b600182019050919050565b600060808201905061434c6000830187613a9e565b6143596020830186613a9e565b6143666040830185613a9e565b6143736060830184613a9e565b95945050505050565b7f4f776e61626c653a2063616c6c6572206973206e6f7420746865206f776e6572600082015250565b60006143b260208361358c565b91506143bd8261437c565b602082019050919050565b600060208201905081810360008301526143e1816143a5565b9050919050565b7f4552433732313a207472616e736665722063616c6c6572206973206e6f74206f60008201527f776e6572206e6f7220617070726f766564000000000000000000000000000000602082015250565b600061444460318361358c565b915061444f826143e8565b604082019050919050565b6000602082019050818103600083015261447381614437565b9050919050565b7f4e487b7100000000000000000000000000000000000000000000000000000000600052603260045260246000fd5b600060ff82169050919050565b60006144c1826144a9565b915060ff8214156144d5576144d46142bf565b5b600182019050919050565b7f4552433732313a206f776e657220717565727920666f72206e6f6e657869737460008201527f656e7420746f6b656e0000000000000000000000000000000000000000000000602082015250565b600061453c60298361358c565b9150614547826144e0565b604082019050919050565b6000602082019050818103600083015261456b8161452f565b9050919050565b7f4552433732313a2062616c616e636520717565727920666f7220746865207a6560008201527f726f206164647265737300000000000000000000000000000000000000000000602082015250565b60006145ce602a8361358c565b91506145d982614572565b604082019050919050565b600060208201905081810360008301526145fd816145c1565b9050919050565b7f596f752063616e27742068617665206d6f7265207468616e2035204e46540000600082015250565b600061463a601e8361358c565b915061464582614604565b602082019050919050565b600060208201905081810360008301526146698161462d565b9050919050565b7f596f75206d7573742063686f6f7365206265747765656e206265727365726b6560008201527f722c2073706972697475616c206f7220656c656d656e74617279000000000000602082015250565b60006146cc603a8361358c565b91506146d782614670565b604082019050919050565b600060208201905081810360008301526146fb816146bf565b9050919050565b7f4552433732314d657461646174613a2055524920717565727920666f72206e6f60008201527f6e6578697374656e7420746f6b656e0000000000000000000000000000000000602082015250565b600061475e602f8361358c565b915061476982614702565b604082019050919050565b6000602082019050818103600083015261478d81614751565b9050919050565b600081905092915050565b60006147aa82613581565b6147b48185614794565b93506147c481856020860161359d565b80840191505092915050565b60006147dc828561479f565b91506147e8828461479f565b91508190509392505050565b7f4f776e61626c653a206e6577206f776e657220697320746865207a65726f206160008201527f6464726573730000000000000000000000000000000000000000000000000000602082015250565b600061485060268361358c565b915061485b826147f4565b604082019050919050565b6000602082019050818103600083015261487f81614843565b9050919050565b7f596f752772652063686172616374657220697320616c7265616479206865616c60008201527f6564000000000000000000000000000000000000000000000000000000000000602082015250565b60006148e260228361358c565b91506148ed82614886565b604082019050919050565b60006020820190508181036000830152614911816148d5565b9050919050565b60006149238261363c565b915061492e8361363c565b9250827fffffffffffffffffffffffffffffffffffffffffffffffffffffffffffffffff03821115614963576149626142bf565b5b828201905092915050565b60006149798261363c565b91506149848361363c565b925082821015614997576149966142bf565b5b828203905092915050565b7f4552433732313a206f70657261746f7220717565727920666f72206e6f6e657860008201527f697374656e7420746f6b656e0000000000000000000000000000000000000000602082015250565b60006149fe602c8361358c565b9150614a09826149a2565b604082019050919050565b60006020820190508181036000830152614a2d816149f1565b9050919050565b7f4552433732313a207472616e73666572206f6620746f6b656e2074686174206960008201527f73206e6f74206f776e0000000000000000000000000000000000000000000000602082015250565b6000614a9060298361358c565b9150614a9b82614a34565b604082019050919050565b60006020820190508181036000830152614abf81614a83565b9050919050565b7f4552433732313a207472616e7366657220746f20746865207a65726f2061646460008201527f7265737300000000000000000000000000000000000000000000000000000000602082015250565b6000614b2260248361358c565b9150614b2d82614ac6565b604082019050919050565b60006020820190508181036000830152614b5181614b15565b9050919050565b7f4552433732313a20617070726f766520746f2063616c6c657200000000000000600082015250565b6000614b8e60198361358c565b9150614b9982614b58565b602082019050919050565b60006020820190508181036000830152614bbd81614b81565b9050919050565b6000819050919050565b614bdf614bda8261363c565b614bc4565b82525050565b60006c0100000000000000000000000082029050919050565b6000614c0982614be5565b9050919050565b6000614c1b82614bfe565b9050919050565b614c33614c2e826136bf565b614c10565b82525050565b6000614c458285614bce565b602082019150614c558284614c22565b6014820191508190509392505050565b7f4552433732313a207472616e7366657220746f206e6f6e20455243373231526560008201527f63656976657220696d706c656d656e7465720000000000000000000000000000602082015250565b6000614cc160328361358c565b9150614ccc82614c65565b604082019050919050565b60006020820190508181036000830152614cf081614cb4565b9050919050565b7f4e487b7100000000000000000000000000000000000000000000000000000000600052601260045260246000fd5b6000614d318261363c565b9150614d3c8361363c565b925082614d4c57614d4b614cf7565b5b828204905092915050565b6000614d628261363c565b9150614d6d8361363c565b925082614d7d57614d7c614cf7565b5b828206905092915050565b6000614d938261363c565b9150614d9e8361363c565b9250817fffffffffffffffffffffffffffffffffffffffffffffffffffffffffffffffff0483118215151615614dd757614dd66142bf565b5b828202905092915050565b600081519050919050565b600082825260208201905092915050565b6000614e0982614de2565b614e138185614ded565b9350614e2381856020860161359d565b614e2c816135d0565b840191505092915050565b6000608082019050614e4c60008301876136d1565b614e5960208301866136d1565b614e666040830185613a9e565b8181036060830152614e788184614dfe565b905095945050505050565b600081519050614e92816134f2565b92915050565b600060208284031215614eae57614ead6134bc565b5b6000614ebc84828501614e83565b91505092915050565b7f4552433732313a206d696e7420746f20746865207a65726f2061646472657373600082015250565b6000614efb60208361358c565b9150614f0682614ec5565b602082019050919050565b60006020820190508181036000830152614f2a81614eee565b9050919050565b7f4552433732313a20746f6b656e20616c7265616479206d696e74656400000000600082015250565b6000614f67601c8361358c565b9150614f7282614f31565b602082019050919050565b60006020820190508181036000830152614f9681614f5a565b905091905056fea2646970667358221220972318d1ceb980b5a6f4e01a69c39c026d41d04e9802e43f2fceeed4d45824b164736f6c634300080a0033",
  "immutableReferences": {},
  "source": "// SPDX-License-Identifier: MIT\r\npragma solidity 0.8.10;\r\n\r\nimport \"@openzeppelin/contracts/token/ERC721/ERC721.sol\";\r\nimport \"@openzeppelin/contracts/access/Ownable.sol\";\r\nimport \"@openzeppelin/contracts/utils/math/SafeMath.sol\";\r\n\r\ncontract NFTGameToken is ERC721, Ownable {\r\n\r\n    constructor() ERC721(\"NFTGameToken\", \"NFTG\") {}\r\n\r\n    using SafeMath for uint256;\r\n\r\n    enum type_character { BERSERKER, SPIRITUAL, ELEMENTARY }\r\n    uint256 nextId = 0;\r\n    uint256 mintFee = 0.001 ether;\r\n    uint256 healFee = 0.00001 ether;\r\n    uint256 fightFee = 0.00001 ether;\r\n\r\n    struct Character {\r\n        uint256 id;\r\n        uint256 dna;\r\n        // uint256 level;\r\n        uint256 xp;\r\n        uint256 hp;\r\n        uint256 mana;\r\n        uint256 attack;\r\n        uint256 armor;\r\n        // uint256 speed;\r\n        uint256 magicAttack;\r\n        uint256 magicResistance;\r\n        type_character typeCharacter;\r\n    }\r\n\r\n    mapping(uint256 => Character) private _characterDetails;\r\n\r\n    // events\r\n    event CharacterCreated(uint256 id);\r\n    event Healed(uint256 tokenId);\r\n    event Fighted(uint256 myTokenId, uint256 rivalTokenId, uint256 substrateLifeToRival, uint256 substrateLifeToMe);\r\n\r\n    // Helper\r\n    function _generateRandomNum(uint256 _mod) internal view returns(uint256) {\r\n        uint256 randNum = uint256(keccak256(abi.encodePacked(block.timestamp, msg.sender)));\r\n        return randNum.mod(_mod);\r\n    }\r\n    \r\n    function updateFees(uint256 _mintFee, uint256 _healFee, uint256 _fightFee) external onlyOwner() {\r\n        mintFee = _mintFee;\r\n        healFee = _healFee;\r\n        fightFee = _fightFee;\r\n    }\r\n    \r\n    function withdraw() external onlyOwner() {\r\n        payable(owner()).transfer(address(this).balance);\r\n    }\r\n    \r\n    function substrateLife(uint256 id1, uint256 id2) internal view returns(uint256) {\r\n        uint256 op1 = (_characterDetails[id1].attack).mul((1 + _characterDetails[id1].xp));\r\n        uint256 op2 = (_characterDetails[id2].armor).mul(((1 + _characterDetails[id2].xp).div(2)));\r\n        if (op1 < op2) {\r\n            return 0;\r\n        } else {\r\n            return op1.sub(op2);\r\n        }\r\n    }\r\n\r\n    function substrateLifeMagic(uint256 id1, uint256 id2) internal view returns(uint256) {\r\n        uint256 op1 = (_characterDetails[id1].magicAttack).mul((1 + _characterDetails[id1].xp));\r\n        uint256 op2 = (_characterDetails[id2].magicResistance).mul(((1 + _characterDetails[id2].xp).div(2)));\r\n        if (op1 < op2) {\r\n            return 0;\r\n        } else {\r\n            return op1.sub(op2);\r\n        }\r\n    }\r\n\r\n    function createCharacter(type_character _typeCharacter) external payable {\r\n        require(msg.value == mintFee, \"Wrong amount of fees\");\r\n        require(balanceOf(msg.sender) < 5, \"You can't have more than 5 NFT\");\r\n        require(_typeCharacter == type_character.BERSERKER || _typeCharacter == type_character.SPIRITUAL || _typeCharacter == type_character.ELEMENTARY,\r\n        \"You must choose between berserker, spiritual or elementary\");\r\n        uint256 dna = _generateRandomNum(10**16);\r\n        if (_typeCharacter == type_character.BERSERKER) {\r\n            _characterDetails[nextId] = Character(nextId, dna, 1, 100, 10, 5, 3, 1, 1, type_character.BERSERKER);\r\n        }\r\n        if (_typeCharacter == type_character.SPIRITUAL) {\r\n            _characterDetails[nextId] = Character(nextId, dna, 1, 100, 100, 1, 1, 5, 3, type_character.SPIRITUAL);\r\n        }\r\n        if (_typeCharacter == type_character.ELEMENTARY) {\r\n            _characterDetails[nextId] = Character(nextId, dna, 1, 100, 50, 2, 2, 3, 3, type_character.ELEMENTARY);\r\n        }\r\n        _safeMint(msg.sender, nextId);\r\n        emit CharacterCreated(nextId);\r\n        nextId++;\r\n    }\r\n\r\n    function heal(uint256 _tokenId) external payable {\r\n        require(msg.value == healFee, \"Wrong amount of fees\");\r\n        require(ownerOf(_tokenId) == msg.sender, \"You're not the owner of the NFT\");\r\n        require(_characterDetails[_tokenId].hp < 100, \"You're character is already healed\");\r\n        // require(_characterDetails[_tokenId].hp > 0, \"You're NFT is dead\");\r\n        uint256 tempResult = (_characterDetails[_tokenId].hp).add(50);\r\n        if (tempResult > 100) {\r\n            _characterDetails[_tokenId].hp = 100;\r\n        } else {\r\n            _characterDetails[_tokenId].hp = (_characterDetails[_tokenId].hp).add(50);\r\n        }\r\n        emit Healed(_tokenId);\r\n    }\r\n\r\n    function fight(uint256 _myTokenId, uint256 _rivalTokenId) external payable {\r\n        require(msg.value == fightFee, \"Wrong amount of fees\");\r\n        require(ownerOf(_myTokenId) == msg.sender, \"You're not the owner of the NFT\");\r\n        require(ownerOf(_myTokenId) != ownerOf(_rivalTokenId), \"Your NFTs cannot fight each other\");\r\n        require(_characterDetails[_myTokenId].hp > 0 && _characterDetails[_rivalTokenId].hp > 0, \"One of the NFTs is dead\");\r\n\r\n        uint256 substrateLifeToRival = substrateLife(_myTokenId, _rivalTokenId);\r\n        uint256 substrateLifeToMe = substrateLife(_rivalTokenId, _myTokenId);\r\n\r\n        if(substrateLifeToRival >= _characterDetails[_rivalTokenId].hp) {\r\n            _characterDetails[_rivalTokenId].hp = 0;\r\n            _characterDetails[_myTokenId].xp++;\r\n        } else {\r\n            _characterDetails[_rivalTokenId].hp = (_characterDetails[_rivalTokenId].hp).sub(substrateLifeToRival);\r\n            if(substrateLifeToMe >= _characterDetails[_myTokenId].hp) {\r\n                _characterDetails[_myTokenId].hp = 0;\r\n                _characterDetails[_rivalTokenId].xp++;\r\n            } else {\r\n                _characterDetails[_myTokenId].hp = (_characterDetails[_myTokenId].hp).sub(substrateLifeToMe);\r\n                if (substrateLifeToRival > substrateLifeToMe) {\r\n                    _characterDetails[_myTokenId].xp++;\r\n                } else if (substrateLifeToMe > substrateLifeToRival) {\r\n                    _characterDetails[_rivalTokenId].xp++;\r\n                } else {\r\n                    _characterDetails[_myTokenId].xp++;\r\n                    _characterDetails[_rivalTokenId].xp++;\r\n                }\r\n            }\r\n        }\r\n        emit Fighted(_myTokenId, _rivalTokenId, substrateLifeToRival, substrateLifeToMe);\r\n    }\r\n\r\n    function spell(uint256 _myTokenId, uint256 _rivalTokenId) external payable {\r\n        require(msg.value == fightFee, \"Wrong amount of fees\");\r\n        require(ownerOf(_myTokenId) == msg.sender, \"You're not the owner of the NFT\");\r\n        require(ownerOf(_myTokenId) != ownerOf(_rivalTokenId), \"Your NFTs cannot fight each other\");\r\n        require(_characterDetails[_myTokenId].hp > 0 && _characterDetails[_rivalTokenId].hp > 0, \"One of the NFTs is dead\");\r\n        require(_characterDetails[_myTokenId].mana >= 10, \"You don't have enough mana\");\r\n\r\n        uint256 substrateLifeToRival = substrateLifeMagic(_myTokenId, _rivalTokenId);\r\n        uint256 substrateLifeToMe = substrateLifeMagic(_rivalTokenId, _myTokenId);\r\n\r\n        _characterDetails[_myTokenId].mana = (_characterDetails[_myTokenId].mana).sub(10);\r\n        if(substrateLifeToRival >= _characterDetails[_rivalTokenId].hp) {\r\n            _characterDetails[_rivalTokenId].hp = 0;\r\n            _characterDetails[_myTokenId].xp++;\r\n        } else {\r\n            _characterDetails[_rivalTokenId].hp = (_characterDetails[_rivalTokenId].hp).sub(substrateLifeToRival);\r\n            if(substrateLifeToMe >= _characterDetails[_myTokenId].hp) {\r\n                _characterDetails[_myTokenId].hp = 0;\r\n                _characterDetails[_rivalTokenId].xp++;\r\n            } else {\r\n                _characterDetails[_myTokenId].hp = (_characterDetails[_myTokenId].hp).sub(substrateLifeToMe);\r\n                if (substrateLifeToRival > substrateLifeToMe) {\r\n                    _characterDetails[_myTokenId].xp++;\r\n                } else if (substrateLifeToMe > substrateLifeToRival) {\r\n                    _characterDetails[_rivalTokenId].xp++;\r\n                } else {\r\n                    _characterDetails[_myTokenId].xp++;\r\n                    _characterDetails[_rivalTokenId].xp++;\r\n                }\r\n            }\r\n        }\r\n        emit Fighted(_myTokenId, _rivalTokenId, substrateLifeToRival, substrateLifeToMe);\r\n    }\r\n\r\n    // Getters\r\n    function getTokenDetails(uint256 _tokenId) external view returns(Character memory) {\r\n        return _characterDetails[_tokenId];\r\n    }\r\n\r\n    function getMyCharacters() external view returns (Character[] memory){\r\n        uint8 count = 0;\r\n        Character[] memory myCharacters = new Character[](balanceOf(msg.sender));\r\n        for (uint256 i = 0; i < nextId; i++) {\r\n            if (ownerOf(i) == msg.sender) {\r\n                myCharacters[count] = _characterDetails[i];\r\n                count++;\r\n            }\r\n        }\r\n        return myCharacters;\r\n    }\r\n\r\n    function getOthersCharacters() external view returns (Character[] memory){\r\n        uint256 count = 0;\r\n        Character[] memory othersCharacters = new Character[](nextId.sub(balanceOf(msg.sender)));\r\n        for (uint256 i = 0; i < nextId; i++) {\r\n            if (ownerOf(i) != msg.sender) {\r\n                othersCharacters[count] = _characterDetails[i];\r\n                count++;\r\n            }\r\n        }\r\n        return othersCharacters;\r\n    }\r\n    \r\n    // // only for TESTS getAllCharacters\r\n    // function getAllCharacters() external view returns (Character[] memory){\r\n    //     Character[] memory allCharacters = new Character[](nextId);\r\n    //     for (uint256 i = 0; i < nextId; i++) {\r\n    //         allCharacters[i] = _characterDetails[i];\r\n    //     }\r\n    //     return allCharacters;\r\n    // }\r\n}\r\n",
  "sourcePath": "D:\\TAF\\Alyra\\Projets\\tests_avant_projet_alyra\\contracts\\NFTGameToken.sol",
  "compiler": {
    "name": "solc",
    "version": "0.8.10+commit.fc410830.Emscripten.clang"
  },
  "schemaVersion": "3.4.3",
  "updatedAt": "2021-12-13T19:56:01.657Z",
  "networkType": "ethereum",
  "devdoc": {
    "kind": "dev",
    "methods": {
      "approve(address,uint256)": {
        "details": "See {IERC721-approve}."
      },
      "balanceOf(address)": {
        "details": "See {IERC721-balanceOf}."
      },
      "getApproved(uint256)": {
        "details": "See {IERC721-getApproved}."
      },
      "isApprovedForAll(address,address)": {
        "details": "See {IERC721-isApprovedForAll}."
      },
      "name()": {
        "details": "See {IERC721Metadata-name}."
      },
      "owner()": {
        "details": "Returns the address of the current owner."
      },
      "ownerOf(uint256)": {
        "details": "See {IERC721-ownerOf}."
      },
      "renounceOwnership()": {
        "details": "Leaves the contract without owner. It will not be possible to call `onlyOwner` functions anymore. Can only be called by the current owner. NOTE: Renouncing ownership will leave the contract without an owner, thereby removing any functionality that is only available to the owner."
      },
      "safeTransferFrom(address,address,uint256)": {
        "details": "See {IERC721-safeTransferFrom}."
      },
      "safeTransferFrom(address,address,uint256,bytes)": {
        "details": "See {IERC721-safeTransferFrom}."
      },
      "setApprovalForAll(address,bool)": {
        "details": "See {IERC721-setApprovalForAll}."
      },
      "supportsInterface(bytes4)": {
        "details": "See {IERC165-supportsInterface}."
      },
      "symbol()": {
        "details": "See {IERC721Metadata-symbol}."
      },
      "tokenURI(uint256)": {
        "details": "See {IERC721Metadata-tokenURI}."
      },
      "transferFrom(address,address,uint256)": {
        "details": "See {IERC721-transferFrom}."
      },
      "transferOwnership(address)": {
        "details": "Transfers ownership of the contract to a new account (`newOwner`). Can only be called by the current owner."
      }
    },
    "version": 1
  },
  "userdoc": {
    "kind": "user",
    "methods": {},
    "version": 1
  }
}