{
  "contractName": "NFTGameToken",
  "abi": [
    {
      "inputs": [],
      "stateMutability": "nonpayable",
      "type": "constructor"
    },
    {
      "anonymous": false,
      "inputs": [
        {
          "indexed": true,
          "internalType": "address",
          "name": "owner",
          "type": "address"
        },
        {
          "indexed": true,
          "internalType": "address",
          "name": "approved",
          "type": "address"
        },
        {
          "indexed": true,
          "internalType": "uint256",
          "name": "tokenId",
          "type": "uint256"
        }
      ],
      "name": "Approval",
      "type": "event"
    },
    {
      "anonymous": false,
      "inputs": [
        {
          "indexed": true,
          "internalType": "address",
          "name": "owner",
          "type": "address"
        },
        {
          "indexed": true,
          "internalType": "address",
          "name": "operator",
          "type": "address"
        },
        {
          "indexed": false,
          "internalType": "bool",
          "name": "approved",
          "type": "bool"
        }
      ],
      "name": "ApprovalForAll",
      "type": "event"
    },
    {
      "anonymous": false,
      "inputs": [
        {
          "indexed": false,
          "internalType": "uint256",
          "name": "id",
          "type": "uint256"
        }
      ],
      "name": "CharacterCreated",
      "type": "event"
    },
    {
      "anonymous": false,
      "inputs": [
        {
          "indexed": false,
          "internalType": "uint256",
          "name": "myTokenId",
          "type": "uint256"
        },
        {
          "indexed": false,
          "internalType": "uint256",
          "name": "rivalTokenId",
          "type": "uint256"
        },
        {
          "indexed": false,
          "internalType": "uint256",
          "name": "substrateLifeToRival",
          "type": "uint256"
        },
        {
          "indexed": false,
          "internalType": "uint256",
          "name": "substrateLifeToMe",
          "type": "uint256"
        }
      ],
      "name": "Fighted",
      "type": "event"
    },
    {
      "anonymous": false,
      "inputs": [
        {
          "indexed": false,
          "internalType": "uint256",
          "name": "tokenId",
          "type": "uint256"
        }
      ],
      "name": "Healed",
      "type": "event"
    },
    {
      "anonymous": false,
      "inputs": [
        {
          "indexed": true,
          "internalType": "address",
          "name": "previousOwner",
          "type": "address"
        },
        {
          "indexed": true,
          "internalType": "address",
          "name": "newOwner",
          "type": "address"
        }
      ],
      "name": "OwnershipTransferred",
      "type": "event"
    },
    {
      "anonymous": false,
      "inputs": [
        {
          "indexed": true,
          "internalType": "address",
          "name": "from",
          "type": "address"
        },
        {
          "indexed": true,
          "internalType": "address",
          "name": "to",
          "type": "address"
        },
        {
          "indexed": true,
          "internalType": "uint256",
          "name": "tokenId",
          "type": "uint256"
        }
      ],
      "name": "Transfer",
      "type": "event"
    },
    {
      "inputs": [
        {
          "internalType": "address",
          "name": "to",
          "type": "address"
        },
        {
          "internalType": "uint256",
          "name": "tokenId",
          "type": "uint256"
        }
      ],
      "name": "approve",
      "outputs": [],
      "stateMutability": "nonpayable",
      "type": "function"
    },
    {
      "inputs": [
        {
          "internalType": "address",
          "name": "owner",
          "type": "address"
        }
      ],
      "name": "balanceOf",
      "outputs": [
        {
          "internalType": "uint256",
          "name": "",
          "type": "uint256"
        }
      ],
      "stateMutability": "view",
      "type": "function",
      "constant": true
    },
    {
      "inputs": [
        {
          "internalType": "uint256",
          "name": "tokenId",
          "type": "uint256"
        }
      ],
      "name": "getApproved",
      "outputs": [
        {
          "internalType": "address",
          "name": "",
          "type": "address"
        }
      ],
      "stateMutability": "view",
      "type": "function",
      "constant": true
    },
    {
      "inputs": [
        {
          "internalType": "address",
          "name": "owner",
          "type": "address"
        },
        {
          "internalType": "address",
          "name": "operator",
          "type": "address"
        }
      ],
      "name": "isApprovedForAll",
      "outputs": [
        {
          "internalType": "bool",
          "name": "",
          "type": "bool"
        }
      ],
      "stateMutability": "view",
      "type": "function",
      "constant": true
    },
    {
      "inputs": [],
      "name": "name",
      "outputs": [
        {
          "internalType": "string",
          "name": "",
          "type": "string"
        }
      ],
      "stateMutability": "view",
      "type": "function",
      "constant": true
    },
    {
      "inputs": [],
      "name": "owner",
      "outputs": [
        {
          "internalType": "address",
          "name": "",
          "type": "address"
        }
      ],
      "stateMutability": "view",
      "type": "function",
      "constant": true
    },
    {
      "inputs": [
        {
          "internalType": "uint256",
          "name": "tokenId",
          "type": "uint256"
        }
      ],
      "name": "ownerOf",
      "outputs": [
        {
          "internalType": "address",
          "name": "",
          "type": "address"
        }
      ],
      "stateMutability": "view",
      "type": "function",
      "constant": true
    },
    {
      "inputs": [],
      "name": "renounceOwnership",
      "outputs": [],
      "stateMutability": "nonpayable",
      "type": "function"
    },
    {
      "inputs": [
        {
          "internalType": "address",
          "name": "from",
          "type": "address"
        },
        {
          "internalType": "address",
          "name": "to",
          "type": "address"
        },
        {
          "internalType": "uint256",
          "name": "tokenId",
          "type": "uint256"
        }
      ],
      "name": "safeTransferFrom",
      "outputs": [],
      "stateMutability": "nonpayable",
      "type": "function"
    },
    {
      "inputs": [
        {
          "internalType": "address",
          "name": "from",
          "type": "address"
        },
        {
          "internalType": "address",
          "name": "to",
          "type": "address"
        },
        {
          "internalType": "uint256",
          "name": "tokenId",
          "type": "uint256"
        },
        {
          "internalType": "bytes",
          "name": "_data",
          "type": "bytes"
        }
      ],
      "name": "safeTransferFrom",
      "outputs": [],
      "stateMutability": "nonpayable",
      "type": "function"
    },
    {
      "inputs": [
        {
          "internalType": "address",
          "name": "operator",
          "type": "address"
        },
        {
          "internalType": "bool",
          "name": "approved",
          "type": "bool"
        }
      ],
      "name": "setApprovalForAll",
      "outputs": [],
      "stateMutability": "nonpayable",
      "type": "function"
    },
    {
      "inputs": [
        {
          "internalType": "bytes4",
          "name": "interfaceId",
          "type": "bytes4"
        }
      ],
      "name": "supportsInterface",
      "outputs": [
        {
          "internalType": "bool",
          "name": "",
          "type": "bool"
        }
      ],
      "stateMutability": "view",
      "type": "function",
      "constant": true
    },
    {
      "inputs": [],
      "name": "symbol",
      "outputs": [
        {
          "internalType": "string",
          "name": "",
          "type": "string"
        }
      ],
      "stateMutability": "view",
      "type": "function",
      "constant": true
    },
    {
      "inputs": [
        {
          "internalType": "uint256",
          "name": "tokenId",
          "type": "uint256"
        }
      ],
      "name": "tokenURI",
      "outputs": [
        {
          "internalType": "string",
          "name": "",
          "type": "string"
        }
      ],
      "stateMutability": "view",
      "type": "function",
      "constant": true
    },
    {
      "inputs": [
        {
          "internalType": "address",
          "name": "from",
          "type": "address"
        },
        {
          "internalType": "address",
          "name": "to",
          "type": "address"
        },
        {
          "internalType": "uint256",
          "name": "tokenId",
          "type": "uint256"
        }
      ],
      "name": "transferFrom",
      "outputs": [],
      "stateMutability": "nonpayable",
      "type": "function"
    },
    {
      "inputs": [
        {
          "internalType": "address",
          "name": "newOwner",
          "type": "address"
        }
      ],
      "name": "transferOwnership",
      "outputs": [],
      "stateMutability": "nonpayable",
      "type": "function"
    },
    {
      "inputs": [
        {
          "internalType": "uint256",
          "name": "_mintFee",
          "type": "uint256"
        },
        {
          "internalType": "uint256",
          "name": "_healFee",
          "type": "uint256"
        },
        {
          "internalType": "uint256",
          "name": "_fightFee",
          "type": "uint256"
        }
      ],
      "name": "updateFees",
      "outputs": [],
      "stateMutability": "nonpayable",
      "type": "function"
    },
    {
      "inputs": [],
      "name": "withdraw",
      "outputs": [],
      "stateMutability": "nonpayable",
      "type": "function"
    },
    {
      "inputs": [
        {
          "internalType": "enum NFTGameToken.type_character",
          "name": "_typeCharacter",
          "type": "uint8"
        }
      ],
      "name": "createCharacter",
      "outputs": [],
      "stateMutability": "payable",
      "type": "function",
      "payable": true
    },
    {
      "inputs": [
        {
          "internalType": "uint256",
          "name": "_tokenId",
          "type": "uint256"
        }
      ],
      "name": "heal",
      "outputs": [],
      "stateMutability": "payable",
      "type": "function",
      "payable": true
    },
    {
      "inputs": [
        {
          "internalType": "uint256",
          "name": "_myTokenId",
          "type": "uint256"
        },
        {
          "internalType": "uint256",
          "name": "_rivalTokenId",
          "type": "uint256"
        }
      ],
      "name": "fight",
      "outputs": [],
      "stateMutability": "payable",
      "type": "function",
      "payable": true
    },
    {
      "inputs": [
        {
          "internalType": "uint256",
          "name": "_tokenId",
          "type": "uint256"
        }
      ],
      "name": "getTokenDetails",
      "outputs": [
        {
          "components": [
            {
              "internalType": "uint256",
              "name": "id",
              "type": "uint256"
            },
            {
              "internalType": "uint256",
              "name": "dna",
              "type": "uint256"
            },
            {
              "internalType": "uint256",
              "name": "xp",
              "type": "uint256"
            },
            {
              "internalType": "uint256",
              "name": "hp",
              "type": "uint256"
            },
            {
              "internalType": "uint8",
              "name": "attack",
              "type": "uint8"
            },
            {
              "internalType": "uint8",
              "name": "armor",
              "type": "uint8"
            },
            {
              "internalType": "uint8",
              "name": "mana",
              "type": "uint8"
            },
            {
              "internalType": "uint8",
              "name": "magicResistance",
              "type": "uint8"
            },
            {
              "internalType": "enum NFTGameToken.type_character",
              "name": "typeCharacter",
              "type": "uint8"
            }
          ],
          "internalType": "struct NFTGameToken.Character",
          "name": "",
          "type": "tuple"
        }
      ],
      "stateMutability": "view",
      "type": "function",
      "constant": true
    },
    {
      "inputs": [],
      "name": "getMyCharacters",
      "outputs": [
        {
          "components": [
            {
              "internalType": "uint256",
              "name": "id",
              "type": "uint256"
            },
            {
              "internalType": "uint256",
              "name": "dna",
              "type": "uint256"
            },
            {
              "internalType": "uint256",
              "name": "xp",
              "type": "uint256"
            },
            {
              "internalType": "uint256",
              "name": "hp",
              "type": "uint256"
            },
            {
              "internalType": "uint8",
              "name": "attack",
              "type": "uint8"
            },
            {
              "internalType": "uint8",
              "name": "armor",
              "type": "uint8"
            },
            {
              "internalType": "uint8",
              "name": "mana",
              "type": "uint8"
            },
            {
              "internalType": "uint8",
              "name": "magicResistance",
              "type": "uint8"
            },
            {
              "internalType": "enum NFTGameToken.type_character",
              "name": "typeCharacter",
              "type": "uint8"
            }
          ],
          "internalType": "struct NFTGameToken.Character[]",
          "name": "",
          "type": "tuple[]"
        }
      ],
      "stateMutability": "view",
      "type": "function",
      "constant": true
    },
    {
      "inputs": [],
      "name": "getOthersCharacters",
      "outputs": [
        {
          "components": [
            {
              "internalType": "uint256",
              "name": "id",
              "type": "uint256"
            },
            {
              "internalType": "uint256",
              "name": "dna",
              "type": "uint256"
            },
            {
              "internalType": "uint256",
              "name": "xp",
              "type": "uint256"
            },
            {
              "internalType": "uint256",
              "name": "hp",
              "type": "uint256"
            },
            {
              "internalType": "uint8",
              "name": "attack",
              "type": "uint8"
            },
            {
              "internalType": "uint8",
              "name": "armor",
              "type": "uint8"
            },
            {
              "internalType": "uint8",
              "name": "mana",
              "type": "uint8"
            },
            {
              "internalType": "uint8",
              "name": "magicResistance",
              "type": "uint8"
            },
            {
              "internalType": "enum NFTGameToken.type_character",
              "name": "typeCharacter",
              "type": "uint8"
            }
          ],
          "internalType": "struct NFTGameToken.Character[]",
          "name": "",
          "type": "tuple[]"
        }
      ],
      "stateMutability": "view",
      "type": "function",
      "constant": true
    },
    {
      "inputs": [],
      "name": "getAllCharacters",
      "outputs": [
        {
          "components": [
            {
              "internalType": "uint256",
              "name": "id",
              "type": "uint256"
            },
            {
              "internalType": "uint256",
              "name": "dna",
              "type": "uint256"
            },
            {
              "internalType": "uint256",
              "name": "xp",
              "type": "uint256"
            },
            {
              "internalType": "uint256",
              "name": "hp",
              "type": "uint256"
            },
            {
              "internalType": "uint8",
              "name": "attack",
              "type": "uint8"
            },
            {
              "internalType": "uint8",
              "name": "armor",
              "type": "uint8"
            },
            {
              "internalType": "uint8",
              "name": "mana",
              "type": "uint8"
            },
            {
              "internalType": "uint8",
              "name": "magicResistance",
              "type": "uint8"
            },
            {
              "internalType": "enum NFTGameToken.type_character",
              "name": "typeCharacter",
              "type": "uint8"
            }
          ],
          "internalType": "struct NFTGameToken.Character[]",
          "name": "",
          "type": "tuple[]"
        }
      ],
      "stateMutability": "view",
      "type": "function",
      "constant": true
    }
  ],
  "bytecode": "0x60806040526000600755670de0b6b3a764000060085566038d7ea4c6800060095566038d7ea4c68000600a553480156200003857600080fd5b506040518060400160405280600c81526020017f4e465447616d65546f6b656e00000000000000000000000000000000000000008152506040518060400160405280600481526020017f4e465447000000000000000000000000000000000000000000000000000000008152508160009080519060200190620000bd929190620001df565b508060019080519060200190620000d6929190620001df565b5050506200010b620000f662000111640100000000026401000000009004565b62000119640100000000026401000000009004565b620002f4565b600033905090565b6000600660009054906101000a900473ffffffffffffffffffffffffffffffffffffffff16905081600660006101000a81548173ffffffffffffffffffffffffffffffffffffffff021916908373ffffffffffffffffffffffffffffffffffffffff1602179055508173ffffffffffffffffffffffffffffffffffffffff168173ffffffffffffffffffffffffffffffffffffffff167f8be0079c531659141344cd1fd0a4f28419497f9722a3daafe3b4186f6b6457e060405160405180910390a35050565b828054620001ed90620002be565b90600052602060002090601f0160209004810192826200021157600085556200025d565b82601f106200022c57805160ff19168380011785556200025d565b828001600101855582156200025d579182015b828111156200025c5782518255916020019190600101906200023f565b5b5090506200026c919062000270565b5090565b5b808211156200028b57600081600090555060010162000271565b5090565b7f4e487b7100000000000000000000000000000000000000000000000000000000600052602260045260246000fd5b60006002820490506001821680620002d757607f821691505b60208210811415620002ee57620002ed6200028f565b5b50919050565b614c6680620003046000396000f3fe608060405260043610610183576000357c010000000000000000000000000000000000000000000000000000000090048063715018a6116100ee578063b88d4fde116100a7578063ca39e5ef11610081578063ca39e5ef14610538578063e985e9c514610554578063f2fde38b14610591578063f37ac61c146105ba57610183565b8063b88d4fde14610495578063c1e03728146104be578063c87b56dd146104fb57610183565b8063715018a6146103b857806383e56dca146103cf5780638da5cb5b146103fa57806395d89b4114610425578063a22cb46514610450578063b57da3b11461047957610183565b80633c4739d3116101405780633c4739d3146102a85780633ccfd60b146102d357806342842e0e146102ea5780634fb97a10146103135780636352211e1461033e57806370a082311461037b57610183565b806301ffc9a71461018857806306fdde03146101c5578063081812fc146101f0578063095ea7b31461022d578063224290851461025657806323b872dd1461027f575b600080fd5b34801561019457600080fd5b506101af60048036038101906101aa919061325e565b6105d6565b6040516101bc91906132a6565b60405180910390f35b3480156101d157600080fd5b506101da6106b8565b6040516101e7919061335a565b60405180910390f35b3480156101fc57600080fd5b50610217600480360381019061021291906133b2565b61074a565b6040516102249190613420565b60405180910390f35b34801561023957600080fd5b50610254600480360381019061024f9190613467565b6107cf565b005b34801561026257600080fd5b5061027d600480360381019061027891906134a7565b6108e7565b005b34801561028b57600080fd5b506102a660048036038101906102a191906134fa565b61097d565b005b3480156102b457600080fd5b506102bd6109dd565b6040516102ca9190613756565b60405180910390f35b3480156102df57600080fd5b506102e8610bcb565b005b3480156102f657600080fd5b50610311600480360381019061030c91906134fa565b610cae565b005b34801561031f57600080fd5b50610328610cce565b6040516103359190613756565b60405180910390f35b34801561034a57600080fd5b50610365600480360381019061036091906133b2565b610ec8565b6040516103729190613420565b60405180910390f35b34801561038757600080fd5b506103a2600480360381019061039d9190613778565b610f7a565b6040516103af91906137b4565b60405180910390f35b3480156103c457600080fd5b506103cd611032565b005b3480156103db57600080fd5b506103e46110ba565b6040516103f19190613756565b60405180910390f35b34801561040657600080fd5b5061040f611252565b60405161041c9190613420565b60405180910390f35b34801561043157600080fd5b5061043a61127c565b604051610447919061335a565b60405180910390f35b34801561045c57600080fd5b50610477600480360381019061047291906137fb565b61130e565b005b610493600480360381019061048e9190613860565b611324565b005b3480156104a157600080fd5b506104bc60048036038101906104b791906139c2565b611988565b005b3480156104ca57600080fd5b506104e560048036038101906104e091906133b2565b6119ea565b6040516104f29190613afc565b60405180910390f35b34801561050757600080fd5b50610522600480360381019061051d91906133b2565b611aef565b60405161052f919061335a565b60405180910390f35b610552600480360381019061054d9190613b18565b611b96565b005b34801561056057600080fd5b5061057b60048036038101906105769190613b58565b611fa5565b60405161058891906132a6565b60405180910390f35b34801561059d57600080fd5b506105b860048036038101906105b39190613778565b612039565b005b6105d460048036038101906105cf91906133b2565b612131565b005b60007f80ac58cd000000000000000000000000000000000000000000000000000000007bffffffffffffffffffffffffffffffffffffffffffffffffffffffff1916827bffffffffffffffffffffffffffffffffffffffffffffffffffffffff191614806106a157507f5b5e139f000000000000000000000000000000000000000000000000000000007bffffffffffffffffffffffffffffffffffffffffffffffffffffffff1916827bffffffffffffffffffffffffffffffffffffffffffffffffffffffff1916145b806106b157506106b0826122ff565b5b9050919050565b6060600080546106c790613bc7565b80601f01602080910402602001604051908101604052809291908181526020018280546106f390613bc7565b80156107405780601f1061071557610100808354040283529160200191610740565b820191906000526020600020905b81548152906001019060200180831161072357829003601f168201915b5050505050905090565b600061075582612369565b610794576040517f08c379a000000000000000000000000000000000000000000000000000000000815260040161078b90613c6b565b60405180910390fd5b6004600083815260200190815260200160002060009054906101000a900473ffffffffffffffffffffffffffffffffffffffff169050919050565b60006107da82610ec8565b90508073ffffffffffffffffffffffffffffffffffffffff168373ffffffffffffffffffffffffffffffffffffffff16141561084b576040517f08c379a000000000000000000000000000000000000000000000000000000000815260040161084290613cfd565b60405180910390fd5b8073ffffffffffffffffffffffffffffffffffffffff1661086a6123d5565b73ffffffffffffffffffffffffffffffffffffffff1614806108995750610898816108936123d5565b611fa5565b5b6108d8576040517f08c379a00000000000000000000000000000000000000000000000000000000081526004016108cf90613d8f565b60405180910390fd5b6108e283836123dd565b505050565b6108ef6123d5565b73ffffffffffffffffffffffffffffffffffffffff1661090d611252565b73ffffffffffffffffffffffffffffffffffffffff1614610963576040517f08c379a000000000000000000000000000000000000000000000000000000000815260040161095a90613dfb565b60405180910390fd5b826008819055508160098190555080600a81905550505050565b61098e6109886123d5565b82612496565b6109cd576040517f08c379a00000000000000000000000000000000000000000000000000000000081526004016109c490613e8d565b60405180910390fd5b6109d8838383612574565b505050565b60606000806109eb33610f7a565b67ffffffffffffffff811115610a0457610a03613897565b5b604051908082528060200260200182016040528015610a3d57816020015b610a2a613188565b815260200190600190039081610a225790505b50905060005b600754811015610bc2573373ffffffffffffffffffffffffffffffffffffffff16610a6d82610ec8565b73ffffffffffffffffffffffffffffffffffffffff161415610baf57600b600082815260200190815260200160002060405180610120016040529081600082015481526020016001820154815260200160028201548152602001600382015481526020016004820160009054906101000a900460ff1660ff1660ff1681526020016004820160019054906101000a900460ff1660ff1660ff1681526020016004820160029054906101000a900460ff1660ff1660ff1681526020016004820160039054906101000a900460ff1660ff1660ff1681526020016004820160049054906101000a900460ff166002811115610b6957610b686135a4565b5b6002811115610b7b57610b7a6135a4565b5b81525050828460ff1681518110610b9557610b94613ead565b5b60200260200101819052508280610bab90613f0b565b9350505b8080610bba90613f35565b915050610a43565b50809250505090565b610bd36123d5565b73ffffffffffffffffffffffffffffffffffffffff16610bf1611252565b73ffffffffffffffffffffffffffffffffffffffff1614610c47576040517f08c379a0000000000000000000000000000000000000000000000000000000008152600401610c3e90613dfb565b60405180910390fd5b610c4f611252565b73ffffffffffffffffffffffffffffffffffffffff166108fc3073ffffffffffffffffffffffffffffffffffffffff16319081150290604051600060405180830381858888f19350505050158015610cab573d6000803e3d6000fd5b50565b610cc983838360405180602001604052806000815250611988565b505050565b6060600080610cdc33610f7a565b600754610ce99190613f7e565b67ffffffffffffffff811115610d0257610d01613897565b5b604051908082528060200260200182016040528015610d3b57816020015b610d28613188565b815260200190600190039081610d205790505b50905060005b600754811015610ebf573373ffffffffffffffffffffffffffffffffffffffff16610d6b82610ec8565b73ffffffffffffffffffffffffffffffffffffffff1614610eac57600b600082815260200190815260200160002060405180610120016040529081600082015481526020016001820154815260200160028201548152602001600382015481526020016004820160009054906101000a900460ff1660ff1660ff1681526020016004820160019054906101000a900460ff1660ff1660ff1681526020016004820160029054906101000a900460ff1660ff1660ff1681526020016004820160039054906101000a900460ff1660ff1660ff1681526020016004820160049054906101000a900460ff166002811115610e6657610e656135a4565b5b6002811115610e7857610e776135a4565b5b81525050828460ff1681518110610e9257610e91613ead565b5b60200260200101819052508280610ea890613f0b565b9350505b8080610eb790613f35565b915050610d41565b50809250505090565b6000806002600084815260200190815260200160002060009054906101000a900473ffffffffffffffffffffffffffffffffffffffff169050600073ffffffffffffffffffffffffffffffffffffffff168173ffffffffffffffffffffffffffffffffffffffff161415610f71576040517f08c379a0000000000000000000000000000000000000000000000000000000008152600401610f6890614024565b60405180910390fd5b80915050919050565b60008073ffffffffffffffffffffffffffffffffffffffff168273ffffffffffffffffffffffffffffffffffffffff161415610feb576040517f08c379a0000000000000000000000000000000000000000000000000000000008152600401610fe2906140b6565b60405180910390fd5b600360008373ffffffffffffffffffffffffffffffffffffffff1673ffffffffffffffffffffffffffffffffffffffff168152602001908152602001600020549050919050565b61103a6123d5565b73ffffffffffffffffffffffffffffffffffffffff16611058611252565b73ffffffffffffffffffffffffffffffffffffffff16146110ae576040517f08c379a00000000000000000000000000000000000000000000000000000000081526004016110a590613dfb565b60405180910390fd5b6110b860006127d0565b565b6060600060075467ffffffffffffffff8111156110da576110d9613897565b5b60405190808252806020026020018201604052801561111357816020015b611100613188565b8152602001906001900390816110f85790505b50905060005b60075481101561124a57600b600082815260200190815260200160002060405180610120016040529081600082015481526020016001820154815260200160028201548152602001600382015481526020016004820160009054906101000a900460ff1660ff1660ff1681526020016004820160019054906101000a900460ff1660ff1660ff1681526020016004820160029054906101000a900460ff1660ff1660ff1681526020016004820160039054906101000a900460ff1660ff1660ff1681526020016004820160049054906101000a900460ff166002811115611203576112026135a4565b5b6002811115611215576112146135a4565b5b8152505082828151811061122c5761122b613ead565b5b6020026020010181905250808061124290613f35565b915050611119565b508091505090565b6000600660009054906101000a900473ffffffffffffffffffffffffffffffffffffffff16905090565b60606001805461128b90613bc7565b80601f01602080910402602001604051908101604052809291908181526020018280546112b790613bc7565b80156113045780601f106112d957610100808354040283529160200191611304565b820191906000526020600020905b8154815290600101906020018083116112e757829003601f168201915b5050505050905090565b6113206113196123d5565b8383612896565b5050565b6008543414611368576040517f08c379a000000000000000000000000000000000000000000000000000000000815260040161135f90614122565b60405180910390fd5b600561137333610f7a565b106113b3576040517f08c379a00000000000000000000000000000000000000000000000000000000081526004016113aa9061418e565b60405180910390fd5b600060028111156113c7576113c66135a4565b5b8160028111156113da576113d96135a4565b5b148061140a5750600160028111156113f5576113f46135a4565b5b816002811115611408576114076135a4565b5b145b806114385750600280811115611423576114226135a4565b5b816002811115611436576114356135a4565b5b145b611477576040517f08c379a000000000000000000000000000000000000000000000000000000000815260040161146e90614220565b60405180910390fd5b6000611489662386f26fc10000612a03565b90506000600281111561149f5761149e6135a4565b5b8260028111156114b2576114b16135a4565b5b14156116155760405180610120016040528060075481526020018281526020016001815260200160648152602001600560ff168152602001600360ff168152602001600160ff168152602001600160ff1681526020016000600281111561151c5761151b6135a4565b5b815250600b600060075481526020019081526020016000206000820151816000015560208201518160010155604082015181600201556060820151816003015560808201518160040160006101000a81548160ff021916908360ff16021790555060a08201518160040160016101000a81548160ff021916908360ff16021790555060c08201518160040160026101000a81548160ff021916908360ff16021790555060e08201518160040160036101000a81548160ff021916908360ff1602179055506101008201518160040160046101000a81548160ff0219169083600281111561160c5761160b6135a4565b5b02179055509050505b60016002811115611629576116286135a4565b5b82600281111561163c5761163b6135a4565b5b141561179f5760405180610120016040528060075481526020018281526020016001815260200160648152602001600160ff168152602001600160ff168152602001600560ff168152602001600360ff168152602001600160028111156116a6576116a56135a4565b5b815250600b600060075481526020019081526020016000206000820151816000015560208201518160010155604082015181600201556060820151816003015560808201518160040160006101000a81548160ff021916908360ff16021790555060a08201518160040160016101000a81548160ff021916908360ff16021790555060c08201518160040160026101000a81548160ff021916908360ff16021790555060e08201518160040160036101000a81548160ff021916908360ff1602179055506101008201518160040160046101000a81548160ff02191690836002811115611796576117956135a4565b5b02179055509050505b6002808111156117b2576117b16135a4565b5b8260028111156117c5576117c46135a4565b5b14156119275760405180610120016040528060075481526020018281526020016001815260200160648152602001600260ff168152602001600260ff168152602001600360ff168152602001600360ff16815260200160028081111561182e5761182d6135a4565b5b815250600b600060075481526020019081526020016000206000820151816000015560208201518160010155604082015181600201556060820151816003015560808201518160040160006101000a81548160ff021916908360ff16021790555060a08201518160040160016101000a81548160ff021916908360ff16021790555060c08201518160040160026101000a81548160ff021916908360ff16021790555060e08201518160040160036101000a81548160ff021916908360ff1602179055506101008201518160040160046101000a81548160ff0219169083600281111561191e5761191d6135a4565b5b02179055509050505b61193333600754612a49565b7f7f0777865312bae358531b42d9c405a59bfd31beba1973946dc0ce134cad418a60075460405161196491906137b4565b60405180910390a16007600081548092919061197f90613f35565b91905055505050565b6119996119936123d5565b83612496565b6119d8576040517f08c379a00000000000000000000000000000000000000000000000000000000081526004016119cf90613e8d565b60405180910390fd5b6119e484848484612a67565b50505050565b6119f2613188565b600b600083815260200190815260200160002060405180610120016040529081600082015481526020016001820154815260200160028201548152602001600382015481526020016004820160009054906101000a900460ff1660ff1660ff1681526020016004820160019054906101000a900460ff1660ff1660ff1681526020016004820160029054906101000a900460ff1660ff1660ff1681526020016004820160039054906101000a900460ff1660ff1660ff1681526020016004820160049054906101000a900460ff166002811115611ad257611ad16135a4565b5b6002811115611ae457611ae36135a4565b5b815250509050919050565b6060611afa82612369565b611b39576040517f08c379a0000000000000000000000000000000000000000000000000000000008152600401611b30906142b2565b60405180910390fd5b6000611b43612ac3565b90506000815111611b635760405180602001604052806000815250611b8e565b80611b6d84612ada565b604051602001611b7e92919061430e565b6040516020818303038152906040525b915050919050565b600a543414611bda576040517f08c379a0000000000000000000000000000000000000000000000000000000008152600401611bd190614122565b60405180910390fd5b3373ffffffffffffffffffffffffffffffffffffffff16611bfa83610ec8565b73ffffffffffffffffffffffffffffffffffffffff1614611c50576040517f08c379a0000000000000000000000000000000000000000000000000000000008152600401611c479061437e565b60405180910390fd5b611c5981610ec8565b73ffffffffffffffffffffffffffffffffffffffff16611c7883610ec8565b73ffffffffffffffffffffffffffffffffffffffff161415611ccf576040517f08c379a0000000000000000000000000000000000000000000000000000000008152600401611cc690614410565b60405180910390fd5b6000600b600084815260200190815260200160002060030154118015611d0b57506000600b600083815260200190815260200160002060030154115b611d4a576040517f08c379a0000000000000000000000000000000000000000000000000000000008152600401611d419061447c565b60405180910390fd5b6000611d568383612c5a565b90506000611d648385612c5a565b9050600b6000848152602001908152602001600020600301548210611dd0576000600b600085815260200190815260200160002060030181905550600b60008581526020019081526020016000206002016000815480929190611dc690613f35565b9190505550611f62565b81600b60008581526020019081526020016000206003016000828254611df69190613f7e565b92505081905550600b6000858152602001908152602001600020600301548110611e67576000600b600086815260200190815260200160002060030181905550600b60008481526020019081526020016000206002016000815480929190611e5d90613f35565b9190505550611f61565b80600b60008681526020019081526020016000206003016000828254611e8d9190613f7e565b9250508190555080821115611ecd57600b60008581526020019081526020016000206002016000815480929190611ec390613f35565b9190505550611f60565b81811115611f0657600b60008481526020019081526020016000206002016000815480929190611efc90613f35565b9190505550611f5f565b600b60008581526020019081526020016000206002016000815480929190611f2d90613f35565b9190505550600b60008481526020019081526020016000206002016000815480929190611f5990613f35565b91905055505b5b5b5b7f8c796248b1f953c9c8c0ed19eddf3a98eebe2c84390fe57e75f222dc677a141184848484604051611f97949392919061449c565b60405180910390a150505050565b6000600560008473ffffffffffffffffffffffffffffffffffffffff1673ffffffffffffffffffffffffffffffffffffffff16815260200190815260200160002060008373ffffffffffffffffffffffffffffffffffffffff1673ffffffffffffffffffffffffffffffffffffffff16815260200190815260200160002060009054906101000a900460ff16905092915050565b6120416123d5565b73ffffffffffffffffffffffffffffffffffffffff1661205f611252565b73ffffffffffffffffffffffffffffffffffffffff16146120b5576040517f08c379a00000000000000000000000000000000000000000000000000000000081526004016120ac90613dfb565b60405180910390fd5b600073ffffffffffffffffffffffffffffffffffffffff168173ffffffffffffffffffffffffffffffffffffffff161415612125576040517f08c379a000000000000000000000000000000000000000000000000000000000815260040161211c90614553565b60405180910390fd5b61212e816127d0565b50565b6009543414612175576040517f08c379a000000000000000000000000000000000000000000000000000000000815260040161216c90614122565b60405180910390fd5b3373ffffffffffffffffffffffffffffffffffffffff1661219582610ec8565b73ffffffffffffffffffffffffffffffffffffffff16146121eb576040517f08c379a00000000000000000000000000000000000000000000000000000000081526004016121e29061437e565b60405180910390fd5b6000600b60008381526020019081526020016000206003015411612244576040517f08c379a000000000000000000000000000000000000000000000000000000000815260040161223b906145bf565b60405180910390fd5b60006032600b60008481526020019081526020016000206003015461226991906145df565b90506064811115612295576064600b6000848152602001908152602001600020600301819055506122c4565b6032600b600084815260200190815260200160002060030160008282546122bc91906145df565b925050819055505b7f8379605eab0a1d9aab85917b4375ba70864307e4d75406a1a2e05dd600c1629a826040516122f391906137b4565b60405180910390a15050565b60007f01ffc9a7000000000000000000000000000000000000000000000000000000007bffffffffffffffffffffffffffffffffffffffffffffffffffffffff1916827bffffffffffffffffffffffffffffffffffffffffffffffffffffffff1916149050919050565b60008073ffffffffffffffffffffffffffffffffffffffff166002600084815260200190815260200160002060009054906101000a900473ffffffffffffffffffffffffffffffffffffffff1673ffffffffffffffffffffffffffffffffffffffff1614159050919050565b600033905090565b816004600083815260200190815260200160002060006101000a81548173ffffffffffffffffffffffffffffffffffffffff021916908373ffffffffffffffffffffffffffffffffffffffff160217905550808273ffffffffffffffffffffffffffffffffffffffff1661245083610ec8565b73ffffffffffffffffffffffffffffffffffffffff167f8c5be1e5ebec7d5bd14f71427d1e84f3dd0314c0f7b2291e5b200ac8c7c3b92560405160405180910390a45050565b60006124a182612369565b6124e0576040517f08c379a00000000000000000000000000000000000000000000000000000000081526004016124d7906146a7565b60405180910390fd5b60006124eb83610ec8565b90508073ffffffffffffffffffffffffffffffffffffffff168473ffffffffffffffffffffffffffffffffffffffff16148061255a57508373ffffffffffffffffffffffffffffffffffffffff166125428461074a565b73ffffffffffffffffffffffffffffffffffffffff16145b8061256b575061256a8185611fa5565b5b91505092915050565b8273ffffffffffffffffffffffffffffffffffffffff1661259482610ec8565b73ffffffffffffffffffffffffffffffffffffffff16146125ea576040517f08c379a00000000000000000000000000000000000000000000000000000000081526004016125e190614739565b60405180910390fd5b600073ffffffffffffffffffffffffffffffffffffffff168273ffffffffffffffffffffffffffffffffffffffff16141561265a576040517f08c379a0000000000000000000000000000000000000000000000000000000008152600401612651906147cb565b60405180910390fd5b612665838383612d45565b6126706000826123dd565b6001600360008573ffffffffffffffffffffffffffffffffffffffff1673ffffffffffffffffffffffffffffffffffffffff16815260200190815260200160002060008282546126c09190613f7e565b925050819055506001600360008473ffffffffffffffffffffffffffffffffffffffff1673ffffffffffffffffffffffffffffffffffffffff168152602001908152602001600020600082825461271791906145df565b92505081905550816002600083815260200190815260200160002060006101000a81548173ffffffffffffffffffffffffffffffffffffffff021916908373ffffffffffffffffffffffffffffffffffffffff160217905550808273ffffffffffffffffffffffffffffffffffffffff168473ffffffffffffffffffffffffffffffffffffffff167fddf252ad1be2c89b69c2b068fc378daa952ba7f163c4a11628f55a4df523b3ef60405160405180910390a4505050565b6000600660009054906101000a900473ffffffffffffffffffffffffffffffffffffffff16905081600660006101000a81548173ffffffffffffffffffffffffffffffffffffffff021916908373ffffffffffffffffffffffffffffffffffffffff1602179055508173ffffffffffffffffffffffffffffffffffffffff168173ffffffffffffffffffffffffffffffffffffffff167f8be0079c531659141344cd1fd0a4f28419497f9722a3daafe3b4186f6b6457e060405160405180910390a35050565b8173ffffffffffffffffffffffffffffffffffffffff168373ffffffffffffffffffffffffffffffffffffffff161415612905576040517f08c379a00000000000000000000000000000000000000000000000000000000081526004016128fc90614837565b60405180910390fd5b80600560008573ffffffffffffffffffffffffffffffffffffffff1673ffffffffffffffffffffffffffffffffffffffff16815260200190815260200160002060008473ffffffffffffffffffffffffffffffffffffffff1673ffffffffffffffffffffffffffffffffffffffff16815260200190815260200160002060006101000a81548160ff0219169083151502179055508173ffffffffffffffffffffffffffffffffffffffff168373ffffffffffffffffffffffffffffffffffffffff167f17307eab39ab6107e8899845ad3d59bd9653f200f220920489ca2b5937696c31836040516129f691906132a6565b60405180910390a3505050565b6000804233604051602001612a199291906148cc565b604051602081830303815290604052805190602001206001900490508281612a419190614927565b915050919050565b612a63828260405180602001604052806000815250612d4a565b5050565b612a72848484612574565b612a7e84848484612da5565b612abd576040517f08c379a0000000000000000000000000000000000000000000000000000000008152600401612ab4906149ca565b60405180910390fd5b50505050565b606060405180602001604052806000815250905090565b60606000821415612b22576040518060400160405280600181526020017f30000000000000000000000000000000000000000000000000000000000000008152509050612c55565b600082905060005b60008214612b54578080612b3d90613f35565b915050600a82612b4d91906149ea565b9150612b2a565b60008167ffffffffffffffff811115612b7057612b6f613897565b5b6040519080825280601f01601f191660200182016040528015612ba25781602001600182028036833780820191505090505b5090505b60008514612c4e57600182612bbb9190613f7e565b9150600a85612bca9190614927565b6030612bd691906145df565b7f010000000000000000000000000000000000000000000000000000000000000002818381518110612c0b57612c0a613ead565b5b60200101907effffffffffffffffffffffffffffffffffffffffffffffffffffffffffffff1916908160001a905350600a85612c4791906149ea565b9450612ba6565b8093505050505b919050565b600080612cac600b600086815260200190815260200160002060020154600b600087815260200190815260200160002060040160009054906101000a900460ff1660ff16612f6590919063ffffffff16565b90506000612d126002612d04600b600088815260200190815260200160002060020154600b600089815260200190815260200160002060040160019054906101000a900460ff1660ff16612f6590919063ffffffff16565b612f7b90919063ffffffff16565b905080821015612d2757600092505050612d3f565b612d3a8183612f9190919063ffffffff16565b925050505b92915050565b505050565b612d548383612fa7565b612d616000848484612da5565b612da0576040517f08c379a0000000000000000000000000000000000000000000000000000000008152600401612d97906149ca565b60405180910390fd5b505050565b6000612dc68473ffffffffffffffffffffffffffffffffffffffff16613175565b15612f58578373ffffffffffffffffffffffffffffffffffffffff1663150b7a02612def6123d5565b8786866040518563ffffffff167c0100000000000000000000000000000000000000000000000000000000028152600401612e2d9493929190614a70565b6020604051808303816000875af1925050508015612e6957506040513d601f19601f82011682018060405250810190612e669190614ad1565b60015b612eec573d8060008114612e99576040519150601f19603f3d011682016040523d82523d6000602084013e612e9e565b606091505b50600081511415612ee4576040517f08c379a0000000000000000000000000000000000000000000000000000000008152600401612edb906149ca565b60405180910390fd5b805181602001fd5b63150b7a027c0100000000000000000000000000000000000000000000000000000000027bffffffffffffffffffffffffffffffffffffffffffffffffffffffff1916817bffffffffffffffffffffffffffffffffffffffffffffffffffffffff191614915050612f5d565b600190505b949350505050565b60008183612f739190614afe565b905092915050565b60008183612f8991906149ea565b905092915050565b60008183612f9f9190613f7e565b905092915050565b600073ffffffffffffffffffffffffffffffffffffffff168273ffffffffffffffffffffffffffffffffffffffff161415613017576040517f08c379a000000000000000000000000000000000000000000000000000000000815260040161300e90614ba4565b60405180910390fd5b61302081612369565b15613060576040517f08c379a000000000000000000000000000000000000000000000000000000000815260040161305790614c10565b60405180910390fd5b61306c60008383612d45565b6001600360008473ffffffffffffffffffffffffffffffffffffffff1673ffffffffffffffffffffffffffffffffffffffff16815260200190815260200160002060008282546130bc91906145df565b92505081905550816002600083815260200190815260200160002060006101000a81548173ffffffffffffffffffffffffffffffffffffffff021916908373ffffffffffffffffffffffffffffffffffffffff160217905550808273ffffffffffffffffffffffffffffffffffffffff16600073ffffffffffffffffffffffffffffffffffffffff167fddf252ad1be2c89b69c2b068fc378daa952ba7f163c4a11628f55a4df523b3ef60405160405180910390a45050565b600080823b905060008111915050919050565b60405180610120016040528060008152602001600081526020016000815260200160008152602001600060ff168152602001600060ff168152602001600060ff168152602001600060ff168152602001600060028111156131ec576131eb6135a4565b5b81525090565b6000604051905090565b600080fd5b600080fd5b60007fffffffff0000000000000000000000000000000000000000000000000000000082169050919050565b61323b81613206565b811461324657600080fd5b50565b60008135905061325881613232565b92915050565b600060208284031215613274576132736131fc565b5b600061328284828501613249565b91505092915050565b60008115159050919050565b6132a08161328b565b82525050565b60006020820190506132bb6000830184613297565b92915050565b600081519050919050565b600082825260208201905092915050565b60005b838110156132fb5780820151818401526020810190506132e0565b8381111561330a576000848401525b50505050565b6000601f19601f8301169050919050565b600061332c826132c1565b61333681856132cc565b93506133468185602086016132dd565b61334f81613310565b840191505092915050565b600060208201905081810360008301526133748184613321565b905092915050565b6000819050919050565b61338f8161337c565b811461339a57600080fd5b50565b6000813590506133ac81613386565b92915050565b6000602082840312156133c8576133c76131fc565b5b60006133d68482850161339d565b91505092915050565b600073ffffffffffffffffffffffffffffffffffffffff82169050919050565b600061340a826133df565b9050919050565b61341a816133ff565b82525050565b60006020820190506134356000830184613411565b92915050565b613444816133ff565b811461344f57600080fd5b50565b6000813590506134618161343b565b92915050565b6000806040838503121561347e5761347d6131fc565b5b600061348c85828601613452565b925050602061349d8582860161339d565b9150509250929050565b6000806000606084860312156134c0576134bf6131fc565b5b60006134ce8682870161339d565b93505060206134df8682870161339d565b92505060406134f08682870161339d565b9150509250925092565b600080600060608486031215613513576135126131fc565b5b600061352186828701613452565b935050602061353286828701613452565b92505060406135438682870161339d565b9150509250925092565b600081519050919050565b600082825260208201905092915050565b6000819050602082019050919050565b6135828161337c565b82525050565b600060ff82169050919050565b61359e81613588565b82525050565b7f4e487b7100000000000000000000000000000000000000000000000000000000600052602160045260246000fd5b600381106135e4576135e36135a4565b5b50565b60008190506135f5826135d3565b919050565b6000613605826135e7565b9050919050565b613615816135fa565b82525050565b610120820160008201516136326000850182613579565b5060208201516136456020850182613579565b5060408201516136586040850182613579565b50606082015161366b6060850182613579565b50608082015161367e6080850182613595565b5060a082015161369160a0850182613595565b5060c08201516136a460c0850182613595565b5060e08201516136b760e0850182613595565b506101008201516136cc61010085018261360c565b50505050565b60006136de838361361b565b6101208301905092915050565b6000602082019050919050565b60006137038261354d565b61370d8185613558565b935061371883613569565b8060005b8381101561374957815161373088826136d2565b975061373b836136eb565b92505060018101905061371c565b5085935050505092915050565b6000602082019050818103600083015261377081846136f8565b905092915050565b60006020828403121561378e5761378d6131fc565b5b600061379c84828501613452565b91505092915050565b6137ae8161337c565b82525050565b60006020820190506137c960008301846137a5565b92915050565b6137d88161328b565b81146137e357600080fd5b50565b6000813590506137f5816137cf565b92915050565b60008060408385031215613812576138116131fc565b5b600061382085828601613452565b9250506020613831858286016137e6565b9150509250929050565b6003811061384857600080fd5b50565b60008135905061385a8161383b565b92915050565b600060208284031215613876576138756131fc565b5b60006138848482850161384b565b91505092915050565b600080fd5b600080fd5b7f4e487b7100000000000000000000000000000000000000000000000000000000600052604160045260246000fd5b6138cf82613310565b810181811067ffffffffffffffff821117156138ee576138ed613897565b5b80604052505050565b60006139016131f2565b905061390d82826138c6565b919050565b600067ffffffffffffffff82111561392d5761392c613897565b5b61393682613310565b9050602081019050919050565b82818337600083830152505050565b600061396561396084613912565b6138f7565b90508281526020810184848401111561398157613980613892565b5b61398c848285613943565b509392505050565b600082601f8301126139a9576139a861388d565b5b81356139b9848260208601613952565b91505092915050565b600080600080608085870312156139dc576139db6131fc565b5b60006139ea87828801613452565b94505060206139fb87828801613452565b9350506040613a0c8782880161339d565b925050606085013567ffffffffffffffff811115613a2d57613a2c613201565b5b613a3987828801613994565b91505092959194509250565b61012082016000820151613a5c6000850182613579565b506020820151613a6f6020850182613579565b506040820151613a826040850182613579565b506060820151613a956060850182613579565b506080820151613aa86080850182613595565b5060a0820151613abb60a0850182613595565b5060c0820151613ace60c0850182613595565b5060e0820151613ae160e0850182613595565b50610100820151613af661010085018261360c565b50505050565b600061012082019050613b126000830184613a45565b92915050565b60008060408385031215613b2f57613b2e6131fc565b5b6000613b3d8582860161339d565b9250506020613b4e8582860161339d565b9150509250929050565b60008060408385031215613b6f57613b6e6131fc565b5b6000613b7d85828601613452565b9250506020613b8e85828601613452565b9150509250929050565b7f4e487b7100000000000000000000000000000000000000000000000000000000600052602260045260246000fd5b60006002820490506001821680613bdf57607f821691505b60208210811415613bf357613bf2613b98565b5b50919050565b7f4552433732313a20617070726f76656420717565727920666f72206e6f6e657860008201527f697374656e7420746f6b656e0000000000000000000000000000000000000000602082015250565b6000613c55602c836132cc565b9150613c6082613bf9565b604082019050919050565b60006020820190508181036000830152613c8481613c48565b9050919050565b7f4552433732313a20617070726f76616c20746f2063757272656e74206f776e6560008201527f7200000000000000000000000000000000000000000000000000000000000000602082015250565b6000613ce76021836132cc565b9150613cf282613c8b565b604082019050919050565b60006020820190508181036000830152613d1681613cda565b9050919050565b7f4552433732313a20617070726f76652063616c6c6572206973206e6f74206f7760008201527f6e6572206e6f7220617070726f76656420666f7220616c6c0000000000000000602082015250565b6000613d796038836132cc565b9150613d8482613d1d565b604082019050919050565b60006020820190508181036000830152613da881613d6c565b9050919050565b7f4f776e61626c653a2063616c6c6572206973206e6f7420746865206f776e6572600082015250565b6000613de56020836132cc565b9150613df082613daf565b602082019050919050565b60006020820190508181036000830152613e1481613dd8565b9050919050565b7f4552433732313a207472616e736665722063616c6c6572206973206e6f74206f60008201527f776e6572206e6f7220617070726f766564000000000000000000000000000000602082015250565b6000613e776031836132cc565b9150613e8282613e1b565b604082019050919050565b60006020820190508181036000830152613ea681613e6a565b9050919050565b7f4e487b7100000000000000000000000000000000000000000000000000000000600052603260045260246000fd5b7f4e487b7100000000000000000000000000000000000000000000000000000000600052601160045260246000fd5b6000613f1682613588565b915060ff821415613f2a57613f29613edc565b5b600182019050919050565b6000613f408261337c565b91507fffffffffffffffffffffffffffffffffffffffffffffffffffffffffffffffff821415613f7357613f72613edc565b5b600182019050919050565b6000613f898261337c565b9150613f948361337c565b925082821015613fa757613fa6613edc565b5b828203905092915050565b7f4552433732313a206f776e657220717565727920666f72206e6f6e657869737460008201527f656e7420746f6b656e0000000000000000000000000000000000000000000000602082015250565b600061400e6029836132cc565b915061401982613fb2565b604082019050919050565b6000602082019050818103600083015261403d81614001565b9050919050565b7f4552433732313a2062616c616e636520717565727920666f7220746865207a6560008201527f726f206164647265737300000000000000000000000000000000000000000000602082015250565b60006140a0602a836132cc565b91506140ab82614044565b604082019050919050565b600060208201905081810360008301526140cf81614093565b9050919050565b7f57726f6e6720616d6f756e74206f662066656573000000000000000000000000600082015250565b600061410c6014836132cc565b9150614117826140d6565b602082019050919050565b6000602082019050818103600083015261413b816140ff565b9050919050565b7f596f752063616e27742068617665206d6f7265207468616e2035204e46540000600082015250565b6000614178601e836132cc565b915061418382614142565b602082019050919050565b600060208201905081810360008301526141a78161416b565b9050919050565b7f596f75206d7573742063686f6f7365206265747765656e206265727365726b6560008201527f722c2073706972697475616c206f7220656c656d656e74617279000000000000602082015250565b600061420a603a836132cc565b9150614215826141ae565b604082019050919050565b60006020820190508181036000830152614239816141fd565b9050919050565b7f4552433732314d657461646174613a2055524920717565727920666f72206e6f60008201527f6e6578697374656e7420746f6b656e0000000000000000000000000000000000602082015250565b600061429c602f836132cc565b91506142a782614240565b604082019050919050565b600060208201905081810360008301526142cb8161428f565b9050919050565b600081905092915050565b60006142e8826132c1565b6142f281856142d2565b93506143028185602086016132dd565b80840191505092915050565b600061431a82856142dd565b915061432682846142dd565b91508190509392505050565b7f596f75277265206e6f7420746865206f776e6572206f6620746865204e465400600082015250565b6000614368601f836132cc565b915061437382614332565b602082019050919050565b600060208201905081810360008301526143978161435b565b9050919050565b7f596f7572204e4654732063616e6e6f742066696768742065616368206f74686560008201527f7200000000000000000000000000000000000000000000000000000000000000602082015250565b60006143fa6021836132cc565b91506144058261439e565b604082019050919050565b60006020820190508181036000830152614429816143ed565b9050919050565b7f4f6e65206f6620746865204e4654732069732064656164000000000000000000600082015250565b60006144666017836132cc565b915061447182614430565b602082019050919050565b6000602082019050818103600083015261449581614459565b9050919050565b60006080820190506144b160008301876137a5565b6144be60208301866137a5565b6144cb60408301856137a5565b6144d860608301846137a5565b95945050505050565b7f4f776e61626c653a206e6577206f776e657220697320746865207a65726f206160008201527f6464726573730000000000000000000000000000000000000000000000000000602082015250565b600061453d6026836132cc565b9150614548826144e1565b604082019050919050565b6000602082019050818103600083015261456c81614530565b9050919050565b7f596f75277265204e465420697320646561640000000000000000000000000000600082015250565b60006145a96012836132cc565b91506145b482614573565b602082019050919050565b600060208201905081810360008301526145d88161459c565b9050919050565b60006145ea8261337c565b91506145f58361337c565b9250827fffffffffffffffffffffffffffffffffffffffffffffffffffffffffffffffff0382111561462a57614629613edc565b5b828201905092915050565b7f4552433732313a206f70657261746f7220717565727920666f72206e6f6e657860008201527f697374656e7420746f6b656e0000000000000000000000000000000000000000602082015250565b6000614691602c836132cc565b915061469c82614635565b604082019050919050565b600060208201905081810360008301526146c081614684565b9050919050565b7f4552433732313a207472616e73666572206f6620746f6b656e2074686174206960008201527f73206e6f74206f776e0000000000000000000000000000000000000000000000602082015250565b60006147236029836132cc565b915061472e826146c7565b604082019050919050565b6000602082019050818103600083015261475281614716565b9050919050565b7f4552433732313a207472616e7366657220746f20746865207a65726f2061646460008201527f7265737300000000000000000000000000000000000000000000000000000000602082015250565b60006147b56024836132cc565b91506147c082614759565b604082019050919050565b600060208201905081810360008301526147e4816147a8565b9050919050565b7f4552433732313a20617070726f766520746f2063616c6c657200000000000000600082015250565b60006148216019836132cc565b915061482c826147eb565b602082019050919050565b6000602082019050818103600083015261485081614814565b9050919050565b6000819050919050565b61487261486d8261337c565b614857565b82525050565b60006c0100000000000000000000000082029050919050565b600061489c82614878565b9050919050565b60006148ae82614891565b9050919050565b6148c66148c1826133ff565b6148a3565b82525050565b60006148d88285614861565b6020820191506148e882846148b5565b6014820191508190509392505050565b7f4e487b7100000000000000000000000000000000000000000000000000000000600052601260045260246000fd5b60006149328261337c565b915061493d8361337c565b92508261494d5761494c6148f8565b5b828206905092915050565b7f4552433732313a207472616e7366657220746f206e6f6e20455243373231526560008201527f63656976657220696d706c656d656e7465720000000000000000000000000000602082015250565b60006149b46032836132cc565b91506149bf82614958565b604082019050919050565b600060208201905081810360008301526149e3816149a7565b9050919050565b60006149f58261337c565b9150614a008361337c565b925082614a1057614a0f6148f8565b5b828204905092915050565b600081519050919050565b600082825260208201905092915050565b6000614a4282614a1b565b614a4c8185614a26565b9350614a5c8185602086016132dd565b614a6581613310565b840191505092915050565b6000608082019050614a856000830187613411565b614a926020830186613411565b614a9f60408301856137a5565b8181036060830152614ab18184614a37565b905095945050505050565b600081519050614acb81613232565b92915050565b600060208284031215614ae757614ae66131fc565b5b6000614af584828501614abc565b91505092915050565b6000614b098261337c565b9150614b148361337c565b9250817fffffffffffffffffffffffffffffffffffffffffffffffffffffffffffffffff0483118215151615614b4d57614b4c613edc565b5b828202905092915050565b7f4552433732313a206d696e7420746f20746865207a65726f2061646472657373600082015250565b6000614b8e6020836132cc565b9150614b9982614b58565b602082019050919050565b60006020820190508181036000830152614bbd81614b81565b9050919050565b7f4552433732313a20746f6b656e20616c7265616479206d696e74656400000000600082015250565b6000614bfa601c836132cc565b9150614c0582614bc4565b602082019050919050565b60006020820190508181036000830152614c2981614bed565b905091905056fea26469706673582212205451410284427a30b546e77502ee8f2d1ea96da2056cb899e6ec0a766e1ffbbd64736f6c634300080a0033",
  "immutableReferences": {},
  "source": "// SPDX-License-Identifier: MIT\r\npragma solidity 0.8.10;\r\n\r\nimport \"@openzeppelin/contracts/token/ERC721/ERC721.sol\";\r\nimport \"@openzeppelin/contracts/access/Ownable.sol\";\r\nimport \"@openzeppelin/contracts/utils/math/SafeMath.sol\";\r\n\r\ncontract NFTGameToken is ERC721, Ownable {\r\n\r\n    constructor() ERC721(\"NFTGameToken\", \"NFTG\") {}\r\n\r\n    using SafeMath for uint256;\r\n\r\n    enum type_character { BERSERKER, SPIRITUAL, ELEMENTARY }\r\n    uint256 nextId = 0;\r\n    uint256 mintFee = 1 ether;\r\n    uint256 healFee = 0.001 ether;\r\n    uint256 fightFee = 0.001 ether;\r\n\r\n    struct Character {\r\n        uint256 id;\r\n        uint256 dna;\r\n        // uint8 level;\r\n        uint256 xp;\r\n        uint256 hp;\r\n        uint8 attack;\r\n        uint8 armor;\r\n        // uint8 speed;     \r\n        uint8 mana;\r\n        uint8 magicResistance;\r\n        type_character typeCharacter;\r\n    }\r\n\r\n    mapping(uint256 => Character) private _characterDetails;\r\n\r\n    // events\r\n    event CharacterCreated(uint256 id);\r\n    event Healed(uint256 tokenId);\r\n    event Fighted(uint256 myTokenId, uint256 rivalTokenId, uint256 substrateLifeToRival, uint256 substrateLifeToMe);\r\n\r\n    // Helper\r\n    function _generateRandomNum(uint256 _mod) internal view returns(uint256) {\r\n        uint256 randNum = uint256(keccak256(abi.encodePacked(block.timestamp, msg.sender)));\r\n        return randNum % _mod;\r\n    }\r\n    \r\n    function updateFees(uint256 _mintFee, uint256 _healFee, uint256 _fightFee) external onlyOwner() {\r\n        mintFee = _mintFee;\r\n        healFee = _healFee;\r\n        fightFee = _fightFee;\r\n    }\r\n    \r\n    function withdraw() external onlyOwner() {\r\n        payable(owner()).transfer(address(this).balance);\r\n    }\r\n    \r\n    function substrateLife(uint256 id1, uint256 id2) internal view returns(uint256) {\r\n        uint256 op1 = uint256(_characterDetails[id1].attack).mul(_characterDetails[id1].xp);\r\n        uint256 op2 = (uint256(_characterDetails[id2].armor).mul(_characterDetails[id2].xp)).div(2);\r\n        if (op1 < op2) {\r\n            return 0;\r\n        } else {\r\n            return op1.sub(op2);\r\n        }\r\n    }\r\n\r\n    function createCharacter(type_character _typeCharacter) external payable {\r\n        require(msg.value == mintFee, \"Wrong amount of fees\");\r\n        require(balanceOf(msg.sender) < 5, \"You can't have more than 5 NFT\");\r\n        require(_typeCharacter == type_character.BERSERKER || _typeCharacter == type_character.SPIRITUAL || _typeCharacter == type_character.ELEMENTARY,\r\n        \"You must choose between berserker, spiritual or elementary\");\r\n        uint256 dna = _generateRandomNum(10**16);\r\n        if (_typeCharacter == type_character.BERSERKER) {\r\n            _characterDetails[nextId] = Character(nextId, dna, 1, 100, 5, 3, 1, 1, type_character.BERSERKER);\r\n        }\r\n        if (_typeCharacter == type_character.SPIRITUAL) {\r\n            _characterDetails[nextId] = Character(nextId, dna, 1, 100, 1, 1, 5, 3, type_character.SPIRITUAL);\r\n        }\r\n        if (_typeCharacter == type_character.ELEMENTARY) {\r\n            _characterDetails[nextId] = Character(nextId, dna, 1, 100, 2, 2, 3, 3, type_character.ELEMENTARY);\r\n        }\r\n        _safeMint(msg.sender, nextId);\r\n        emit CharacterCreated(nextId);\r\n        nextId++;\r\n    }\r\n\r\n    function heal(uint256 _tokenId) external payable {\r\n        require(msg.value == healFee, \"Wrong amount of fees\");\r\n        require(ownerOf(_tokenId) == msg.sender, \"You're not the owner of the NFT\");\r\n        require(_characterDetails[_tokenId].hp > 0, \"You're NFT is dead\");\r\n        uint256 tempResult = _characterDetails[_tokenId].hp + 50;\r\n        if (tempResult > 100) {\r\n            _characterDetails[_tokenId].hp = 100;\r\n        } else {\r\n            _characterDetails[_tokenId].hp += 50;\r\n        }\r\n        emit Healed(_tokenId);\r\n    }\r\n\r\n    function fight(uint256 _myTokenId, uint256 _rivalTokenId) external payable {\r\n        require(msg.value == fightFee, \"Wrong amount of fees\");\r\n        require(ownerOf(_myTokenId) == msg.sender, \"You're not the owner of the NFT\");\r\n        require(ownerOf(_myTokenId) != ownerOf(_rivalTokenId), \"Your NFTs cannot fight each other\");\r\n        require(_characterDetails[_myTokenId].hp > 0 && _characterDetails[_rivalTokenId].hp > 0, \"One of the NFTs is dead\");\r\n\r\n        uint256 substrateLifeToRival = substrateLife(_myTokenId, _rivalTokenId);\r\n        uint256 substrateLifeToMe = substrateLife(_rivalTokenId, _myTokenId);\r\n        \r\n        if(substrateLifeToRival >= _characterDetails[_rivalTokenId].hp) {\r\n            _characterDetails[_rivalTokenId].hp = 0;\r\n            _characterDetails[_myTokenId].xp++;\r\n        } else {\r\n            _characterDetails[_rivalTokenId].hp -= substrateLifeToRival;\r\n            if(substrateLifeToMe >= _characterDetails[_myTokenId].hp) {\r\n                _characterDetails[_myTokenId].hp = 0;\r\n                _characterDetails[_rivalTokenId].xp++;\r\n            } else {\r\n                _characterDetails[_myTokenId].hp -= substrateLifeToMe;\r\n                if (substrateLifeToRival > substrateLifeToMe) {\r\n                    _characterDetails[_myTokenId].xp++;\r\n                } else if (substrateLifeToMe > substrateLifeToRival) {\r\n                    _characterDetails[_rivalTokenId].xp++;\r\n                } else {\r\n                    _characterDetails[_myTokenId].xp++;\r\n                    _characterDetails[_rivalTokenId].xp++;\r\n                }\r\n            }\r\n        }\r\n        emit Fighted(_myTokenId, _rivalTokenId, substrateLifeToRival, substrateLifeToMe);\r\n    }\r\n\r\n    // Getters\r\n    function getTokenDetails(uint256 _tokenId) external view returns(Character memory) {\r\n        return _characterDetails[_tokenId];\r\n    }\r\n\r\n    function getMyCharacters() public view returns (Character[] memory){\r\n        uint8 count = 0;\r\n        Character[] memory myCharacters = new Character[](balanceOf(msg.sender));\r\n        for (uint256 i = 0; i < nextId; i++) {\r\n            if (ownerOf(i) == msg.sender) {\r\n                myCharacters[count] = _characterDetails[i];\r\n                count++;\r\n            }\r\n        }\r\n        return myCharacters;\r\n    }\r\n\r\n    function getOthersCharacters() public view returns (Character[] memory){\r\n        uint8 count = 0;\r\n        Character[] memory othersCharacters = new Character[](nextId - balanceOf(msg.sender));\r\n        for (uint256 i = 0; i < nextId; i++) {\r\n            if (ownerOf(i) != msg.sender) {\r\n                othersCharacters[count] = _characterDetails[i];\r\n                count++;\r\n            }\r\n        }\r\n        return othersCharacters;\r\n    }\r\n    \r\n    // only for TESTS getAllCharacters\r\n    function getAllCharacters() public view returns (Character[] memory){\r\n        Character[] memory allCharacters = new Character[](nextId);\r\n        for (uint256 i = 0; i < nextId; i++) {\r\n            allCharacters[i] = _characterDetails[i];\r\n        }\r\n        return allCharacters;\r\n    }\r\n}\r\n",
  "sourcePath": "D:\\TAF\\Alyra\\Projets\\tests_avant_projet_alyra\\contracts\\NFTGameToken.sol",
  "compiler": {
    "name": "solc",
    "version": "0.8.10+commit.fc410830.Emscripten.clang"
  },
  "schemaVersion": "3.4.3",
  "updatedAt": "2021-12-12T16:59:54.262Z",
  "networkType": "ethereum",
  "devdoc": {
    "kind": "dev",
    "methods": {
      "approve(address,uint256)": {
        "details": "See {IERC721-approve}."
      },
      "balanceOf(address)": {
        "details": "See {IERC721-balanceOf}."
      },
      "getApproved(uint256)": {
        "details": "See {IERC721-getApproved}."
      },
      "isApprovedForAll(address,address)": {
        "details": "See {IERC721-isApprovedForAll}."
      },
      "name()": {
        "details": "See {IERC721Metadata-name}."
      },
      "owner()": {
        "details": "Returns the address of the current owner."
      },
      "ownerOf(uint256)": {
        "details": "See {IERC721-ownerOf}."
      },
      "renounceOwnership()": {
        "details": "Leaves the contract without owner. It will not be possible to call `onlyOwner` functions anymore. Can only be called by the current owner. NOTE: Renouncing ownership will leave the contract without an owner, thereby removing any functionality that is only available to the owner."
      },
      "safeTransferFrom(address,address,uint256)": {
        "details": "See {IERC721-safeTransferFrom}."
      },
      "safeTransferFrom(address,address,uint256,bytes)": {
        "details": "See {IERC721-safeTransferFrom}."
      },
      "setApprovalForAll(address,bool)": {
        "details": "See {IERC721-setApprovalForAll}."
      },
      "supportsInterface(bytes4)": {
        "details": "See {IERC165-supportsInterface}."
      },
      "symbol()": {
        "details": "See {IERC721Metadata-symbol}."
      },
      "tokenURI(uint256)": {
        "details": "See {IERC721Metadata-tokenURI}."
      },
      "transferFrom(address,address,uint256)": {
        "details": "See {IERC721-transferFrom}."
      },
      "transferOwnership(address)": {
        "details": "Transfers ownership of the contract to a new account (`newOwner`). Can only be called by the current owner."
      }
    },
    "version": 1
  },
  "userdoc": {
    "kind": "user",
    "methods": {},
    "version": 1
  }
}