{
  "contractName": "NFTGameToken",
  "abi": [
    {
      "inputs": [],
      "stateMutability": "nonpayable",
      "type": "constructor"
    },
    {
      "anonymous": false,
      "inputs": [
        {
          "indexed": true,
          "internalType": "address",
          "name": "owner",
          "type": "address"
        },
        {
          "indexed": true,
          "internalType": "address",
          "name": "approved",
          "type": "address"
        },
        {
          "indexed": true,
          "internalType": "uint256",
          "name": "tokenId",
          "type": "uint256"
        }
      ],
      "name": "Approval",
      "type": "event"
    },
    {
      "anonymous": false,
      "inputs": [
        {
          "indexed": true,
          "internalType": "address",
          "name": "owner",
          "type": "address"
        },
        {
          "indexed": true,
          "internalType": "address",
          "name": "operator",
          "type": "address"
        },
        {
          "indexed": false,
          "internalType": "bool",
          "name": "approved",
          "type": "bool"
        }
      ],
      "name": "ApprovalForAll",
      "type": "event"
    },
    {
      "anonymous": false,
      "inputs": [
        {
          "indexed": false,
          "internalType": "uint256",
          "name": "dna",
          "type": "uint256"
        }
      ],
      "name": "CharacterCreated",
      "type": "event"
    },
    {
      "anonymous": false,
      "inputs": [
        {
          "indexed": false,
          "internalType": "uint256",
          "name": "myTokenId",
          "type": "uint256"
        },
        {
          "indexed": false,
          "internalType": "uint256",
          "name": "rivalTokenId",
          "type": "uint256"
        }
      ],
      "name": "Fighted",
      "type": "event"
    },
    {
      "anonymous": false,
      "inputs": [
        {
          "indexed": false,
          "internalType": "uint256",
          "name": "tokenId",
          "type": "uint256"
        }
      ],
      "name": "Healed",
      "type": "event"
    },
    {
      "anonymous": false,
      "inputs": [
        {
          "indexed": true,
          "internalType": "address",
          "name": "previousOwner",
          "type": "address"
        },
        {
          "indexed": true,
          "internalType": "address",
          "name": "newOwner",
          "type": "address"
        }
      ],
      "name": "OwnershipTransferred",
      "type": "event"
    },
    {
      "anonymous": false,
      "inputs": [
        {
          "indexed": true,
          "internalType": "address",
          "name": "from",
          "type": "address"
        },
        {
          "indexed": true,
          "internalType": "address",
          "name": "to",
          "type": "address"
        },
        {
          "indexed": true,
          "internalType": "uint256",
          "name": "tokenId",
          "type": "uint256"
        }
      ],
      "name": "Transfer",
      "type": "event"
    },
    {
      "inputs": [
        {
          "internalType": "address",
          "name": "to",
          "type": "address"
        },
        {
          "internalType": "uint256",
          "name": "tokenId",
          "type": "uint256"
        }
      ],
      "name": "approve",
      "outputs": [],
      "stateMutability": "nonpayable",
      "type": "function"
    },
    {
      "inputs": [
        {
          "internalType": "address",
          "name": "owner",
          "type": "address"
        }
      ],
      "name": "balanceOf",
      "outputs": [
        {
          "internalType": "uint256",
          "name": "",
          "type": "uint256"
        }
      ],
      "stateMutability": "view",
      "type": "function",
      "constant": true
    },
    {
      "inputs": [
        {
          "internalType": "uint256",
          "name": "tokenId",
          "type": "uint256"
        }
      ],
      "name": "getApproved",
      "outputs": [
        {
          "internalType": "address",
          "name": "",
          "type": "address"
        }
      ],
      "stateMutability": "view",
      "type": "function",
      "constant": true
    },
    {
      "inputs": [
        {
          "internalType": "address",
          "name": "owner",
          "type": "address"
        },
        {
          "internalType": "address",
          "name": "operator",
          "type": "address"
        }
      ],
      "name": "isApprovedForAll",
      "outputs": [
        {
          "internalType": "bool",
          "name": "",
          "type": "bool"
        }
      ],
      "stateMutability": "view",
      "type": "function",
      "constant": true
    },
    {
      "inputs": [],
      "name": "name",
      "outputs": [
        {
          "internalType": "string",
          "name": "",
          "type": "string"
        }
      ],
      "stateMutability": "view",
      "type": "function",
      "constant": true
    },
    {
      "inputs": [],
      "name": "owner",
      "outputs": [
        {
          "internalType": "address",
          "name": "",
          "type": "address"
        }
      ],
      "stateMutability": "view",
      "type": "function",
      "constant": true
    },
    {
      "inputs": [
        {
          "internalType": "uint256",
          "name": "tokenId",
          "type": "uint256"
        }
      ],
      "name": "ownerOf",
      "outputs": [
        {
          "internalType": "address",
          "name": "",
          "type": "address"
        }
      ],
      "stateMutability": "view",
      "type": "function",
      "constant": true
    },
    {
      "inputs": [],
      "name": "renounceOwnership",
      "outputs": [],
      "stateMutability": "nonpayable",
      "type": "function"
    },
    {
      "inputs": [
        {
          "internalType": "address",
          "name": "from",
          "type": "address"
        },
        {
          "internalType": "address",
          "name": "to",
          "type": "address"
        },
        {
          "internalType": "uint256",
          "name": "tokenId",
          "type": "uint256"
        }
      ],
      "name": "safeTransferFrom",
      "outputs": [],
      "stateMutability": "nonpayable",
      "type": "function"
    },
    {
      "inputs": [
        {
          "internalType": "address",
          "name": "from",
          "type": "address"
        },
        {
          "internalType": "address",
          "name": "to",
          "type": "address"
        },
        {
          "internalType": "uint256",
          "name": "tokenId",
          "type": "uint256"
        },
        {
          "internalType": "bytes",
          "name": "_data",
          "type": "bytes"
        }
      ],
      "name": "safeTransferFrom",
      "outputs": [],
      "stateMutability": "nonpayable",
      "type": "function"
    },
    {
      "inputs": [
        {
          "internalType": "address",
          "name": "operator",
          "type": "address"
        },
        {
          "internalType": "bool",
          "name": "approved",
          "type": "bool"
        }
      ],
      "name": "setApprovalForAll",
      "outputs": [],
      "stateMutability": "nonpayable",
      "type": "function"
    },
    {
      "inputs": [
        {
          "internalType": "bytes4",
          "name": "interfaceId",
          "type": "bytes4"
        }
      ],
      "name": "supportsInterface",
      "outputs": [
        {
          "internalType": "bool",
          "name": "",
          "type": "bool"
        }
      ],
      "stateMutability": "view",
      "type": "function",
      "constant": true
    },
    {
      "inputs": [],
      "name": "symbol",
      "outputs": [
        {
          "internalType": "string",
          "name": "",
          "type": "string"
        }
      ],
      "stateMutability": "view",
      "type": "function",
      "constant": true
    },
    {
      "inputs": [
        {
          "internalType": "uint256",
          "name": "tokenId",
          "type": "uint256"
        }
      ],
      "name": "tokenURI",
      "outputs": [
        {
          "internalType": "string",
          "name": "",
          "type": "string"
        }
      ],
      "stateMutability": "view",
      "type": "function",
      "constant": true
    },
    {
      "inputs": [
        {
          "internalType": "address",
          "name": "from",
          "type": "address"
        },
        {
          "internalType": "address",
          "name": "to",
          "type": "address"
        },
        {
          "internalType": "uint256",
          "name": "tokenId",
          "type": "uint256"
        }
      ],
      "name": "transferFrom",
      "outputs": [],
      "stateMutability": "nonpayable",
      "type": "function"
    },
    {
      "inputs": [
        {
          "internalType": "address",
          "name": "newOwner",
          "type": "address"
        }
      ],
      "name": "transferOwnership",
      "outputs": [],
      "stateMutability": "nonpayable",
      "type": "function"
    },
    {
      "inputs": [
        {
          "internalType": "uint256",
          "name": "_mintFee",
          "type": "uint256"
        },
        {
          "internalType": "uint256",
          "name": "_healFee",
          "type": "uint256"
        },
        {
          "internalType": "uint256",
          "name": "_fightFee",
          "type": "uint256"
        }
      ],
      "name": "updateFees",
      "outputs": [],
      "stateMutability": "nonpayable",
      "type": "function"
    },
    {
      "inputs": [],
      "name": "withdraw",
      "outputs": [],
      "stateMutability": "nonpayable",
      "type": "function"
    },
    {
      "inputs": [
        {
          "internalType": "enum NFTGameToken.type_character",
          "name": "_typeCharacter",
          "type": "uint8"
        }
      ],
      "name": "createCharacter",
      "outputs": [],
      "stateMutability": "payable",
      "type": "function",
      "payable": true
    },
    {
      "inputs": [
        {
          "internalType": "uint256",
          "name": "_tokenId",
          "type": "uint256"
        }
      ],
      "name": "heal",
      "outputs": [],
      "stateMutability": "payable",
      "type": "function",
      "payable": true
    },
    {
      "inputs": [
        {
          "internalType": "uint256",
          "name": "_myTokenId",
          "type": "uint256"
        },
        {
          "internalType": "uint256",
          "name": "_rivalTokenId",
          "type": "uint256"
        }
      ],
      "name": "fight",
      "outputs": [],
      "stateMutability": "payable",
      "type": "function",
      "payable": true
    },
    {
      "inputs": [
        {
          "internalType": "uint256",
          "name": "_tokenId",
          "type": "uint256"
        }
      ],
      "name": "getTokenDetails",
      "outputs": [
        {
          "components": [
            {
              "internalType": "uint256",
              "name": "id",
              "type": "uint256"
            },
            {
              "internalType": "uint256",
              "name": "dna",
              "type": "uint256"
            },
            {
              "internalType": "uint256",
              "name": "xp",
              "type": "uint256"
            },
            {
              "internalType": "uint256",
              "name": "hp",
              "type": "uint256"
            },
            {
              "internalType": "uint8",
              "name": "attack",
              "type": "uint8"
            },
            {
              "internalType": "uint8",
              "name": "armor",
              "type": "uint8"
            },
            {
              "internalType": "uint8",
              "name": "mana",
              "type": "uint8"
            },
            {
              "internalType": "uint8",
              "name": "magicResistance",
              "type": "uint8"
            },
            {
              "internalType": "enum NFTGameToken.type_character",
              "name": "typeCharacter",
              "type": "uint8"
            }
          ],
          "internalType": "struct NFTGameToken.Character",
          "name": "",
          "type": "tuple"
        }
      ],
      "stateMutability": "view",
      "type": "function",
      "constant": true
    },
    {
      "inputs": [],
      "name": "getMyCharacters",
      "outputs": [
        {
          "components": [
            {
              "internalType": "uint256",
              "name": "id",
              "type": "uint256"
            },
            {
              "internalType": "uint256",
              "name": "dna",
              "type": "uint256"
            },
            {
              "internalType": "uint256",
              "name": "xp",
              "type": "uint256"
            },
            {
              "internalType": "uint256",
              "name": "hp",
              "type": "uint256"
            },
            {
              "internalType": "uint8",
              "name": "attack",
              "type": "uint8"
            },
            {
              "internalType": "uint8",
              "name": "armor",
              "type": "uint8"
            },
            {
              "internalType": "uint8",
              "name": "mana",
              "type": "uint8"
            },
            {
              "internalType": "uint8",
              "name": "magicResistance",
              "type": "uint8"
            },
            {
              "internalType": "enum NFTGameToken.type_character",
              "name": "typeCharacter",
              "type": "uint8"
            }
          ],
          "internalType": "struct NFTGameToken.Character[]",
          "name": "",
          "type": "tuple[]"
        }
      ],
      "stateMutability": "view",
      "type": "function",
      "constant": true
    },
    {
      "inputs": [],
      "name": "getOthersCharacters",
      "outputs": [
        {
          "components": [
            {
              "internalType": "uint256",
              "name": "id",
              "type": "uint256"
            },
            {
              "internalType": "uint256",
              "name": "dna",
              "type": "uint256"
            },
            {
              "internalType": "uint256",
              "name": "xp",
              "type": "uint256"
            },
            {
              "internalType": "uint256",
              "name": "hp",
              "type": "uint256"
            },
            {
              "internalType": "uint8",
              "name": "attack",
              "type": "uint8"
            },
            {
              "internalType": "uint8",
              "name": "armor",
              "type": "uint8"
            },
            {
              "internalType": "uint8",
              "name": "mana",
              "type": "uint8"
            },
            {
              "internalType": "uint8",
              "name": "magicResistance",
              "type": "uint8"
            },
            {
              "internalType": "enum NFTGameToken.type_character",
              "name": "typeCharacter",
              "type": "uint8"
            }
          ],
          "internalType": "struct NFTGameToken.Character[]",
          "name": "",
          "type": "tuple[]"
        }
      ],
      "stateMutability": "view",
      "type": "function",
      "constant": true
    },
    {
      "inputs": [],
      "name": "getAllCharacters",
      "outputs": [
        {
          "components": [
            {
              "internalType": "uint256",
              "name": "id",
              "type": "uint256"
            },
            {
              "internalType": "uint256",
              "name": "dna",
              "type": "uint256"
            },
            {
              "internalType": "uint256",
              "name": "xp",
              "type": "uint256"
            },
            {
              "internalType": "uint256",
              "name": "hp",
              "type": "uint256"
            },
            {
              "internalType": "uint8",
              "name": "attack",
              "type": "uint8"
            },
            {
              "internalType": "uint8",
              "name": "armor",
              "type": "uint8"
            },
            {
              "internalType": "uint8",
              "name": "mana",
              "type": "uint8"
            },
            {
              "internalType": "uint8",
              "name": "magicResistance",
              "type": "uint8"
            },
            {
              "internalType": "enum NFTGameToken.type_character",
              "name": "typeCharacter",
              "type": "uint8"
            }
          ],
          "internalType": "struct NFTGameToken.Character[]",
          "name": "",
          "type": "tuple[]"
        }
      ],
      "stateMutability": "view",
      "type": "function",
      "constant": true
    }
  ],
  "bytecode": "0x60806040526000600755670de0b6b3a764000060085566038d7ea4c6800060095566038d7ea4c68000600a553480156200003857600080fd5b506040518060400160405280600c81526020017f4e465447616d65546f6b656e00000000000000000000000000000000000000008152506040518060400160405280600481526020017f4e465447000000000000000000000000000000000000000000000000000000008152508160009080519060200190620000bd929190620001df565b508060019080519060200190620000d6929190620001df565b5050506200010b620000f662000111640100000000026401000000009004565b62000119640100000000026401000000009004565b620002f4565b600033905090565b6000600660009054906101000a900473ffffffffffffffffffffffffffffffffffffffff16905081600660006101000a81548173ffffffffffffffffffffffffffffffffffffffff021916908373ffffffffffffffffffffffffffffffffffffffff1602179055508173ffffffffffffffffffffffffffffffffffffffff168173ffffffffffffffffffffffffffffffffffffffff167f8be0079c531659141344cd1fd0a4f28419497f9722a3daafe3b4186f6b6457e060405160405180910390a35050565b828054620001ed90620002be565b90600052602060002090601f0160209004810192826200021157600085556200025d565b82601f106200022c57805160ff19168380011785556200025d565b828001600101855582156200025d579182015b828111156200025c5782518255916020019190600101906200023f565b5b5090506200026c919062000270565b5090565b5b808211156200028b57600081600090555060010162000271565b5090565b7f4e487b7100000000000000000000000000000000000000000000000000000000600052602260045260246000fd5b60006002820490506001821680620002d757607f821691505b60208210811415620002ee57620002ed6200028f565b5b50919050565b614c4f80620003046000396000f3fe608060405260043610610183576000357c010000000000000000000000000000000000000000000000000000000090048063715018a6116100ee578063b88d4fde116100a7578063ca39e5ef11610081578063ca39e5ef14610538578063e985e9c514610554578063f2fde38b14610591578063f37ac61c146105ba57610183565b8063b88d4fde14610495578063c1e03728146104be578063c87b56dd146104fb57610183565b8063715018a6146103b857806383e56dca146103cf5780638da5cb5b146103fa57806395d89b4114610425578063a22cb46514610450578063b57da3b11461047957610183565b80633c4739d3116101405780633c4739d3146102a85780633ccfd60b146102d357806342842e0e146102ea5780634fb97a10146103135780636352211e1461033e57806370a082311461037b57610183565b806301ffc9a71461018857806306fdde03146101c5578063081812fc146101f0578063095ea7b31461022d578063224290851461025657806323b872dd1461027f575b600080fd5b34801561019457600080fd5b506101af60048036038101906101aa9190613263565b6105d6565b6040516101bc91906132ab565b60405180910390f35b3480156101d157600080fd5b506101da6106b8565b6040516101e7919061335f565b60405180910390f35b3480156101fc57600080fd5b50610217600480360381019061021291906133b7565b61074a565b6040516102249190613425565b60405180910390f35b34801561023957600080fd5b50610254600480360381019061024f919061346c565b6107cf565b005b34801561026257600080fd5b5061027d600480360381019061027891906134ac565b6108e7565b005b34801561028b57600080fd5b506102a660048036038101906102a191906134ff565b61097d565b005b3480156102b457600080fd5b506102bd6109dd565b6040516102ca919061375b565b60405180910390f35b3480156102df57600080fd5b506102e8610bcb565b005b3480156102f657600080fd5b50610311600480360381019061030c91906134ff565b610cae565b005b34801561031f57600080fd5b50610328610cce565b604051610335919061375b565b60405180910390f35b34801561034a57600080fd5b50610365600480360381019061036091906133b7565b610ec8565b6040516103729190613425565b60405180910390f35b34801561038757600080fd5b506103a2600480360381019061039d919061377d565b610f7a565b6040516103af91906137b9565b60405180910390f35b3480156103c457600080fd5b506103cd611032565b005b3480156103db57600080fd5b506103e46110ba565b6040516103f1919061375b565b60405180910390f35b34801561040657600080fd5b5061040f611252565b60405161041c9190613425565b60405180910390f35b34801561043157600080fd5b5061043a61127c565b604051610447919061335f565b60405180910390f35b34801561045c57600080fd5b5061047760048036038101906104729190613800565b61130e565b005b610493600480360381019061048e9190613865565b611324565b005b3480156104a157600080fd5b506104bc60048036038101906104b791906139c7565b611986565b005b3480156104ca57600080fd5b506104e560048036038101906104e091906133b7565b6119e8565b6040516104f29190613b01565b60405180910390f35b34801561050757600080fd5b50610522600480360381019061051d91906133b7565b611aed565b60405161052f919061335f565b60405180910390f35b610552600480360381019061054d9190613b1d565b611b94565b005b34801561056057600080fd5b5061057b60048036038101906105769190613b5d565b6120d7565b60405161058891906132ab565b60405180910390f35b34801561059d57600080fd5b506105b860048036038101906105b3919061377d565b61216b565b005b6105d460048036038101906105cf91906133b7565b612263565b005b60007f80ac58cd000000000000000000000000000000000000000000000000000000007bffffffffffffffffffffffffffffffffffffffffffffffffffffffff1916827bffffffffffffffffffffffffffffffffffffffffffffffffffffffff191614806106a157507f5b5e139f000000000000000000000000000000000000000000000000000000007bffffffffffffffffffffffffffffffffffffffffffffffffffffffff1916827bffffffffffffffffffffffffffffffffffffffffffffffffffffffff1916145b806106b157506106b082612431565b5b9050919050565b6060600080546106c790613bcc565b80601f01602080910402602001604051908101604052809291908181526020018280546106f390613bcc565b80156107405780601f1061071557610100808354040283529160200191610740565b820191906000526020600020905b81548152906001019060200180831161072357829003601f168201915b5050505050905090565b60006107558261249b565b610794576040517f08c379a000000000000000000000000000000000000000000000000000000000815260040161078b90613c70565b60405180910390fd5b6004600083815260200190815260200160002060009054906101000a900473ffffffffffffffffffffffffffffffffffffffff169050919050565b60006107da82610ec8565b90508073ffffffffffffffffffffffffffffffffffffffff168373ffffffffffffffffffffffffffffffffffffffff16141561084b576040517f08c379a000000000000000000000000000000000000000000000000000000000815260040161084290613d02565b60405180910390fd5b8073ffffffffffffffffffffffffffffffffffffffff1661086a612507565b73ffffffffffffffffffffffffffffffffffffffff161480610899575061089881610893612507565b6120d7565b5b6108d8576040517f08c379a00000000000000000000000000000000000000000000000000000000081526004016108cf90613d94565b60405180910390fd5b6108e2838361250f565b505050565b6108ef612507565b73ffffffffffffffffffffffffffffffffffffffff1661090d611252565b73ffffffffffffffffffffffffffffffffffffffff1614610963576040517f08c379a000000000000000000000000000000000000000000000000000000000815260040161095a90613e00565b60405180910390fd5b826008819055508160098190555080600a81905550505050565b61098e610988612507565b826125c8565b6109cd576040517f08c379a00000000000000000000000000000000000000000000000000000000081526004016109c490613e92565b60405180910390fd5b6109d88383836126a6565b505050565b60606000806109eb33610f7a565b67ffffffffffffffff811115610a0457610a0361389c565b5b604051908082528060200260200182016040528015610a3d57816020015b610a2a61318d565b815260200190600190039081610a225790505b50905060005b600754811015610bc2573373ffffffffffffffffffffffffffffffffffffffff16610a6d82610ec8565b73ffffffffffffffffffffffffffffffffffffffff161415610baf57600b600082815260200190815260200160002060405180610120016040529081600082015481526020016001820154815260200160028201548152602001600382015481526020016004820160009054906101000a900460ff1660ff1660ff1681526020016004820160019054906101000a900460ff1660ff1660ff1681526020016004820160029054906101000a900460ff1660ff1660ff1681526020016004820160039054906101000a900460ff1660ff1660ff1681526020016004820160049054906101000a900460ff166002811115610b6957610b686135a9565b5b6002811115610b7b57610b7a6135a9565b5b81525050828460ff1681518110610b9557610b94613eb2565b5b60200260200101819052508280610bab90613f10565b9350505b8080610bba90613f3a565b915050610a43565b50809250505090565b610bd3612507565b73ffffffffffffffffffffffffffffffffffffffff16610bf1611252565b73ffffffffffffffffffffffffffffffffffffffff1614610c47576040517f08c379a0000000000000000000000000000000000000000000000000000000008152600401610c3e90613e00565b60405180910390fd5b610c4f611252565b73ffffffffffffffffffffffffffffffffffffffff166108fc3073ffffffffffffffffffffffffffffffffffffffff16319081150290604051600060405180830381858888f19350505050158015610cab573d6000803e3d6000fd5b50565b610cc983838360405180602001604052806000815250611986565b505050565b6060600080610cdc33610f7a565b600754610ce99190613f83565b67ffffffffffffffff811115610d0257610d0161389c565b5b604051908082528060200260200182016040528015610d3b57816020015b610d2861318d565b815260200190600190039081610d205790505b50905060005b600754811015610ebf573373ffffffffffffffffffffffffffffffffffffffff16610d6b82610ec8565b73ffffffffffffffffffffffffffffffffffffffff1614610eac57600b600082815260200190815260200160002060405180610120016040529081600082015481526020016001820154815260200160028201548152602001600382015481526020016004820160009054906101000a900460ff1660ff1660ff1681526020016004820160019054906101000a900460ff1660ff1660ff1681526020016004820160029054906101000a900460ff1660ff1660ff1681526020016004820160039054906101000a900460ff1660ff1660ff1681526020016004820160049054906101000a900460ff166002811115610e6657610e656135a9565b5b6002811115610e7857610e776135a9565b5b81525050828460ff1681518110610e9257610e91613eb2565b5b60200260200101819052508280610ea890613f10565b9350505b8080610eb790613f3a565b915050610d41565b50809250505090565b6000806002600084815260200190815260200160002060009054906101000a900473ffffffffffffffffffffffffffffffffffffffff169050600073ffffffffffffffffffffffffffffffffffffffff168173ffffffffffffffffffffffffffffffffffffffff161415610f71576040517f08c379a0000000000000000000000000000000000000000000000000000000008152600401610f6890614029565b60405180910390fd5b80915050919050565b60008073ffffffffffffffffffffffffffffffffffffffff168273ffffffffffffffffffffffffffffffffffffffff161415610feb576040517f08c379a0000000000000000000000000000000000000000000000000000000008152600401610fe2906140bb565b60405180910390fd5b600360008373ffffffffffffffffffffffffffffffffffffffff1673ffffffffffffffffffffffffffffffffffffffff168152602001908152602001600020549050919050565b61103a612507565b73ffffffffffffffffffffffffffffffffffffffff16611058611252565b73ffffffffffffffffffffffffffffffffffffffff16146110ae576040517f08c379a00000000000000000000000000000000000000000000000000000000081526004016110a590613e00565b60405180910390fd5b6110b86000612902565b565b6060600060075467ffffffffffffffff8111156110da576110d961389c565b5b60405190808252806020026020018201604052801561111357816020015b61110061318d565b8152602001906001900390816110f85790505b50905060005b60075481101561124a57600b600082815260200190815260200160002060405180610120016040529081600082015481526020016001820154815260200160028201548152602001600382015481526020016004820160009054906101000a900460ff1660ff1660ff1681526020016004820160019054906101000a900460ff1660ff1660ff1681526020016004820160029054906101000a900460ff1660ff1660ff1681526020016004820160039054906101000a900460ff1660ff1660ff1681526020016004820160049054906101000a900460ff166002811115611203576112026135a9565b5b6002811115611215576112146135a9565b5b8152505082828151811061122c5761122b613eb2565b5b6020026020010181905250808061124290613f3a565b915050611119565b508091505090565b6000600660009054906101000a900473ffffffffffffffffffffffffffffffffffffffff16905090565b60606001805461128b90613bcc565b80601f01602080910402602001604051908101604052809291908181526020018280546112b790613bcc565b80156113045780601f106112d957610100808354040283529160200191611304565b820191906000526020600020905b8154815290600101906020018083116112e757829003601f168201915b5050505050905090565b611320611319612507565b83836129c8565b5050565b6008543414611368576040517f08c379a000000000000000000000000000000000000000000000000000000000815260040161135f90614127565b60405180910390fd5b600561137333610f7a565b106113b3576040517f08c379a00000000000000000000000000000000000000000000000000000000081526004016113aa90614193565b60405180910390fd5b600060028111156113c7576113c66135a9565b5b8160028111156113da576113d96135a9565b5b148061140a5750600160028111156113f5576113f46135a9565b5b816002811115611408576114076135a9565b5b145b806114385750600280811115611423576114226135a9565b5b816002811115611436576114356135a9565b5b145b611477576040517f08c379a000000000000000000000000000000000000000000000000000000000815260040161146e90614225565b60405180910390fd5b6000611489662386f26fc10000612b35565b90506000600281111561149f5761149e6135a9565b5b8260028111156114b2576114b16135a9565b5b14156116155760405180610120016040528060075481526020018281526020016001815260200160648152602001600560ff168152602001600360ff168152602001600160ff168152602001600160ff1681526020016000600281111561151c5761151b6135a9565b5b815250600b600060075481526020019081526020016000206000820151816000015560208201518160010155604082015181600201556060820151816003015560808201518160040160006101000a81548160ff021916908360ff16021790555060a08201518160040160016101000a81548160ff021916908360ff16021790555060c08201518160040160026101000a81548160ff021916908360ff16021790555060e08201518160040160036101000a81548160ff021916908360ff1602179055506101008201518160040160046101000a81548160ff0219169083600281111561160c5761160b6135a9565b5b02179055509050505b60016002811115611629576116286135a9565b5b82600281111561163c5761163b6135a9565b5b141561179f5760405180610120016040528060075481526020018281526020016001815260200160648152602001600160ff168152602001600160ff168152602001600560ff168152602001600360ff168152602001600160028111156116a6576116a56135a9565b5b815250600b600060075481526020019081526020016000206000820151816000015560208201518160010155604082015181600201556060820151816003015560808201518160040160006101000a81548160ff021916908360ff16021790555060a08201518160040160016101000a81548160ff021916908360ff16021790555060c08201518160040160026101000a81548160ff021916908360ff16021790555060e08201518160040160036101000a81548160ff021916908360ff1602179055506101008201518160040160046101000a81548160ff02191690836002811115611796576117956135a9565b5b02179055509050505b6002808111156117b2576117b16135a9565b5b8260028111156117c5576117c46135a9565b5b14156119275760405180610120016040528060075481526020018281526020016001815260200160648152602001600260ff168152602001600260ff168152602001600360ff168152602001600360ff16815260200160028081111561182e5761182d6135a9565b5b815250600b600060075481526020019081526020016000206000820151816000015560208201518160010155604082015181600201556060820151816003015560808201518160040160006101000a81548160ff021916908360ff16021790555060a08201518160040160016101000a81548160ff021916908360ff16021790555060c08201518160040160026101000a81548160ff021916908360ff16021790555060e08201518160040160036101000a81548160ff021916908360ff1602179055506101008201518160040160046101000a81548160ff0219169083600281111561191e5761191d6135a9565b5b02179055509050505b61193333600754612b7b565b6007600081548092919061194690613f3a565b91905055507f7f0777865312bae358531b42d9c405a59bfd31beba1973946dc0ce134cad418a8160405161197a91906137b9565b60405180910390a15050565b611997611991612507565b836125c8565b6119d6576040517f08c379a00000000000000000000000000000000000000000000000000000000081526004016119cd90613e92565b60405180910390fd5b6119e284848484612b99565b50505050565b6119f061318d565b600b600083815260200190815260200160002060405180610120016040529081600082015481526020016001820154815260200160028201548152602001600382015481526020016004820160009054906101000a900460ff1660ff1660ff1681526020016004820160019054906101000a900460ff1660ff1660ff1681526020016004820160029054906101000a900460ff1660ff1660ff1681526020016004820160039054906101000a900460ff1660ff1660ff1681526020016004820160049054906101000a900460ff166002811115611ad057611acf6135a9565b5b6002811115611ae257611ae16135a9565b5b815250509050919050565b6060611af88261249b565b611b37576040517f08c379a0000000000000000000000000000000000000000000000000000000008152600401611b2e906142b7565b60405180910390fd5b6000611b41612bf5565b90506000815111611b615760405180602001604052806000815250611b8c565b80611b6b84612c0c565b604051602001611b7c929190614313565b6040516020818303038152906040525b915050919050565b600a543414611bd8576040517f08c379a0000000000000000000000000000000000000000000000000000000008152600401611bcf90614127565b60405180910390fd5b3373ffffffffffffffffffffffffffffffffffffffff16611bf883610ec8565b73ffffffffffffffffffffffffffffffffffffffff1614611c4e576040517f08c379a0000000000000000000000000000000000000000000000000000000008152600401611c4590614383565b60405180910390fd5b611c5781610ec8565b73ffffffffffffffffffffffffffffffffffffffff16611c7683610ec8565b73ffffffffffffffffffffffffffffffffffffffff161415611ccd576040517f08c379a0000000000000000000000000000000000000000000000000000000008152600401611cc490614415565b60405180910390fd5b6000600b600084815260200190815260200160002060030154118015611d0957506000600b600083815260200190815260200160002060030154115b611d48576040517f08c379a0000000000000000000000000000000000000000000000000000000008152600401611d3f90614481565b60405180910390fd5b60006002600b600084815260200190815260200160002060020154600b600085815260200190815260200160002060040160019054906101000a900460ff1660ff16611d9491906144a1565b611d9e919061452a565b600b600085815260200190815260200160002060020154600b600086815260200190815260200160002060040160009054906101000a900460ff1660ff16611de691906144a1565b611df09190613f83565b905060006002600b600086815260200190815260200160002060020154600b600087815260200190815260200160002060040160019054906101000a900460ff1660ff16611e3e91906144a1565b611e48919061452a565b600b600085815260200190815260200160002060020154600b600086815260200190815260200160002060040160009054906101000a900460ff1660ff16611e9091906144a1565b611e9a9190613f83565b9050600b6000848152602001908152602001600020600301548210611f06576000600b600085815260200190815260200160002060030181905550600b60008581526020019081526020016000206002016000815480929190611efc90613f3a565b9190505550612098565b81600b60008581526020019081526020016000206003016000828254611f2c9190613f83565b92505081905550600b6000858152602001908152602001600020600301548110611f9d576000600b600086815260200190815260200160002060030181905550600b60008481526020019081526020016000206002016000815480929190611f9390613f3a565b9190505550612097565b80600b60008681526020019081526020016000206003016000828254611fc39190613f83565b925050819055508082111561200357600b60008581526020019081526020016000206002016000815480929190611ff990613f3a565b9190505550612096565b8181111561203c57600b6000848152602001908152602001600020600201600081548092919061203290613f3a565b9190505550612095565b600b6000858152602001908152602001600020600201600081548092919061206390613f3a565b9190505550600b6000848152602001908152602001600020600201600081548092919061208f90613f3a565b91905055505b5b5b5b7f3091eee003227e729a107b16d196b7183b2c41fba5bd0e30c55afcaff645edc484846040516120c992919061455b565b60405180910390a150505050565b6000600560008473ffffffffffffffffffffffffffffffffffffffff1673ffffffffffffffffffffffffffffffffffffffff16815260200190815260200160002060008373ffffffffffffffffffffffffffffffffffffffff1673ffffffffffffffffffffffffffffffffffffffff16815260200190815260200160002060009054906101000a900460ff16905092915050565b612173612507565b73ffffffffffffffffffffffffffffffffffffffff16612191611252565b73ffffffffffffffffffffffffffffffffffffffff16146121e7576040517f08c379a00000000000000000000000000000000000000000000000000000000081526004016121de90613e00565b60405180910390fd5b600073ffffffffffffffffffffffffffffffffffffffff168173ffffffffffffffffffffffffffffffffffffffff161415612257576040517f08c379a000000000000000000000000000000000000000000000000000000000815260040161224e906145f6565b60405180910390fd5b61226081612902565b50565b60095434146122a7576040517f08c379a000000000000000000000000000000000000000000000000000000000815260040161229e90614127565b60405180910390fd5b3373ffffffffffffffffffffffffffffffffffffffff166122c782610ec8565b73ffffffffffffffffffffffffffffffffffffffff161461231d576040517f08c379a000000000000000000000000000000000000000000000000000000000815260040161231490614383565b60405180910390fd5b6000600b60008381526020019081526020016000206003015411612376576040517f08c379a000000000000000000000000000000000000000000000000000000000815260040161236d90614662565b60405180910390fd5b60006032600b60008481526020019081526020016000206003015461239b9190614682565b905060648111156123c7576064600b6000848152602001908152602001600020600301819055506123f6565b6032600b600084815260200190815260200160002060030160008282546123ee9190614682565b925050819055505b7f8379605eab0a1d9aab85917b4375ba70864307e4d75406a1a2e05dd600c1629a8260405161242591906137b9565b60405180910390a15050565b60007f01ffc9a7000000000000000000000000000000000000000000000000000000007bffffffffffffffffffffffffffffffffffffffffffffffffffffffff1916827bffffffffffffffffffffffffffffffffffffffffffffffffffffffff1916149050919050565b60008073ffffffffffffffffffffffffffffffffffffffff166002600084815260200190815260200160002060009054906101000a900473ffffffffffffffffffffffffffffffffffffffff1673ffffffffffffffffffffffffffffffffffffffff1614159050919050565b600033905090565b816004600083815260200190815260200160002060006101000a81548173ffffffffffffffffffffffffffffffffffffffff021916908373ffffffffffffffffffffffffffffffffffffffff160217905550808273ffffffffffffffffffffffffffffffffffffffff1661258283610ec8565b73ffffffffffffffffffffffffffffffffffffffff167f8c5be1e5ebec7d5bd14f71427d1e84f3dd0314c0f7b2291e5b200ac8c7c3b92560405160405180910390a45050565b60006125d38261249b565b612612576040517f08c379a00000000000000000000000000000000000000000000000000000000081526004016126099061474a565b60405180910390fd5b600061261d83610ec8565b90508073ffffffffffffffffffffffffffffffffffffffff168473ffffffffffffffffffffffffffffffffffffffff16148061268c57508373ffffffffffffffffffffffffffffffffffffffff166126748461074a565b73ffffffffffffffffffffffffffffffffffffffff16145b8061269d575061269c81856120d7565b5b91505092915050565b8273ffffffffffffffffffffffffffffffffffffffff166126c682610ec8565b73ffffffffffffffffffffffffffffffffffffffff161461271c576040517f08c379a0000000000000000000000000000000000000000000000000000000008152600401612713906147dc565b60405180910390fd5b600073ffffffffffffffffffffffffffffffffffffffff168273ffffffffffffffffffffffffffffffffffffffff16141561278c576040517f08c379a00000000000000000000000000000000000000000000000000000000081526004016127839061486e565b60405180910390fd5b612797838383612d8c565b6127a260008261250f565b6001600360008573ffffffffffffffffffffffffffffffffffffffff1673ffffffffffffffffffffffffffffffffffffffff16815260200190815260200160002060008282546127f29190613f83565b925050819055506001600360008473ffffffffffffffffffffffffffffffffffffffff1673ffffffffffffffffffffffffffffffffffffffff16815260200190815260200160002060008282546128499190614682565b92505081905550816002600083815260200190815260200160002060006101000a81548173ffffffffffffffffffffffffffffffffffffffff021916908373ffffffffffffffffffffffffffffffffffffffff160217905550808273ffffffffffffffffffffffffffffffffffffffff168473ffffffffffffffffffffffffffffffffffffffff167fddf252ad1be2c89b69c2b068fc378daa952ba7f163c4a11628f55a4df523b3ef60405160405180910390a4505050565b6000600660009054906101000a900473ffffffffffffffffffffffffffffffffffffffff16905081600660006101000a81548173ffffffffffffffffffffffffffffffffffffffff021916908373ffffffffffffffffffffffffffffffffffffffff1602179055508173ffffffffffffffffffffffffffffffffffffffff168173ffffffffffffffffffffffffffffffffffffffff167f8be0079c531659141344cd1fd0a4f28419497f9722a3daafe3b4186f6b6457e060405160405180910390a35050565b8173ffffffffffffffffffffffffffffffffffffffff168373ffffffffffffffffffffffffffffffffffffffff161415612a37576040517f08c379a0000000000000000000000000000000000000000000000000000000008152600401612a2e906148da565b60405180910390fd5b80600560008573ffffffffffffffffffffffffffffffffffffffff1673ffffffffffffffffffffffffffffffffffffffff16815260200190815260200160002060008473ffffffffffffffffffffffffffffffffffffffff1673ffffffffffffffffffffffffffffffffffffffff16815260200190815260200160002060006101000a81548160ff0219169083151502179055508173ffffffffffffffffffffffffffffffffffffffff168373ffffffffffffffffffffffffffffffffffffffff167f17307eab39ab6107e8899845ad3d59bd9653f200f220920489ca2b5937696c3183604051612b2891906132ab565b60405180910390a3505050565b6000804233604051602001612b4b92919061496f565b604051602081830303815290604052805190602001206001900490508281612b73919061499b565b915050919050565b612b95828260405180602001604052806000815250612d91565b5050565b612ba48484846126a6565b612bb084848484612dec565b612bef576040517f08c379a0000000000000000000000000000000000000000000000000000000008152600401612be690614a3e565b60405180910390fd5b50505050565b606060405180602001604052806000815250905090565b60606000821415612c54576040518060400160405280600181526020017f30000000000000000000000000000000000000000000000000000000000000008152509050612d87565b600082905060005b60008214612c86578080612c6f90613f3a565b915050600a82612c7f919061452a565b9150612c5c565b60008167ffffffffffffffff811115612ca257612ca161389c565b5b6040519080825280601f01601f191660200182016040528015612cd45781602001600182028036833780820191505090505b5090505b60008514612d8057600182612ced9190613f83565b9150600a85612cfc919061499b565b6030612d089190614682565b7f010000000000000000000000000000000000000000000000000000000000000002818381518110612d3d57612d3c613eb2565b5b60200101907effffffffffffffffffffffffffffffffffffffffffffffffffffffffffffff1916908160001a905350600a85612d79919061452a565b9450612cd8565b8093505050505b919050565b505050565b612d9b8383612fac565b612da86000848484612dec565b612de7576040517f08c379a0000000000000000000000000000000000000000000000000000000008152600401612dde90614a3e565b60405180910390fd5b505050565b6000612e0d8473ffffffffffffffffffffffffffffffffffffffff1661317a565b15612f9f578373ffffffffffffffffffffffffffffffffffffffff1663150b7a02612e36612507565b8786866040518563ffffffff167c0100000000000000000000000000000000000000000000000000000000028152600401612e749493929190614ab3565b6020604051808303816000875af1925050508015612eb057506040513d601f19601f82011682018060405250810190612ead9190614b14565b60015b612f33573d8060008114612ee0576040519150601f19603f3d011682016040523d82523d6000602084013e612ee5565b606091505b50600081511415612f2b576040517f08c379a0000000000000000000000000000000000000000000000000000000008152600401612f2290614a3e565b60405180910390fd5b805181602001fd5b63150b7a027c0100000000000000000000000000000000000000000000000000000000027bffffffffffffffffffffffffffffffffffffffffffffffffffffffff1916817bffffffffffffffffffffffffffffffffffffffffffffffffffffffff191614915050612fa4565b600190505b949350505050565b600073ffffffffffffffffffffffffffffffffffffffff168273ffffffffffffffffffffffffffffffffffffffff16141561301c576040517f08c379a000000000000000000000000000000000000000000000000000000000815260040161301390614b8d565b60405180910390fd5b6130258161249b565b15613065576040517f08c379a000000000000000000000000000000000000000000000000000000000815260040161305c90614bf9565b60405180910390fd5b61307160008383612d8c565b6001600360008473ffffffffffffffffffffffffffffffffffffffff1673ffffffffffffffffffffffffffffffffffffffff16815260200190815260200160002060008282546130c19190614682565b92505081905550816002600083815260200190815260200160002060006101000a81548173ffffffffffffffffffffffffffffffffffffffff021916908373ffffffffffffffffffffffffffffffffffffffff160217905550808273ffffffffffffffffffffffffffffffffffffffff16600073ffffffffffffffffffffffffffffffffffffffff167fddf252ad1be2c89b69c2b068fc378daa952ba7f163c4a11628f55a4df523b3ef60405160405180910390a45050565b600080823b905060008111915050919050565b60405180610120016040528060008152602001600081526020016000815260200160008152602001600060ff168152602001600060ff168152602001600060ff168152602001600060ff168152602001600060028111156131f1576131f06135a9565b5b81525090565b6000604051905090565b600080fd5b600080fd5b60007fffffffff0000000000000000000000000000000000000000000000000000000082169050919050565b6132408161320b565b811461324b57600080fd5b50565b60008135905061325d81613237565b92915050565b60006020828403121561327957613278613201565b5b60006132878482850161324e565b91505092915050565b60008115159050919050565b6132a581613290565b82525050565b60006020820190506132c0600083018461329c565b92915050565b600081519050919050565b600082825260208201905092915050565b60005b838110156133005780820151818401526020810190506132e5565b8381111561330f576000848401525b50505050565b6000601f19601f8301169050919050565b6000613331826132c6565b61333b81856132d1565b935061334b8185602086016132e2565b61335481613315565b840191505092915050565b600060208201905081810360008301526133798184613326565b905092915050565b6000819050919050565b61339481613381565b811461339f57600080fd5b50565b6000813590506133b18161338b565b92915050565b6000602082840312156133cd576133cc613201565b5b60006133db848285016133a2565b91505092915050565b600073ffffffffffffffffffffffffffffffffffffffff82169050919050565b600061340f826133e4565b9050919050565b61341f81613404565b82525050565b600060208201905061343a6000830184613416565b92915050565b61344981613404565b811461345457600080fd5b50565b60008135905061346681613440565b92915050565b6000806040838503121561348357613482613201565b5b600061349185828601613457565b92505060206134a2858286016133a2565b9150509250929050565b6000806000606084860312156134c5576134c4613201565b5b60006134d3868287016133a2565b93505060206134e4868287016133a2565b92505060406134f5868287016133a2565b9150509250925092565b60008060006060848603121561351857613517613201565b5b600061352686828701613457565b935050602061353786828701613457565b9250506040613548868287016133a2565b9150509250925092565b600081519050919050565b600082825260208201905092915050565b6000819050602082019050919050565b61358781613381565b82525050565b600060ff82169050919050565b6135a38161358d565b82525050565b7f4e487b7100000000000000000000000000000000000000000000000000000000600052602160045260246000fd5b600381106135e9576135e86135a9565b5b50565b60008190506135fa826135d8565b919050565b600061360a826135ec565b9050919050565b61361a816135ff565b82525050565b61012082016000820151613637600085018261357e565b50602082015161364a602085018261357e565b50604082015161365d604085018261357e565b506060820151613670606085018261357e565b506080820151613683608085018261359a565b5060a082015161369660a085018261359a565b5060c08201516136a960c085018261359a565b5060e08201516136bc60e085018261359a565b506101008201516136d1610100850182613611565b50505050565b60006136e38383613620565b6101208301905092915050565b6000602082019050919050565b600061370882613552565b613712818561355d565b935061371d8361356e565b8060005b8381101561374e57815161373588826136d7565b9750613740836136f0565b925050600181019050613721565b5085935050505092915050565b6000602082019050818103600083015261377581846136fd565b905092915050565b60006020828403121561379357613792613201565b5b60006137a184828501613457565b91505092915050565b6137b381613381565b82525050565b60006020820190506137ce60008301846137aa565b92915050565b6137dd81613290565b81146137e857600080fd5b50565b6000813590506137fa816137d4565b92915050565b6000806040838503121561381757613816613201565b5b600061382585828601613457565b9250506020613836858286016137eb565b9150509250929050565b6003811061384d57600080fd5b50565b60008135905061385f81613840565b92915050565b60006020828403121561387b5761387a613201565b5b600061388984828501613850565b91505092915050565b600080fd5b600080fd5b7f4e487b7100000000000000000000000000000000000000000000000000000000600052604160045260246000fd5b6138d482613315565b810181811067ffffffffffffffff821117156138f3576138f261389c565b5b80604052505050565b60006139066131f7565b905061391282826138cb565b919050565b600067ffffffffffffffff8211156139325761393161389c565b5b61393b82613315565b9050602081019050919050565b82818337600083830152505050565b600061396a61396584613917565b6138fc565b90508281526020810184848401111561398657613985613897565b5b613991848285613948565b509392505050565b600082601f8301126139ae576139ad613892565b5b81356139be848260208601613957565b91505092915050565b600080600080608085870312156139e1576139e0613201565b5b60006139ef87828801613457565b9450506020613a0087828801613457565b9350506040613a11878288016133a2565b925050606085013567ffffffffffffffff811115613a3257613a31613206565b5b613a3e87828801613999565b91505092959194509250565b61012082016000820151613a61600085018261357e565b506020820151613a74602085018261357e565b506040820151613a87604085018261357e565b506060820151613a9a606085018261357e565b506080820151613aad608085018261359a565b5060a0820151613ac060a085018261359a565b5060c0820151613ad360c085018261359a565b5060e0820151613ae660e085018261359a565b50610100820151613afb610100850182613611565b50505050565b600061012082019050613b176000830184613a4a565b92915050565b60008060408385031215613b3457613b33613201565b5b6000613b42858286016133a2565b9250506020613b53858286016133a2565b9150509250929050565b60008060408385031215613b7457613b73613201565b5b6000613b8285828601613457565b9250506020613b9385828601613457565b9150509250929050565b7f4e487b7100000000000000000000000000000000000000000000000000000000600052602260045260246000fd5b60006002820490506001821680613be457607f821691505b60208210811415613bf857613bf7613b9d565b5b50919050565b7f4552433732313a20617070726f76656420717565727920666f72206e6f6e657860008201527f697374656e7420746f6b656e0000000000000000000000000000000000000000602082015250565b6000613c5a602c836132d1565b9150613c6582613bfe565b604082019050919050565b60006020820190508181036000830152613c8981613c4d565b9050919050565b7f4552433732313a20617070726f76616c20746f2063757272656e74206f776e6560008201527f7200000000000000000000000000000000000000000000000000000000000000602082015250565b6000613cec6021836132d1565b9150613cf782613c90565b604082019050919050565b60006020820190508181036000830152613d1b81613cdf565b9050919050565b7f4552433732313a20617070726f76652063616c6c6572206973206e6f74206f7760008201527f6e6572206e6f7220617070726f76656420666f7220616c6c0000000000000000602082015250565b6000613d7e6038836132d1565b9150613d8982613d22565b604082019050919050565b60006020820190508181036000830152613dad81613d71565b9050919050565b7f4f776e61626c653a2063616c6c6572206973206e6f7420746865206f776e6572600082015250565b6000613dea6020836132d1565b9150613df582613db4565b602082019050919050565b60006020820190508181036000830152613e1981613ddd565b9050919050565b7f4552433732313a207472616e736665722063616c6c6572206973206e6f74206f60008201527f776e6572206e6f7220617070726f766564000000000000000000000000000000602082015250565b6000613e7c6031836132d1565b9150613e8782613e20565b604082019050919050565b60006020820190508181036000830152613eab81613e6f565b9050919050565b7f4e487b7100000000000000000000000000000000000000000000000000000000600052603260045260246000fd5b7f4e487b7100000000000000000000000000000000000000000000000000000000600052601160045260246000fd5b6000613f1b8261358d565b915060ff821415613f2f57613f2e613ee1565b5b600182019050919050565b6000613f4582613381565b91507fffffffffffffffffffffffffffffffffffffffffffffffffffffffffffffffff821415613f7857613f77613ee1565b5b600182019050919050565b6000613f8e82613381565b9150613f9983613381565b925082821015613fac57613fab613ee1565b5b828203905092915050565b7f4552433732313a206f776e657220717565727920666f72206e6f6e657869737460008201527f656e7420746f6b656e0000000000000000000000000000000000000000000000602082015250565b60006140136029836132d1565b915061401e82613fb7565b604082019050919050565b6000602082019050818103600083015261404281614006565b9050919050565b7f4552433732313a2062616c616e636520717565727920666f7220746865207a6560008201527f726f206164647265737300000000000000000000000000000000000000000000602082015250565b60006140a5602a836132d1565b91506140b082614049565b604082019050919050565b600060208201905081810360008301526140d481614098565b9050919050565b7f57726f6e6720616d6f756e74206f662066656573000000000000000000000000600082015250565b60006141116014836132d1565b915061411c826140db565b602082019050919050565b6000602082019050818103600083015261414081614104565b9050919050565b7f596f752063616e27742068617665206d6f7265207468616e2035204e46540000600082015250565b600061417d601e836132d1565b915061418882614147565b602082019050919050565b600060208201905081810360008301526141ac81614170565b9050919050565b7f596f75206d7573742063686f6f7365206265747765656e206265727365726b6560008201527f722c2073706972697475616c206f7220656c656d656e74617279000000000000602082015250565b600061420f603a836132d1565b915061421a826141b3565b604082019050919050565b6000602082019050818103600083015261423e81614202565b9050919050565b7f4552433732314d657461646174613a2055524920717565727920666f72206e6f60008201527f6e6578697374656e7420746f6b656e0000000000000000000000000000000000602082015250565b60006142a1602f836132d1565b91506142ac82614245565b604082019050919050565b600060208201905081810360008301526142d081614294565b9050919050565b600081905092915050565b60006142ed826132c6565b6142f781856142d7565b93506143078185602086016132e2565b80840191505092915050565b600061431f82856142e2565b915061432b82846142e2565b91508190509392505050565b7f596f75277265206e6f7420746865206f776e6572206f6620746865204e465400600082015250565b600061436d601f836132d1565b915061437882614337565b602082019050919050565b6000602082019050818103600083015261439c81614360565b9050919050565b7f596f7572204e4654732063616e6e6f742066696768742065616368206f74686560008201527f7200000000000000000000000000000000000000000000000000000000000000602082015250565b60006143ff6021836132d1565b915061440a826143a3565b604082019050919050565b6000602082019050818103600083015261442e816143f2565b9050919050565b7f4f6e65206f6620746865204e4654732069732064656164000000000000000000600082015250565b600061446b6017836132d1565b915061447682614435565b602082019050919050565b6000602082019050818103600083015261449a8161445e565b9050919050565b60006144ac82613381565b91506144b783613381565b9250817fffffffffffffffffffffffffffffffffffffffffffffffffffffffffffffffff04831182151516156144f0576144ef613ee1565b5b828202905092915050565b7f4e487b7100000000000000000000000000000000000000000000000000000000600052601260045260246000fd5b600061453582613381565b915061454083613381565b9250826145505761454f6144fb565b5b828204905092915050565b600060408201905061457060008301856137aa565b61457d60208301846137aa565b9392505050565b7f4f776e61626c653a206e6577206f776e657220697320746865207a65726f206160008201527f6464726573730000000000000000000000000000000000000000000000000000602082015250565b60006145e06026836132d1565b91506145eb82614584565b604082019050919050565b6000602082019050818103600083015261460f816145d3565b9050919050565b7f596f75277265204e465420697320646561640000000000000000000000000000600082015250565b600061464c6012836132d1565b915061465782614616565b602082019050919050565b6000602082019050818103600083015261467b8161463f565b9050919050565b600061468d82613381565b915061469883613381565b9250827fffffffffffffffffffffffffffffffffffffffffffffffffffffffffffffffff038211156146cd576146cc613ee1565b5b828201905092915050565b7f4552433732313a206f70657261746f7220717565727920666f72206e6f6e657860008201527f697374656e7420746f6b656e0000000000000000000000000000000000000000602082015250565b6000614734602c836132d1565b915061473f826146d8565b604082019050919050565b6000602082019050818103600083015261476381614727565b9050919050565b7f4552433732313a207472616e73666572206f6620746f6b656e2074686174206960008201527f73206e6f74206f776e0000000000000000000000000000000000000000000000602082015250565b60006147c66029836132d1565b91506147d18261476a565b604082019050919050565b600060208201905081810360008301526147f5816147b9565b9050919050565b7f4552433732313a207472616e7366657220746f20746865207a65726f2061646460008201527f7265737300000000000000000000000000000000000000000000000000000000602082015250565b60006148586024836132d1565b9150614863826147fc565b604082019050919050565b600060208201905081810360008301526148878161484b565b9050919050565b7f4552433732313a20617070726f766520746f2063616c6c657200000000000000600082015250565b60006148c46019836132d1565b91506148cf8261488e565b602082019050919050565b600060208201905081810360008301526148f3816148b7565b9050919050565b6000819050919050565b61491561491082613381565b6148fa565b82525050565b60006c0100000000000000000000000082029050919050565b600061493f8261491b565b9050919050565b600061495182614934565b9050919050565b61496961496482613404565b614946565b82525050565b600061497b8285614904565b60208201915061498b8284614958565b6014820191508190509392505050565b60006149a682613381565b91506149b183613381565b9250826149c1576149c06144fb565b5b828206905092915050565b7f4552433732313a207472616e7366657220746f206e6f6e20455243373231526560008201527f63656976657220696d706c656d656e7465720000000000000000000000000000602082015250565b6000614a286032836132d1565b9150614a33826149cc565b604082019050919050565b60006020820190508181036000830152614a5781614a1b565b9050919050565b600081519050919050565b600082825260208201905092915050565b6000614a8582614a5e565b614a8f8185614a69565b9350614a9f8185602086016132e2565b614aa881613315565b840191505092915050565b6000608082019050614ac86000830187613416565b614ad56020830186613416565b614ae260408301856137aa565b8181036060830152614af48184614a7a565b905095945050505050565b600081519050614b0e81613237565b92915050565b600060208284031215614b2a57614b29613201565b5b6000614b3884828501614aff565b91505092915050565b7f4552433732313a206d696e7420746f20746865207a65726f2061646472657373600082015250565b6000614b776020836132d1565b9150614b8282614b41565b602082019050919050565b60006020820190508181036000830152614ba681614b6a565b9050919050565b7f4552433732313a20746f6b656e20616c7265616479206d696e74656400000000600082015250565b6000614be3601c836132d1565b9150614bee82614bad565b602082019050919050565b60006020820190508181036000830152614c1281614bd6565b905091905056fea2646970667358221220efcacb4c670aab09b71f08a608af5a6e65ee93f65ca1bc82e8211ba0edae943864736f6c634300080a0033",
  "immutableReferences": {},
  "source": "// SPDX-License-Identifier: MIT\r\npragma solidity 0.8.10;\r\n\r\nimport \"@openzeppelin/contracts/token/ERC721/ERC721.sol\";\r\nimport \"@openzeppelin/contracts/access/Ownable.sol\";\r\n\r\ncontract NFTGameToken is ERC721, Ownable {\r\n\r\n    constructor() ERC721(\"NFTGameToken\", \"NFTG\") {}\r\n\r\n    enum type_character { BERSERKER, SPIRITUAL, ELEMENTARY }\r\n    uint256 nextId = 0;\r\n    uint256 mintFee = 1 ether;\r\n    uint256 healFee = 0.001 ether;\r\n    uint256 fightFee = 0.001 ether;\r\n\r\n    struct Character {\r\n        uint256 id;\r\n        uint256 dna;\r\n        // uint8 level;\r\n        uint256 xp;\r\n        uint256 hp;\r\n        uint8 attack;\r\n        uint8 armor;\r\n        // uint8 speed;     \r\n        uint8 mana;\r\n        uint8 magicResistance;\r\n        type_character typeCharacter;\r\n    }\r\n\r\n    mapping(uint256 => Character) private _characterDetails;\r\n\r\n    // events\r\n    event CharacterCreated(uint256 dna);\r\n    event Healed(uint tokenId);\r\n    event Fighted(uint myTokenId, uint rivalTokenId);\r\n\r\n    // Helper\r\n    function _generateRandomNum(uint256 _mod) internal view returns(uint256) {\r\n        uint256 randNum = uint256(keccak256(abi.encodePacked(block.timestamp, msg.sender)));\r\n        return randNum % _mod;\r\n    }\r\n    \r\n    function updateFees(uint256 _mintFee, uint256 _healFee, uint256 _fightFee) external onlyOwner() {\r\n        mintFee = _mintFee;\r\n        healFee = _healFee;\r\n        fightFee = _fightFee;\r\n    }\r\n    \r\n    function withdraw() external onlyOwner() {\r\n        payable(owner()).transfer(address(this).balance);\r\n    }\r\n\r\n    function createCharacter(type_character _typeCharacter) external payable {\r\n        require(msg.value == mintFee, \"Wrong amount of fees\");\r\n        require(balanceOf(msg.sender) < 5, \"You can't have more than 5 NFT\");\r\n        require(_typeCharacter == type_character.BERSERKER || _typeCharacter == type_character.SPIRITUAL || _typeCharacter == type_character.ELEMENTARY,\r\n        \"You must choose between berserker, spiritual or elementary\");\r\n        uint256 dna = _generateRandomNum(10**16);\r\n        if (_typeCharacter == type_character.BERSERKER) {\r\n            _characterDetails[nextId] = Character(nextId, dna, 1, 100, 5, 3, 1, 1, type_character.BERSERKER);\r\n        }\r\n        if (_typeCharacter == type_character.SPIRITUAL) {\r\n            _characterDetails[nextId] = Character(nextId, dna, 1, 100, 1, 1, 5, 3, type_character.SPIRITUAL);\r\n        }\r\n        if (_typeCharacter == type_character.ELEMENTARY) {\r\n            _characterDetails[nextId] = Character(nextId, dna, 1, 100, 2, 2, 3, 3, type_character.ELEMENTARY);\r\n        }\r\n        _safeMint(msg.sender, nextId);\r\n        nextId++;\r\n        emit CharacterCreated(dna);\r\n    }\r\n\r\n    function heal(uint _tokenId) external payable {\r\n        require(msg.value == healFee, \"Wrong amount of fees\");\r\n        require(ownerOf(_tokenId) == msg.sender, \"You're not the owner of the NFT\");\r\n        require(_characterDetails[_tokenId].hp > 0, \"You're NFT is dead\");\r\n        uint256 tempResult = _characterDetails[_tokenId].hp + 50;\r\n        if (tempResult > 100) {\r\n            _characterDetails[_tokenId].hp = 100;\r\n        } else {\r\n            _characterDetails[_tokenId].hp += 50;\r\n        }\r\n        emit Healed(_tokenId);\r\n    }\r\n\r\n    function fight(uint _myTokenId, uint _rivalTokenId) external payable {\r\n        require(msg.value == fightFee, \"Wrong amount of fees\");\r\n        require(ownerOf(_myTokenId) == msg.sender, \"You're not the owner of the NFT\");\r\n        require(ownerOf(_myTokenId) != ownerOf(_rivalTokenId), \"Your NFTs cannot fight each other\");\r\n        require(_characterDetails[_myTokenId].hp > 0 && _characterDetails[_rivalTokenId].hp > 0, \"One of the NFTs is dead\");\r\n\r\n        uint256 substrateLifeToRival = (_characterDetails[_myTokenId].attack * _characterDetails[_myTokenId].xp) - \r\n        ((_characterDetails[_rivalTokenId].armor * _characterDetails[_rivalTokenId].xp) / 2);\r\n        uint256 substrateLifeToMe = (_characterDetails[_rivalTokenId].attack * _characterDetails[_rivalTokenId].xp) - \r\n        ((_characterDetails[_myTokenId].armor * _characterDetails[_myTokenId].xp) / 2);\r\n\r\n        if(substrateLifeToRival >= _characterDetails[_rivalTokenId].hp) {\r\n            _characterDetails[_rivalTokenId].hp = 0;\r\n            _characterDetails[_myTokenId].xp++;\r\n        } else {\r\n            _characterDetails[_rivalTokenId].hp -= substrateLifeToRival;\r\n            if(substrateLifeToMe >= _characterDetails[_myTokenId].hp) {\r\n                _characterDetails[_myTokenId].hp = 0;\r\n                _characterDetails[_rivalTokenId].xp++;\r\n            } else {\r\n                _characterDetails[_myTokenId].hp -= substrateLifeToMe;\r\n                if (substrateLifeToRival > substrateLifeToMe) {\r\n                    _characterDetails[_myTokenId].xp++;\r\n                } else if (substrateLifeToMe > substrateLifeToRival) {\r\n                    _characterDetails[_rivalTokenId].xp++;\r\n                } else {\r\n                    _characterDetails[_myTokenId].xp++;\r\n                    _characterDetails[_rivalTokenId].xp++;\r\n                }\r\n            }\r\n        }\r\n        emit Fighted(_myTokenId, _rivalTokenId);\r\n    }\r\n\r\n    // Getters\r\n    function getTokenDetails(uint _tokenId) external view returns(Character memory) {\r\n        return _characterDetails[_tokenId];\r\n    }\r\n\r\n    function getMyCharacters() public view returns (Character[] memory){\r\n        uint8 count = 0;\r\n        Character[] memory myCharacters = new Character[](balanceOf(msg.sender));\r\n        for (uint i = 0; i < nextId; i++) {\r\n            if (ownerOf(i) == msg.sender) {\r\n                myCharacters[count] = _characterDetails[i];\r\n                count++;\r\n            }\r\n        }\r\n        return myCharacters;\r\n    }\r\n\r\n    function getOthersCharacters() public view returns (Character[] memory){\r\n        uint8 count = 0;\r\n        Character[] memory othersCharacters = new Character[](nextId - balanceOf(msg.sender));\r\n        for (uint i = 0; i < nextId; i++) {\r\n            if (ownerOf(i) != msg.sender) {\r\n                othersCharacters[count] = _characterDetails[i];\r\n                count++;\r\n            }\r\n        }\r\n        return othersCharacters;\r\n    }\r\n    \r\n    // only for TESTS getAllCharacters\r\n    function getAllCharacters() public view returns (Character[] memory){\r\n        Character[] memory allCharacters = new Character[](nextId);\r\n        for (uint i = 0; i < nextId; i++) {\r\n            allCharacters[i] = _characterDetails[i];\r\n        }\r\n        return allCharacters;\r\n    }\r\n}\r\n",
  "sourcePath": "D:\\TAF\\Alyra\\Projets\\tests_avant_projet_alyra\\contracts\\NFTGameToken.sol",
  "compiler": {
    "name": "solc",
    "version": "0.8.10+commit.fc410830.Emscripten.clang"
  },
  "schemaVersion": "3.4.3",
  "updatedAt": "2021-12-10T17:40:58.454Z",
  "networkType": "ethereum",
  "devdoc": {
    "kind": "dev",
    "methods": {
      "approve(address,uint256)": {
        "details": "See {IERC721-approve}."
      },
      "balanceOf(address)": {
        "details": "See {IERC721-balanceOf}."
      },
      "getApproved(uint256)": {
        "details": "See {IERC721-getApproved}."
      },
      "isApprovedForAll(address,address)": {
        "details": "See {IERC721-isApprovedForAll}."
      },
      "name()": {
        "details": "See {IERC721Metadata-name}."
      },
      "owner()": {
        "details": "Returns the address of the current owner."
      },
      "ownerOf(uint256)": {
        "details": "See {IERC721-ownerOf}."
      },
      "renounceOwnership()": {
        "details": "Leaves the contract without owner. It will not be possible to call `onlyOwner` functions anymore. Can only be called by the current owner. NOTE: Renouncing ownership will leave the contract without an owner, thereby removing any functionality that is only available to the owner."
      },
      "safeTransferFrom(address,address,uint256)": {
        "details": "See {IERC721-safeTransferFrom}."
      },
      "safeTransferFrom(address,address,uint256,bytes)": {
        "details": "See {IERC721-safeTransferFrom}."
      },
      "setApprovalForAll(address,bool)": {
        "details": "See {IERC721-setApprovalForAll}."
      },
      "supportsInterface(bytes4)": {
        "details": "See {IERC165-supportsInterface}."
      },
      "symbol()": {
        "details": "See {IERC721Metadata-symbol}."
      },
      "tokenURI(uint256)": {
        "details": "See {IERC721Metadata-tokenURI}."
      },
      "transferFrom(address,address,uint256)": {
        "details": "See {IERC721-transferFrom}."
      },
      "transferOwnership(address)": {
        "details": "Transfers ownership of the contract to a new account (`newOwner`). Can only be called by the current owner."
      }
    },
    "version": 1
  },
  "userdoc": {
    "kind": "user",
    "methods": {},
    "version": 1
  }
}