{
  "contractName": "Token",
  "abi": [
    {
      "inputs": [],
      "stateMutability": "nonpayable",
      "type": "constructor"
    },
    {
      "anonymous": false,
      "inputs": [
        {
          "indexed": true,
          "internalType": "address",
          "name": "owner",
          "type": "address"
        },
        {
          "indexed": true,
          "internalType": "address",
          "name": "approved",
          "type": "address"
        },
        {
          "indexed": true,
          "internalType": "uint256",
          "name": "tokenId",
          "type": "uint256"
        }
      ],
      "name": "Approval",
      "type": "event"
    },
    {
      "anonymous": false,
      "inputs": [
        {
          "indexed": true,
          "internalType": "address",
          "name": "owner",
          "type": "address"
        },
        {
          "indexed": true,
          "internalType": "address",
          "name": "operator",
          "type": "address"
        },
        {
          "indexed": false,
          "internalType": "bool",
          "name": "approved",
          "type": "bool"
        }
      ],
      "name": "ApprovalForAll",
      "type": "event"
    },
    {
      "anonymous": false,
      "inputs": [
        {
          "indexed": true,
          "internalType": "address",
          "name": "previousOwner",
          "type": "address"
        },
        {
          "indexed": true,
          "internalType": "address",
          "name": "newOwner",
          "type": "address"
        }
      ],
      "name": "OwnershipTransferred",
      "type": "event"
    },
    {
      "anonymous": false,
      "inputs": [
        {
          "indexed": true,
          "internalType": "address",
          "name": "from",
          "type": "address"
        },
        {
          "indexed": true,
          "internalType": "address",
          "name": "to",
          "type": "address"
        },
        {
          "indexed": true,
          "internalType": "uint256",
          "name": "tokenId",
          "type": "uint256"
        }
      ],
      "name": "Transfer",
      "type": "event"
    },
    {
      "inputs": [
        {
          "internalType": "address",
          "name": "to",
          "type": "address"
        },
        {
          "internalType": "uint256",
          "name": "tokenId",
          "type": "uint256"
        }
      ],
      "name": "approve",
      "outputs": [],
      "stateMutability": "nonpayable",
      "type": "function"
    },
    {
      "inputs": [
        {
          "internalType": "address",
          "name": "owner",
          "type": "address"
        }
      ],
      "name": "balanceOf",
      "outputs": [
        {
          "internalType": "uint256",
          "name": "",
          "type": "uint256"
        }
      ],
      "stateMutability": "view",
      "type": "function"
    },
    {
      "inputs": [
        {
          "internalType": "uint256",
          "name": "",
          "type": "uint256"
        }
      ],
      "name": "caracters",
      "outputs": [
        {
          "internalType": "uint256",
          "name": "id",
          "type": "uint256"
        },
        {
          "internalType": "uint256",
          "name": "dna",
          "type": "uint256"
        },
        {
          "internalType": "uint8",
          "name": "level",
          "type": "uint8"
        },
        {
          "internalType": "uint8",
          "name": "hp",
          "type": "uint8"
        },
        {
          "internalType": "uint8",
          "name": "mana",
          "type": "uint8"
        },
        {
          "internalType": "uint8",
          "name": "magicResistance",
          "type": "uint8"
        },
        {
          "internalType": "uint8",
          "name": "attack",
          "type": "uint8"
        },
        {
          "internalType": "uint8",
          "name": "armor",
          "type": "uint8"
        },
        {
          "internalType": "uint8",
          "name": "speed",
          "type": "uint8"
        }
      ],
      "stateMutability": "view",
      "type": "function"
    },
    {
      "inputs": [
        {
          "internalType": "uint256",
          "name": "tokenId",
          "type": "uint256"
        }
      ],
      "name": "getApproved",
      "outputs": [
        {
          "internalType": "address",
          "name": "",
          "type": "address"
        }
      ],
      "stateMutability": "view",
      "type": "function"
    },
    {
      "inputs": [
        {
          "internalType": "address",
          "name": "owner",
          "type": "address"
        },
        {
          "internalType": "address",
          "name": "operator",
          "type": "address"
        }
      ],
      "name": "isApprovedForAll",
      "outputs": [
        {
          "internalType": "bool",
          "name": "",
          "type": "bool"
        }
      ],
      "stateMutability": "view",
      "type": "function"
    },
    {
      "inputs": [],
      "name": "name",
      "outputs": [
        {
          "internalType": "string",
          "name": "",
          "type": "string"
        }
      ],
      "stateMutability": "view",
      "type": "function"
    },
    {
      "inputs": [],
      "name": "owner",
      "outputs": [
        {
          "internalType": "address",
          "name": "",
          "type": "address"
        }
      ],
      "stateMutability": "view",
      "type": "function"
    },
    {
      "inputs": [
        {
          "internalType": "uint256",
          "name": "tokenId",
          "type": "uint256"
        }
      ],
      "name": "ownerOf",
      "outputs": [
        {
          "internalType": "address",
          "name": "",
          "type": "address"
        }
      ],
      "stateMutability": "view",
      "type": "function"
    },
    {
      "inputs": [],
      "name": "renounceOwnership",
      "outputs": [],
      "stateMutability": "nonpayable",
      "type": "function"
    },
    {
      "inputs": [
        {
          "internalType": "address",
          "name": "from",
          "type": "address"
        },
        {
          "internalType": "address",
          "name": "to",
          "type": "address"
        },
        {
          "internalType": "uint256",
          "name": "tokenId",
          "type": "uint256"
        }
      ],
      "name": "safeTransferFrom",
      "outputs": [],
      "stateMutability": "nonpayable",
      "type": "function"
    },
    {
      "inputs": [
        {
          "internalType": "address",
          "name": "from",
          "type": "address"
        },
        {
          "internalType": "address",
          "name": "to",
          "type": "address"
        },
        {
          "internalType": "uint256",
          "name": "tokenId",
          "type": "uint256"
        },
        {
          "internalType": "bytes",
          "name": "_data",
          "type": "bytes"
        }
      ],
      "name": "safeTransferFrom",
      "outputs": [],
      "stateMutability": "nonpayable",
      "type": "function"
    },
    {
      "inputs": [
        {
          "internalType": "address",
          "name": "operator",
          "type": "address"
        },
        {
          "internalType": "bool",
          "name": "approved",
          "type": "bool"
        }
      ],
      "name": "setApprovalForAll",
      "outputs": [],
      "stateMutability": "nonpayable",
      "type": "function"
    },
    {
      "inputs": [
        {
          "internalType": "bytes4",
          "name": "interfaceId",
          "type": "bytes4"
        }
      ],
      "name": "supportsInterface",
      "outputs": [
        {
          "internalType": "bool",
          "name": "",
          "type": "bool"
        }
      ],
      "stateMutability": "view",
      "type": "function"
    },
    {
      "inputs": [],
      "name": "symbol",
      "outputs": [
        {
          "internalType": "string",
          "name": "",
          "type": "string"
        }
      ],
      "stateMutability": "view",
      "type": "function"
    },
    {
      "inputs": [
        {
          "internalType": "uint256",
          "name": "tokenId",
          "type": "uint256"
        }
      ],
      "name": "tokenURI",
      "outputs": [
        {
          "internalType": "string",
          "name": "",
          "type": "string"
        }
      ],
      "stateMutability": "view",
      "type": "function"
    },
    {
      "inputs": [
        {
          "internalType": "address",
          "name": "from",
          "type": "address"
        },
        {
          "internalType": "address",
          "name": "to",
          "type": "address"
        },
        {
          "internalType": "uint256",
          "name": "tokenId",
          "type": "uint256"
        }
      ],
      "name": "transferFrom",
      "outputs": [],
      "stateMutability": "nonpayable",
      "type": "function"
    },
    {
      "inputs": [
        {
          "internalType": "address",
          "name": "newOwner",
          "type": "address"
        }
      ],
      "name": "transferOwnership",
      "outputs": [],
      "stateMutability": "nonpayable",
      "type": "function"
    },
    {
      "inputs": [],
      "name": "createCaracter",
      "outputs": [],
      "stateMutability": "payable",
      "type": "function"
    },
    {
      "inputs": [
        {
          "internalType": "uint256",
          "name": "_fee",
          "type": "uint256"
        }
      ],
      "name": "updateFee",
      "outputs": [],
      "stateMutability": "nonpayable",
      "type": "function"
    },
    {
      "inputs": [],
      "name": "withdraw",
      "outputs": [],
      "stateMutability": "payable",
      "type": "function"
    },
    {
      "inputs": [],
      "name": "_attributesDistribution",
      "outputs": [
        {
          "internalType": "uint8[]",
          "name": "",
          "type": "uint8[]"
        }
      ],
      "stateMutability": "view",
      "type": "function"
    },
    {
      "inputs": [
        {
          "internalType": "uint256",
          "name": "_id",
          "type": "uint256"
        }
      ],
      "name": "getCaracterDetails",
      "outputs": [
        {
          "components": [
            {
              "internalType": "uint256",
              "name": "id",
              "type": "uint256"
            },
            {
              "internalType": "uint256",
              "name": "dna",
              "type": "uint256"
            },
            {
              "internalType": "uint8",
              "name": "level",
              "type": "uint8"
            },
            {
              "internalType": "uint8",
              "name": "hp",
              "type": "uint8"
            },
            {
              "internalType": "uint8",
              "name": "mana",
              "type": "uint8"
            },
            {
              "internalType": "uint8",
              "name": "magicResistance",
              "type": "uint8"
            },
            {
              "internalType": "uint8",
              "name": "attack",
              "type": "uint8"
            },
            {
              "internalType": "uint8",
              "name": "armor",
              "type": "uint8"
            },
            {
              "internalType": "uint8",
              "name": "speed",
              "type": "uint8"
            }
          ],
          "internalType": "struct Token.Caracter",
          "name": "",
          "type": "tuple"
        }
      ],
      "stateMutability": "view",
      "type": "function"
    },
    {
      "inputs": [],
      "name": "getAllCaracters",
      "outputs": [
        {
          "components": [
            {
              "internalType": "uint256",
              "name": "id",
              "type": "uint256"
            },
            {
              "internalType": "uint256",
              "name": "dna",
              "type": "uint256"
            },
            {
              "internalType": "uint8",
              "name": "level",
              "type": "uint8"
            },
            {
              "internalType": "uint8",
              "name": "hp",
              "type": "uint8"
            },
            {
              "internalType": "uint8",
              "name": "mana",
              "type": "uint8"
            },
            {
              "internalType": "uint8",
              "name": "magicResistance",
              "type": "uint8"
            },
            {
              "internalType": "uint8",
              "name": "attack",
              "type": "uint8"
            },
            {
              "internalType": "uint8",
              "name": "armor",
              "type": "uint8"
            },
            {
              "internalType": "uint8",
              "name": "speed",
              "type": "uint8"
            }
          ],
          "internalType": "struct Token.Caracter[]",
          "name": "",
          "type": "tuple[]"
        }
      ],
      "stateMutability": "view",
      "type": "function"
    }
  ],
  "bytecode": "0x6080604052600060075566038d7ea4c680006008553480156200002157600080fd5b506040518060400160405280600781526020017f4e465447414d45000000000000000000000000000000000000000000000000008152506040518060400160405280600481526020017f4e465447000000000000000000000000000000000000000000000000000000008152508160009080519060200190620000a6929190620001c8565b508060019080519060200190620000bf929190620001c8565b505050620000f4620000df620000fa640100000000026401000000009004565b62000102640100000000026401000000009004565b620002dd565b600033905090565b6000600660009054906101000a900473ffffffffffffffffffffffffffffffffffffffff16905081600660006101000a81548173ffffffffffffffffffffffffffffffffffffffff021916908373ffffffffffffffffffffffffffffffffffffffff1602179055508173ffffffffffffffffffffffffffffffffffffffff168173ffffffffffffffffffffffffffffffffffffffff167f8be0079c531659141344cd1fd0a4f28419497f9722a3daafe3b4186f6b6457e060405160405180910390a35050565b828054620001d690620002a7565b90600052602060002090601f016020900481019282620001fa576000855562000246565b82601f106200021557805160ff191683800117855562000246565b8280016001018555821562000246579182015b828111156200024557825182559160200191906001019062000228565b5b50905062000255919062000259565b5090565b5b80821115620002745760008160009055506001016200025a565b5090565b7f4e487b7100000000000000000000000000000000000000000000000000000000600052602260045260246000fd5b60006002820490506001821680620002c057607f821691505b60208210811415620002d757620002d662000278565b5b50919050565b613ba380620002ed6000396000f3fe60806040526004361061015d576000357c0100000000000000000000000000000000000000000000000000000000900480638da5cb5b116100d3578063bf9409711161008c578063bf94097114610456578063c87b56dd14610481578063d658329d146104be578063e5e63f4414610503578063e985e9c51461050d578063f2fde38b1461054a5761015d565b80638da5cb5b146103485780639012c4a81461037357806395d89b411461039c578063a22cb465146103c7578063a4321851146103f0578063b88d4fde1461042d5761015d565b80632e7007d4116101255780632e7007d4146102595780633ccfd60b1461028457806342842e0e1461028e5780636352211e146102b757806370a08231146102f4578063715018a6146103315761015d565b806301ffc9a71461016257806306fdde031461019f578063081812fc146101ca578063095ea7b31461020757806323b872dd14610230575b600080fd5b34801561016e57600080fd5b506101896004803603810190610184919061244f565b610573565b6040516101969190612497565b60405180910390f35b3480156101ab57600080fd5b506101b4610655565b6040516101c1919061254b565b60405180910390f35b3480156101d657600080fd5b506101f160048036038101906101ec91906125a3565b6106e7565b6040516101fe9190612611565b60405180910390f35b34801561021357600080fd5b5061022e60048036038101906102299190612658565b61076c565b005b34801561023c57600080fd5b5061025760048036038101906102529190612698565b610884565b005b34801561026557600080fd5b5061026e6108e4565b60405161027b91906127b6565b60405180910390f35b61028c61099f565b005b34801561029a57600080fd5b506102b560048036038101906102b09190612698565b610a82565b005b3480156102c357600080fd5b506102de60048036038101906102d991906125a3565b610aa2565b6040516102eb9190612611565b60405180910390f35b34801561030057600080fd5b5061031b600480360381019061031691906127d8565b610b54565b6040516103289190612814565b60405180910390f35b34801561033d57600080fd5b50610346610c0c565b005b34801561035457600080fd5b5061035d610c94565b60405161036a9190612611565b60405180910390f35b34801561037f57600080fd5b5061039a600480360381019061039591906125a3565b610cbe565b005b3480156103a857600080fd5b506103b1610d44565b6040516103be919061254b565b60405180910390f35b3480156103d357600080fd5b506103ee60048036038101906103e9919061285b565b610dd6565b005b3480156103fc57600080fd5b50610417600480360381019061041291906125a3565b610dec565b6040516104249190612961565b60405180910390f35b34801561043957600080fd5b50610454600480360381019061044f9190612ab2565b610f08565b005b34801561046257600080fd5b5061046b610f6a565b6040516104789190612c9c565b60405180910390f35b34801561048d57600080fd5b506104a860048036038101906104a391906125a3565b6110a9565b6040516104b5919061254b565b60405180910390f35b3480156104ca57600080fd5b506104e560048036038101906104e091906125a3565b611150565b6040516104fa99989796959493929190612ccd565b60405180910390f35b61050b611209565b005b34801561051957600080fd5b50610534600480360381019061052f9190612d5a565b61149a565b6040516105419190612497565b60405180910390f35b34801561055657600080fd5b50610571600480360381019061056c91906127d8565b61152e565b005b60007f80ac58cd000000000000000000000000000000000000000000000000000000007bffffffffffffffffffffffffffffffffffffffffffffffffffffffff1916827bffffffffffffffffffffffffffffffffffffffffffffffffffffffff1916148061063e57507f5b5e139f000000000000000000000000000000000000000000000000000000007bffffffffffffffffffffffffffffffffffffffffffffffffffffffff1916827bffffffffffffffffffffffffffffffffffffffffffffffffffffffff1916145b8061064e575061064d82611626565b5b9050919050565b60606000805461066490612dc9565b80601f016020809104026020016040519081016040528092919081815260200182805461069090612dc9565b80156106dd5780601f106106b2576101008083540402835291602001916106dd565b820191906000526020600020905b8154815290600101906020018083116106c057829003601f168201915b5050505050905090565b60006106f282611690565b610731576040517f08c379a000000000000000000000000000000000000000000000000000000000815260040161072890612e6d565b60405180910390fd5b6004600083815260200190815260200160002060009054906101000a900473ffffffffffffffffffffffffffffffffffffffff169050919050565b600061077782610aa2565b90508073ffffffffffffffffffffffffffffffffffffffff168373ffffffffffffffffffffffffffffffffffffffff1614156107e8576040517f08c379a00000000000000000000000000000000000000000000000000000000081526004016107df90612eff565b60405180910390fd5b8073ffffffffffffffffffffffffffffffffffffffff166108076116fc565b73ffffffffffffffffffffffffffffffffffffffff1614806108365750610835816108306116fc565b61149a565b5b610875576040517f08c379a000000000000000000000000000000000000000000000000000000000815260040161086c90612f91565b60405180910390fd5b61087f8383611704565b505050565b61089561088f6116fc565b826117bd565b6108d4576040517f08c379a00000000000000000000000000000000000000000000000000000000081526004016108cb90613023565b60405180910390fd5b6108df83838361189b565b505050565b60606000600567ffffffffffffffff81111561090357610902612987565b5b6040519080825280602002602001820160405280156109315781602001602082028036833780820191505090505b50905060005b60058160ff1610156109975761094e600382611af7565b600361095a9190613072565b828260ff16815181106109705761096f6130a9565b5b602002602001019060ff16908160ff1681525050808061098f906130d8565b915050610937565b508091505090565b6109a76116fc565b73ffffffffffffffffffffffffffffffffffffffff166109c5610c94565b73ffffffffffffffffffffffffffffffffffffffff1614610a1b576040517f08c379a0000000000000000000000000000000000000000000000000000000008152600401610a129061314e565b60405180910390fd5b610a23610c94565b73ffffffffffffffffffffffffffffffffffffffff166108fc3073ffffffffffffffffffffffffffffffffffffffff16319081150290604051600060405180830381858888f19350505050158015610a7f573d6000803e3d6000fd5b50565b610a9d83838360405180602001604052806000815250610f08565b505050565b6000806002600084815260200190815260200160002060009054906101000a900473ffffffffffffffffffffffffffffffffffffffff169050600073ffffffffffffffffffffffffffffffffffffffff168173ffffffffffffffffffffffffffffffffffffffff161415610b4b576040517f08c379a0000000000000000000000000000000000000000000000000000000008152600401610b42906131e0565b60405180910390fd5b80915050919050565b60008073ffffffffffffffffffffffffffffffffffffffff168273ffffffffffffffffffffffffffffffffffffffff161415610bc5576040517f08c379a0000000000000000000000000000000000000000000000000000000008152600401610bbc90613272565b60405180910390fd5b600360008373ffffffffffffffffffffffffffffffffffffffff1673ffffffffffffffffffffffffffffffffffffffff168152602001908152602001600020549050919050565b610c146116fc565b73ffffffffffffffffffffffffffffffffffffffff16610c32610c94565b73ffffffffffffffffffffffffffffffffffffffff1614610c88576040517f08c379a0000000000000000000000000000000000000000000000000000000008152600401610c7f9061314e565b60405180910390fd5b610c926000611b3d565b565b6000600660009054906101000a900473ffffffffffffffffffffffffffffffffffffffff16905090565b610cc66116fc565b73ffffffffffffffffffffffffffffffffffffffff16610ce4610c94565b73ffffffffffffffffffffffffffffffffffffffff1614610d3a576040517f08c379a0000000000000000000000000000000000000000000000000000000008152600401610d319061314e565b60405180910390fd5b8060088190555050565b606060018054610d5390612dc9565b80601f0160208091040260200160405190810160405280929190818152602001828054610d7f90612dc9565b8015610dcc5780601f10610da157610100808354040283529160200191610dcc565b820191906000526020600020905b815481529060010190602001808311610daf57829003601f168201915b5050505050905090565b610de8610de16116fc565b8383611c03565b5050565b610df4612382565b60098281548110610e0857610e076130a9565b5b90600052602060002090600302016040518061012001604052908160008201548152602001600182015481526020016002820160009054906101000a900460ff1660ff1660ff1681526020016002820160019054906101000a900460ff1660ff1660ff1681526020016002820160029054906101000a900460ff1660ff1660ff1681526020016002820160039054906101000a900460ff1660ff1660ff1681526020016002820160049054906101000a900460ff1660ff1660ff1681526020016002820160059054906101000a900460ff1660ff1660ff1681526020016002820160069054906101000a900460ff1660ff1660ff16815250509050919050565b610f19610f136116fc565b836117bd565b610f58576040517f08c379a0000000000000000000000000000000000000000000000000000000008152600401610f4f90613023565b60405180910390fd5b610f6484848484611d70565b50505050565b60606009805480602002602001604051908101604052809291908181526020016000905b828210156110a057838290600052602060002090600302016040518061012001604052908160008201548152602001600182015481526020016002820160009054906101000a900460ff1660ff1660ff1681526020016002820160019054906101000a900460ff1660ff1660ff1681526020016002820160029054906101000a900460ff1660ff1660ff1681526020016002820160039054906101000a900460ff1660ff1660ff1681526020016002820160049054906101000a900460ff1660ff1660ff1681526020016002820160059054906101000a900460ff1660ff1660ff1681526020016002820160069054906101000a900460ff1660ff1660ff168152505081526020019060010190610f8e565b50505050905090565b60606110b482611690565b6110f3576040517f08c379a00000000000000000000000000000000000000000000000000000000081526004016110ea90613304565b60405180910390fd5b60006110fd611dcc565b9050600081511161111d5760405180602001604052806000815250611148565b8061112784611de3565b604051602001611138929190613360565b6040516020818303038152906040525b915050919050565b6009818154811061116057600080fd5b90600052602060002090600302016000915090508060000154908060010154908060020160009054906101000a900460ff16908060020160019054906101000a900460ff16908060020160029054906101000a900460ff16908060020160039054906101000a900460ff16908060020160049054906101000a900460ff16908060020160059054906101000a900460ff16908060020160069054906101000a900460ff16905089565b600854341461124d576040517f08c379a0000000000000000000000000000000000000000000000000000000008152600401611244906133d0565b60405180910390fd5b60006112576108e4565b905060096040518061012001604052806007548152602001611281662386f26fc100006001611af7565b8152602001600160ff168152602001606460ff168152602001836000815181106112ae576112ad6130a9565b5b602002602001015160ff168152602001836001815181106112d2576112d16130a9565b5b602002602001015160ff168152602001836002815181106112f6576112f56130a9565b5b602002602001015160ff1681526020018360038151811061131a576113196130a9565b5b602002602001015160ff1681526020018360048151811061133e5761133d6130a9565b5b602002602001015160ff168152509080600181540180825580915050600190039060005260206000209060030201600090919091909150600082015181600001556020820151816001015560408201518160020160006101000a81548160ff021916908360ff16021790555060608201518160020160016101000a81548160ff021916908360ff16021790555060808201518160020160026101000a81548160ff021916908360ff16021790555060a08201518160020160036101000a81548160ff021916908360ff16021790555060c08201518160020160046101000a81548160ff021916908360ff16021790555060e08201518160020160056101000a81548160ff021916908360ff1602179055506101008201518160020160066101000a81548160ff021916908360ff160217905550505061147f33600754611f63565b60076000815480929190611492906133f0565b919050555050565b6000600560008473ffffffffffffffffffffffffffffffffffffffff1673ffffffffffffffffffffffffffffffffffffffff16815260200190815260200160002060008373ffffffffffffffffffffffffffffffffffffffff1673ffffffffffffffffffffffffffffffffffffffff16815260200190815260200160002060009054906101000a900460ff16905092915050565b6115366116fc565b73ffffffffffffffffffffffffffffffffffffffff16611554610c94565b73ffffffffffffffffffffffffffffffffffffffff16146115aa576040517f08c379a00000000000000000000000000000000000000000000000000000000081526004016115a19061314e565b60405180910390fd5b600073ffffffffffffffffffffffffffffffffffffffff168173ffffffffffffffffffffffffffffffffffffffff16141561161a576040517f08c379a0000000000000000000000000000000000000000000000000000000008152600401611611906134ab565b60405180910390fd5b61162381611b3d565b50565b60007f01ffc9a7000000000000000000000000000000000000000000000000000000007bffffffffffffffffffffffffffffffffffffffffffffffffffffffff1916827bffffffffffffffffffffffffffffffffffffffffffffffffffffffff1916149050919050565b60008073ffffffffffffffffffffffffffffffffffffffff166002600084815260200190815260200160002060009054906101000a900473ffffffffffffffffffffffffffffffffffffffff1673ffffffffffffffffffffffffffffffffffffffff1614159050919050565b600033905090565b816004600083815260200190815260200160002060006101000a81548173ffffffffffffffffffffffffffffffffffffffff021916908373ffffffffffffffffffffffffffffffffffffffff160217905550808273ffffffffffffffffffffffffffffffffffffffff1661177783610aa2565b73ffffffffffffffffffffffffffffffffffffffff167f8c5be1e5ebec7d5bd14f71427d1e84f3dd0314c0f7b2291e5b200ac8c7c3b92560405160405180910390a45050565b60006117c882611690565b611807576040517f08c379a00000000000000000000000000000000000000000000000000000000081526004016117fe9061353d565b60405180910390fd5b600061181283610aa2565b90508073ffffffffffffffffffffffffffffffffffffffff168473ffffffffffffffffffffffffffffffffffffffff16148061188157508373ffffffffffffffffffffffffffffffffffffffff16611869846106e7565b73ffffffffffffffffffffffffffffffffffffffff16145b806118925750611891818561149a565b5b91505092915050565b8273ffffffffffffffffffffffffffffffffffffffff166118bb82610aa2565b73ffffffffffffffffffffffffffffffffffffffff1614611911576040517f08c379a0000000000000000000000000000000000000000000000000000000008152600401611908906135cf565b60405180910390fd5b600073ffffffffffffffffffffffffffffffffffffffff168273ffffffffffffffffffffffffffffffffffffffff161415611981576040517f08c379a000000000000000000000000000000000000000000000000000000000815260040161197890613661565b60405180910390fd5b61198c838383611f81565b611997600082611704565b6001600360008573ffffffffffffffffffffffffffffffffffffffff1673ffffffffffffffffffffffffffffffffffffffff16815260200190815260200160002060008282546119e79190613681565b925050819055506001600360008473ffffffffffffffffffffffffffffffffffffffff1673ffffffffffffffffffffffffffffffffffffffff1681526020019081526020016000206000828254611a3e91906136b5565b92505081905550816002600083815260200190815260200160002060006101000a81548173ffffffffffffffffffffffffffffffffffffffff021916908373ffffffffffffffffffffffffffffffffffffffff160217905550808273ffffffffffffffffffffffffffffffffffffffff168473ffffffffffffffffffffffffffffffffffffffff167fddf252ad1be2c89b69c2b068fc378daa952ba7f163c4a11628f55a4df523b3ef60405160405180910390a4505050565b60008282424433604051602001611b1194939291906137d5565b6040516020818303038152906040528051906020012060019004611b359190613852565b905092915050565b6000600660009054906101000a900473ffffffffffffffffffffffffffffffffffffffff16905081600660006101000a81548173ffffffffffffffffffffffffffffffffffffffff021916908373ffffffffffffffffffffffffffffffffffffffff1602179055508173ffffffffffffffffffffffffffffffffffffffff168173ffffffffffffffffffffffffffffffffffffffff167f8be0079c531659141344cd1fd0a4f28419497f9722a3daafe3b4186f6b6457e060405160405180910390a35050565b8173ffffffffffffffffffffffffffffffffffffffff168373ffffffffffffffffffffffffffffffffffffffff161415611c72576040517f08c379a0000000000000000000000000000000000000000000000000000000008152600401611c69906138cf565b60405180910390fd5b80600560008573ffffffffffffffffffffffffffffffffffffffff1673ffffffffffffffffffffffffffffffffffffffff16815260200190815260200160002060008473ffffffffffffffffffffffffffffffffffffffff1673ffffffffffffffffffffffffffffffffffffffff16815260200190815260200160002060006101000a81548160ff0219169083151502179055508173ffffffffffffffffffffffffffffffffffffffff168373ffffffffffffffffffffffffffffffffffffffff167f17307eab39ab6107e8899845ad3d59bd9653f200f220920489ca2b5937696c3183604051611d639190612497565b60405180910390a3505050565b611d7b84848461189b565b611d8784848484611f86565b611dc6576040517f08c379a0000000000000000000000000000000000000000000000000000000008152600401611dbd90613961565b60405180910390fd5b50505050565b606060405180602001604052806000815250905090565b60606000821415611e2b576040518060400160405280600181526020017f30000000000000000000000000000000000000000000000000000000000000008152509050611f5e565b600082905060005b60008214611e5d578080611e46906133f0565b915050600a82611e569190613981565b9150611e33565b60008167ffffffffffffffff811115611e7957611e78612987565b5b6040519080825280601f01601f191660200182016040528015611eab5781602001600182028036833780820191505090505b5090505b60008514611f5757600182611ec49190613681565b9150600a85611ed39190613852565b6030611edf91906136b5565b7f010000000000000000000000000000000000000000000000000000000000000002818381518110611f1457611f136130a9565b5b60200101907effffffffffffffffffffffffffffffffffffffffffffffffffffffffffffff1916908160001a905350600a85611f509190613981565b9450611eaf565b8093505050505b919050565b611f7d828260405180602001604052806000815250612146565b5050565b505050565b6000611fa78473ffffffffffffffffffffffffffffffffffffffff166121a1565b15612139578373ffffffffffffffffffffffffffffffffffffffff1663150b7a02611fd06116fc565b8786866040518563ffffffff167c010000000000000000000000000000000000000000000000000000000002815260040161200e9493929190613a07565b6020604051808303816000875af192505050801561204a57506040513d601f19601f820116820180604052508101906120479190613a68565b60015b6120cd573d806000811461207a576040519150601f19603f3d011682016040523d82523d6000602084013e61207f565b606091505b506000815114156120c5576040517f08c379a00000000000000000000000000000000000000000000000000000000081526004016120bc90613961565b60405180910390fd5b805181602001fd5b63150b7a027c0100000000000000000000000000000000000000000000000000000000027bffffffffffffffffffffffffffffffffffffffffffffffffffffffff1916817bffffffffffffffffffffffffffffffffffffffffffffffffffffffff19161491505061213e565b600190505b949350505050565b61215083836121b4565b61215d6000848484611f86565b61219c576040517f08c379a000000000000000000000000000000000000000000000000000000000815260040161219390613961565b60405180910390fd5b505050565b600080823b905060008111915050919050565b600073ffffffffffffffffffffffffffffffffffffffff168273ffffffffffffffffffffffffffffffffffffffff161415612224576040517f08c379a000000000000000000000000000000000000000000000000000000000815260040161221b90613ae1565b60405180910390fd5b61222d81611690565b1561226d576040517f08c379a000000000000000000000000000000000000000000000000000000000815260040161226490613b4d565b60405180910390fd5b61227960008383611f81565b6001600360008473ffffffffffffffffffffffffffffffffffffffff1673ffffffffffffffffffffffffffffffffffffffff16815260200190815260200160002060008282546122c991906136b5565b92505081905550816002600083815260200190815260200160002060006101000a81548173ffffffffffffffffffffffffffffffffffffffff021916908373ffffffffffffffffffffffffffffffffffffffff160217905550808273ffffffffffffffffffffffffffffffffffffffff16600073ffffffffffffffffffffffffffffffffffffffff167fddf252ad1be2c89b69c2b068fc378daa952ba7f163c4a11628f55a4df523b3ef60405160405180910390a45050565b6040518061012001604052806000815260200160008152602001600060ff168152602001600060ff168152602001600060ff168152602001600060ff168152602001600060ff168152602001600060ff168152602001600060ff1681525090565b6000604051905090565b600080fd5b600080fd5b60007fffffffff0000000000000000000000000000000000000000000000000000000082169050919050565b61242c816123f7565b811461243757600080fd5b50565b60008135905061244981612423565b92915050565b600060208284031215612465576124646123ed565b5b60006124738482850161243a565b91505092915050565b60008115159050919050565b6124918161247c565b82525050565b60006020820190506124ac6000830184612488565b92915050565b600081519050919050565b600082825260208201905092915050565b60005b838110156124ec5780820151818401526020810190506124d1565b838111156124fb576000848401525b50505050565b6000601f19601f8301169050919050565b600061251d826124b2565b61252781856124bd565b93506125378185602086016124ce565b61254081612501565b840191505092915050565b600060208201905081810360008301526125658184612512565b905092915050565b6000819050919050565b6125808161256d565b811461258b57600080fd5b50565b60008135905061259d81612577565b92915050565b6000602082840312156125b9576125b86123ed565b5b60006125c78482850161258e565b91505092915050565b600073ffffffffffffffffffffffffffffffffffffffff82169050919050565b60006125fb826125d0565b9050919050565b61260b816125f0565b82525050565b60006020820190506126266000830184612602565b92915050565b612635816125f0565b811461264057600080fd5b50565b6000813590506126528161262c565b92915050565b6000806040838503121561266f5761266e6123ed565b5b600061267d85828601612643565b925050602061268e8582860161258e565b9150509250929050565b6000806000606084860312156126b1576126b06123ed565b5b60006126bf86828701612643565b93505060206126d086828701612643565b92505060406126e18682870161258e565b9150509250925092565b600081519050919050565b600082825260208201905092915050565b6000819050602082019050919050565b600060ff82169050919050565b61272d81612717565b82525050565b600061273f8383612724565b60208301905092915050565b6000602082019050919050565b6000612763826126eb565b61276d81856126f6565b935061277883612707565b8060005b838110156127a95781516127908882612733565b975061279b8361274b565b92505060018101905061277c565b5085935050505092915050565b600060208201905081810360008301526127d08184612758565b905092915050565b6000602082840312156127ee576127ed6123ed565b5b60006127fc84828501612643565b91505092915050565b61280e8161256d565b82525050565b60006020820190506128296000830184612805565b92915050565b6128388161247c565b811461284357600080fd5b50565b6000813590506128558161282f565b92915050565b60008060408385031215612872576128716123ed565b5b600061288085828601612643565b925050602061289185828601612846565b9150509250929050565b6128a48161256d565b82525050565b610120820160008201516128c1600085018261289b565b5060208201516128d4602085018261289b565b5060408201516128e76040850182612724565b5060608201516128fa6060850182612724565b50608082015161290d6080850182612724565b5060a082015161292060a0850182612724565b5060c082015161293360c0850182612724565b5060e082015161294660e0850182612724565b5061010082015161295b610100850182612724565b50505050565b60006101208201905061297760008301846128aa565b92915050565b600080fd5b600080fd5b7f4e487b7100000000000000000000000000000000000000000000000000000000600052604160045260246000fd5b6129bf82612501565b810181811067ffffffffffffffff821117156129de576129dd612987565b5b80604052505050565b60006129f16123e3565b90506129fd82826129b6565b919050565b600067ffffffffffffffff821115612a1d57612a1c612987565b5b612a2682612501565b9050602081019050919050565b82818337600083830152505050565b6000612a55612a5084612a02565b6129e7565b905082815260208101848484011115612a7157612a70612982565b5b612a7c848285612a33565b509392505050565b600082601f830112612a9957612a9861297d565b5b8135612aa9848260208601612a42565b91505092915050565b60008060008060808587031215612acc57612acb6123ed565b5b6000612ada87828801612643565b9450506020612aeb87828801612643565b9350506040612afc8782880161258e565b925050606085013567ffffffffffffffff811115612b1d57612b1c6123f2565b5b612b2987828801612a84565b91505092959194509250565b600081519050919050565b600082825260208201905092915050565b6000819050602082019050919050565b61012082016000820151612b78600085018261289b565b506020820151612b8b602085018261289b565b506040820151612b9e6040850182612724565b506060820151612bb16060850182612724565b506080820151612bc46080850182612724565b5060a0820151612bd760a0850182612724565b5060c0820151612bea60c0850182612724565b5060e0820151612bfd60e0850182612724565b50610100820151612c12610100850182612724565b50505050565b6000612c248383612b61565b6101208301905092915050565b6000602082019050919050565b6000612c4982612b35565b612c538185612b40565b9350612c5e83612b51565b8060005b83811015612c8f578151612c768882612c18565b9750612c8183612c31565b925050600181019050612c62565b5085935050505092915050565b60006020820190508181036000830152612cb68184612c3e565b905092915050565b612cc781612717565b82525050565b600061012082019050612ce3600083018c612805565b612cf0602083018b612805565b612cfd604083018a612cbe565b612d0a6060830189612cbe565b612d176080830188612cbe565b612d2460a0830187612cbe565b612d3160c0830186612cbe565b612d3e60e0830185612cbe565b612d4c610100830184612cbe565b9a9950505050505050505050565b60008060408385031215612d7157612d706123ed565b5b6000612d7f85828601612643565b9250506020612d9085828601612643565b9150509250929050565b7f4e487b7100000000000000000000000000000000000000000000000000000000600052602260045260246000fd5b60006002820490506001821680612de157607f821691505b60208210811415612df557612df4612d9a565b5b50919050565b7f4552433732313a20617070726f76656420717565727920666f72206e6f6e657860008201527f697374656e7420746f6b656e0000000000000000000000000000000000000000602082015250565b6000612e57602c836124bd565b9150612e6282612dfb565b604082019050919050565b60006020820190508181036000830152612e8681612e4a565b9050919050565b7f4552433732313a20617070726f76616c20746f2063757272656e74206f776e6560008201527f7200000000000000000000000000000000000000000000000000000000000000602082015250565b6000612ee96021836124bd565b9150612ef482612e8d565b604082019050919050565b60006020820190508181036000830152612f1881612edc565b9050919050565b7f4552433732313a20617070726f76652063616c6c6572206973206e6f74206f7760008201527f6e6572206e6f7220617070726f76656420666f7220616c6c0000000000000000602082015250565b6000612f7b6038836124bd565b9150612f8682612f1f565b604082019050919050565b60006020820190508181036000830152612faa81612f6e565b9050919050565b7f4552433732313a207472616e736665722063616c6c6572206973206e6f74206f60008201527f776e6572206e6f7220617070726f766564000000000000000000000000000000602082015250565b600061300d6031836124bd565b915061301882612fb1565b604082019050919050565b6000602082019050818103600083015261303c81613000565b9050919050565b7f4e487b7100000000000000000000000000000000000000000000000000000000600052601160045260246000fd5b600061307d82612717565b915061308883612717565b92508260ff0382111561309e5761309d613043565b5b828201905092915050565b7f4e487b7100000000000000000000000000000000000000000000000000000000600052603260045260246000fd5b60006130e382612717565b915060ff8214156130f7576130f6613043565b5b600182019050919050565b7f4f776e61626c653a2063616c6c6572206973206e6f7420746865206f776e6572600082015250565b60006131386020836124bd565b915061314382613102565b602082019050919050565b600060208201905081810360008301526131678161312b565b9050919050565b7f4552433732313a206f776e657220717565727920666f72206e6f6e657869737460008201527f656e7420746f6b656e0000000000000000000000000000000000000000000000602082015250565b60006131ca6029836124bd565b91506131d58261316e565b604082019050919050565b600060208201905081810360008301526131f9816131bd565b9050919050565b7f4552433732313a2062616c616e636520717565727920666f7220746865207a6560008201527f726f206164647265737300000000000000000000000000000000000000000000602082015250565b600061325c602a836124bd565b915061326782613200565b604082019050919050565b6000602082019050818103600083015261328b8161324f565b9050919050565b7f4552433732314d657461646174613a2055524920717565727920666f72206e6f60008201527f6e6578697374656e7420746f6b656e0000000000000000000000000000000000602082015250565b60006132ee602f836124bd565b91506132f982613292565b604082019050919050565b6000602082019050818103600083015261331d816132e1565b9050919050565b600081905092915050565b600061333a826124b2565b6133448185613324565b93506133548185602086016124ce565b80840191505092915050565b600061336c828561332f565b9150613378828461332f565b91508190509392505050565b7f496e636f727265637420616d6f756e7400000000000000000000000000000000600082015250565b60006133ba6010836124bd565b91506133c582613384565b602082019050919050565b600060208201905081810360008301526133e9816133ad565b9050919050565b60006133fb8261256d565b91507fffffffffffffffffffffffffffffffffffffffffffffffffffffffffffffffff82141561342e5761342d613043565b5b600182019050919050565b7f4f776e61626c653a206e6577206f776e657220697320746865207a65726f206160008201527f6464726573730000000000000000000000000000000000000000000000000000602082015250565b60006134956026836124bd565b91506134a082613439565b604082019050919050565b600060208201905081810360008301526134c481613488565b9050919050565b7f4552433732313a206f70657261746f7220717565727920666f72206e6f6e657860008201527f697374656e7420746f6b656e0000000000000000000000000000000000000000602082015250565b6000613527602c836124bd565b9150613532826134cb565b604082019050919050565b600060208201905081810360008301526135568161351a565b9050919050565b7f4552433732313a207472616e73666572206f6620746f6b656e2074686174206960008201527f73206e6f74206f776e0000000000000000000000000000000000000000000000602082015250565b60006135b96029836124bd565b91506135c48261355d565b604082019050919050565b600060208201905081810360008301526135e8816135ac565b9050919050565b7f4552433732313a207472616e7366657220746f20746865207a65726f2061646460008201527f7265737300000000000000000000000000000000000000000000000000000000602082015250565b600061364b6024836124bd565b9150613656826135ef565b604082019050919050565b6000602082019050818103600083015261367a8161363e565b9050919050565b600061368c8261256d565b91506136978361256d565b9250828210156136aa576136a9613043565b5b828203905092915050565b60006136c08261256d565b91506136cb8361256d565b9250827fffffffffffffffffffffffffffffffffffffffffffffffffffffffffffffffff03821115613700576136ff613043565b5b828201905092915050565b60007f010000000000000000000000000000000000000000000000000000000000000082029050919050565b60006137428261370b565b9050919050565b61375a61375582612717565b613737565b82525050565b6000819050919050565b61377b6137768261256d565b613760565b82525050565b60006c0100000000000000000000000082029050919050565b60006137a582613781565b9050919050565b60006137b78261379a565b9050919050565b6137cf6137ca826125f0565b6137ac565b82525050565b60006137e18287613749565b6001820191506137f1828661376a565b602082019150613801828561376a565b60208201915061381182846137be565b60148201915081905095945050505050565b7f4e487b7100000000000000000000000000000000000000000000000000000000600052601260045260246000fd5b600061385d8261256d565b91506138688361256d565b92508261387857613877613823565b5b828206905092915050565b7f4552433732313a20617070726f766520746f2063616c6c657200000000000000600082015250565b60006138b96019836124bd565b91506138c482613883565b602082019050919050565b600060208201905081810360008301526138e8816138ac565b9050919050565b7f4552433732313a207472616e7366657220746f206e6f6e20455243373231526560008201527f63656976657220696d706c656d656e7465720000000000000000000000000000602082015250565b600061394b6032836124bd565b9150613956826138ef565b604082019050919050565b6000602082019050818103600083015261397a8161393e565b9050919050565b600061398c8261256d565b91506139978361256d565b9250826139a7576139a6613823565b5b828204905092915050565b600081519050919050565b600082825260208201905092915050565b60006139d9826139b2565b6139e381856139bd565b93506139f38185602086016124ce565b6139fc81612501565b840191505092915050565b6000608082019050613a1c6000830187612602565b613a296020830186612602565b613a366040830185612805565b8181036060830152613a4881846139ce565b905095945050505050565b600081519050613a6281612423565b92915050565b600060208284031215613a7e57613a7d6123ed565b5b6000613a8c84828501613a53565b91505092915050565b7f4552433732313a206d696e7420746f20746865207a65726f2061646472657373600082015250565b6000613acb6020836124bd565b9150613ad682613a95565b602082019050919050565b60006020820190508181036000830152613afa81613abe565b9050919050565b7f4552433732313a20746f6b656e20616c7265616479206d696e74656400000000600082015250565b6000613b37601c836124bd565b9150613b4282613b01565b602082019050919050565b60006020820190508181036000830152613b6681613b2a565b905091905056fea2646970667358221220ac41d8d36be40995d46539ececf5530962705c7b7ee736ca299bb424422e6db064736f6c634300080a0033",
  "immutableReferences": {},
  "source": "// SPDX-License-Identifier: MIT\r\npragma solidity 0.8.10;\r\n\r\nimport \"@openzeppelin/contracts/token/ERC721/ERC721.sol\";\r\nimport \"@openzeppelin/contracts/access/Ownable.sol\";\r\n\r\ncontract Token is ERC721, Ownable {\r\n\r\n    constructor() ERC721(\"NFTGAME\", \"NFTG\") {}\r\n\r\n    uint256 count = 0;\r\n\r\n    uint256 fee = 0.001 ether;\r\n\r\n    struct Caracter {\r\n        uint256 id;\r\n        uint256 dna;\r\n        uint8 level;\r\n        uint8 hp;\r\n        uint8 mana;\r\n        uint8 magicResistance;\r\n        uint8 attack;\r\n        uint8 armor;\r\n        uint8 speed;\r\n    }\r\n\r\n    Caracter[] public caracters;\r\n\r\n    function createCaracter() external payable {\r\n        require(msg.value == fee, \"Incorrect amount\");\r\n        uint8[] memory _attributes = _attributesDistribution();\r\n        caracters.push(Caracter(count, _generateRandomNumber(10**16, 1), 1, 100, _attributes[0], _attributes[1], _attributes[2], _attributes[3], _attributes[4]));\r\n        _safeMint(msg.sender, count);\r\n        count++;\r\n    }\r\n\r\n    function updateFee(uint256 _fee) external onlyOwner() {\r\n        fee = _fee;\r\n    }\r\n\r\n    function withdraw() external payable onlyOwner() {\r\n        payable(owner()).transfer(address(this).balance);\r\n    }\r\n\r\n    // Helpers\r\n    function _generateRandomNumber(uint256 _mod, uint8 num) internal view returns(uint256) {\r\n        return uint256(keccak256(abi.encodePacked(num, block.timestamp, block.difficulty, msg.sender))) % _mod;\r\n    }\r\n\r\n    function _attributesDistribution() public view returns(uint8[] memory) {\r\n        uint8[] memory _attributes = new uint8[](5);\r\n        for(uint8 i=0; i<5; i++) {\r\n            _attributes[i] = 3 + uint8(_generateRandomNumber(3, i)); // ide nft: la lose ou la win, tu obtiens 0 ou 10 points bonus\r\n        }\r\n        return _attributes;\r\n    }\r\n\r\n    // Getters\r\n    function getCaracterDetails(uint256 _id) external view returns(Caracter memory) {\r\n        return caracters[_id];\r\n    }\r\n    \r\n    function getAllCaracters() external view returns(Caracter[] memory) {\r\n        return caracters;\r\n    }\r\n}",
  "sourcePath": "D:\\TAF\\Alyra\\Projets\\tests_avant_projet_alyra\\contracts\\Token.sol",
  "compiler": {
    "name": "solc",
    "version": "0.8.10+commit.fc410830.Emscripten.clang"
  },
  "schemaVersion": "3.4.3",
  "updatedAt": "2021-12-13T17:31:16.091Z",
  "devdoc": {
    "kind": "dev",
    "methods": {
      "approve(address,uint256)": {
        "details": "See {IERC721-approve}."
      },
      "balanceOf(address)": {
        "details": "See {IERC721-balanceOf}."
      },
      "getApproved(uint256)": {
        "details": "See {IERC721-getApproved}."
      },
      "isApprovedForAll(address,address)": {
        "details": "See {IERC721-isApprovedForAll}."
      },
      "name()": {
        "details": "See {IERC721Metadata-name}."
      },
      "owner()": {
        "details": "Returns the address of the current owner."
      },
      "ownerOf(uint256)": {
        "details": "See {IERC721-ownerOf}."
      },
      "renounceOwnership()": {
        "details": "Leaves the contract without owner. It will not be possible to call `onlyOwner` functions anymore. Can only be called by the current owner. NOTE: Renouncing ownership will leave the contract without an owner, thereby removing any functionality that is only available to the owner."
      },
      "safeTransferFrom(address,address,uint256)": {
        "details": "See {IERC721-safeTransferFrom}."
      },
      "safeTransferFrom(address,address,uint256,bytes)": {
        "details": "See {IERC721-safeTransferFrom}."
      },
      "setApprovalForAll(address,bool)": {
        "details": "See {IERC721-setApprovalForAll}."
      },
      "supportsInterface(bytes4)": {
        "details": "See {IERC165-supportsInterface}."
      },
      "symbol()": {
        "details": "See {IERC721Metadata-symbol}."
      },
      "tokenURI(uint256)": {
        "details": "See {IERC721Metadata-tokenURI}."
      },
      "transferFrom(address,address,uint256)": {
        "details": "See {IERC721-transferFrom}."
      },
      "transferOwnership(address)": {
        "details": "Transfers ownership of the contract to a new account (`newOwner`). Can only be called by the current owner."
      }
    },
    "version": 1
  },
  "userdoc": {
    "kind": "user",
    "methods": {},
    "version": 1
  }
}