{
  "contractName": "Token",
  "abi": [
    {
      "inputs": [],
      "stateMutability": "nonpayable",
      "type": "constructor"
    },
    {
      "anonymous": false,
      "inputs": [
        {
          "indexed": true,
          "internalType": "address",
          "name": "owner",
          "type": "address"
        },
        {
          "indexed": true,
          "internalType": "address",
          "name": "approved",
          "type": "address"
        },
        {
          "indexed": true,
          "internalType": "uint256",
          "name": "tokenId",
          "type": "uint256"
        }
      ],
      "name": "Approval",
      "type": "event"
    },
    {
      "anonymous": false,
      "inputs": [
        {
          "indexed": true,
          "internalType": "address",
          "name": "owner",
          "type": "address"
        },
        {
          "indexed": true,
          "internalType": "address",
          "name": "operator",
          "type": "address"
        },
        {
          "indexed": false,
          "internalType": "bool",
          "name": "approved",
          "type": "bool"
        }
      ],
      "name": "ApprovalForAll",
      "type": "event"
    },
    {
      "anonymous": false,
      "inputs": [
        {
          "indexed": true,
          "internalType": "address",
          "name": "previousOwner",
          "type": "address"
        },
        {
          "indexed": true,
          "internalType": "address",
          "name": "newOwner",
          "type": "address"
        }
      ],
      "name": "OwnershipTransferred",
      "type": "event"
    },
    {
      "anonymous": false,
      "inputs": [
        {
          "indexed": true,
          "internalType": "address",
          "name": "from",
          "type": "address"
        },
        {
          "indexed": true,
          "internalType": "address",
          "name": "to",
          "type": "address"
        },
        {
          "indexed": true,
          "internalType": "uint256",
          "name": "tokenId",
          "type": "uint256"
        }
      ],
      "name": "Transfer",
      "type": "event"
    },
    {
      "inputs": [
        {
          "internalType": "address",
          "name": "to",
          "type": "address"
        },
        {
          "internalType": "uint256",
          "name": "tokenId",
          "type": "uint256"
        }
      ],
      "name": "approve",
      "outputs": [],
      "stateMutability": "nonpayable",
      "type": "function"
    },
    {
      "inputs": [
        {
          "internalType": "address",
          "name": "owner",
          "type": "address"
        }
      ],
      "name": "balanceOf",
      "outputs": [
        {
          "internalType": "uint256",
          "name": "",
          "type": "uint256"
        }
      ],
      "stateMutability": "view",
      "type": "function"
    },
    {
      "inputs": [
        {
          "internalType": "uint256",
          "name": "",
          "type": "uint256"
        }
      ],
      "name": "caracters",
      "outputs": [
        {
          "internalType": "uint256",
          "name": "id",
          "type": "uint256"
        },
        {
          "internalType": "uint256",
          "name": "dna",
          "type": "uint256"
        },
        {
          "internalType": "uint8",
          "name": "level",
          "type": "uint8"
        },
        {
          "internalType": "uint8",
          "name": "hp",
          "type": "uint8"
        },
        {
          "internalType": "uint8",
          "name": "mana",
          "type": "uint8"
        },
        {
          "internalType": "uint8",
          "name": "magicResistance",
          "type": "uint8"
        },
        {
          "internalType": "uint8",
          "name": "attack",
          "type": "uint8"
        },
        {
          "internalType": "uint8",
          "name": "armor",
          "type": "uint8"
        },
        {
          "internalType": "uint8",
          "name": "speed",
          "type": "uint8"
        }
      ],
      "stateMutability": "view",
      "type": "function"
    },
    {
      "inputs": [
        {
          "internalType": "uint256",
          "name": "tokenId",
          "type": "uint256"
        }
      ],
      "name": "getApproved",
      "outputs": [
        {
          "internalType": "address",
          "name": "",
          "type": "address"
        }
      ],
      "stateMutability": "view",
      "type": "function"
    },
    {
      "inputs": [
        {
          "internalType": "address",
          "name": "owner",
          "type": "address"
        },
        {
          "internalType": "address",
          "name": "operator",
          "type": "address"
        }
      ],
      "name": "isApprovedForAll",
      "outputs": [
        {
          "internalType": "bool",
          "name": "",
          "type": "bool"
        }
      ],
      "stateMutability": "view",
      "type": "function"
    },
    {
      "inputs": [],
      "name": "name",
      "outputs": [
        {
          "internalType": "string",
          "name": "",
          "type": "string"
        }
      ],
      "stateMutability": "view",
      "type": "function"
    },
    {
      "inputs": [],
      "name": "owner",
      "outputs": [
        {
          "internalType": "address",
          "name": "",
          "type": "address"
        }
      ],
      "stateMutability": "view",
      "type": "function"
    },
    {
      "inputs": [
        {
          "internalType": "uint256",
          "name": "tokenId",
          "type": "uint256"
        }
      ],
      "name": "ownerOf",
      "outputs": [
        {
          "internalType": "address",
          "name": "",
          "type": "address"
        }
      ],
      "stateMutability": "view",
      "type": "function"
    },
    {
      "inputs": [],
      "name": "renounceOwnership",
      "outputs": [],
      "stateMutability": "nonpayable",
      "type": "function"
    },
    {
      "inputs": [
        {
          "internalType": "address",
          "name": "from",
          "type": "address"
        },
        {
          "internalType": "address",
          "name": "to",
          "type": "address"
        },
        {
          "internalType": "uint256",
          "name": "tokenId",
          "type": "uint256"
        }
      ],
      "name": "safeTransferFrom",
      "outputs": [],
      "stateMutability": "nonpayable",
      "type": "function"
    },
    {
      "inputs": [
        {
          "internalType": "address",
          "name": "from",
          "type": "address"
        },
        {
          "internalType": "address",
          "name": "to",
          "type": "address"
        },
        {
          "internalType": "uint256",
          "name": "tokenId",
          "type": "uint256"
        },
        {
          "internalType": "bytes",
          "name": "_data",
          "type": "bytes"
        }
      ],
      "name": "safeTransferFrom",
      "outputs": [],
      "stateMutability": "nonpayable",
      "type": "function"
    },
    {
      "inputs": [
        {
          "internalType": "address",
          "name": "operator",
          "type": "address"
        },
        {
          "internalType": "bool",
          "name": "approved",
          "type": "bool"
        }
      ],
      "name": "setApprovalForAll",
      "outputs": [],
      "stateMutability": "nonpayable",
      "type": "function"
    },
    {
      "inputs": [
        {
          "internalType": "bytes4",
          "name": "interfaceId",
          "type": "bytes4"
        }
      ],
      "name": "supportsInterface",
      "outputs": [
        {
          "internalType": "bool",
          "name": "",
          "type": "bool"
        }
      ],
      "stateMutability": "view",
      "type": "function"
    },
    {
      "inputs": [],
      "name": "symbol",
      "outputs": [
        {
          "internalType": "string",
          "name": "",
          "type": "string"
        }
      ],
      "stateMutability": "view",
      "type": "function"
    },
    {
      "inputs": [
        {
          "internalType": "uint256",
          "name": "tokenId",
          "type": "uint256"
        }
      ],
      "name": "tokenURI",
      "outputs": [
        {
          "internalType": "string",
          "name": "",
          "type": "string"
        }
      ],
      "stateMutability": "view",
      "type": "function"
    },
    {
      "inputs": [
        {
          "internalType": "address",
          "name": "from",
          "type": "address"
        },
        {
          "internalType": "address",
          "name": "to",
          "type": "address"
        },
        {
          "internalType": "uint256",
          "name": "tokenId",
          "type": "uint256"
        }
      ],
      "name": "transferFrom",
      "outputs": [],
      "stateMutability": "nonpayable",
      "type": "function"
    },
    {
      "inputs": [
        {
          "internalType": "address",
          "name": "newOwner",
          "type": "address"
        }
      ],
      "name": "transferOwnership",
      "outputs": [],
      "stateMutability": "nonpayable",
      "type": "function"
    },
    {
      "inputs": [],
      "name": "createCaracter",
      "outputs": [],
      "stateMutability": "payable",
      "type": "function"
    },
    {
      "inputs": [
        {
          "internalType": "uint256",
          "name": "_fee",
          "type": "uint256"
        }
      ],
      "name": "updateFee",
      "outputs": [],
      "stateMutability": "nonpayable",
      "type": "function"
    },
    {
      "inputs": [],
      "name": "withdraw",
      "outputs": [],
      "stateMutability": "payable",
      "type": "function"
    },
    {
      "inputs": [],
      "name": "_attributesDistribution",
      "outputs": [
        {
          "internalType": "uint8[]",
          "name": "",
          "type": "uint8[]"
        }
      ],
      "stateMutability": "view",
      "type": "function"
    },
    {
      "inputs": [
        {
          "internalType": "uint256",
          "name": "_id",
          "type": "uint256"
        }
      ],
      "name": "getCaracterDetails",
      "outputs": [
        {
          "components": [
            {
              "internalType": "uint256",
              "name": "id",
              "type": "uint256"
            },
            {
              "internalType": "uint256",
              "name": "dna",
              "type": "uint256"
            },
            {
              "internalType": "uint8",
              "name": "level",
              "type": "uint8"
            },
            {
              "internalType": "uint8",
              "name": "hp",
              "type": "uint8"
            },
            {
              "internalType": "uint8",
              "name": "mana",
              "type": "uint8"
            },
            {
              "internalType": "uint8",
              "name": "magicResistance",
              "type": "uint8"
            },
            {
              "internalType": "uint8",
              "name": "attack",
              "type": "uint8"
            },
            {
              "internalType": "uint8",
              "name": "armor",
              "type": "uint8"
            },
            {
              "internalType": "uint8",
              "name": "speed",
              "type": "uint8"
            }
          ],
          "internalType": "struct Token.Caracter",
          "name": "",
          "type": "tuple"
        }
      ],
      "stateMutability": "view",
      "type": "function"
    },
    {
      "inputs": [],
      "name": "getAllCaracters",
      "outputs": [
        {
          "components": [
            {
              "internalType": "uint256",
              "name": "id",
              "type": "uint256"
            },
            {
              "internalType": "uint256",
              "name": "dna",
              "type": "uint256"
            },
            {
              "internalType": "uint8",
              "name": "level",
              "type": "uint8"
            },
            {
              "internalType": "uint8",
              "name": "hp",
              "type": "uint8"
            },
            {
              "internalType": "uint8",
              "name": "mana",
              "type": "uint8"
            },
            {
              "internalType": "uint8",
              "name": "magicResistance",
              "type": "uint8"
            },
            {
              "internalType": "uint8",
              "name": "attack",
              "type": "uint8"
            },
            {
              "internalType": "uint8",
              "name": "armor",
              "type": "uint8"
            },
            {
              "internalType": "uint8",
              "name": "speed",
              "type": "uint8"
            }
          ],
          "internalType": "struct Token.Caracter[]",
          "name": "",
          "type": "tuple[]"
        }
      ],
      "stateMutability": "view",
      "type": "function"
    }
  ],
  "bytecode": "0x6080604052600060075566038d7ea4c680006008553480156200002157600080fd5b5060408051808201825260078152664e465447414d4560c81b6020808301918252835180850190945260048452634e46544760e01b9084015281519192916200006d91600091620000fc565b50805162000083906001906020840190620000fc565b505050620000a06200009a620000a660201b60201c565b620000aa565b620001df565b3390565b600680546001600160a01b038381166001600160a01b0319831681179093556040519116919082907f8be0079c531659141344cd1fd0a4f28419497f9722a3daafe3b4186f6b6457e090600090a35050565b8280546200010a90620001a2565b90600052602060002090601f0160209004810192826200012e576000855562000179565b82601f106200014957805160ff191683800117855562000179565b8280016001018555821562000179579182015b82811115620001795782518255916020019190600101906200015c565b50620001879291506200018b565b5090565b5b808211156200018757600081556001016200018c565b600181811c90821680620001b757607f821691505b60208210811415620001d957634e487b7160e01b600052602260045260246000fd5b50919050565b611f0780620001ef6000396000f3fe6080604052600436106101405760003560e01c80638da5cb5b116100b6578063bf9409711161006f578063bf94097114610383578063c87b56dd146103a5578063d658329d146103c5578063e5e63f4414610435578063e985e9c51461043d578063f2fde38b1461045d57600080fd5b80638da5cb5b146102c35780639012c4a8146102e157806395d89b4114610301578063a22cb46514610316578063a432185114610336578063b88d4fde1461036357600080fd5b80632e7007d4116101085780632e7007d4146102165780633ccfd60b1461023857806342842e0e146102405780636352211e1461026057806370a0823114610280578063715018a6146102ae57600080fd5b806301ffc9a71461014557806306fdde031461017a578063081812fc1461019c578063095ea7b3146101d457806323b872dd146101f6575b600080fd5b34801561015157600080fd5b50610165610160366004611882565b61047d565b60405190151581526020015b60405180910390f35b34801561018657600080fd5b5061018f6104cf565b60405161017191906118f7565b3480156101a857600080fd5b506101bc6101b736600461190a565b610561565b6040516001600160a01b039091168152602001610171565b3480156101e057600080fd5b506101f46101ef36600461193f565b6105fb565b005b34801561020257600080fd5b506101f4610211366004611969565b610711565b34801561022257600080fd5b5061022b610742565b60405161017191906119a5565b6101f46107cd565b34801561024c57600080fd5b506101f461025b366004611969565b610833565b34801561026c57600080fd5b506101bc61027b36600461190a565b61084e565b34801561028c57600080fd5b506102a061029b3660046119ec565b6108c5565b604051908152602001610171565b3480156102ba57600080fd5b506101f461094c565b3480156102cf57600080fd5b506006546001600160a01b03166101bc565b3480156102ed57600080fd5b506101f46102fc36600461190a565b610982565b34801561030d57600080fd5b5061018f6109b1565b34801561032257600080fd5b506101f4610331366004611a07565b6109c0565b34801561034257600080fd5b5061035661035136600461190a565b6109cf565b6040516101719190611acb565b34801561036f57600080fd5b506101f461037e366004611af0565b610ac8565b34801561038f57600080fd5b50610398610b00565b6040516101719190611bcc565b3480156103b157600080fd5b5061018f6103c036600461190a565b610bd6565b3480156103d157600080fd5b506103e56103e036600461190a565b610cbe565b60408051998a5260208a019890985260ff9687169789019790975293851660608801529184166080870152831660a0860152821660c0850152811660e08401521661010082015261012001610171565b6101f4610d30565b34801561044957600080fd5b50610165610458366004611c0f565b610f7c565b34801561046957600080fd5b506101f46104783660046119ec565b610faa565b60006001600160e01b031982166380ac58cd60e01b14806104ae57506001600160e01b03198216635b5e139f60e01b145b806104c957506301ffc9a760e01b6001600160e01b03198316145b92915050565b6060600080546104de90611c42565b80601f016020809104026020016040519081016040528092919081815260200182805461050a90611c42565b80156105575780601f1061052c57610100808354040283529160200191610557565b820191906000526020600020905b81548152906001019060200180831161053a57829003601f168201915b5050505050905090565b6000818152600260205260408120546001600160a01b03166105df5760405162461bcd60e51b815260206004820152602c60248201527f4552433732313a20617070726f76656420717565727920666f72206e6f6e657860448201526b34b9ba32b73a103a37b5b2b760a11b60648201526084015b60405180910390fd5b506000908152600460205260409020546001600160a01b031690565b60006106068261084e565b9050806001600160a01b0316836001600160a01b031614156106745760405162461bcd60e51b815260206004820152602160248201527f4552433732313a20617070726f76616c20746f2063757272656e74206f776e656044820152603960f91b60648201526084016105d6565b336001600160a01b038216148061069057506106908133610f7c565b6107025760405162461bcd60e51b815260206004820152603860248201527f4552433732313a20617070726f76652063616c6c6572206973206e6f74206f7760448201527f6e6572206e6f7220617070726f76656420666f7220616c6c000000000000000060648201526084016105d6565b61070c8383611042565b505050565b61071b33826110b0565b6107375760405162461bcd60e51b81526004016105d690611c77565b61070c838383611187565b60408051600580825260c08201909252606091600091906020820160a08036833701905050905060005b60058160ff1610156107c757610783600382611327565b61078e906003611cde565b828260ff16815181106107a3576107a3611d03565b60ff90921660209283029190910190910152806107bf81611d19565b91505061076c565b50919050565b6006546001600160a01b031633146107f75760405162461bcd60e51b81526004016105d690611d39565b6006546040516001600160a01b03909116904780156108fc02916000818181858888f19350505050158015610830573d6000803e3d6000fd5b50565b61070c83838360405180602001604052806000815250610ac8565b6000818152600260205260408120546001600160a01b0316806104c95760405162461bcd60e51b815260206004820152602960248201527f4552433732313a206f776e657220717565727920666f72206e6f6e657869737460448201526832b73a103a37b5b2b760b91b60648201526084016105d6565b60006001600160a01b0382166109305760405162461bcd60e51b815260206004820152602a60248201527f4552433732313a2062616c616e636520717565727920666f7220746865207a65604482015269726f206164647265737360b01b60648201526084016105d6565b506001600160a01b031660009081526003602052604090205490565b6006546001600160a01b031633146109765760405162461bcd60e51b81526004016105d690611d39565b610980600061138d565b565b6006546001600160a01b031633146109ac5760405162461bcd60e51b81526004016105d690611d39565b600855565b6060600180546104de90611c42565b6109cb3383836113df565b5050565b6040805161012081018252600080825260208201819052918101829052606081018290526080810182905260a0810182905260c0810182905260e0810182905261010081019190915260098281548110610a2b57610a2b611d03565b6000918252602091829020604080516101208101825260039093029091018054835260018101549383019390935260029092015460ff80821693830193909352610100808204841660608401526201000082048416608084015263010000008204841660a08401526401000000008204841660c0840152600160281b8204841660e0840152600160301b9091049092169181019190915292915050565b610ad233836110b0565b610aee5760405162461bcd60e51b81526004016105d690611c77565b610afa848484846114ae565b50505050565b60606009805480602002602001604051908101604052809291908181526020016000905b82821015610bcd576000848152602090819020604080516101208101825260038602909201805483526001808201548486015260029091015460ff80821693850193909352610100808204841660608601526201000082048416608086015263010000008204841660a08601526401000000008204841660c0860152600160281b8204841660e0860152600160301b909104909216918301919091529083529092019101610b24565b50505050905090565b6000818152600260205260409020546060906001600160a01b0316610c555760405162461bcd60e51b815260206004820152602f60248201527f4552433732314d657461646174613a2055524920717565727920666f72206e6f60448201526e3732bc34b9ba32b73a103a37b5b2b760891b60648201526084016105d6565b6000610c6c60408051602081019091526000815290565b90506000815111610c8c5760405180602001604052806000815250610cb7565b80610c96846114e1565b604051602001610ca7929190611d6e565b6040516020818303038152906040525b9392505050565b60098181548110610cce57600080fd5b600091825260209091206003909102018054600182015460029092015490925060ff808216916101008104821691620100008204811691630100000081048216916401000000008204811691600160281b8104821691600160301b9091041689565b6008543414610d745760405162461bcd60e51b815260206004820152601060248201526f125b98dbdc9c9958dd08185b5bdd5b9d60821b60448201526064016105d6565b6000610d7e610742565b905060096040518061012001604052806007548152602001610da8662386f26fc100006001611327565b8152602001600160ff168152602001606460ff16815260200183600081518110610dd457610dd4611d03565b602002602001015160ff16815260200183600181518110610df757610df7611d03565b602002602001015160ff16815260200183600281518110610e1a57610e1a611d03565b602002602001015160ff16815260200183600381518110610e3d57610e3d611d03565b602002602001015160ff16815260200183600481518110610e6057610e60611d03565b60209081029190910181015160ff908116909252835460018181018655600095865294829020845160039092020190815590830151938101939093556040820151600290930180546060840151608085015160a086015160c087015160e0880151610100988901518816600160301b0266ff00000000000019918916600160281b0265ff000000000019938a16640100000000029390931665ffff0000000019948a1663010000000263ff00000019968b1662010000029690961663ffff000019978b16909b0261ffff199098169b9099169a909a179590951793909316969096171794909416929092179290921716919091179055600754610f649033906115df565b60078054906000610f7483611d9d565b919050555050565b6001600160a01b03918216600090815260056020908152604080832093909416825291909152205460ff1690565b6006546001600160a01b03163314610fd45760405162461bcd60e51b81526004016105d690611d39565b6001600160a01b0381166110395760405162461bcd60e51b815260206004820152602660248201527f4f776e61626c653a206e6577206f776e657220697320746865207a65726f206160448201526564647265737360d01b60648201526084016105d6565b6108308161138d565b600081815260046020526040902080546001600160a01b0319166001600160a01b03841690811790915581906110778261084e565b6001600160a01b03167f8c5be1e5ebec7d5bd14f71427d1e84f3dd0314c0f7b2291e5b200ac8c7c3b92560405160405180910390a45050565b6000818152600260205260408120546001600160a01b03166111295760405162461bcd60e51b815260206004820152602c60248201527f4552433732313a206f70657261746f7220717565727920666f72206e6f6e657860448201526b34b9ba32b73a103a37b5b2b760a11b60648201526084016105d6565b60006111348361084e565b9050806001600160a01b0316846001600160a01b0316148061116f5750836001600160a01b031661116484610561565b6001600160a01b0316145b8061117f575061117f8185610f7c565b949350505050565b826001600160a01b031661119a8261084e565b6001600160a01b0316146112025760405162461bcd60e51b815260206004820152602960248201527f4552433732313a207472616e73666572206f6620746f6b656e2074686174206960448201526839903737ba1037bbb760b91b60648201526084016105d6565b6001600160a01b0382166112645760405162461bcd60e51b8152602060048201526024808201527f4552433732313a207472616e7366657220746f20746865207a65726f206164646044820152637265737360e01b60648201526084016105d6565b61126f600082611042565b6001600160a01b0383166000908152600360205260408120805460019290611298908490611db8565b90915550506001600160a01b03821660009081526003602052604081208054600192906112c6908490611dcf565b909155505060008181526002602052604080822080546001600160a01b0319166001600160a01b0386811691821790925591518493918716917fddf252ad1be2c89b69c2b068fc378daa952ba7f163c4a11628f55a4df523b3ef91a4505050565b6040516001600160f81b031960f883901b1660208201524260218201524460418201526bffffffffffffffffffffffff193360601b16606182015260009083906075016040516020818303038152906040528051906020012060001c610cb79190611dfd565b600680546001600160a01b038381166001600160a01b0319831681179093556040519116919082907f8be0079c531659141344cd1fd0a4f28419497f9722a3daafe3b4186f6b6457e090600090a35050565b816001600160a01b0316836001600160a01b031614156114415760405162461bcd60e51b815260206004820152601960248201527f4552433732313a20617070726f766520746f2063616c6c65720000000000000060448201526064016105d6565b6001600160a01b03838116600081815260056020908152604080832094871680845294825291829020805460ff191686151590811790915591519182527f17307eab39ab6107e8899845ad3d59bd9653f200f220920489ca2b5937696c31910160405180910390a3505050565b6114b9848484611187565b6114c5848484846115f9565b610afa5760405162461bcd60e51b81526004016105d690611e11565b6060816115055750506040805180820190915260018152600360fc1b602082015290565b8160005b811561152f578061151981611d9d565b91506115289050600a83611e63565b9150611509565b60008167ffffffffffffffff81111561154a5761154a611ada565b6040519080825280601f01601f191660200182016040528015611574576020820181803683370190505b5090505b841561117f57611589600183611db8565b9150611596600a86611dfd565b6115a1906030611dcf565b60f81b8183815181106115b6576115b6611d03565b60200101906001600160f81b031916908160001a9053506115d8600a86611e63565b9450611578565b6109cb8282604051806020016040528060008152506116f7565b60006001600160a01b0384163b156116ec57604051630a85bd0160e11b81526001600160a01b0385169063150b7a029061163d903390899088908890600401611e77565b6020604051808303816000875af1925050508015611678575060408051601f3d908101601f1916820190925261167591810190611eb4565b60015b6116d2573d8080156116a6576040519150601f19603f3d011682016040523d82523d6000602084013e6116ab565b606091505b5080516116ca5760405162461bcd60e51b81526004016105d690611e11565b805181602001fd5b6001600160e01b031916630a85bd0160e11b14905061117f565b506001949350505050565b611701838361172a565b61170e60008484846115f9565b61070c5760405162461bcd60e51b81526004016105d690611e11565b6001600160a01b0382166117805760405162461bcd60e51b815260206004820181905260248201527f4552433732313a206d696e7420746f20746865207a65726f206164647265737360448201526064016105d6565b6000818152600260205260409020546001600160a01b0316156117e55760405162461bcd60e51b815260206004820152601c60248201527f4552433732313a20746f6b656e20616c7265616479206d696e7465640000000060448201526064016105d6565b6001600160a01b038216600090815260036020526040812080546001929061180e908490611dcf565b909155505060008181526002602052604080822080546001600160a01b0319166001600160a01b03861690811790915590518392907fddf252ad1be2c89b69c2b068fc378daa952ba7f163c4a11628f55a4df523b3ef908290a45050565b6001600160e01b03198116811461083057600080fd5b60006020828403121561189457600080fd5b8135610cb78161186c565b60005b838110156118ba5781810151838201526020016118a2565b83811115610afa5750506000910152565b600081518084526118e381602086016020860161189f565b601f01601f19169290920160200192915050565b602081526000610cb760208301846118cb565b60006020828403121561191c57600080fd5b5035919050565b80356001600160a01b038116811461193a57600080fd5b919050565b6000806040838503121561195257600080fd5b61195b83611923565b946020939093013593505050565b60008060006060848603121561197e57600080fd5b61198784611923565b925061199560208501611923565b9150604084013590509250925092565b6020808252825182820181905260009190848201906040850190845b818110156119e057835160ff16835292840192918401916001016119c1565b50909695505050505050565b6000602082840312156119fe57600080fd5b610cb782611923565b60008060408385031215611a1a57600080fd5b611a2383611923565b915060208301358015158114611a3857600080fd5b809150509250929050565b805182526020810151602083015260ff604082015116604083015260ff606082015116606083015260ff608082015116608083015260a0810151611a8c60a084018260ff169052565b5060c0810151611aa160c084018260ff169052565b5060e0810151611ab660e084018260ff169052565b506101008181015160ff811684830152610afa565b61012081016104c98284611a43565b634e487b7160e01b600052604160045260246000fd5b60008060008060808587031215611b0657600080fd5b611b0f85611923565b9350611b1d60208601611923565b925060408501359150606085013567ffffffffffffffff80821115611b4157600080fd5b818701915087601f830112611b5557600080fd5b813581811115611b6757611b67611ada565b604051601f8201601f19908116603f01168101908382118183101715611b8f57611b8f611ada565b816040528281528a6020848701011115611ba857600080fd5b82602086016020830137600060208483010152809550505050505092959194509250565b6020808252825182820181905260009190848201906040850190845b818110156119e057611bfb838551611a43565b928401926101209290920191600101611be8565b60008060408385031215611c2257600080fd5b611c2b83611923565b9150611c3960208401611923565b90509250929050565b600181811c90821680611c5657607f821691505b602082108114156107c757634e487b7160e01b600052602260045260246000fd5b60208082526031908201527f4552433732313a207472616e736665722063616c6c6572206973206e6f74206f6040820152701ddb995c881b9bdc88185c1c1c9bdd9959607a1b606082015260800190565b634e487b7160e01b600052601160045260246000fd5b600060ff821660ff84168060ff03821115611cfb57611cfb611cc8565b019392505050565b634e487b7160e01b600052603260045260246000fd5b600060ff821660ff811415611d3057611d30611cc8565b60010192915050565b6020808252818101527f4f776e61626c653a2063616c6c6572206973206e6f7420746865206f776e6572604082015260600190565b60008351611d8081846020880161189f565b835190830190611d9481836020880161189f565b01949350505050565b6000600019821415611db157611db1611cc8565b5060010190565b600082821015611dca57611dca611cc8565b500390565b60008219821115611de257611de2611cc8565b500190565b634e487b7160e01b600052601260045260246000fd5b600082611e0c57611e0c611de7565b500690565b60208082526032908201527f4552433732313a207472616e7366657220746f206e6f6e20455243373231526560408201527131b2b4bb32b91034b6b83632b6b2b73a32b960711b606082015260800190565b600082611e7257611e72611de7565b500490565b6001600160a01b0385811682528416602082015260408101839052608060608201819052600090611eaa908301846118cb565b9695505050505050565b600060208284031215611ec657600080fd5b8151610cb78161186c56fea2646970667358221220731616d96d140e8117bcdf55b5ba918c2807151fdd1afcb845dae995fdc8594364736f6c634300080a0033",
  "immutableReferences": {},
  "source": "// SPDX-License-Identifier: MIT\r\npragma solidity 0.8.10;\r\n\r\nimport \"@openzeppelin/contracts/token/ERC721/ERC721.sol\";\r\nimport \"@openzeppelin/contracts/access/Ownable.sol\";\r\n\r\ncontract Token is ERC721, Ownable {\r\n\r\n    constructor() ERC721(\"NFTGAME\", \"NFTG\") {}\r\n\r\n    uint256 count = 0;\r\n\r\n    uint256 fee = 0.001 ether;\r\n\r\n    struct Caracter {\r\n        uint256 id;\r\n        uint256 dna;\r\n        uint8 level;\r\n        uint8 hp;\r\n        uint8 mana;\r\n        uint8 magicResistance;\r\n        uint8 attack;\r\n        uint8 armor;\r\n        uint8 speed;\r\n    }\r\n\r\n    Caracter[] public caracters;\r\n\r\n    function createCaracter() external payable {\r\n        require(msg.value == fee, \"Incorrect amount\");\r\n        uint8[] memory _attributes = _attributesDistribution();\r\n        caracters.push(Caracter(count, _generateRandomNumber(10**16, 1), 1, 100, _attributes[0], _attributes[1], _attributes[2], _attributes[3], _attributes[4]));\r\n        _safeMint(msg.sender, count);\r\n        count++;\r\n    }\r\n\r\n    function updateFee(uint256 _fee) external onlyOwner() {\r\n        fee = _fee;\r\n    }\r\n\r\n    function withdraw() external payable onlyOwner() {\r\n        payable(owner()).transfer(address(this).balance);\r\n    }\r\n\r\n    // Helpers\r\n    function _generateRandomNumber(uint256 _mod, uint8 num) internal view returns(uint256) {\r\n        return uint256(keccak256(abi.encodePacked(num, block.timestamp, block.difficulty, msg.sender))) % _mod;\r\n    }\r\n\r\n    function _attributesDistribution() public view returns(uint8[] memory) {\r\n        uint8[] memory _attributes = new uint8[](5);\r\n        for(uint8 i=0; i<5; i++) {\r\n            _attributes[i] = 3 + uint8(_generateRandomNumber(3, i)); // ide nft: la lose ou la win, tu obtiens 0 ou 10 points bonus\r\n        }\r\n        return _attributes;\r\n    }\r\n\r\n    // Getters\r\n    function getCaracterDetails(uint256 _id) external view returns(Caracter memory) {\r\n        return caracters[_id];\r\n    }\r\n    \r\n    function getAllCaracters() external view returns(Caracter[] memory) {\r\n        return caracters;\r\n    }\r\n}",
  "sourcePath": "D:\\TAF\\Alyra\\Projets\\tentative_nft_game\\contracts\\Token.sol",
  "compiler": {
    "name": "solc",
    "version": "0.8.10+commit.fc410830.Emscripten.clang"
  },
  "schemaVersion": "3.4.3",
  "updatedAt": "2021-12-09T17:34:54.171Z",
  "devdoc": {
    "kind": "dev",
    "methods": {
      "approve(address,uint256)": {
        "details": "See {IERC721-approve}."
      },
      "balanceOf(address)": {
        "details": "See {IERC721-balanceOf}."
      },
      "getApproved(uint256)": {
        "details": "See {IERC721-getApproved}."
      },
      "isApprovedForAll(address,address)": {
        "details": "See {IERC721-isApprovedForAll}."
      },
      "name()": {
        "details": "See {IERC721Metadata-name}."
      },
      "owner()": {
        "details": "Returns the address of the current owner."
      },
      "ownerOf(uint256)": {
        "details": "See {IERC721-ownerOf}."
      },
      "renounceOwnership()": {
        "details": "Leaves the contract without owner. It will not be possible to call `onlyOwner` functions anymore. Can only be called by the current owner. NOTE: Renouncing ownership will leave the contract without an owner, thereby removing any functionality that is only available to the owner."
      },
      "safeTransferFrom(address,address,uint256)": {
        "details": "See {IERC721-safeTransferFrom}."
      },
      "safeTransferFrom(address,address,uint256,bytes)": {
        "details": "See {IERC721-safeTransferFrom}."
      },
      "setApprovalForAll(address,bool)": {
        "details": "See {IERC721-setApprovalForAll}."
      },
      "supportsInterface(bytes4)": {
        "details": "See {IERC165-supportsInterface}."
      },
      "symbol()": {
        "details": "See {IERC721Metadata-symbol}."
      },
      "tokenURI(uint256)": {
        "details": "See {IERC721Metadata-tokenURI}."
      },
      "transferFrom(address,address,uint256)": {
        "details": "See {IERC721-transferFrom}."
      },
      "transferOwnership(address)": {
        "details": "Transfers ownership of the contract to a new account (`newOwner`). Can only be called by the current owner."
      }
    },
    "version": 1
  },
  "userdoc": {
    "kind": "user",
    "methods": {},
    "version": 1
  }
}